{
  "_format": "hh-sol-artifact-1",
  "contractName": "OurPylon",
  "sourceName": "contracts/OurPylon.sol",
  "abi": [
    {
      "inputs": [],
      "stateMutability": "nonpayable",
      "type": "constructor"
    },
    {
      "anonymous": false,
      "inputs": [
        {
          "indexed": false,
          "internalType": "address",
          "name": "owner",
          "type": "address"
        }
      ],
      "name": "AddedOwner",
      "type": "event"
    },
    {
      "anonymous": false,
      "inputs": [
        {
          "indexed": false,
          "internalType": "address",
          "name": "operator",
          "type": "address"
        },
        {
          "indexed": false,
          "internalType": "address",
          "name": "from",
          "type": "address"
        },
        {
          "indexed": false,
          "internalType": "address",
          "name": "to",
          "type": "address"
        },
        {
          "indexed": false,
          "internalType": "uint256",
          "name": "amount",
          "type": "uint256"
        }
      ],
      "name": "ERC777Received",
      "type": "event"
    },
    {
      "anonymous": false,
      "inputs": [
        {
          "indexed": true,
          "internalType": "address",
          "name": "sender",
          "type": "address"
        },
        {
          "indexed": false,
          "internalType": "uint256",
          "name": "value",
          "type": "uint256"
        }
      ],
      "name": "ETHReceived",
      "type": "event"
    },
    {
      "anonymous": false,
      "inputs": [
        {
          "indexed": false,
          "internalType": "address",
          "name": "editionAddress",
          "type": "address"
        },
        {
          "indexed": false,
          "internalType": "string",
          "name": "name",
          "type": "string"
        },
        {
          "indexed": false,
          "internalType": "string",
          "name": "symbol",
          "type": "string"
        },
        {
          "indexed": false,
          "internalType": "string",
          "name": "description",
          "type": "string"
        },
        {
          "indexed": false,
          "internalType": "string",
          "name": "animationUrl",
          "type": "string"
        },
        {
          "indexed": false,
          "internalType": "string",
          "name": "imageUrl",
          "type": "string"
        },
        {
          "indexed": false,
          "internalType": "uint256",
          "name": "editionSize",
          "type": "uint256"
        },
        {
          "indexed": false,
          "internalType": "uint256",
          "name": "royaltyBPS",
          "type": "uint256"
        }
      ],
      "name": "EditionCreated",
      "type": "event"
    },
    {
      "anonymous": false,
      "inputs": [
        {
          "indexed": false,
          "internalType": "string",
          "name": "newName",
          "type": "string"
        }
      ],
      "name": "NameChanged",
      "type": "event"
    },
    {
      "anonymous": false,
      "inputs": [
        {
          "indexed": false,
          "internalType": "address",
          "name": "owner",
          "type": "address"
        }
      ],
      "name": "RemovedOwner",
      "type": "event"
    },
    {
      "anonymous": false,
      "inputs": [
        {
          "indexed": false,
          "internalType": "address[]",
          "name": "owners",
          "type": "address[]"
        }
      ],
      "name": "SplitSetup",
      "type": "event"
    },
    {
      "anonymous": false,
      "inputs": [
        {
          "indexed": false,
          "internalType": "address",
          "name": "token",
          "type": "address"
        },
        {
          "indexed": false,
          "internalType": "uint256",
          "name": "amount",
          "type": "uint256"
        }
      ],
      "name": "TransferERC20",
      "type": "event"
    },
    {
      "anonymous": false,
      "inputs": [
        {
          "indexed": false,
          "internalType": "address",
          "name": "account",
          "type": "address"
        },
        {
          "indexed": false,
          "internalType": "uint256",
          "name": "amount",
          "type": "uint256"
        },
        {
          "indexed": false,
          "internalType": "bool",
          "name": "success",
          "type": "bool"
        }
      ],
      "name": "TransferETH",
      "type": "event"
    },
    {
      "anonymous": false,
      "inputs": [
        {
          "indexed": false,
          "internalType": "uint256",
          "name": "currentWindow",
          "type": "uint256"
        },
        {
          "indexed": false,
          "internalType": "uint256",
          "name": "fundsAvailable",
          "type": "uint256"
        }
      ],
      "name": "WindowIncremented",
      "type": "event"
    },
    {
      "anonymous": false,
      "inputs": [
        {
          "indexed": false,
          "internalType": "uint256",
          "name": "tokenId",
          "type": "uint256"
        }
      ],
      "name": "ZNFTMinted",
      "type": "event"
    },
    {
      "inputs": [],
      "name": "MIRROR_CROWDFUND",
      "outputs": [
        {
          "internalType": "address",
          "name": "",
          "type": "address"
        }
      ],
      "stateMutability": "view",
      "type": "function"
    },
    {
      "inputs": [],
      "name": "PERCENTAGE_SCALE",
      "outputs": [
        {
          "internalType": "uint256",
          "name": "",
          "type": "uint256"
        }
      ],
      "stateMutability": "view",
      "type": "function"
    },
    {
      "inputs": [],
      "name": "WETH",
      "outputs": [
        {
          "internalType": "address",
          "name": "",
          "type": "address"
        }
      ],
      "stateMutability": "view",
      "type": "function"
    },
    {
      "inputs": [],
      "name": "ZORA_AH",
      "outputs": [
        {
          "internalType": "address",
          "name": "",
          "type": "address"
        }
      ],
      "stateMutability": "view",
      "type": "function"
    },
    {
      "inputs": [],
      "name": "ZORA_EDITIONS",
      "outputs": [
        {
          "internalType": "address",
          "name": "",
          "type": "address"
        }
      ],
      "stateMutability": "view",
      "type": "function"
    },
    {
      "inputs": [],
      "name": "ZORA_MARKET",
      "outputs": [
        {
          "internalType": "address",
          "name": "",
          "type": "address"
        }
      ],
      "stateMutability": "view",
      "type": "function"
    },
    {
      "inputs": [],
      "name": "ZORA_MEDIA",
      "outputs": [
        {
          "internalType": "address",
          "name": "",
          "type": "address"
        }
      ],
      "stateMutability": "view",
      "type": "function"
    },
    {
      "inputs": [
        {
          "internalType": "uint256",
          "name": "tokenId",
          "type": "uint256"
        },
        {
          "components": [
            {
              "internalType": "uint256",
              "name": "amount",
              "type": "uint256"
            },
            {
              "internalType": "address",
              "name": "currency",
              "type": "address"
            },
            {
              "internalType": "address",
              "name": "bidder",
              "type": "address"
            },
            {
              "internalType": "address",
              "name": "recipient",
              "type": "address"
            },
            {
              "components": [
                {
                  "internalType": "uint256",
                  "name": "value",
                  "type": "uint256"
                }
              ],
              "internalType": "struct IZora.D256",
              "name": "sellOnShare",
              "type": "tuple"
            }
          ],
          "internalType": "struct IZora.Bid",
          "name": "expectedBid",
          "type": "tuple"
        }
      ],
      "name": "acceptZMarketBid",
      "outputs": [],
      "stateMutability": "nonpayable",
      "type": "function"
    },
    {
      "inputs": [
        {
          "internalType": "address",
          "name": "owner",
          "type": "address"
        }
      ],
      "name": "addOwner",
      "outputs": [],
      "stateMutability": "nonpayable",
      "type": "function"
    },
    {
      "inputs": [
        {
          "internalType": "uint256",
          "name": "",
          "type": "uint256"
        }
      ],
      "name": "balanceForWindow",
      "outputs": [
        {
          "internalType": "uint256",
          "name": "",
          "type": "uint256"
        }
      ],
      "stateMutability": "view",
      "type": "function"
    },
    {
      "inputs": [
        {
          "internalType": "uint256",
          "name": "auctionId",
          "type": "uint256"
        }
      ],
      "name": "cancelZAuction",
      "outputs": [],
      "stateMutability": "nonpayable",
      "type": "function"
    },
    {
      "inputs": [
        {
          "internalType": "address",
          "name": "tokenAddress",
          "type": "address"
        },
        {
          "internalType": "address[]",
          "name": "accounts",
          "type": "address[]"
        },
        {
          "internalType": "uint256[]",
          "name": "allocations",
          "type": "uint256[]"
        },
        {
          "components": [
            {
              "internalType": "bytes32[]",
              "name": "merkleProof",
              "type": "bytes32[]"
            }
          ],
          "internalType": "struct OurSplitter.Proof[]",
          "name": "merkleProofs",
          "type": "tuple[]"
        }
      ],
      "name": "claimERC20ForAll",
      "outputs": [],
      "stateMutability": "nonpayable",
      "type": "function"
    },
    {
      "inputs": [
        {
          "internalType": "uint256",
          "name": "window",
          "type": "uint256"
        },
        {
          "internalType": "address",
          "name": "account",
          "type": "address"
        },
        {
          "internalType": "uint256",
          "name": "scaledPercentageAllocation",
          "type": "uint256"
        },
        {
          "internalType": "bytes32[]",
          "name": "merkleProof",
          "type": "bytes32[]"
        }
      ],
      "name": "claimETH",
      "outputs": [],
      "stateMutability": "nonpayable",
      "type": "function"
    },
    {
      "inputs": [
        {
          "internalType": "address",
          "name": "account",
          "type": "address"
        },
        {
          "internalType": "uint256",
          "name": "percentageAllocation",
          "type": "uint256"
        },
        {
          "internalType": "bytes32[]",
          "name": "merkleProof",
          "type": "bytes32[]"
        }
      ],
      "name": "claimETHForAllWindows",
      "outputs": [],
      "stateMutability": "nonpayable",
      "type": "function"
    },
    {
      "inputs": [
        {
          "internalType": "uint256",
          "name": "tokenId",
          "type": "uint256"
        },
        {
          "internalType": "address",
          "name": "tokenContract",
          "type": "address"
        },
        {
          "internalType": "uint256",
          "name": "duration",
          "type": "uint256"
        },
        {
          "internalType": "uint256",
          "name": "reservePrice",
          "type": "uint256"
        },
        {
          "internalType": "address payable",
          "name": "curator",
          "type": "address"
        },
        {
          "internalType": "uint8",
          "name": "curatorFeePercentage",
          "type": "uint8"
        },
        {
          "internalType": "address",
          "name": "auctionCurrency",
          "type": "address"
        }
      ],
      "name": "createZoraAuction",
      "outputs": [],
      "stateMutability": "nonpayable",
      "type": "function"
    },
    {
      "inputs": [
        {
          "internalType": "string",
          "name": "name",
          "type": "string"
        },
        {
          "internalType": "string",
          "name": "symbol",
          "type": "string"
        },
        {
          "internalType": "string",
          "name": "description",
          "type": "string"
        },
        {
          "internalType": "string",
          "name": "animationUrl",
          "type": "string"
        },
        {
          "internalType": "bytes32",
          "name": "animationHash",
          "type": "bytes32"
        },
        {
          "internalType": "string",
          "name": "imageUrl",
          "type": "string"
        },
        {
          "internalType": "bytes32",
          "name": "imageHash",
          "type": "bytes32"
        },
        {
          "internalType": "uint256",
          "name": "editionSize",
          "type": "uint256"
        },
        {
          "internalType": "uint256",
          "name": "royaltyBPS",
          "type": "uint256"
        },
        {
          "internalType": "uint256",
          "name": "salePrice",
          "type": "uint256"
        },
        {
          "internalType": "bool",
          "name": "publicMint",
          "type": "bool"
        }
      ],
      "name": "createZoraEdition",
      "outputs": [],
      "stateMutability": "nonpayable",
      "type": "function"
    },
    {
      "inputs": [],
      "name": "currentWindow",
      "outputs": [
        {
          "internalType": "uint256",
          "name": "",
          "type": "uint256"
        }
      ],
      "stateMutability": "view",
      "type": "function"
    },
    {
      "inputs": [
        {
          "internalType": "string",
          "name": "newName_",
          "type": "string"
        }
      ],
      "name": "editNickname",
      "outputs": [],
      "stateMutability": "nonpayable",
      "type": "function"
    },
    {
      "inputs": [],
      "name": "getOwners",
      "outputs": [
        {
          "internalType": "address[]",
          "name": "",
          "type": "address[]"
        }
      ],
      "stateMutability": "view",
      "type": "function"
    },
    {
      "inputs": [
        {
          "internalType": "address",
          "name": "account",
          "type": "address"
        },
        {
          "internalType": "uint256",
          "name": "percentageAllocation",
          "type": "uint256"
        },
        {
          "internalType": "bytes32[]",
          "name": "merkleProof",
          "type": "bytes32[]"
        }
      ],
      "name": "incrementThenClaimAll",
      "outputs": [],
      "stateMutability": "nonpayable",
      "type": "function"
    },
    {
      "inputs": [],
      "name": "incrementWindow",
      "outputs": [],
      "stateMutability": "nonpayable",
      "type": "function"
    },
    {
      "inputs": [
        {
          "internalType": "uint256",
          "name": "window",
          "type": "uint256"
        },
        {
          "internalType": "address",
          "name": "account",
          "type": "address"
        }
      ],
      "name": "isClaimed",
      "outputs": [
        {
          "internalType": "bool",
          "name": "",
          "type": "bool"
        }
      ],
      "stateMutability": "view",
      "type": "function"
    },
    {
      "inputs": [
        {
          "internalType": "address",
          "name": "owner",
          "type": "address"
        }
      ],
      "name": "isOwner",
      "outputs": [
        {
          "internalType": "bool",
          "name": "",
          "type": "bool"
        }
      ],
      "stateMutability": "view",
      "type": "function"
    },
    {
      "inputs": [],
      "name": "merkleRoot",
      "outputs": [
        {
          "internalType": "bytes32",
          "name": "",
          "type": "bytes32"
        }
      ],
      "stateMutability": "view",
      "type": "function"
    },
    {
      "inputs": [
        {
          "internalType": "address",
          "name": "editionAddress",
          "type": "address"
        },
        {
          "internalType": "address[]",
          "name": "recipients",
          "type": "address[]"
        }
      ],
      "name": "mintEditionsTo",
      "outputs": [],
      "stateMutability": "nonpayable",
      "type": "function"
    },
    {
      "inputs": [
        {
          "components": [
            {
              "internalType": "string",
              "name": "tokenURI",
              "type": "string"
            },
            {
              "internalType": "string",
              "name": "metadataURI",
              "type": "string"
            },
            {
              "internalType": "bytes32",
              "name": "contentHash",
              "type": "bytes32"
            },
            {
              "internalType": "bytes32",
              "name": "metadataHash",
              "type": "bytes32"
            }
          ],
          "internalType": "struct IZora.MediaData",
          "name": "mediaData",
          "type": "tuple"
        },
        {
          "components": [
            {
              "components": [
                {
                  "internalType": "uint256",
                  "name": "value",
                  "type": "uint256"
                }
              ],
              "internalType": "struct IZora.D256",
              "name": "prevOwner",
              "type": "tuple"
            },
            {
              "components": [
                {
                  "internalType": "uint256",
                  "name": "value",
                  "type": "uint256"
                }
              ],
              "internalType": "struct IZora.D256",
              "name": "creator",
              "type": "tuple"
            },
            {
              "components": [
                {
                  "internalType": "uint256",
                  "name": "value",
                  "type": "uint256"
                }
              ],
              "internalType": "struct IZora.D256",
              "name": "owner",
              "type": "tuple"
            }
          ],
          "internalType": "struct IZora.BidShares",
          "name": "bidShares",
          "type": "tuple"
        },
        {
          "internalType": "uint256",
          "name": "duration",
          "type": "uint256"
        },
        {
          "internalType": "uint256",
          "name": "reservePrice",
          "type": "uint256"
        }
      ],
      "name": "mintToAuctionForETH",
      "outputs": [],
      "stateMutability": "nonpayable",
      "type": "function"
    },
    {
      "inputs": [
        {
          "components": [
            {
              "internalType": "string",
              "name": "tokenURI",
              "type": "string"
            },
            {
              "internalType": "string",
              "name": "metadataURI",
              "type": "string"
            },
            {
              "internalType": "bytes32",
              "name": "contentHash",
              "type": "bytes32"
            },
            {
              "internalType": "bytes32",
              "name": "metadataHash",
              "type": "bytes32"
            }
          ],
          "internalType": "struct IZora.MediaData",
          "name": "mediaData",
          "type": "tuple"
        },
        {
          "components": [
            {
              "components": [
                {
                  "internalType": "uint256",
                  "name": "value",
                  "type": "uint256"
                }
              ],
              "internalType": "struct IZora.D256",
              "name": "prevOwner",
              "type": "tuple"
            },
            {
              "components": [
                {
                  "internalType": "uint256",
                  "name": "value",
                  "type": "uint256"
                }
              ],
              "internalType": "struct IZora.D256",
              "name": "creator",
              "type": "tuple"
            },
            {
              "components": [
                {
                  "internalType": "uint256",
                  "name": "value",
                  "type": "uint256"
                }
              ],
              "internalType": "struct IZora.D256",
              "name": "owner",
              "type": "tuple"
            }
          ],
          "internalType": "struct IZora.BidShares",
          "name": "bidShares",
          "type": "tuple"
        }
      ],
      "name": "mintZNFT",
      "outputs": [],
      "stateMutability": "nonpayable",
      "type": "function"
    },
    {
      "inputs": [
        {
          "internalType": "address",
          "name": "",
          "type": "address"
        },
        {
          "internalType": "address",
          "name": "",
          "type": "address"
        },
        {
          "internalType": "uint256[]",
          "name": "",
          "type": "uint256[]"
        },
        {
          "internalType": "uint256[]",
          "name": "",
          "type": "uint256[]"
        },
        {
          "internalType": "bytes",
          "name": "",
          "type": "bytes"
        }
      ],
      "name": "onERC1155BatchReceived",
      "outputs": [
        {
          "internalType": "bytes4",
          "name": "",
          "type": "bytes4"
        }
      ],
      "stateMutability": "pure",
      "type": "function"
    },
    {
      "inputs": [
        {
          "internalType": "address",
          "name": "",
          "type": "address"
        },
        {
          "internalType": "address",
          "name": "",
          "type": "address"
        },
        {
          "internalType": "uint256",
          "name": "",
          "type": "uint256"
        },
        {
          "internalType": "uint256",
          "name": "",
          "type": "uint256"
        },
        {
          "internalType": "bytes",
          "name": "",
          "type": "bytes"
        }
      ],
      "name": "onERC1155Received",
      "outputs": [
        {
          "internalType": "bytes4",
          "name": "",
          "type": "bytes4"
        }
      ],
      "stateMutability": "pure",
      "type": "function"
    },
    {
      "inputs": [
        {
          "internalType": "address",
          "name": "",
          "type": "address"
        },
        {
          "internalType": "address",
          "name": "",
          "type": "address"
        },
        {
          "internalType": "uint256",
          "name": "",
          "type": "uint256"
        },
        {
          "internalType": "bytes",
          "name": "",
          "type": "bytes"
        }
      ],
      "name": "onERC721Received",
      "outputs": [
        {
          "internalType": "bytes4",
          "name": "",
          "type": "bytes4"
        }
      ],
      "stateMutability": "pure",
      "type": "function"
    },
    {
      "inputs": [
        {
          "internalType": "address",
          "name": "prevOwner",
          "type": "address"
        },
        {
          "internalType": "address",
          "name": "owner",
          "type": "address"
        }
      ],
      "name": "removeOwner",
      "outputs": [],
      "stateMutability": "nonpayable",
      "type": "function"
    },
    {
      "inputs": [
        {
          "internalType": "uint256",
          "name": "tokenId",
          "type": "uint256"
        }
      ],
      "name": "removeZMarketAsk",
      "outputs": [],
      "stateMutability": "nonpayable",
      "type": "function"
    },
    {
      "inputs": [
        {
          "internalType": "uint256",
          "name": "amount",
          "type": "uint256"
        },
        {
          "internalType": "uint256",
          "name": "scaledPercent",
          "type": "uint256"
        }
      ],
      "name": "scaleAmountByPercentage",
      "outputs": [
        {
          "internalType": "uint256",
          "name": "scaledAmount",
          "type": "uint256"
        }
      ],
      "stateMutability": "pure",
      "type": "function"
    },
    {
      "inputs": [
        {
          "internalType": "address",
          "name": "editionAddress",
          "type": "address"
        },
        {
          "internalType": "address",
          "name": "minter",
          "type": "address"
        },
        {
          "internalType": "bool",
          "name": "allowed",
          "type": "bool"
        }
      ],
      "name": "setEditionMinter",
      "outputs": [],
      "stateMutability": "nonpayable",
      "type": "function"
    },
    {
      "inputs": [
        {
          "internalType": "address",
          "name": "editionAddress",
          "type": "address"
        },
        {
          "internalType": "uint256",
          "name": "salePrice",
          "type": "uint256"
        }
      ],
      "name": "setEditionPrice",
      "outputs": [],
      "stateMutability": "nonpayable",
      "type": "function"
    },
    {
      "inputs": [
        {
          "internalType": "uint256",
          "name": "auctionId",
          "type": "uint256"
        },
        {
          "internalType": "bool",
          "name": "approved",
          "type": "bool"
        }
      ],
      "name": "setZAuctionApproval",
      "outputs": [],
      "stateMutability": "nonpayable",
      "type": "function"
    },
    {
      "inputs": [
        {
          "internalType": "uint256",
          "name": "auctionId",
          "type": "uint256"
        },
        {
          "internalType": "uint256",
          "name": "reservePrice",
          "type": "uint256"
        }
      ],
      "name": "setZAuctionReservePrice",
      "outputs": [],
      "stateMutability": "nonpayable",
      "type": "function"
    },
    {
      "inputs": [
        {
          "internalType": "uint256",
          "name": "tokenId",
          "type": "uint256"
        },
        {
          "components": [
            {
              "internalType": "uint256",
              "name": "amount",
              "type": "uint256"
            },
            {
              "internalType": "address",
              "name": "currency",
              "type": "address"
            }
          ],
          "internalType": "struct IZora.Ask",
          "name": "ask",
          "type": "tuple"
        }
      ],
      "name": "setZMarketAsk",
      "outputs": [],
      "stateMutability": "nonpayable",
      "type": "function"
    },
    {
      "inputs": [
        {
          "internalType": "uint256",
          "name": "tokenId",
          "type": "uint256"
        },
        {
          "components": [
            {
              "components": [
                {
                  "internalType": "uint256",
                  "name": "value",
                  "type": "uint256"
                }
              ],
              "internalType": "struct IZora.D256",
              "name": "prevOwner",
              "type": "tuple"
            },
            {
              "components": [
                {
                  "internalType": "uint256",
                  "name": "value",
                  "type": "uint256"
                }
              ],
              "internalType": "struct IZora.D256",
              "name": "creator",
              "type": "tuple"
            },
            {
              "components": [
                {
                  "internalType": "uint256",
                  "name": "value",
                  "type": "uint256"
                }
              ],
              "internalType": "struct IZora.D256",
              "name": "owner",
              "type": "tuple"
            }
          ],
          "internalType": "struct IZora.BidShares",
          "name": "bidShares",
          "type": "tuple"
        }
      ],
      "name": "setZMarketBidShares",
      "outputs": [],
      "stateMutability": "nonpayable",
      "type": "function"
    },
    {
      "inputs": [
        {
          "internalType": "address[]",
          "name": "owners_",
          "type": "address[]"
        }
      ],
      "name": "setup",
      "outputs": [],
      "stateMutability": "nonpayable",
      "type": "function"
    },
    {
      "inputs": [
        {
          "internalType": "bytes4",
          "name": "interfaceId",
          "type": "bytes4"
        }
      ],
      "name": "supportsInterface",
      "outputs": [
        {
          "internalType": "bool",
          "name": "",
          "type": "bool"
        }
      ],
      "stateMutability": "pure",
      "type": "function"
    },
    {
      "inputs": [
        {
          "internalType": "address",
          "name": "prevOwner",
          "type": "address"
        },
        {
          "internalType": "address",
          "name": "oldOwner",
          "type": "address"
        },
        {
          "internalType": "address",
          "name": "newOwner",
          "type": "address"
        }
      ],
      "name": "swapOwner",
      "outputs": [],
      "stateMutability": "nonpayable",
      "type": "function"
    },
    {
      "inputs": [
        {
          "internalType": "address",
          "name": "operator",
          "type": "address"
        },
        {
          "internalType": "address",
          "name": "from",
          "type": "address"
        },
        {
          "internalType": "address",
          "name": "to",
          "type": "address"
        },
        {
          "internalType": "uint256",
          "name": "amount",
          "type": "uint256"
        },
        {
          "internalType": "bytes",
          "name": "",
          "type": "bytes"
        },
        {
          "internalType": "bytes",
          "name": "",
          "type": "bytes"
        }
      ],
      "name": "tokensReceived",
      "outputs": [],
      "stateMutability": "nonpayable",
      "type": "function"
    },
    {
      "inputs": [
        {
          "internalType": "address",
          "name": "tokenContract_",
          "type": "address"
        },
        {
          "internalType": "uint256",
          "name": "tokenId_",
          "type": "uint256"
        }
      ],
      "name": "untrustedBurnERC721",
      "outputs": [],
      "stateMutability": "nonpayable",
      "type": "function"
    },
    {
      "inputs": [
        {
          "internalType": "address",
          "name": "to",
          "type": "address"
        },
        {
          "internalType": "bytes",
          "name": "data",
          "type": "bytes"
        }
      ],
      "name": "untrustedExecuteTransaction",
      "outputs": [
        {
          "internalType": "bool",
          "name": "success",
          "type": "bool"
        }
      ],
      "stateMutability": "nonpayable",
      "type": "function"
    },
    {
      "inputs": [
        {
          "internalType": "address",
          "name": "tokenContract_",
          "type": "address"
        },
        {
          "internalType": "address",
          "name": "newOwner_",
          "type": "address"
        },
        {
          "internalType": "uint256",
          "name": "tokenId_",
          "type": "uint256"
        }
      ],
      "name": "untrustedSafeTransferERC721",
      "outputs": [],
      "stateMutability": "nonpayable",
      "type": "function"
    },
    {
      "inputs": [
        {
          "internalType": "address",
          "name": "tokenContract_",
          "type": "address"
        },
        {
          "internalType": "address",
          "name": "operator_",
          "type": "address"
        },
        {
          "internalType": "bool",
          "name": "approved_",
          "type": "bool"
        }
      ],
      "name": "untrustedSetApprovalERC721",
      "outputs": [],
      "stateMutability": "nonpayable",
      "type": "function"
    },
    {
      "inputs": [
        {
          "internalType": "address",
          "name": "editionAddress",
          "type": "address"
        },
        {
          "internalType": "string",
          "name": "imageUrl",
          "type": "string"
        },
        {
          "internalType": "string",
          "name": "animationUrl",
          "type": "string"
        }
      ],
      "name": "updateEditionURLs",
      "outputs": [],
      "stateMutability": "nonpayable",
      "type": "function"
    },
    {
      "inputs": [
        {
          "internalType": "uint256",
          "name": "tokenId",
          "type": "uint256"
        },
        {
          "internalType": "string",
          "name": "metadataURI",
          "type": "string"
        }
      ],
      "name": "updateZNFTMetadataURI",
      "outputs": [],
      "stateMutability": "nonpayable",
      "type": "function"
    },
    {
      "inputs": [
        {
          "internalType": "uint256",
          "name": "tokenId",
          "type": "uint256"
        },
        {
          "internalType": "string",
          "name": "tokenURI",
          "type": "string"
        }
      ],
      "name": "updateZNFTTokenURI",
      "outputs": [],
      "stateMutability": "nonpayable",
      "type": "function"
    },
    {
      "inputs": [
        {
          "internalType": "uint256",
          "name": "tokenId",
          "type": "uint256"
        },
        {
          "internalType": "string",
          "name": "tokenURI",
          "type": "string"
        },
        {
          "internalType": "string",
          "name": "metadataURI",
          "type": "string"
        }
      ],
      "name": "updateZNFTURIs",
      "outputs": [],
      "stateMutability": "nonpayable",
      "type": "function"
    },
    {
      "inputs": [
        {
          "internalType": "address",
          "name": "editionAddress",
          "type": "address"
        }
      ],
      "name": "withdrawEditionFunds",
      "outputs": [],
      "stateMutability": "nonpayable",
      "type": "function"
    },
    {
      "stateMutability": "payable",
      "type": "receive"
    }
  ],
  "bytecode": "0x608060405234801561001057600080fd5b506001600855613eaf806100256000396000f3fe6080604052600436106103015760003560e01c80639473e6a411610190578063d2ac178f116100dc578063e318b52b11610095578063f989c7781161006f578063f989c778146109e1578063fbe5ce0a14610a01578063fc0af5cb14610a21578063fe8dc13a14610a4157600080fd5b8063e318b52b14610974578063f23a6e6114610994578063f7075dac146109c157600080fd5b8063d2ac178f146108ac578063d2ef0795146108cc578063d3256714146108ec578063d9a1b96c1461090c578063debb73fe1461092c578063df875aeb1461094c57600080fd5b8063b1bc078111610149578063bd5b853b11610123578063bd5b853b1461082c578063c013bbb41461084c578063c3a3d9841461086c578063d13450ac1461088c57600080fd5b8063b1bc0781146107c7578063ba0bafb4146107e7578063bc197c81146107fd57600080fd5b80639473e6a4146106fd578063a0e67e2b1461071d578063a303c8a11461073f578063a4058df31461075f578063a76010461461077f578063ad5c46481461079f57600080fd5b80633f26479e1161024f57806379644aa31161020857806381e580d3116101e257806381e580d31461067557806386a77cc2146106955780638c68aa5e146106bd5780638ffb5c97146106dd57600080fd5b806379644aa31461060d578063797fa9671461062d5780637cf69c0a1461065557600080fd5b80633f26479e146105565780633fded6cd1461056d57806341fcd3bd1461058d57806342aa1990146105ad578063659fa47e146105cd5780637065cb48146105ed57600080fd5b80631cd93304116102bc5780632d0b322b116102965780632d0b322b146104d55780632eb4a7ab146104fd5780632f54bf6e14610521578063338b1d311461054157600080fd5b80631cd93304146104555780631fd309cc14610475578063228cfe17146104b557600080fd5b806223de291461035957806245a3ee1461037b57806301ffc9a71461039b578063055ec430146103d0578063150b7a02146103f0578063179f227a1461043557600080fd5b366103545734600560008282546103189190613d8a565b909155505060405134815233907fbfe611b001dfcd411432f7bf0d79b82b4b2ee81511edac123a3403c357fb972a9060200160405180910390a2005b600080fd5b34801561036557600080fd5b50610379610374366004612e94565b610a61565b005b34801561038757600080fd5b5061037961039636600461378a565b610ac2565b3480156103a757600080fd5b506103bb6103b63660046133ed565b610bac565b60405190151581526020015b60405180910390f35b3480156103dc57600080fd5b506103bb6103eb36600461323c565b610bfe565b3480156103fc57600080fd5b5061041c61040b366004613059565b630a85bd0160e11b95945050505050565b6040516001600160e01b031990911681526020016103c7565b34801561044157600080fd5b5061037961045036600461374e565b610c1e565b34801561046157600080fd5b50610379610470366004613142565b610c90565b34801561048157600080fd5b5061049d7338d43bede3aac0262fca248c7fca10cec35e3bcf81565b6040516001600160a01b0390911681526020016103c7565b3480156104c157600080fd5b506103796104d0366004613848565b610d1f565b3480156104e157600080fd5b5061049d73e7dd1252f50b3d845590da0c5eadd985049a03ce81565b34801561050957600080fd5b5061051360005481565b6040519081526020016103c7565b34801561052d57600080fd5b506103bb61053c366004612dda565b610d97565b34801561054d57600080fd5b50610379610dcf565b34801561056257600080fd5b50610513620f424081565b34801561057957600080fd5b5061037961058836600461330e565b610ecc565b34801561059957600080fd5b506103796105a83660046137ef565b610f02565b3480156105b957600080fd5b506103796105c836600461374e565b610f44565b3480156105d957600080fd5b506103796105e8366004613448565b610f88565b3480156105f957600080fd5b50610379610608366004612dda565b6111d5565b34801561061957600080fd5b50610379610628366004613601565b6112ee565b34801561063957600080fd5b5061049d73eac226b370d77f436b5780b4dd4a49e59e8bea3781565b34801561066157600080fd5b50610379610670366004612fda565b611360565b34801561068157600080fd5b50610513610690366004613601565b61139f565b3480156106a157600080fd5b5061049d7385e946e1bd35ec91044dc83a5ddab2b6a262ffa681565b3480156106c957600080fd5b506103796106d8366004612dda565b6113c0565b3480156106e957600080fd5b506105136106f8366004613870565b6113fb565b34801561070957600080fd5b50610379610718366004613194565b611426565b34801561072957600080fd5b50610732611839565b6040516103c791906139e0565b34801561074b57600080fd5b5061037961075a366004613339565b611945565b34801561076b57600080fd5b5061037961077a366004613825565b611a29565b34801561078b57600080fd5b5061037961079a366004612fda565b611a62565b3480156107ab57600080fd5b5061049d73c778417e063141139fce010982780140aa0cd5ab81565b3480156107d357600080fd5b506103796107e2366004613415565b611aa1565b3480156107f357600080fd5b5061051360015481565b34801561080957600080fd5b5061041c610818366004612f41565b63bc197c8160e01b98975050505050505050565b34801561083857600080fd5b50610379610847366004613392565b611ae7565b34801561085857600080fd5b50610379610867366004613870565b611b68565b34801561087857600080fd5b50610379610887366004613339565b611bb0565b34801561089857600080fd5b506103796108a7366004613019565b611bc4565b3480156108b857600080fd5b506103796108c73660046135a6565b611c08565b3480156108d857600080fd5b506103bb6108e7366004613631565b611d6b565b3480156108f857600080fd5b5061037961090736600461372a565b611d96565b34801561091857600080fd5b506103796109273660046136ab565b611ddf565b34801561093857600080fd5b50610379610947366004613655565b611e87565b34801561095857600080fd5b5061049d737c2668bd0d3c050703cecc956c11bd520c26f7d481565b34801561098057600080fd5b5061037961098f366004612e4a565b611fd6565b3480156109a057600080fd5b5061041c6109af3660046130c9565b63f23a6e6160e01b9695505050505050565b3480156109cd57600080fd5b506103796109dc36600461330e565b6121fe565b3480156109ed57600080fd5b506103796109fc36600461329c565b612234565b348015610a0d57600080fd5b50610379610a1c366004612e12565b61226b565b348015610a2d57600080fd5b50610379610a3c366004613601565b612359565b348015610a4d57600080fd5b50610379610a5c36600461355a565b61239a565b604080516001600160a01b03808b168252808a166020830152881691810191909152606081018690527f0fe6507bce457d6e175fa9bc1db1b817f39e37b1f5c91695fd1a62848bc433b7906080015b60405180910390a15050505050505050565b610acb33612445565b6040516318e97fd160e01b8152737c2668bd0d3c050703cecc956c11bd520c26f7d4906318e97fd190610b0690889088908890600401613bf1565b600060405180830381600087803b158015610b2057600080fd5b505af1158015610b34573d6000803e3d6000fd5b50506040516375682e7960e01b8152737c2668bd0d3c050703cecc956c11bd520c26f7d492506375682e799150610b7390889086908690600401613bf1565b600060405180830381600087803b158015610b8d57600080fd5b505af1158015610ba1573d6000803e3d6000fd5b505050505050505050565b60006001600160e01b03198216630271189760e51b1480610bdd57506001600160e01b03198216630a85bd0160e11b145b80610bf857506001600160e01b031982166301ffc9a760e01b145b92915050565b6000610c0933612445565b6000808351602085016000875af19392505050565b6040516375682e7960e01b8152737c2668bd0d3c050703cecc956c11bd520c26f7d4906375682e7990610c5990869086908690600401613bf1565b600060405180830381600087803b158015610c7357600080fd5b505af1158015610c87573d6000803e3d6000fd5b50505050505050565b610c9933612445565b604051630f6a934960e01b81526001600160a01b03841690630f6a934990610cc79085908590600401613992565b602060405180830381600087803b158015610ce157600080fd5b505af1158015610cf5573d6000803e3d6000fd5b505050506040513d601f19601f82011682018060405250810190610d199190613619565b50505050565b610d2833612445565b60405163ba33939960e01b81527385e946e1bd35ec91044dc83a5ddab2b6a262ffa69063ba33939990610d619085908590600401613c6c565b600060405180830381600087803b158015610d7b57600080fd5b505af1158015610d8f573d6000803e3d6000fd5b505050505050565b60006001600160a01b038216600114801590610bf85750506001600160a01b0390811660009081526006602052604090205416151590565b600060015460001415610de3575047610de8565b506005545b600060055580610e3f5760405162461bcd60e51b815260206004820152601e60248201527f4e6f206164646974696f6e616c2066756e647320666f722077696e646f77000060448201526064015b60405180910390fd5b600380546001818101835560009283527fc2575a0e9e593c00f959f8c92f12db2869c3395a3b0502d05e2516446f71f85b909101839055805490918291610e87908390613d8a565b909155505060015460408051918252602082018390527ff0840b82b46c1dc7df62cae652baa1b5588ce37b6a1236ed1dcf4caf34d738ac91015b60405180910390a150565b610ed533612445565b604051631919fed760e01b8152600481018290526001600160a01b03831690631919fed790602401610d61565b610f0b33612445565b60405163062f24b760e41b81527385e946e1bd35ec91044dc83a5ddab2b6a262ffa6906362f24b7090610d619085908590600401613c0b565b610f4d33612445565b6040516318e97fd160e01b8152737c2668bd0d3c050703cecc956c11bd520c26f7d4906318e97fd190610c5990869086908690600401613bf1565b610f9133612445565b604051630861804f60e11b81526000907338d43bede3aac0262fca248c7fca10cec35e3bcf906310c3009e90610fdb908f908f908f908f908f908f908f908f908f90600401613a77565b602060405180830381600087803b158015610ff557600080fd5b505af1158015611009573d6000803e3d6000fd5b505050506040513d601f19601f8201168201806040525081019061102d9190613619565b60405163ac52edfd60e01b8152600481018290529091506000907338d43bede3aac0262fca248c7fca10cec35e3bcf9063ac52edfd9060240160206040518083038186803b15801561107e57600080fd5b505afa158015611092573d6000803e3d6000fd5b505050506040513d601f19601f820116820180604052508101906110b69190612df6565b9050831561111957604051631919fed760e01b8152600481018590526001600160a01b03821690631919fed790602401600060405180830381600087803b15801561110057600080fd5b505af1158015611114573d6000803e3d6000fd5b505050505b8215611181576040516329ec16dd60e01b815260006004820152600160248201526001600160a01b038216906329ec16dd90604401600060405180830381600087803b15801561116857600080fd5b505af115801561117c573d6000803e3d6000fd5b505050505b7f0cd4e4e2e3c04cd0599276bba560d6bd9d53bc0f04666d59897f87465195990c818e8e8e8e8d8c8c6040516111be989796959493929190613905565b60405180910390a150505050505050505050505050565b6111de33612445565b6001600160a01b0381161580159061120057506001600160a01b038116600114155b801561121557506001600160a01b0381163014155b61121e57600080fd5b6001600160a01b03818116600090815260066020526040902054161561124357600080fd5b60066020527f3e5fec24aa4dc4e5aee2e025e51e1392c72a2500577559fae9665c6d52bd6a3180546001600160a01b038381166000818152604081208054939094166001600160a01b0319938416179093556001835283549091161790915560078054916112b083613e0f565b90915550506040516001600160a01b03821681527f9465fa0c962cc76958e6373a993326400c1c94f8be2fe3a952adfa7f60b2ea2690602001610ec1565b6112f733612445565b6040516328220f3560e01b8152600481018290527385e946e1bd35ec91044dc83a5ddab2b6a262ffa6906328220f35906024015b600060405180830381600087803b15801561134557600080fd5b505af1158015611359573d6000803e3d6000fd5b5050505050565b61136933612445565b6040516329ec16dd60e01b81526001600160a01b03838116600483015282151560248301528416906329ec16dd90604401610c59565b600381815481106113af57600080fd5b600091825260209091200154905081565b806001600160a01b0316633ccfd60b6040518163ffffffff1660e01b8152600401600060405180830381600087803b15801561134557600080fd5b600061140b620f42406064613dc2565b6114158385613dc2565b61141f9190613da2565b9392505050565b6115038282600081811061144a57634e487b7160e01b600052603260045260246000fd5b905060200281019061145c9190613d27565b6114669080613ce0565b808060200260200160405190810160405280939291908181526020018383602002808284376000920182905250805493506114fe92508b91508a90816114bc57634e487b7160e01b600052603260045260246000fd5b90506020020160208101906114d19190612dda565b888860008181106114f257634e487b7160e01b600052603260045260246000fd5b905060200201356124b5565b6124fd565b61154f5760405162461bcd60e51b815260206004820152601b60248201527f496e76616c69642070726f6f6620666f72204163636f756e74203000000000006044820152606401610e36565b6040516370a0823160e01b81523060048201526000906001600160a01b038916906370a082319060240160206040518083038186803b15801561159157600080fd5b505afa1580156115a5573d6000803e3d6000fd5b505050506040513d601f19601f820116820180604052508101906115c99190613619565b905060015b86811015611743576116a18484838181106115f957634e487b7160e01b600052603260045260246000fd5b905060200281019061160b9190613d27565b6116159080613ce0565b8080602002602001604051908101604052809392919081815260200183836020028082843760009201829052505492506114fe91508c90508b8681811061166c57634e487b7160e01b600052603260045260246000fd5b90506020020160208101906116819190612dda565b8a8a878181106114f257634e487b7160e01b600052603260045260246000fd5b6116bd5760405162461bcd60e51b8152600401610e3690613b04565b60006116ef838888858181106116e357634e487b7160e01b600052603260045260246000fd5b905060200201356113fb565b90506117308a8a8a8581811061171557634e487b7160e01b600052603260045260246000fd5b905060200201602081019061172a9190612dda565b836125ba565b508061173b81613e0f565b9150506115ce565b506117fa888888600081811061176957634e487b7160e01b600052603260045260246000fd5b905060200201602081019061177e9190612dda565b6040516370a0823160e01b81523060048201526001600160a01b038c16906370a082319060240160206040518083038186803b1580156117bd57600080fd5b505afa1580156117d1573d6000803e3d6000fd5b505050506040513d601f19601f820116820180604052508101906117f59190613619565b6125ba565b604080516001600160a01b038a168152602081018390527f73001563b3c2e14efd545d6f9a0740c1937da3aa8d4320550fcef35ddc9797449101610ab0565b606060006007546001600160401b0381111561186557634e487b7160e01b600052604160045260246000fd5b60405190808252806020026020018201604052801561188e578160200160208202803683370190505b506001600090815260066020527f3e5fec24aa4dc4e5aee2e025e51e1392c72a2500577559fae9665c6d52bd6a3154919250906001600160a01b03165b6001600160a01b03811660011461193d57808383815181106118fd57634e487b7160e01b600052603260045260246000fd5b6001600160a01b0392831660209182029290920181019190915291811660009081526006909252604090912054168161193581613e0f565b9250506118cb565b509092915050565b61198882828080602002602001604051908101604052809392919081815260200183836020028082843760009201829052505492506114fe9150889050876124b5565b6119a45760405162461bcd60e51b8152600401610e3690613b04565b6000805b600154811015611a1e576119bc8187611d6b565b611a0c576119ca818761264c565b6119ff600382815481106119ee57634e487b7160e01b600052603260045260246000fd5b9060005260206000200154866113fb565b611a099083613d8a565b91505b80611a1681613e0f565b9150506119a8565b50610d8f858261267f565b6040516375aab41d60e11b81527385e946e1bd35ec91044dc83a5ddab2b6a262ffa69063eb55683a90610d619085908590600401613c44565b611a6b33612445565b60405163a22cb46560e01b81526001600160a01b038381166004830152821515602483015284169063a22cb46590604401610c59565b611aaa33612445565b7f4737457377f528cc8afd815f73ecb8b05df80d047dbffc41c17750a4033592bc8282604051611adb929190613a2d565b60405180910390a15050565b611b238282808060200260200160405190810160405280939291908181526020018383602002808284376000920191909152506127e592505050565b7f0a3e60843660a2c8157626e29bab11712c170537d2696e07d0b9d5f537728d8f8282604051611b54929190613992565b60405180910390a1611b64612983565b5050565b611b7133612445565b604051636f8a41e160e01b8152600481018390526024810182905273e7dd1252f50b3d845590da0c5eadd985049a03ce90636f8a41e190604401610d61565b611bb8610dcf565b610d19848484846129fe565b611bcd33612445565b604051632142170760e11b81523060048201526001600160a01b038381166024830152604482018390528416906342842e0e90606401610c59565b611c1133612445565b604051632cca323760e01b8152737c2668bd0d3c050703cecc956c11bd520c26f7d490632cca323790611c4a9087908790600401613b2b565b600060405180830381600087803b158015611c6457600080fd5b505af1158015611c78573d6000803e3d6000fd5b505050506000611c86612ac6565b90507fcbcfc7992330c2e2b57e75fc9a0c9edb0c66341cf39d141a7c4df6e6da05651e81604051611cb991815260200190565b60405180910390a16040516375e9249f60e01b815273e7dd1252f50b3d845590da0c5eadd985049a03ce906375e9249f90611d19908490737c2668bd0d3c050703cecc956c11bd520c26f7d4908890889030906000908190600401613bb3565b602060405180830381600087803b158015611d3357600080fd5b505af1158015611d47573d6000803e3d6000fd5b505050506040513d601f19601f82011682018060405250810190610d8f9190613619565b600060046000611d7b8585612bf3565b815260208101919091526040016000205460ff169392505050565b611d9f33612445565b604051634b9eeda560e11b815260048101839052811515602482015273e7dd1252f50b3d845590da0c5eadd985049a03ce9063973ddb4a90604401610d61565b611de833612445565b6040516375e9249f60e01b815273e7dd1252f50b3d845590da0c5eadd985049a03ce906375e9249f90611e2b908a908a908a908a908a908a908a90600401613bb3565b602060405180830381600087803b158015611e4557600080fd5b505af1158015611e59573d6000803e3d6000fd5b505050506040513d601f19601f82011682018060405250810190611e7d9190613619565b5050505050505050565b8460015411611ed85760405162461bcd60e51b815260206004820181905260248201527f63616e6e6f7420636c61696d20666f722061206675747572652077696e646f776044820152606401610e36565b611ee28585611d6b565b15611f405760405162461bcd60e51b815260206004820152602860248201527f4163636f756e7420616c726561647920636c61696d65642074686520676976656044820152676e2077696e646f7760c01b6064820152608401610e36565b611f4a858561264c565b611f8d82828080602002602001604051908101604052809392919081815260200183836020028082843760009201829052505492506114fe9150889050876124b5565b611fa95760405162461bcd60e51b8152600401610e3690613b04565b610d8f84611fd1600388815481106119ee57634e487b7160e01b600052603260045260246000fd5b61267f565b611fdf33612445565b6001600160a01b0381161580159061200157506001600160a01b038116600114155b801561201657506001600160a01b0381163014155b6120465760405162461bcd60e51b81526020600482015260016024820152601960f91b6044820152606401610e36565b6001600160a01b0381811660009081526006602052604090205416156120925760405162461bcd60e51b81526020600482015260016024820152603360f81b6044820152606401610e36565b6001600160a01b038216158015906120b457506001600160a01b038216600114155b6120e45760405162461bcd60e51b81526020600482015260016024820152600d60fa1b6044820152606401610e36565b6001600160a01b038381166000908152600660205260409020548116908316146121345760405162461bcd60e51b81526020600482015260016024820152603560f81b6044820152606401610e36565b6001600160a01b038281166000818152600660209081526040808320805487871680865283862080549289166001600160a01b0319938416179055968a1685528285208054821690971790965592849052825490941690915591519081527ff8d49fc529812e9a7c5c50e69c20f0dccc0db8fa95c98bc58cc9a4f1c1299eaf910160405180910390a16040516001600160a01b03821681527f9465fa0c962cc76958e6373a993326400c1c94f8be2fe3a952adfa7f60b2ea269060200160405180910390a1505050565b61220733612445565b604051630852cd8d60e31b8152600481018290526001600160a01b038316906342966c6890602401610d61565b61223d33612445565b6040516339112ff360e21b81526001600160a01b0384169063e444bfcc90610c599085908590600401613a49565b61227433612445565b6001600160a01b0381161580159061229657506001600160a01b038116600114155b61229f57600080fd5b6001600160a01b038281166000908152600660205260409020548116908216146122c857600080fd5b6001600160a01b03818116600081815260066020526040808220805487861684529183208054929095166001600160a01b0319928316179094559181528254909116909155600780549161231b83613df8565b90915550506040516001600160a01b03821681527ff8d49fc529812e9a7c5c50e69c20f0dccc0db8fa95c98bc58cc9a4f1c1299eaf90602001611adb565b61236233612445565b6040516396b5a75560e01b81526004810182905273e7dd1252f50b3d845590da0c5eadd985049a03ce906396b5a7559060240161132b565b6123a333612445565b604051632cca323760e01b8152737c2668bd0d3c050703cecc956c11bd520c26f7d490632cca3237906123dc9085908590600401613b2b565b600060405180830381600087803b1580156123f657600080fd5b505af115801561240a573d6000803e3d6000fd5b505050507fcbcfc7992330c2e2b57e75fc9a0c9edb0c66341cf39d141a7c4df6e6da05651e612437612ac6565b604051908152602001611adb565b61244e81610d97565b6124b25760405162461bcd60e51b815260206004820152602f60248201527f43616c6c6572206973206e6f7420612077686974656c6973746564206f776e6560448201526e1c881bd9881d1a1a5cc814dc1b1a5d608a1b6064820152608401610e36565b50565b6040516bffffffffffffffffffffffff19606084901b166020820152603481018290526000906054015b60405160208183030381529060405280519060200120905092915050565b600081815b85518110156125af57600086828151811061252d57634e487b7160e01b600052603260045260246000fd5b6020026020010151905080831161256f57604080516020810185905290810182905260600160405160208183030381529060405280519060200120925061259c565b60408051602081018390529081018490526060016040516020818303038152906040528051906020012092505b50806125a781613e0f565b915050612502565b509092149392505050565b60405163a9059cbb60e01b81526001600160a01b038381166004830152602482018390526000919085169063a9059cbb90604401602060405180830381600087803b15801561260857600080fd5b505af115801561261c573d6000803e3d6000fd5b505050506040513d601f19601f8201168201806040525081019061264091906133d1565b905080610d1957600080fd5b60016004600061265c8585612bf3565b81526020810191909152604001600020805460ff19169115159190911790555050565b600061268b8383612c23565b9050806127955773c778417e063141139fce010982780140aa0cd5ab6001600160a01b031663d0e30db0836040518263ffffffff1660e01b81526004016000604051808303818588803b1580156126e157600080fd5b505af11580156126f5573d6000803e3d6000fd5b505060405163a9059cbb60e01b81526001600160a01b03871660048201526024810186905273c778417e063141139fce010982780140aa0cd5ab935063a9059cbb92506044019050602060405180830381600087803b15801561275757600080fd5b505af115801561276b573d6000803e3d6000fd5b505050506040513d601f19601f8201168201806040525081019061278f91906133d1565b50600190505b604080516001600160a01b0385168152602081018490528215158183015290517fdbd5389f52533f4cbd998e752125a5a4eaa0b813b399ad15f775ec0e8438620d9181900360600190a192915050565b600854156128445760405162461bcd60e51b815260206004820152602660248201527f53657475702068617320616c7265616479206265656e20636f6d706c657465646044820152651037b731b29760d11b6064820152608401610e36565b600160005b825181101561294d57600083828151811061287457634e487b7160e01b600052603260045260246000fd5b6020026020010151905060006001600160a01b0316816001600160a01b0316141580156128ab57506001600160a01b038116600114155b80156128c057506001600160a01b0381163014155b80156128de5750806001600160a01b0316836001600160a01b031614155b6128e757600080fd5b6001600160a01b03818116600090815260066020526040902054161561290c57600080fd5b6001600160a01b03928316600090815260066020526040902080546001600160a01b031916938216939093179092558061294581613e0f565b915050612849565b506001600160a01b0316600090815260066020526040902080546001600160a01b03191660019081179091559051600755600855565b60405163a22cb46560e01b815273e7dd1252f50b3d845590da0c5eadd985049a03ce600482015260016024820152737c2668bd0d3c050703cecc956c11bd520c26f7d49063a22cb46590604401600060405180830381600087803b1580156129ea57600080fd5b505af1158015610d19573d6000803e3d6000fd5b612a4182828080602002602001604051908101604052809392919081815260200183836020028082843760009201829052505492506114fe9150889050876124b5565b612a5d5760405162461bcd60e51b8152600401610e3690613b04565b6000805b600154811015611a1e57612a758187611d6b565b612ab457612a83818761264c565b612aa7600382815481106119ee57634e487b7160e01b600052603260045260246000fd5b612ab19083613d8a565b91505b80612abe81613e0f565b915050612a61565b6000737c2668bd0d3c050703cecc956c11bd520c26f7d46001600160a01b0316634f6ccce76001737c2668bd0d3c050703cecc956c11bd520c26f7d46001600160a01b03166318160ddd6040518163ffffffff1660e01b8152600401602060405180830381600087803b158015612b3c57600080fd5b505af1158015612b50573d6000803e3d6000fd5b505050506040513d601f19601f82011682018060405250810190612b749190613619565b612b7e9190613de1565b6040518263ffffffff1660e01b8152600401612b9c91815260200190565b602060405180830381600087803b158015612bb657600080fd5b505af1158015612bca573d6000803e3d6000fd5b505050506040513d601f19601f82011682018060405250810190612bee9190613619565b905090565b600082826040516020016124df92919091825260601b6bffffffffffffffffffffffff1916602082015260340190565b600080836001600160a01b03168361753090604051600060405180830381858888f193505050503d8060008114612c76576040519150601f19603f3d011682016040523d82523d6000602084013e612c7b565b606091505b509095945050505050565b60006001600160401b0380841115612ca057612ca0613e40565b604051601f8501601f19908116603f01168101908282118183101715612cc857612cc8613e40565b81604052809350858152868686011115612ce157600080fd5b858560208301376000602087830101525050509392505050565b60008083601f840112612d0c578182fd5b5081356001600160401b03811115612d22578182fd5b6020830191508360208260051b8501011115612d3d57600080fd5b9250929050565b8035612d4f81613e6b565b919050565b60008083601f840112612d65578182fd5b5081356001600160401b03811115612d7b578182fd5b602083019150836020828501011115612d3d57600080fd5b600082601f830112612da3578081fd5b61141f83833560208501612c86565b600060608284031215612dc3578081fd5b50919050565b600060808284031215612dc3578081fd5b600060208284031215612deb578081fd5b813561141f81613e56565b600060208284031215612e07578081fd5b815161141f81613e56565b60008060408385031215612e24578081fd5b8235612e2f81613e56565b91506020830135612e3f81613e56565b809150509250929050565b600080600060608486031215612e5e578081fd5b8335612e6981613e56565b92506020840135612e7981613e56565b91506040840135612e8981613e56565b809150509250925092565b60008060008060008060008060c0898b031215612eaf578384fd5b8835612eba81613e56565b97506020890135612eca81613e56565b96506040890135612eda81613e56565b95506060890135945060808901356001600160401b0380821115612efc578586fd5b612f088c838d01612d54565b909650945060a08b0135915080821115612f20578384fd5b50612f2d8b828c01612d54565b999c989b5096995094979396929594505050565b60008060008060008060008060a0898b031215612f5c578182fd5b8835612f6781613e56565b97506020890135612f7781613e56565b965060408901356001600160401b0380821115612f92578384fd5b612f9e8c838d01612cfb565b909850965060608b0135915080821115612fb6578384fd5b612fc28c838d01612cfb565b909650945060808b0135915080821115612f20578384fd5b600080600060608486031215612fee578081fd5b8335612ff981613e56565b9250602084013561300981613e56565b91506040840135612e8981613e6b565b60008060006060848603121561302d578081fd5b833561303881613e56565b9250602084013561304881613e56565b929592945050506040919091013590565b600080600080600060808688031215613070578283fd5b853561307b81613e56565b9450602086013561308b81613e56565b93506040860135925060608601356001600160401b038111156130ac578182fd5b6130b888828901612d54565b969995985093965092949392505050565b60008060008060008060a087890312156130e1578384fd5b86356130ec81613e56565b955060208701356130fc81613e56565b9450604087013593506060870135925060808701356001600160401b03811115613124578283fd5b61313089828a01612d54565b979a9699509497509295939492505050565b600080600060408486031215613156578081fd5b833561316181613e56565b925060208401356001600160401b0381111561317b578182fd5b61318786828701612cfb565b9497909650939450505050565b60008060008060008060006080888a0312156131ae578081fd5b87356131b981613e56565b965060208801356001600160401b03808211156131d4578283fd5b6131e08b838c01612cfb565b909850965060408a01359150808211156131f8578283fd5b6132048b838c01612cfb565b909650945060608a013591508082111561321c578283fd5b506132298a828b01612cfb565b989b979a50959850939692959293505050565b6000806040838503121561324e578182fd5b823561325981613e56565b915060208301356001600160401b03811115613273578182fd5b8301601f81018513613283578182fd5b61329285823560208401612c86565b9150509250929050565b6000806000606084860312156132b0578081fd5b83356132bb81613e56565b925060208401356001600160401b03808211156132d6578283fd5b6132e287838801612d93565b935060408601359150808211156132f7578283fd5b5061330486828701612d93565b9150509250925092565b60008060408385031215613320578182fd5b823561332b81613e56565b946020939093013593505050565b6000806000806060858703121561334e578182fd5b843561335981613e56565b93506020850135925060408501356001600160401b0381111561337a578283fd5b61338687828801612cfb565b95989497509550505050565b600080602083850312156133a4578182fd5b82356001600160401b038111156133b9578283fd5b6133c585828601612cfb565b90969095509350505050565b6000602082840312156133e2578081fd5b815161141f81613e6b565b6000602082840312156133fe578081fd5b81356001600160e01b03198116811461141f578182fd5b60008060208385031215613427578182fd5b82356001600160401b0381111561343c578283fd5b6133c585828601612d54565b60008060008060008060008060008060006101608c8e031215613469578485fd5b6001600160401b03808d35111561347e578586fd5b61348b8e8e358f01612d93565b9b508060208e0135111561349d578586fd5b6134ad8e60208f01358f01612d93565b9a508060408e013511156134bf578586fd5b6134cf8e60408f01358f01612d93565b99508060608e013511156134e1578586fd5b6134f18e60608f01358f01612d93565b985060808d013597508060a08e0135111561350a578586fd5b5061351b8d60a08e01358e01612d93565b955060c08c0135945060e08c013593506101008c013592506101208c013591506135486101408d01612d44565b90509295989b509295989b9093969950565b6000806080838503121561356c578182fd5b82356001600160401b03811115613581578283fd5b61358d85828601612dc9565b92505061359d8460208501612db2565b90509250929050565b60008060008060c085870312156135bb578182fd5b84356001600160401b038111156135d0578283fd5b6135dc87828801612dc9565b9450506135ec8660208701612db2565b939693955050505060808201359160a0013590565b600060208284031215613612578081fd5b5035919050565b60006020828403121561362a578081fd5b5051919050565b60008060408385031215613643578182fd5b823591506020830135612e3f81613e56565b60008060008060006080868803121561366c578283fd5b85359450602086013561367e81613e56565b93506040860135925060608601356001600160401b0381111561369f578182fd5b6130b888828901612cfb565b600080600080600080600060e0888a0312156136c5578081fd5b8735965060208801356136d781613e56565b9550604088013594506060880135935060808801356136f581613e56565b925060a088013560ff8116811461370a578182fd5b915060c088013561371a81613e56565b8091505092959891949750929550565b6000806040838503121561373c578182fd5b823591506020830135612e3f81613e6b565b600080600060408486031215613762578081fd5b8335925060208401356001600160401b0381111561377e578182fd5b61318786828701612d54565b6000806000806000606086880312156137a1578283fd5b8535945060208601356001600160401b03808211156137be578485fd5b6137ca89838a01612d54565b909650945060408801359150808211156137e2578283fd5b506130b888828901612d54565b6000808284036060811215613802578283fd5b833592506040601f1982011215613817578182fd5b506020830190509250929050565b60008060808385031215613837578182fd5b8235915061359d8460208501612db2565b60008082840360c081121561385b578283fd5b8335925060a0601f1982011215613817578182fd5b60008060408385031215613882578182fd5b50508035926020909101359150565b81835281816020850137506000828201602090810191909152601f909101601f19169091010190565b60008151808452815b818110156138df576020818501810151868301820152016138c3565b818111156138f05782602083870101525b50601f01601f19169290920160200192915050565b6001600160a01b03891681526101006020820181905260009061392a8382018b6138ba565b9050828103604084015261393e818a6138ba565b9050828103606084015261395281896138ba565b9050828103608084015261396681886138ba565b905082810360a084015261397a81876138ba565b60c0840195909552505060e001529695505050505050565b60208082528181018390526000908460408401835b868110156139d55782356139ba81613e56565b6001600160a01b0316825291830191908301906001016139a7565b509695505050505050565b6020808252825182820181905260009190848201906040850190845b81811015613a215783516001600160a01b0316835292840192918401916001016139fc565b50909695505050505050565b602081526000613a41602083018486613891565b949350505050565b604081526000613a5c60408301856138ba565b8281036020840152613a6e81856138ba565b95945050505050565b6000610120808352613a8b8184018d6138ba565b90508281036020840152613a9f818c6138ba565b90508281036040840152613ab3818b6138ba565b90508281036060840152613ac7818a6138ba565b905087608084015282810360a0840152613ae181886138ba565b60c0840196909652505060e0810192909252610100909101529695505050505050565b6020808252600d908201526c24b73b30b634b210383937b7b360991b604082015260600190565b608081526000613b3b8485613d46565b608080850152613b5061010085018284613891565b915050613b606020860186613d46565b848303607f190160a0860152613b77838284613891565b604088013560c0870152606088013560e0870152935061141f925050602084019050848035825260208082013590830152604090810135910152565b9687526001600160a01b039586166020880152604087019490945260608601929092528316608085015260ff1660a08401521660c082015260e00190565b838152604060208201526000613a6e604083018486613891565b6000606082019050838252823560208301526020830135613c2b81613e56565b6001600160a01b03166040929092019190915292915050565b8281526080810161141f60208301848035825260208082013590830152604090810135910152565b600060c082019050838252823560208301526020830135613c8c81613e56565b6001600160a01b0390811660408481019190915284013590613cad82613e56565b808216606085015260608501359150613cc582613e56565b80821660808501525050608083013560a08301529392505050565b6000808335601e19843603018112613cf6578283fd5b8301803591506001600160401b03821115613d0f578283fd5b6020019150600581901b3603821315612d3d57600080fd5b60008235601e19833603018112613d3c578182fd5b9190910192915050565b6000808335601e19843603018112613d5c578283fd5b83016020810192503590506001600160401b03811115613d7b57600080fd5b803603831315612d3d57600080fd5b60008219821115613d9d57613d9d613e2a565b500190565b600082613dbd57634e487b7160e01b81526012600452602481fd5b500490565b6000816000190483118215151615613ddc57613ddc613e2a565b500290565b600082821015613df357613df3613e2a565b500390565b600081613e0757613e07613e2a565b506000190190565b6000600019821415613e2357613e23613e2a565b5060010190565b634e487b7160e01b600052601160045260246000fd5b634e487b7160e01b600052604160045260246000fd5b6001600160a01b03811681146124b257600080fd5b80151581146124b257600080fdfea2646970667358221220a4b76ba88c3a92dfc832d2ba89dfdad3ceb468723a151c51a105bb6fb375268564736f6c63430008040033",
  "linkReferences": {},
  "deployedLinkReferences": {}
}