{
  "_format": "hh-sol-artifact-1",
  "contractName": "OurPylon",
  "sourceName": "contracts/OurPylon.sol",
  "abi": [
    {
      "inputs": [],
      "stateMutability": "nonpayable",
      "type": "constructor"
    },
    {
      "anonymous": false,
      "inputs": [
        {
          "indexed": false,
          "internalType": "address",
          "name": "owner",
          "type": "address"
        }
      ],
      "name": "AddedOwner",
      "type": "event"
    },
    {
      "anonymous": false,
      "inputs": [
        {
          "indexed": false,
          "internalType": "address",
          "name": "operator",
          "type": "address"
        },
        {
          "indexed": false,
          "internalType": "address",
          "name": "from",
          "type": "address"
        },
        {
          "indexed": false,
          "internalType": "address",
          "name": "to",
          "type": "address"
        },
        {
          "indexed": false,
          "internalType": "uint256",
          "name": "amount",
          "type": "uint256"
        }
      ],
      "name": "ERC777Received",
      "type": "event"
    },
    {
      "anonymous": false,
      "inputs": [
        {
          "indexed": true,
          "internalType": "address",
          "name": "sender",
          "type": "address"
        },
        {
          "indexed": false,
          "internalType": "uint256",
          "name": "value",
          "type": "uint256"
        }
      ],
      "name": "ETHReceived",
      "type": "event"
    },
    {
      "anonymous": false,
      "inputs": [
        {
          "indexed": false,
          "internalType": "address",
          "name": "editionAddress",
          "type": "address"
        },
        {
          "indexed": false,
          "internalType": "string",
          "name": "name",
          "type": "string"
        },
        {
          "indexed": false,
          "internalType": "string",
          "name": "symbol",
          "type": "string"
        },
        {
          "indexed": false,
          "internalType": "string",
          "name": "description",
          "type": "string"
        },
        {
          "indexed": false,
          "internalType": "string",
          "name": "animationUrl",
          "type": "string"
        },
        {
          "indexed": false,
          "internalType": "string",
          "name": "imageUrl",
          "type": "string"
        },
        {
          "indexed": false,
          "internalType": "uint256",
          "name": "editionSize",
          "type": "uint256"
        },
        {
          "indexed": false,
          "internalType": "uint256",
          "name": "royaltyBPS",
          "type": "uint256"
        }
      ],
      "name": "EditionCreated",
      "type": "event"
    },
    {
      "anonymous": false,
      "inputs": [
        {
          "indexed": false,
          "internalType": "string",
          "name": "newName",
          "type": "string"
        }
      ],
      "name": "NameChanged",
      "type": "event"
    },
    {
      "anonymous": false,
      "inputs": [
        {
          "indexed": false,
          "internalType": "address[]",
          "name": "owners",
          "type": "address[]"
        }
      ],
      "name": "ProxySetup",
      "type": "event"
    },
    {
      "anonymous": false,
      "inputs": [
        {
          "indexed": false,
          "internalType": "address",
          "name": "owner",
          "type": "address"
        }
      ],
      "name": "RemovedOwner",
      "type": "event"
    },
    {
      "anonymous": false,
      "inputs": [
        {
          "indexed": false,
          "internalType": "address",
          "name": "token",
          "type": "address"
        },
        {
          "indexed": false,
          "internalType": "uint256",
          "name": "amount",
          "type": "uint256"
        }
      ],
      "name": "TransferERC20",
      "type": "event"
    },
    {
      "anonymous": false,
      "inputs": [
        {
          "indexed": false,
          "internalType": "address",
          "name": "account",
          "type": "address"
        },
        {
          "indexed": false,
          "internalType": "uint256",
          "name": "amount",
          "type": "uint256"
        },
        {
          "indexed": false,
          "internalType": "bool",
          "name": "success",
          "type": "bool"
        }
      ],
      "name": "TransferETH",
      "type": "event"
    },
    {
      "anonymous": false,
      "inputs": [
        {
          "indexed": false,
          "internalType": "uint256",
          "name": "currentWindow",
          "type": "uint256"
        },
        {
          "indexed": false,
          "internalType": "uint256",
          "name": "fundsAvailable",
          "type": "uint256"
        }
      ],
      "name": "WindowIncremented",
      "type": "event"
    },
    {
      "anonymous": false,
      "inputs": [
        {
          "indexed": false,
          "internalType": "uint256",
          "name": "tokenId",
          "type": "uint256"
        }
      ],
      "name": "ZNFTMinted",
      "type": "event"
    },
    {
      "inputs": [],
      "name": "MIRROR_CROWDFUND",
      "outputs": [
        {
          "internalType": "address",
          "name": "",
          "type": "address"
        }
      ],
      "stateMutability": "view",
      "type": "function"
    },
    {
      "inputs": [],
      "name": "PERCENTAGE_SCALE",
      "outputs": [
        {
          "internalType": "uint256",
          "name": "",
          "type": "uint256"
        }
      ],
      "stateMutability": "view",
      "type": "function"
    },
    {
      "inputs": [],
      "name": "WETH",
      "outputs": [
        {
          "internalType": "address",
          "name": "",
          "type": "address"
        }
      ],
      "stateMutability": "view",
      "type": "function"
    },
    {
      "inputs": [],
      "name": "ZORA_AH",
      "outputs": [
        {
          "internalType": "address",
          "name": "",
          "type": "address"
        }
      ],
      "stateMutability": "view",
      "type": "function"
    },
    {
      "inputs": [],
      "name": "ZORA_EDITIONS",
      "outputs": [
        {
          "internalType": "address",
          "name": "",
          "type": "address"
        }
      ],
      "stateMutability": "view",
      "type": "function"
    },
    {
      "inputs": [],
      "name": "ZORA_MARKET",
      "outputs": [
        {
          "internalType": "address",
          "name": "",
          "type": "address"
        }
      ],
      "stateMutability": "view",
      "type": "function"
    },
    {
      "inputs": [],
      "name": "ZORA_MEDIA",
      "outputs": [
        {
          "internalType": "address",
          "name": "",
          "type": "address"
        }
      ],
      "stateMutability": "view",
      "type": "function"
    },
    {
      "inputs": [
        {
          "internalType": "uint256",
          "name": "tokenId",
          "type": "uint256"
        },
        {
          "components": [
            {
              "internalType": "uint256",
              "name": "amount",
              "type": "uint256"
            },
            {
              "internalType": "address",
              "name": "currency",
              "type": "address"
            },
            {
              "internalType": "address",
              "name": "bidder",
              "type": "address"
            },
            {
              "internalType": "address",
              "name": "recipient",
              "type": "address"
            },
            {
              "components": [
                {
                  "internalType": "uint256",
                  "name": "value",
                  "type": "uint256"
                }
              ],
              "internalType": "struct IZora.D256",
              "name": "sellOnShare",
              "type": "tuple"
            }
          ],
          "internalType": "struct IZora.Bid",
          "name": "expectedBid",
          "type": "tuple"
        }
      ],
      "name": "acceptZMarketBid",
      "outputs": [],
      "stateMutability": "nonpayable",
      "type": "function"
    },
    {
      "inputs": [
        {
          "internalType": "address",
          "name": "owner",
          "type": "address"
        }
      ],
      "name": "addOwner",
      "outputs": [],
      "stateMutability": "nonpayable",
      "type": "function"
    },
    {
      "inputs": [
        {
          "internalType": "uint256",
          "name": "",
          "type": "uint256"
        }
      ],
      "name": "balanceForWindow",
      "outputs": [
        {
          "internalType": "uint256",
          "name": "",
          "type": "uint256"
        }
      ],
      "stateMutability": "view",
      "type": "function"
    },
    {
      "inputs": [
        {
          "internalType": "uint256",
          "name": "auctionId",
          "type": "uint256"
        }
      ],
      "name": "cancelZAuction",
      "outputs": [],
      "stateMutability": "nonpayable",
      "type": "function"
    },
    {
      "inputs": [
        {
          "internalType": "address",
          "name": "tokenAddress",
          "type": "address"
        },
        {
          "internalType": "address[]",
          "name": "accounts",
          "type": "address[]"
        },
        {
          "internalType": "uint256[]",
          "name": "allocations",
          "type": "uint256[]"
        },
        {
          "components": [
            {
              "internalType": "bytes32[]",
              "name": "merkleProof",
              "type": "bytes32[]"
            }
          ],
          "internalType": "struct OurSplitter.Proof[]",
          "name": "merkleProofs",
          "type": "tuple[]"
        }
      ],
      "name": "claimERC20ForAll",
      "outputs": [],
      "stateMutability": "nonpayable",
      "type": "function"
    },
    {
      "inputs": [
        {
          "internalType": "uint256",
          "name": "window",
          "type": "uint256"
        },
        {
          "internalType": "address",
          "name": "account",
          "type": "address"
        },
        {
          "internalType": "uint256",
          "name": "scaledPercentageAllocation",
          "type": "uint256"
        },
        {
          "internalType": "bytes32[]",
          "name": "merkleProof",
          "type": "bytes32[]"
        }
      ],
      "name": "claimETH",
      "outputs": [],
      "stateMutability": "nonpayable",
      "type": "function"
    },
    {
      "inputs": [
        {
          "internalType": "address",
          "name": "account",
          "type": "address"
        },
        {
          "internalType": "uint256",
          "name": "percentageAllocation",
          "type": "uint256"
        },
        {
          "internalType": "bytes32[]",
          "name": "merkleProof",
          "type": "bytes32[]"
        }
      ],
      "name": "claimETHForAllWindows",
      "outputs": [],
      "stateMutability": "nonpayable",
      "type": "function"
    },
    {
      "inputs": [
        {
          "internalType": "string",
          "name": "name",
          "type": "string"
        },
        {
          "internalType": "string",
          "name": "symbol",
          "type": "string"
        },
        {
          "internalType": "address payable",
          "name": "operator",
          "type": "address"
        },
        {
          "internalType": "address payable",
          "name": "fundingRecipient",
          "type": "address"
        },
        {
          "internalType": "uint256",
          "name": "fundingCap",
          "type": "uint256"
        },
        {
          "internalType": "uint256",
          "name": "operatorPercent",
          "type": "uint256"
        }
      ],
      "name": "createMirrorCrowdfund",
      "outputs": [],
      "stateMutability": "nonpayable",
      "type": "function"
    },
    {
      "inputs": [
        {
          "internalType": "uint256",
          "name": "tokenId",
          "type": "uint256"
        },
        {
          "internalType": "address",
          "name": "tokenContract",
          "type": "address"
        },
        {
          "internalType": "uint256",
          "name": "duration",
          "type": "uint256"
        },
        {
          "internalType": "uint256",
          "name": "reservePrice",
          "type": "uint256"
        },
        {
          "internalType": "address payable",
          "name": "curator",
          "type": "address"
        },
        {
          "internalType": "uint8",
          "name": "curatorFeePercentage",
          "type": "uint8"
        },
        {
          "internalType": "address",
          "name": "auctionCurrency",
          "type": "address"
        }
      ],
      "name": "createZoraAuction",
      "outputs": [],
      "stateMutability": "nonpayable",
      "type": "function"
    },
    {
      "inputs": [
        {
          "internalType": "string",
          "name": "name",
          "type": "string"
        },
        {
          "internalType": "string",
          "name": "symbol",
          "type": "string"
        },
        {
          "internalType": "string",
          "name": "description",
          "type": "string"
        },
        {
          "internalType": "string",
          "name": "animationUrl",
          "type": "string"
        },
        {
          "internalType": "bytes32",
          "name": "animationHash",
          "type": "bytes32"
        },
        {
          "internalType": "string",
          "name": "imageUrl",
          "type": "string"
        },
        {
          "internalType": "bytes32",
          "name": "imageHash",
          "type": "bytes32"
        },
        {
          "internalType": "uint256",
          "name": "editionSize",
          "type": "uint256"
        },
        {
          "internalType": "uint256",
          "name": "royaltyBPS",
          "type": "uint256"
        },
        {
          "internalType": "uint256",
          "name": "salePrice",
          "type": "uint256"
        },
        {
          "internalType": "bool",
          "name": "publicMint",
          "type": "bool"
        }
      ],
      "name": "createZoraEdition",
      "outputs": [],
      "stateMutability": "nonpayable",
      "type": "function"
    },
    {
      "inputs": [],
      "name": "currentWindow",
      "outputs": [
        {
          "internalType": "uint256",
          "name": "",
          "type": "uint256"
        }
      ],
      "stateMutability": "view",
      "type": "function"
    },
    {
      "inputs": [
        {
          "internalType": "string",
          "name": "newName_",
          "type": "string"
        }
      ],
      "name": "editNickname",
      "outputs": [],
      "stateMutability": "nonpayable",
      "type": "function"
    },
    {
      "inputs": [],
      "name": "getOwners",
      "outputs": [
        {
          "internalType": "address[]",
          "name": "",
          "type": "address[]"
        }
      ],
      "stateMutability": "view",
      "type": "function"
    },
    {
      "inputs": [
        {
          "internalType": "address",
          "name": "account",
          "type": "address"
        },
        {
          "internalType": "uint256",
          "name": "percentageAllocation",
          "type": "uint256"
        },
        {
          "internalType": "bytes32[]",
          "name": "merkleProof",
          "type": "bytes32[]"
        }
      ],
      "name": "incrementThenClaimAll",
      "outputs": [],
      "stateMutability": "nonpayable",
      "type": "function"
    },
    {
      "inputs": [],
      "name": "incrementWindow",
      "outputs": [],
      "stateMutability": "nonpayable",
      "type": "function"
    },
    {
      "inputs": [
        {
          "internalType": "uint256",
          "name": "window",
          "type": "uint256"
        },
        {
          "internalType": "address",
          "name": "account",
          "type": "address"
        }
      ],
      "name": "isClaimed",
      "outputs": [
        {
          "internalType": "bool",
          "name": "",
          "type": "bool"
        }
      ],
      "stateMutability": "view",
      "type": "function"
    },
    {
      "inputs": [
        {
          "internalType": "address",
          "name": "owner",
          "type": "address"
        }
      ],
      "name": "isOwner",
      "outputs": [
        {
          "internalType": "bool",
          "name": "",
          "type": "bool"
        }
      ],
      "stateMutability": "view",
      "type": "function"
    },
    {
      "inputs": [],
      "name": "merkleRoot",
      "outputs": [
        {
          "internalType": "bytes32",
          "name": "",
          "type": "bytes32"
        }
      ],
      "stateMutability": "view",
      "type": "function"
    },
    {
      "inputs": [
        {
          "components": [
            {
              "internalType": "string",
              "name": "tokenURI",
              "type": "string"
            },
            {
              "internalType": "string",
              "name": "metadataURI",
              "type": "string"
            },
            {
              "internalType": "bytes32",
              "name": "contentHash",
              "type": "bytes32"
            },
            {
              "internalType": "bytes32",
              "name": "metadataHash",
              "type": "bytes32"
            }
          ],
          "internalType": "struct IZora.MediaData",
          "name": "mediaData",
          "type": "tuple"
        },
        {
          "components": [
            {
              "components": [
                {
                  "internalType": "uint256",
                  "name": "value",
                  "type": "uint256"
                }
              ],
              "internalType": "struct IZora.D256",
              "name": "prevOwner",
              "type": "tuple"
            },
            {
              "components": [
                {
                  "internalType": "uint256",
                  "name": "value",
                  "type": "uint256"
                }
              ],
              "internalType": "struct IZora.D256",
              "name": "creator",
              "type": "tuple"
            },
            {
              "components": [
                {
                  "internalType": "uint256",
                  "name": "value",
                  "type": "uint256"
                }
              ],
              "internalType": "struct IZora.D256",
              "name": "owner",
              "type": "tuple"
            }
          ],
          "internalType": "struct IZora.BidShares",
          "name": "bidShares",
          "type": "tuple"
        },
        {
          "internalType": "uint256",
          "name": "duration",
          "type": "uint256"
        },
        {
          "internalType": "uint256",
          "name": "reservePrice",
          "type": "uint256"
        }
      ],
      "name": "mintToAuctionForETH",
      "outputs": [],
      "stateMutability": "nonpayable",
      "type": "function"
    },
    {
      "inputs": [
        {
          "internalType": "address",
          "name": "editionAddress",
          "type": "address"
        },
        {
          "internalType": "address[]",
          "name": "recipients",
          "type": "address[]"
        }
      ],
      "name": "mintZEditions",
      "outputs": [],
      "stateMutability": "nonpayable",
      "type": "function"
    },
    {
      "inputs": [
        {
          "components": [
            {
              "internalType": "string",
              "name": "tokenURI",
              "type": "string"
            },
            {
              "internalType": "string",
              "name": "metadataURI",
              "type": "string"
            },
            {
              "internalType": "bytes32",
              "name": "contentHash",
              "type": "bytes32"
            },
            {
              "internalType": "bytes32",
              "name": "metadataHash",
              "type": "bytes32"
            }
          ],
          "internalType": "struct IZora.MediaData",
          "name": "mediaData",
          "type": "tuple"
        },
        {
          "components": [
            {
              "components": [
                {
                  "internalType": "uint256",
                  "name": "value",
                  "type": "uint256"
                }
              ],
              "internalType": "struct IZora.D256",
              "name": "prevOwner",
              "type": "tuple"
            },
            {
              "components": [
                {
                  "internalType": "uint256",
                  "name": "value",
                  "type": "uint256"
                }
              ],
              "internalType": "struct IZora.D256",
              "name": "creator",
              "type": "tuple"
            },
            {
              "components": [
                {
                  "internalType": "uint256",
                  "name": "value",
                  "type": "uint256"
                }
              ],
              "internalType": "struct IZora.D256",
              "name": "owner",
              "type": "tuple"
            }
          ],
          "internalType": "struct IZora.BidShares",
          "name": "bidShares",
          "type": "tuple"
        }
      ],
      "name": "mintZNFT",
      "outputs": [],
      "stateMutability": "nonpayable",
      "type": "function"
    },
    {
      "inputs": [
        {
          "internalType": "address",
          "name": "creator",
          "type": "address"
        },
        {
          "components": [
            {
              "internalType": "string",
              "name": "tokenURI",
              "type": "string"
            },
            {
              "internalType": "string",
              "name": "metadataURI",
              "type": "string"
            },
            {
              "internalType": "bytes32",
              "name": "contentHash",
              "type": "bytes32"
            },
            {
              "internalType": "bytes32",
              "name": "metadataHash",
              "type": "bytes32"
            }
          ],
          "internalType": "struct IZora.MediaData",
          "name": "mediaData",
          "type": "tuple"
        },
        {
          "components": [
            {
              "components": [
                {
                  "internalType": "uint256",
                  "name": "value",
                  "type": "uint256"
                }
              ],
              "internalType": "struct IZora.D256",
              "name": "prevOwner",
              "type": "tuple"
            },
            {
              "components": [
                {
                  "internalType": "uint256",
                  "name": "value",
                  "type": "uint256"
                }
              ],
              "internalType": "struct IZora.D256",
              "name": "creator",
              "type": "tuple"
            },
            {
              "components": [
                {
                  "internalType": "uint256",
                  "name": "value",
                  "type": "uint256"
                }
              ],
              "internalType": "struct IZora.D256",
              "name": "owner",
              "type": "tuple"
            }
          ],
          "internalType": "struct IZora.BidShares",
          "name": "bidShares",
          "type": "tuple"
        },
        {
          "components": [
            {
              "internalType": "uint256",
              "name": "deadline",
              "type": "uint256"
            },
            {
              "internalType": "uint8",
              "name": "v",
              "type": "uint8"
            },
            {
              "internalType": "bytes32",
              "name": "r",
              "type": "bytes32"
            },
            {
              "internalType": "bytes32",
              "name": "s",
              "type": "bytes32"
            }
          ],
          "internalType": "struct IZora.EIP712Signature",
          "name": "sig",
          "type": "tuple"
        }
      ],
      "name": "mintZNFTWithSig",
      "outputs": [],
      "stateMutability": "nonpayable",
      "type": "function"
    },
    {
      "inputs": [
        {
          "internalType": "address",
          "name": "",
          "type": "address"
        },
        {
          "internalType": "address",
          "name": "",
          "type": "address"
        },
        {
          "internalType": "uint256[]",
          "name": "",
          "type": "uint256[]"
        },
        {
          "internalType": "uint256[]",
          "name": "",
          "type": "uint256[]"
        },
        {
          "internalType": "bytes",
          "name": "",
          "type": "bytes"
        }
      ],
      "name": "onERC1155BatchReceived",
      "outputs": [
        {
          "internalType": "bytes4",
          "name": "",
          "type": "bytes4"
        }
      ],
      "stateMutability": "pure",
      "type": "function"
    },
    {
      "inputs": [
        {
          "internalType": "address",
          "name": "",
          "type": "address"
        },
        {
          "internalType": "address",
          "name": "",
          "type": "address"
        },
        {
          "internalType": "uint256",
          "name": "",
          "type": "uint256"
        },
        {
          "internalType": "uint256",
          "name": "",
          "type": "uint256"
        },
        {
          "internalType": "bytes",
          "name": "",
          "type": "bytes"
        }
      ],
      "name": "onERC1155Received",
      "outputs": [
        {
          "internalType": "bytes4",
          "name": "",
          "type": "bytes4"
        }
      ],
      "stateMutability": "pure",
      "type": "function"
    },
    {
      "inputs": [
        {
          "internalType": "address",
          "name": "",
          "type": "address"
        },
        {
          "internalType": "address",
          "name": "",
          "type": "address"
        },
        {
          "internalType": "uint256",
          "name": "",
          "type": "uint256"
        },
        {
          "internalType": "bytes",
          "name": "",
          "type": "bytes"
        }
      ],
      "name": "onERC721Received",
      "outputs": [
        {
          "internalType": "bytes4",
          "name": "",
          "type": "bytes4"
        }
      ],
      "stateMutability": "pure",
      "type": "function"
    },
    {
      "inputs": [
        {
          "internalType": "address",
          "name": "prevOwner",
          "type": "address"
        },
        {
          "internalType": "address",
          "name": "owner",
          "type": "address"
        }
      ],
      "name": "removeOwner",
      "outputs": [],
      "stateMutability": "nonpayable",
      "type": "function"
    },
    {
      "inputs": [
        {
          "internalType": "uint256",
          "name": "tokenId",
          "type": "uint256"
        }
      ],
      "name": "removeZMarketAsk",
      "outputs": [],
      "stateMutability": "nonpayable",
      "type": "function"
    },
    {
      "inputs": [
        {
          "internalType": "uint256",
          "name": "amount",
          "type": "uint256"
        },
        {
          "internalType": "uint256",
          "name": "scaledPercent",
          "type": "uint256"
        }
      ],
      "name": "scaleAmountByPercentage",
      "outputs": [
        {
          "internalType": "uint256",
          "name": "scaledAmount",
          "type": "uint256"
        }
      ],
      "stateMutability": "pure",
      "type": "function"
    },
    {
      "inputs": [
        {
          "internalType": "address",
          "name": "editionAddress",
          "type": "address"
        },
        {
          "internalType": "address",
          "name": "minter",
          "type": "address"
        },
        {
          "internalType": "bool",
          "name": "allowed",
          "type": "bool"
        }
      ],
      "name": "setEditionMinter",
      "outputs": [],
      "stateMutability": "nonpayable",
      "type": "function"
    },
    {
      "inputs": [
        {
          "internalType": "uint256",
          "name": "auctionId",
          "type": "uint256"
        },
        {
          "internalType": "bool",
          "name": "approved",
          "type": "bool"
        }
      ],
      "name": "setZAuctionApproval",
      "outputs": [],
      "stateMutability": "nonpayable",
      "type": "function"
    },
    {
      "inputs": [
        {
          "internalType": "uint256",
          "name": "auctionId",
          "type": "uint256"
        },
        {
          "internalType": "uint256",
          "name": "reservePrice",
          "type": "uint256"
        }
      ],
      "name": "setZAuctionReservePrice",
      "outputs": [],
      "stateMutability": "nonpayable",
      "type": "function"
    },
    {
      "inputs": [
        {
          "internalType": "uint256",
          "name": "tokenId",
          "type": "uint256"
        },
        {
          "components": [
            {
              "internalType": "uint256",
              "name": "amount",
              "type": "uint256"
            },
            {
              "internalType": "address",
              "name": "currency",
              "type": "address"
            }
          ],
          "internalType": "struct IZora.Ask",
          "name": "ask",
          "type": "tuple"
        }
      ],
      "name": "setZMarketAsk",
      "outputs": [],
      "stateMutability": "nonpayable",
      "type": "function"
    },
    {
      "inputs": [
        {
          "internalType": "uint256",
          "name": "tokenId",
          "type": "uint256"
        },
        {
          "components": [
            {
              "components": [
                {
                  "internalType": "uint256",
                  "name": "value",
                  "type": "uint256"
                }
              ],
              "internalType": "struct IZora.D256",
              "name": "prevOwner",
              "type": "tuple"
            },
            {
              "components": [
                {
                  "internalType": "uint256",
                  "name": "value",
                  "type": "uint256"
                }
              ],
              "internalType": "struct IZora.D256",
              "name": "creator",
              "type": "tuple"
            },
            {
              "components": [
                {
                  "internalType": "uint256",
                  "name": "value",
                  "type": "uint256"
                }
              ],
              "internalType": "struct IZora.D256",
              "name": "owner",
              "type": "tuple"
            }
          ],
          "internalType": "struct IZora.BidShares",
          "name": "bidShares",
          "type": "tuple"
        }
      ],
      "name": "setZMarketBidShares",
      "outputs": [],
      "stateMutability": "nonpayable",
      "type": "function"
    },
    {
      "inputs": [
        {
          "internalType": "address[]",
          "name": "owners_",
          "type": "address[]"
        }
      ],
      "name": "setup",
      "outputs": [],
      "stateMutability": "nonpayable",
      "type": "function"
    },
    {
      "inputs": [
        {
          "internalType": "bytes4",
          "name": "interfaceId",
          "type": "bytes4"
        }
      ],
      "name": "supportsInterface",
      "outputs": [
        {
          "internalType": "bool",
          "name": "",
          "type": "bool"
        }
      ],
      "stateMutability": "pure",
      "type": "function"
    },
    {
      "inputs": [
        {
          "internalType": "address",
          "name": "prevOwner",
          "type": "address"
        },
        {
          "internalType": "address",
          "name": "oldOwner",
          "type": "address"
        },
        {
          "internalType": "address",
          "name": "newOwner",
          "type": "address"
        }
      ],
      "name": "swapOwner",
      "outputs": [],
      "stateMutability": "nonpayable",
      "type": "function"
    },
    {
      "inputs": [
        {
          "internalType": "address",
          "name": "operator",
          "type": "address"
        },
        {
          "internalType": "address",
          "name": "from",
          "type": "address"
        },
        {
          "internalType": "address",
          "name": "to",
          "type": "address"
        },
        {
          "internalType": "uint256",
          "name": "amount",
          "type": "uint256"
        },
        {
          "internalType": "bytes",
          "name": "",
          "type": "bytes"
        },
        {
          "internalType": "bytes",
          "name": "",
          "type": "bytes"
        }
      ],
      "name": "tokensReceived",
      "outputs": [],
      "stateMutability": "nonpayable",
      "type": "function"
    },
    {
      "inputs": [
        {
          "internalType": "address",
          "name": "tokenContract_",
          "type": "address"
        },
        {
          "internalType": "uint256",
          "name": "tokenId_",
          "type": "uint256"
        }
      ],
      "name": "untrustedBurnERC721",
      "outputs": [],
      "stateMutability": "nonpayable",
      "type": "function"
    },
    {
      "inputs": [
        {
          "internalType": "address",
          "name": "to",
          "type": "address"
        },
        {
          "internalType": "bytes",
          "name": "data",
          "type": "bytes"
        }
      ],
      "name": "untrustedExecuteTransaction",
      "outputs": [
        {
          "internalType": "bool",
          "name": "success",
          "type": "bool"
        }
      ],
      "stateMutability": "nonpayable",
      "type": "function"
    },
    {
      "inputs": [
        {
          "internalType": "address",
          "name": "tokenContract_",
          "type": "address"
        },
        {
          "internalType": "address",
          "name": "newOwner_",
          "type": "address"
        },
        {
          "internalType": "uint256",
          "name": "tokenId_",
          "type": "uint256"
        }
      ],
      "name": "untrustedSafeTransferERC721",
      "outputs": [],
      "stateMutability": "nonpayable",
      "type": "function"
    },
    {
      "inputs": [
        {
          "internalType": "address",
          "name": "tokenContract_",
          "type": "address"
        },
        {
          "internalType": "address",
          "name": "operator_",
          "type": "address"
        },
        {
          "internalType": "bool",
          "name": "approved_",
          "type": "bool"
        }
      ],
      "name": "untrustedSetApprovalERC721",
      "outputs": [],
      "stateMutability": "nonpayable",
      "type": "function"
    },
    {
      "inputs": [
        {
          "internalType": "address",
          "name": "editionAddress",
          "type": "address"
        },
        {
          "internalType": "string",
          "name": "imageUrl",
          "type": "string"
        },
        {
          "internalType": "string",
          "name": "animationUrl",
          "type": "string"
        }
      ],
      "name": "updateEditionURLs",
      "outputs": [],
      "stateMutability": "nonpayable",
      "type": "function"
    },
    {
      "inputs": [
        {
          "internalType": "uint256",
          "name": "tokenId",
          "type": "uint256"
        },
        {
          "internalType": "string",
          "name": "metadataURI",
          "type": "string"
        }
      ],
      "name": "updateZNFTMetadataURI",
      "outputs": [],
      "stateMutability": "nonpayable",
      "type": "function"
    },
    {
      "inputs": [
        {
          "internalType": "uint256",
          "name": "tokenId",
          "type": "uint256"
        },
        {
          "internalType": "string",
          "name": "tokenURI",
          "type": "string"
        }
      ],
      "name": "updateZNFTTokenURI",
      "outputs": [],
      "stateMutability": "nonpayable",
      "type": "function"
    },
    {
      "inputs": [
        {
          "internalType": "uint256",
          "name": "tokenId",
          "type": "uint256"
        },
        {
          "internalType": "string",
          "name": "tokenURI",
          "type": "string"
        },
        {
          "internalType": "string",
          "name": "metadataURI",
          "type": "string"
        }
      ],
      "name": "updateZNFTURIs",
      "outputs": [],
      "stateMutability": "nonpayable",
      "type": "function"
    },
    {
      "inputs": [
        {
          "internalType": "address",
          "name": "editionAddress",
          "type": "address"
        }
      ],
      "name": "withdrawEditionFunds",
      "outputs": [],
      "stateMutability": "nonpayable",
      "type": "function"
    },
    {
      "stateMutability": "payable",
      "type": "receive"
    }
  ],
  "bytecode": "0x608060405234801561001057600080fd5b506001600855614215806100256000396000f3fe60806040526004361061031c5760003560e01c80639473e6a4116101ab578063d2ac178f116100f7578063ed5c27a411610095578063f989c7781161006f578063f989c77814610a1c578063fbe5ce0a14610a3c578063fc0af5cb14610a5c578063fe8dc13a14610a7c57600080fd5b8063ed5c27a4146109af578063f23a6e61146109cf578063f7075dac146109fc57600080fd5b8063d9a1b96c116100d1578063d9a1b96c14610927578063debb73fe14610947578063df875aeb14610967578063e318b52b1461098f57600080fd5b8063d2ac178f146108c7578063d2ef0795146108e7578063d32567141461090757600080fd5b8063b1bc078111610164578063bd5b853b1161013e578063bd5b853b14610847578063c013bbb414610867578063c3a3d98414610887578063d13450ac146108a757600080fd5b8063b1bc0781146107e2578063ba0bafb414610802578063bc197c811461081857600080fd5b80639473e6a414610718578063a0e67e2b14610738578063a303c8a11461075a578063a4058df31461077a578063a76010461461079a578063ad5c4648146107ba57600080fd5b80633f26479e1161026a57806379644aa31161022357806381e580d3116101fd57806381e580d31461069057806386a77cc2146106b05780638c68aa5e146106d85780638ffb5c97146106f857600080fd5b806379644aa314610628578063797fa967146106485780637cf69c0a1461067057600080fd5b80633f26479e1461057157806341fcd3bd1461058857806342aa1990146105a85780634ca7e504146105c8578063659fa47e146105e85780637065cb481461060857600080fd5b80631fd309cc116102d75780632eb4a7ab116102b15780632eb4a7ab146104f85780632f54bf6e1461051c5780632f8d7c601461053c578063338b1d311461055c57600080fd5b80631fd309cc14610470578063228cfe17146104b05780632d0b322b146104d057600080fd5b806223de291461037457806245a3ee1461039657806301ffc9a7146103b6578063055ec430146103eb578063150b7a021461040b578063179f227a1461045057600080fd5b3661036f57346005600082825461033391906140f0565b909155505060405134815233907fbfe611b001dfcd411432f7bf0d79b82b4b2ee81511edac123a3403c357fb972a9060200160405180910390a2005b600080fd5b34801561038057600080fd5b5061039461038f366004613002565b610a9c565b005b3480156103a257600080fd5b506103946103b1366004613a05565b610afd565b3480156103c257600080fd5b506103d66103d13660046135cc565b610be7565b60405190151581526020015b60405180910390f35b3480156103f757600080fd5b506103d66104063660046133aa565b610c39565b34801561041757600080fd5b506104376104263660046131c7565b630a85bd0160e11b95945050505050565b6040516001600160e01b031990911681526020016103e2565b34801561045c57600080fd5b5061039461046b3660046139c9565b610c59565b34801561047c57600080fd5b50610498735d6e1357acc8bf654979f3b24fdef8c5549a491e81565b6040516001600160a01b0390911681526020016103e2565b3480156104bc57600080fd5b506103946104cb366004613ac3565b610ccb565b3480156104dc57600080fd5b5061049873e7dd1252f50b3d845590da0c5eadd985049a03ce81565b34801561050457600080fd5b5061050e60005481565b6040519081526020016103e2565b34801561052857600080fd5b506103d6610537366004612f48565b610d43565b34801561054857600080fd5b50610394610557366004613627565b610d7b565b34801561056857600080fd5b50610394610e1b565b34801561057d57600080fd5b5061050e620f424081565b34801561059457600080fd5b506103946105a3366004613a6a565b610f18565b3480156105b457600080fd5b506103946105c33660046139c9565b610f5a565b3480156105d457600080fd5b506103946105e336600461347c565b610f9e565b3480156105f457600080fd5b506103946106033660046136ca565b611056565b34801561061457600080fd5b50610394610623366004612f48565b6112a3565b34801561063457600080fd5b50610394610643366004613883565b6113bc565b34801561065457600080fd5b5061049873eac226b370d77f436b5780b4dd4a49e59e8bea3781565b34801561067c57600080fd5b5061039461068b366004613148565b61142e565b34801561069c57600080fd5b5061050e6106ab366004613883565b61146d565b3480156106bc57600080fd5b506104987385e946e1bd35ec91044dc83a5ddab2b6a262ffa681565b3480156106e457600080fd5b506103946106f3366004612f48565b61148e565b34801561070457600080fd5b5061050e610713366004613aeb565b6114c9565b34801561072457600080fd5b50610394610733366004613302565b6114f4565b34801561074457600080fd5b5061074d611907565b6040516103e29190613d40565b34801561076657600080fd5b50610394610775366004613518565b611a13565b34801561078657600080fd5b50610394610795366004613aa0565b611af7565b3480156107a657600080fd5b506103946107b5366004613148565b611b30565b3480156107c657600080fd5b5061049873c778417e063141139fce010982780140aa0cd5ab81565b3480156107ee57600080fd5b506103946107fd3660046135f4565b611b6f565b34801561080e57600080fd5b5061050e60015481565b34801561082457600080fd5b506104376108333660046130af565b63bc197c8160e01b98975050505050505050565b34801561085357600080fd5b50610394610862366004613571565b611bb5565b34801561087357600080fd5b50610394610882366004613aeb565b611c36565b34801561089357600080fd5b506103946108a2366004613518565b611c7e565b3480156108b357600080fd5b506103946108c2366004613187565b611c98565b3480156108d357600080fd5b506103946108e2366004613828565b611cdc565b3480156108f357600080fd5b506103d66109023660046138b3565b611e3f565b34801561091357600080fd5b506103946109223660046139a5565b611e6a565b34801561093357600080fd5b5061039461094236600461392d565b611eb3565b34801561095357600080fd5b506103946109623660046138d7565b611f5b565b34801561097357600080fd5b50610498737c2668bd0d3c050703cecc956c11bd520c26f7d481565b34801561099b57600080fd5b506103946109aa366004612fb8565b6120aa565b3480156109bb57600080fd5b506103946109ca3660046132b0565b6122d2565b3480156109db57600080fd5b506104376109ea366004613237565b63f23a6e6160e01b9695505050505050565b348015610a0857600080fd5b50610394610a173660046134ed565b61235b565b348015610a2857600080fd5b50610394610a3736600461340a565b612391565b348015610a4857600080fd5b50610394610a57366004612f80565b6123c8565b348015610a6857600080fd5b50610394610a77366004613883565b6124b6565b348015610a8857600080fd5b50610394610a973660046137dc565b6124f7565b604080516001600160a01b03808b168252808a166020830152881691810191909152606081018690527f0fe6507bce457d6e175fa9bc1db1b817f39e37b1f5c91695fd1a62848bc433b7906080015b60405180910390a15050505050505050565b610b06336125a2565b6040516318e97fd160e01b8152737c2668bd0d3c050703cecc956c11bd520c26f7d4906318e97fd190610b4190889088908890600401613f57565b600060405180830381600087803b158015610b5b57600080fd5b505af1158015610b6f573d6000803e3d6000fd5b50506040516375682e7960e01b8152737c2668bd0d3c050703cecc956c11bd520c26f7d492506375682e799150610bae90889086908690600401613f57565b600060405180830381600087803b158015610bc857600080fd5b505af1158015610bdc573d6000803e3d6000fd5b505050505050505050565b60006001600160e01b03198216630271189760e51b1480610c1857506001600160e01b03198216630a85bd0160e11b145b80610c3357506001600160e01b031982166301ffc9a760e01b145b92915050565b6000610c44336125a2565b6000808351602085016000875af19392505050565b6040516375682e7960e01b8152737c2668bd0d3c050703cecc956c11bd520c26f7d4906375682e7990610c9490869086908690600401613f57565b600060405180830381600087803b158015610cae57600080fd5b505af1158015610cc2573d6000803e3d6000fd5b50505050505050565b610cd4336125a2565b60405163ba33939960e01b81527385e946e1bd35ec91044dc83a5ddab2b6a262ffa69063ba33939990610d0d9085908590600401613fd2565b600060405180830381600087803b158015610d2757600080fd5b505af1158015610d3b573d6000803e3d6000fd5b505050505050565b60006001600160a01b038216600114801590610c335750506001600160a01b0390811660009081526006602052604090205416151590565b610d84336125a2565b604051631acf450d60e21b815273eac226b370d77f436b5780b4dd4a49e59e8bea3790636b3d143490610dc9908b908b908b908b908b908b908b908b90600401613da9565b602060405180830381600087803b158015610de357600080fd5b505af1158015610df7573d6000803e3d6000fd5b505050506040513d601f19601f82011682018060405250810190610bdc9190612f64565b600060015460001415610e2f575047610e34565b506005545b600060055580610e8b5760405162461bcd60e51b815260206004820152601e60248201527f4e6f206164646974696f6e616c2066756e647320666f722077696e646f77000060448201526064015b60405180910390fd5b600380546001818101835560009283527fc2575a0e9e593c00f959f8c92f12db2869c3395a3b0502d05e2516446f71f85b909101839055805490918291610ed39083906140f0565b909155505060015460408051918252602082018390527ff0840b82b46c1dc7df62cae652baa1b5588ce37b6a1236ed1dcf4caf34d738ac91015b60405180910390a150565b610f21336125a2565b60405163062f24b760e41b81527385e946e1bd35ec91044dc83a5ddab2b6a262ffa6906362f24b7090610d0d9085908590600401613f71565b610f63336125a2565b6040516318e97fd160e01b8152737c2668bd0d3c050703cecc956c11bd520c26f7d4906318e97fd190610c9490869086908690600401613f57565b610fa7336125a2565b604051633d3d090160e11b8152737c2668bd0d3c050703cecc956c11bd520c26f7d490637a7a120290610fe4908790879087908790600401613c70565b600060405180830381600087803b158015610ffe57600080fd5b505af1158015611012573d6000803e3d6000fd5b505050507fcbcfc7992330c2e2b57e75fc9a0c9edb0c66341cf39d141a7c4df6e6da05651e61103f612612565b60405190815260200160405180910390a150505050565b61105f336125a2565b604051630861804f60e11b8152600090735d6e1357acc8bf654979f3b24fdef8c5549a491e906310c3009e906110a9908f908f908f908f908f908f908f908f908f90600401613e2f565b602060405180830381600087803b1580156110c357600080fd5b505af11580156110d7573d6000803e3d6000fd5b505050506040513d601f19601f820116820180604052508101906110fb919061389b565b60405163ac52edfd60e01b815260048101829052909150600090735d6e1357acc8bf654979f3b24fdef8c5549a491e9063ac52edfd9060240160206040518083038186803b15801561114c57600080fd5b505afa158015611160573d6000803e3d6000fd5b505050506040513d601f19601f820116820180604052508101906111849190612f64565b905083156111e757604051631919fed760e01b8152600481018590526001600160a01b03821690631919fed790602401600060405180830381600087803b1580156111ce57600080fd5b505af11580156111e2573d6000803e3d6000fd5b505050505b821561124f576040516329ec16dd60e01b815260006004820152600160248201526001600160a01b038216906329ec16dd90604401600060405180830381600087803b15801561123657600080fd5b505af115801561124a573d6000803e3d6000fd5b505050505b7f0cd4e4e2e3c04cd0599276bba560d6bd9d53bc0f04666d59897f87465195990c818e8e8e8e8d8c8c60405161128c989796959493929190613be3565b60405180910390a150505050505050505050505050565b6112ac336125a2565b6001600160a01b038116158015906112ce57506001600160a01b038116600114155b80156112e357506001600160a01b0381163014155b6112ec57600080fd5b6001600160a01b03818116600090815260066020526040902054161561131157600080fd5b60066020527f3e5fec24aa4dc4e5aee2e025e51e1392c72a2500577559fae9665c6d52bd6a3180546001600160a01b038381166000818152604081208054939094166001600160a01b03199384161790935560018352835490911617909155600780549161137e83614175565b90915550506040516001600160a01b03821681527f9465fa0c962cc76958e6373a993326400c1c94f8be2fe3a952adfa7f60b2ea2690602001610f0d565b6113c5336125a2565b6040516328220f3560e01b8152600481018290527385e946e1bd35ec91044dc83a5ddab2b6a262ffa6906328220f35906024015b600060405180830381600087803b15801561141357600080fd5b505af1158015611427573d6000803e3d6000fd5b5050505050565b611437336125a2565b6040516329ec16dd60e01b81526001600160a01b03838116600483015282151560248301528416906329ec16dd90604401610c94565b6003818154811061147d57600080fd5b600091825260209091200154905081565b806001600160a01b0316633ccfd60b6040518163ffffffff1660e01b8152600401600060405180830381600087803b15801561141357600080fd5b60006114d9620f42406064614128565b6114e38385614128565b6114ed9190614108565b9392505050565b6115d18282600081811061151857634e487b7160e01b600052603260045260246000fd5b905060200281019061152a919061408d565b6115349080614046565b808060200260200160405190810160405280939291908181526020018383602002808284376000920182905250805493506115cc92508b91508a908161158a57634e487b7160e01b600052603260045260246000fd5b905060200201602081019061159f9190612f48565b888860008181106115c057634e487b7160e01b600052603260045260246000fd5b9050602002013561273f565b612787565b61161d5760405162461bcd60e51b815260206004820152601b60248201527f496e76616c69642070726f6f6620666f72204163636f756e74203000000000006044820152606401610e82565b6040516370a0823160e01b81523060048201526000906001600160a01b038916906370a082319060240160206040518083038186803b15801561165f57600080fd5b505afa158015611673573d6000803e3d6000fd5b505050506040513d601f19601f82011682018060405250810190611697919061389b565b905060015b868110156118115761176f8484838181106116c757634e487b7160e01b600052603260045260246000fd5b90506020028101906116d9919061408d565b6116e39080614046565b8080602002602001604051908101604052809392919081815260200183836020028082843760009201829052505492506115cc91508c90508b8681811061173a57634e487b7160e01b600052603260045260246000fd5b905060200201602081019061174f9190612f48565b8a8a878181106115c057634e487b7160e01b600052603260045260246000fd5b61178b5760405162461bcd60e51b8152600401610e8290613ebc565b60006117bd838888858181106117b157634e487b7160e01b600052603260045260246000fd5b905060200201356114c9565b90506117fe8a8a8a858181106117e357634e487b7160e01b600052603260045260246000fd5b90506020020160208101906117f89190612f48565b83612844565b508061180981614175565b91505061169c565b506118c8888888600081811061183757634e487b7160e01b600052603260045260246000fd5b905060200201602081019061184c9190612f48565b6040516370a0823160e01b81523060048201526001600160a01b038c16906370a082319060240160206040518083038186803b15801561188b57600080fd5b505afa15801561189f573d6000803e3d6000fd5b505050506040513d601f19601f820116820180604052508101906118c3919061389b565b612844565b604080516001600160a01b038a168152602081018390527f73001563b3c2e14efd545d6f9a0740c1937da3aa8d4320550fcef35ddc9797449101610aeb565b606060006007546001600160401b0381111561193357634e487b7160e01b600052604160045260246000fd5b60405190808252806020026020018201604052801561195c578160200160208202803683370190505b506001600090815260066020527f3e5fec24aa4dc4e5aee2e025e51e1392c72a2500577559fae9665c6d52bd6a3154919250906001600160a01b03165b6001600160a01b038116600114611a0b57808383815181106119cb57634e487b7160e01b600052603260045260246000fd5b6001600160a01b03928316602091820292909201810191909152918116600090815260069092526040909120541681611a0381614175565b925050611999565b509092915050565b611a5682828080602002602001604051908101604052809392919081815260200183836020028082843760009201829052505492506115cc91508890508761273f565b611a725760405162461bcd60e51b8152600401610e8290613ebc565b6000805b600154811015611aec57611a8a8187611e3f565b611ada57611a9881876128d6565b611acd60038281548110611abc57634e487b7160e01b600052603260045260246000fd5b9060005260206000200154866114c9565b611ad790836140f0565b91505b80611ae481614175565b915050611a76565b50610d3b8582612909565b6040516375aab41d60e11b81527385e946e1bd35ec91044dc83a5ddab2b6a262ffa69063eb55683a90610d0d9085908590600401613faa565b611b39336125a2565b60405163a22cb46560e01b81526001600160a01b038381166004830152821515602483015284169063a22cb46590604401610c94565b611b78336125a2565b7f4737457377f528cc8afd815f73ecb8b05df80d047dbffc41c17750a4033592bc8282604051611ba9929190613d8d565b60405180910390a15050565b611bf1828280806020026020016040519081016040528093929190818152602001838360200280828437600092019190915250612a6f92505050565b7f92e5baf3cc4552d78b76a780360e152809a8e6aabf13c0e507ef6ed5c0dff7518282604051611c22929190613cf2565b60405180910390a1611c32612c0d565b5050565b611c3f336125a2565b604051636f8a41e160e01b8152600481018390526024810182905273e7dd1252f50b3d845590da0c5eadd985049a03ce90636f8a41e190604401610d0d565b611c86610e1b565b611c9284848484612c88565b50505050565b611ca1336125a2565b604051632142170760e11b81523060048201526001600160a01b038381166024830152604482018390528416906342842e0e90606401610c94565b611ce5336125a2565b604051632cca323760e01b8152737c2668bd0d3c050703cecc956c11bd520c26f7d490632cca323790611d1e9087908790600401613ee3565b600060405180830381600087803b158015611d3857600080fd5b505af1158015611d4c573d6000803e3d6000fd5b505050506000611d5a612612565b90507fcbcfc7992330c2e2b57e75fc9a0c9edb0c66341cf39d141a7c4df6e6da05651e81604051611d8d91815260200190565b60405180910390a16040516375e9249f60e01b815273e7dd1252f50b3d845590da0c5eadd985049a03ce906375e9249f90611ded908490737c2668bd0d3c050703cecc956c11bd520c26f7d4908890889030906000908190600401613f19565b602060405180830381600087803b158015611e0757600080fd5b505af1158015611e1b573d6000803e3d6000fd5b505050506040513d601f19601f82011682018060405250810190610d3b919061389b565b600060046000611e4f8585612d50565b815260208101919091526040016000205460ff169392505050565b611e73336125a2565b604051634b9eeda560e11b815260048101839052811515602482015273e7dd1252f50b3d845590da0c5eadd985049a03ce9063973ddb4a90604401610d0d565b611ebc336125a2565b6040516375e9249f60e01b815273e7dd1252f50b3d845590da0c5eadd985049a03ce906375e9249f90611eff908a908a908a908a908a908a908a90600401613f19565b602060405180830381600087803b158015611f1957600080fd5b505af1158015611f2d573d6000803e3d6000fd5b505050506040513d601f19601f82011682018060405250810190611f51919061389b565b5050505050505050565b8460015411611fac5760405162461bcd60e51b815260206004820181905260248201527f63616e6e6f7420636c61696d20666f722061206675747572652077696e646f776044820152606401610e82565b611fb68585611e3f565b156120145760405162461bcd60e51b815260206004820152602860248201527f4163636f756e7420616c726561647920636c61696d65642074686520676976656044820152676e2077696e646f7760c01b6064820152608401610e82565b61201e85856128d6565b61206182828080602002602001604051908101604052809392919081815260200183836020028082843760009201829052505492506115cc91508890508761273f565b61207d5760405162461bcd60e51b8152600401610e8290613ebc565b610d3b846120a560038881548110611abc57634e487b7160e01b600052603260045260246000fd5b612909565b6120b3336125a2565b6001600160a01b038116158015906120d557506001600160a01b038116600114155b80156120ea57506001600160a01b0381163014155b61211a5760405162461bcd60e51b81526020600482015260016024820152601960f91b6044820152606401610e82565b6001600160a01b0381811660009081526006602052604090205416156121665760405162461bcd60e51b81526020600482015260016024820152603360f81b6044820152606401610e82565b6001600160a01b0382161580159061218857506001600160a01b038216600114155b6121b85760405162461bcd60e51b81526020600482015260016024820152600d60fa1b6044820152606401610e82565b6001600160a01b038381166000908152600660205260409020548116908316146122085760405162461bcd60e51b81526020600482015260016024820152603560f81b6044820152606401610e82565b6001600160a01b038281166000818152600660209081526040808320805487871680865283862080549289166001600160a01b0319938416179055968a1685528285208054821690971790965592849052825490941690915591519081527ff8d49fc529812e9a7c5c50e69c20f0dccc0db8fa95c98bc58cc9a4f1c1299eaf910160405180910390a16040516001600160a01b03821681527f9465fa0c962cc76958e6373a993326400c1c94f8be2fe3a952adfa7f60b2ea269060200160405180910390a1505050565b6122db336125a2565b604051630f6a934960e01b81526001600160a01b03841690630f6a9349906123099085908590600401613cf2565b602060405180830381600087803b15801561232357600080fd5b505af1158015612337573d6000803e3d6000fd5b505050506040513d601f19601f82011682018060405250810190611c92919061389b565b612364336125a2565b604051630852cd8d60e31b8152600481018290526001600160a01b038316906342966c6890602401610d0d565b61239a336125a2565b6040516339112ff360e21b81526001600160a01b0384169063e444bfcc90610c949085908590600401613e01565b6123d1336125a2565b6001600160a01b038116158015906123f357506001600160a01b038116600114155b6123fc57600080fd5b6001600160a01b0382811660009081526006602052604090205481169082161461242557600080fd5b6001600160a01b03818116600081815260066020526040808220805487861684529183208054929095166001600160a01b031992831617909455918152825490911690915560078054916124788361415e565b90915550506040516001600160a01b03821681527ff8d49fc529812e9a7c5c50e69c20f0dccc0db8fa95c98bc58cc9a4f1c1299eaf90602001611ba9565b6124bf336125a2565b6040516396b5a75560e01b81526004810182905273e7dd1252f50b3d845590da0c5eadd985049a03ce906396b5a755906024016113f9565b612500336125a2565b604051632cca323760e01b8152737c2668bd0d3c050703cecc956c11bd520c26f7d490632cca3237906125399085908590600401613ee3565b600060405180830381600087803b15801561255357600080fd5b505af1158015612567573d6000803e3d6000fd5b505050507fcbcfc7992330c2e2b57e75fc9a0c9edb0c66341cf39d141a7c4df6e6da05651e612594612612565b604051908152602001611ba9565b6125ab81610d43565b61260f5760405162461bcd60e51b815260206004820152602f60248201527f43616c6c6572206973206e6f7420612077686974656c6973746564206f776e6560448201526e1c881bd9881d1a1a5cc814dc1b1a5d608a1b6064820152608401610e82565b50565b6000737c2668bd0d3c050703cecc956c11bd520c26f7d46001600160a01b0316634f6ccce76001737c2668bd0d3c050703cecc956c11bd520c26f7d46001600160a01b03166318160ddd6040518163ffffffff1660e01b8152600401602060405180830381600087803b15801561268857600080fd5b505af115801561269c573d6000803e3d6000fd5b505050506040513d601f19601f820116820180604052508101906126c0919061389b565b6126ca9190614147565b6040518263ffffffff1660e01b81526004016126e891815260200190565b602060405180830381600087803b15801561270257600080fd5b505af1158015612716573d6000803e3d6000fd5b505050506040513d601f19601f8201168201806040525081019061273a919061389b565b905090565b6040516bffffffffffffffffffffffff19606084901b166020820152603481018290526000906054015b60405160208183030381529060405280519060200120905092915050565b600081815b85518110156128395760008682815181106127b757634e487b7160e01b600052603260045260246000fd5b602002602001015190508083116127f9576040805160208101859052908101829052606001604051602081830303815290604052805190602001209250612826565b60408051602081018390529081018490526060016040516020818303038152906040528051906020012092505b508061283181614175565b91505061278c565b509092149392505050565b60405163a9059cbb60e01b81526001600160a01b038381166004830152602482018390526000919085169063a9059cbb90604401602060405180830381600087803b15801561289257600080fd5b505af11580156128a6573d6000803e3d6000fd5b505050506040513d601f19601f820116820180604052508101906128ca91906135b0565b905080611c9257600080fd5b6001600460006128e68585612d50565b81526020810191909152604001600020805460ff19169115159190911790555050565b60006129158383612d80565b905080612a1f5773c778417e063141139fce010982780140aa0cd5ab6001600160a01b031663d0e30db0836040518263ffffffff1660e01b81526004016000604051808303818588803b15801561296b57600080fd5b505af115801561297f573d6000803e3d6000fd5b505060405163a9059cbb60e01b81526001600160a01b03871660048201526024810186905273c778417e063141139fce010982780140aa0cd5ab935063a9059cbb92506044019050602060405180830381600087803b1580156129e157600080fd5b505af11580156129f5573d6000803e3d6000fd5b505050506040513d601f19601f82011682018060405250810190612a1991906135b0565b50600190505b604080516001600160a01b0385168152602081018490528215158183015290517fdbd5389f52533f4cbd998e752125a5a4eaa0b813b399ad15f775ec0e8438620d9181900360600190a192915050565b60085415612ace5760405162461bcd60e51b815260206004820152602660248201527f53657475702068617320616c7265616479206265656e20636f6d706c657465646044820152651037b731b29760d11b6064820152608401610e82565b600160005b8251811015612bd7576000838281518110612afe57634e487b7160e01b600052603260045260246000fd5b6020026020010151905060006001600160a01b0316816001600160a01b031614158015612b3557506001600160a01b038116600114155b8015612b4a57506001600160a01b0381163014155b8015612b685750806001600160a01b0316836001600160a01b031614155b612b7157600080fd5b6001600160a01b038181166000908152600660205260409020541615612b9657600080fd5b6001600160a01b03928316600090815260066020526040902080546001600160a01b0319169382169390931790925580612bcf81614175565b915050612ad3565b506001600160a01b0316600090815260066020526040902080546001600160a01b03191660019081179091559051600755600855565b60405163a22cb46560e01b815273e7dd1252f50b3d845590da0c5eadd985049a03ce600482015260016024820152737c2668bd0d3c050703cecc956c11bd520c26f7d49063a22cb46590604401600060405180830381600087803b158015612c7457600080fd5b505af1158015611c92573d6000803e3d6000fd5b612ccb82828080602002602001604051908101604052809392919081815260200183836020028082843760009201829052505492506115cc91508890508761273f565b612ce75760405162461bcd60e51b8152600401610e8290613ebc565b6000805b600154811015611aec57612cff8187611e3f565b612d3e57612d0d81876128d6565b612d3160038281548110611abc57634e487b7160e01b600052603260045260246000fd5b612d3b90836140f0565b91505b80612d4881614175565b915050612ceb565b6000828260405160200161276992919091825260601b6bffffffffffffffffffffffff1916602082015260340190565b600080836001600160a01b03168361753090604051600060405180830381858888f193505050503d8060008114612dd3576040519150601f19603f3d011682016040523d82523d6000602084013e612dd8565b606091505b509095945050505050565b60006001600160401b0380841115612dfd57612dfd6141a6565b604051601f8501601f19908116603f01168101908282118183101715612e2557612e256141a6565b81604052809350858152868686011115612e3e57600080fd5b858560208301376000602087830101525050509392505050565b60008083601f840112612e69578182fd5b5081356001600160401b03811115612e7f578182fd5b6020830191508360208260051b8501011115612e9a57600080fd5b9250929050565b8035612eac816141d1565b919050565b60008083601f840112612ec2578182fd5b5081356001600160401b03811115612ed8578182fd5b602083019150836020828501011115612e9a57600080fd5b600082601f830112612f00578081fd5b6114ed83833560208501612de3565b600060608284031215612f20578081fd5b50919050565b600060808284031215612f20578081fd5b803560ff81168114612eac57600080fd5b600060208284031215612f59578081fd5b81356114ed816141bc565b600060208284031215612f75578081fd5b81516114ed816141bc565b60008060408385031215612f92578081fd5b8235612f9d816141bc565b91506020830135612fad816141bc565b809150509250929050565b600080600060608486031215612fcc578081fd5b8335612fd7816141bc565b92506020840135612fe7816141bc565b91506040840135612ff7816141bc565b809150509250925092565b60008060008060008060008060c0898b03121561301d578586fd5b8835613028816141bc565b97506020890135613038816141bc565b96506040890135613048816141bc565b95506060890135945060808901356001600160401b038082111561306a578586fd5b6130768c838d01612eb1565b909650945060a08b013591508082111561308e578384fd5b5061309b8b828c01612eb1565b999c989b5096995094979396929594505050565b60008060008060008060008060a0898b0312156130ca578182fd5b88356130d5816141bc565b975060208901356130e5816141bc565b965060408901356001600160401b0380821115613100578384fd5b61310c8c838d01612e58565b909850965060608b0135915080821115613124578384fd5b6131308c838d01612e58565b909650945060808b013591508082111561308e578384fd5b60008060006060848603121561315c578081fd5b8335613167816141bc565b92506020840135613177816141bc565b91506040840135612ff7816141d1565b60008060006060848603121561319b578081fd5b83356131a6816141bc565b925060208401356131b6816141bc565b929592945050506040919091013590565b6000806000806000608086880312156131de578283fd5b85356131e9816141bc565b945060208601356131f9816141bc565b93506040860135925060608601356001600160401b0381111561321a578182fd5b61322688828901612eb1565b969995985093965092949392505050565b60008060008060008060a0878903121561324f578384fd5b863561325a816141bc565b9550602087013561326a816141bc565b9450604087013593506060870135925060808701356001600160401b03811115613292578283fd5b61329e89828a01612eb1565b979a9699509497509295939492505050565b6000806000604084860312156132c4578081fd5b83356132cf816141bc565b925060208401356001600160401b038111156132e9578182fd5b6132f586828701612e58565b9497909650939450505050565b60008060008060008060006080888a03121561331c578081fd5b8735613327816141bc565b965060208801356001600160401b0380821115613342578283fd5b61334e8b838c01612e58565b909850965060408a0135915080821115613366578283fd5b6133728b838c01612e58565b909650945060608a013591508082111561338a578283fd5b506133978a828b01612e58565b989b979a50959850939692959293505050565b600080604083850312156133bc578182fd5b82356133c7816141bc565b915060208301356001600160401b038111156133e1578182fd5b8301601f810185136133f1578182fd5b61340085823560208401612de3565b9150509250929050565b60008060006060848603121561341e578081fd5b8335613429816141bc565b925060208401356001600160401b0380821115613444578283fd5b61345087838801612ef0565b93506040860135915080821115613465578283fd5b5061347286828701612ef0565b9150509250925092565b6000806000806101208587031215613492578182fd5b843561349d816141bc565b935060208501356001600160401b038111156134b7578283fd5b6134c387828801612f26565b9350506134d38660408701612f0f565b91506134e28660a08701612f26565b905092959194509250565b600080604083850312156134ff578182fd5b823561350a816141bc565b946020939093013593505050565b6000806000806060858703121561352d578182fd5b8435613538816141bc565b93506020850135925060408501356001600160401b03811115613559578283fd5b61356587828801612e58565b95989497509550505050565b60008060208385031215613583578182fd5b82356001600160401b03811115613598578283fd5b6135a485828601612e58565b90969095509350505050565b6000602082840312156135c1578081fd5b81516114ed816141d1565b6000602082840312156135dd578081fd5b81356001600160e01b0319811681146114ed578182fd5b60008060208385031215613606578182fd5b82356001600160401b0381111561361b578283fd5b6135a485828601612eb1565b60008060008060008060008060c0898b031215613642578182fd5b88356001600160401b0380821115613658578384fd5b6136648c838d01612eb1565b909a50985060208b013591508082111561367c578384fd5b506136898b828c01612eb1565b909750955050604089013561369d816141bc565b935060608901356136ad816141bc565b979a969950949793969295929450505060808201359160a0013590565b60008060008060008060008060008060006101608c8e0312156136eb578485fd5b6001600160401b03808d351115613700578586fd5b61370d8e8e358f01612ef0565b9b508060208e0135111561371f578586fd5b61372f8e60208f01358f01612ef0565b9a508060408e01351115613741578586fd5b6137518e60408f01358f01612ef0565b99508060608e01351115613763578586fd5b6137738e60608f01358f01612ef0565b985060808d013597508060a08e0135111561378c578586fd5b5061379d8d60a08e01358e01612ef0565b955060c08c0135945060e08c013593506101008c013592506101208c013591506137ca6101408d01612ea1565b90509295989b509295989b9093969950565b600080608083850312156137ee578182fd5b82356001600160401b03811115613803578283fd5b61380f85828601612f26565b92505061381f8460208501612f0f565b90509250929050565b60008060008060c0858703121561383d578182fd5b84356001600160401b03811115613852578283fd5b61385e87828801612f26565b94505061386e8660208701612f0f565b939693955050505060808201359160a0013590565b600060208284031215613894578081fd5b5035919050565b6000602082840312156138ac578081fd5b5051919050565b600080604083850312156138c5578182fd5b823591506020830135612fad816141bc565b6000806000806000608086880312156138ee578283fd5b853594506020860135613900816141bc565b93506040860135925060608601356001600160401b03811115613921578182fd5b61322688828901612e58565b600080600080600080600060e0888a031215613947578081fd5b873596506020880135613959816141bc565b955060408801359450606088013593506080880135613977816141bc565b925061398560a08901612f37565b915060c0880135613995816141bc565b8091505092959891949750929550565b600080604083850312156139b7578182fd5b823591506020830135612fad816141d1565b6000806000604084860312156139dd578081fd5b8335925060208401356001600160401b038111156139f9578182fd5b6132f586828701612eb1565b600080600080600060608688031215613a1c578283fd5b8535945060208601356001600160401b0380821115613a39578485fd5b613a4589838a01612eb1565b90965094506040880135915080821115613a5d578283fd5b5061322688828901612eb1565b6000808284036060811215613a7d578283fd5b833592506040601f1982011215613a92578182fd5b506020830190509250929050565b60008060808385031215613ab2578182fd5b8235915061381f8460208501612f0f565b60008082840360c0811215613ad6578283fd5b8335925060a0601f1982011215613a92578182fd5b60008060408385031215613afd578182fd5b50508035926020909101359150565b81835281816020850137506000828201602090810191909152601f909101601f19169091010190565b60008151808452815b81811015613b5a57602081850181015186830182015201613b3e565b81811115613b6b5782602083870101525b50601f01601f19169290920160200192915050565b6000613b8c82836140ac565b60808552613b9e608086018284613b0c565b915050613bae60208401846140ac565b8583036020870152613bc1838284613b0c565b9250505060408301356040850152606083013560608501528091505092915050565b6001600160a01b038916815261010060208201819052600090613c088382018b613b35565b90508281036040840152613c1c818a613b35565b90508281036060840152613c308189613b35565b90508281036080840152613c448188613b35565b905082810360a0840152613c588187613b35565b60c0840195909552505060e001529695505050505050565b6001600160a01b038516815261012060208201819052600090613c9583820187613b80565b915050613cb960408301858035825260208082013590830152604090810135910152565b823560a083015260ff613cce60208501612f37565b1660c0830152604083013560e0830152606083013561010083015295945050505050565b60208082528181018390526000908460408401835b86811015613d35578235613d1a816141bc565b6001600160a01b031682529183019190830190600101613d07565b509695505050505050565b6020808252825182820181905260009190848201906040850190845b81811015613d815783516001600160a01b031683529284019291840191600101613d5c565b50909695505050505050565b602081526000613da1602083018486613b0c565b949350505050565b60c081526000613dbd60c083018a8c613b0c565b8281036020840152613dd081898b613b0c565b6001600160a01b03978816604085015295909616606083015250608081019290925260a09091015295945050505050565b604081526000613e146040830185613b35565b8281036020840152613e268185613b35565b95945050505050565b6000610120808352613e438184018d613b35565b90508281036020840152613e57818c613b35565b90508281036040840152613e6b818b613b35565b90508281036060840152613e7f818a613b35565b905087608084015282810360a0840152613e998188613b35565b60c0840196909652505060e0810192909252610100909101529695505050505050565b6020808252600d908201526c24b73b30b634b210383937b7b360991b604082015260600190565b608081526000613ef66080830185613b80565b90506114ed60208301848035825260208082013590830152604090810135910152565b9687526001600160a01b039586166020880152604087019490945260608601929092528316608085015260ff1660a08401521660c082015260e00190565b838152604060208201526000613e26604083018486613b0c565b6000606082019050838252823560208301526020830135613f91816141bc565b6001600160a01b03166040929092019190915292915050565b828152608081016114ed60208301848035825260208082013590830152604090810135910152565b600060c082019050838252823560208301526020830135613ff2816141bc565b6001600160a01b0390811660408481019190915284013590614013826141bc565b80821660608501526060850135915061402b826141bc565b80821660808501525050608083013560a08301529392505050565b6000808335601e1984360301811261405c578283fd5b8301803591506001600160401b03821115614075578283fd5b6020019150600581901b3603821315612e9a57600080fd5b60008235601e198336030181126140a2578182fd5b9190910192915050565b6000808335601e198436030181126140c2578283fd5b83016020810192503590506001600160401b038111156140e157600080fd5b803603831315612e9a57600080fd5b6000821982111561410357614103614190565b500190565b60008261412357634e487b7160e01b81526012600452602481fd5b500490565b600081600019048311821515161561414257614142614190565b500290565b60008282101561415957614159614190565b500390565b60008161416d5761416d614190565b506000190190565b600060001982141561418957614189614190565b5060010190565b634e487b7160e01b600052601160045260246000fd5b634e487b7160e01b600052604160045260246000fd5b6001600160a01b038116811461260f57600080fd5b801515811461260f57600080fdfea2646970667358221220fbd763af9a84ba025a457e22812480e1058e6a17b87b09df99bf23c3a725b3f864736f6c63430008040033",
  "linkReferences": {},
  "deployedLinkReferences": {}
}