{
  "_format": "hh-sol-artifact-1",
  "contractName": "SingleEditionMintable",
  "sourceName": "contracts/SingleEditionMintable.sol",
  "abi": [
    {
      "inputs": [
        {
          "internalType": "contract SharedNFTLogic",
          "name": "_sharedNFTLogic",
          "type": "address"
        }
      ],
      "stateMutability": "nonpayable",
      "type": "constructor"
    },
    {
      "anonymous": false,
      "inputs": [
        {
          "indexed": true,
          "internalType": "address",
          "name": "owner",
          "type": "address"
        },
        {
          "indexed": true,
          "internalType": "address",
          "name": "approved",
          "type": "address"
        },
        {
          "indexed": true,
          "internalType": "uint256",
          "name": "tokenId",
          "type": "uint256"
        }
      ],
      "name": "Approval",
      "type": "event"
    },
    {
      "anonymous": false,
      "inputs": [
        {
          "indexed": true,
          "internalType": "address",
          "name": "owner",
          "type": "address"
        },
        {
          "indexed": true,
          "internalType": "address",
          "name": "operator",
          "type": "address"
        },
        {
          "indexed": false,
          "internalType": "bool",
          "name": "approved",
          "type": "bool"
        }
      ],
      "name": "ApprovalForAll",
      "type": "event"
    },
    {
      "anonymous": false,
      "inputs": [
        {
          "indexed": false,
          "internalType": "uint256",
          "name": "price",
          "type": "uint256"
        },
        {
          "indexed": false,
          "internalType": "address",
          "name": "owner",
          "type": "address"
        }
      ],
      "name": "EditionSold",
      "type": "event"
    },
    {
      "anonymous": false,
      "inputs": [
        {
          "indexed": true,
          "internalType": "address",
          "name": "previousOwner",
          "type": "address"
        },
        {
          "indexed": true,
          "internalType": "address",
          "name": "newOwner",
          "type": "address"
        }
      ],
      "name": "OwnershipTransferred",
      "type": "event"
    },
    {
      "anonymous": false,
      "inputs": [
        {
          "indexed": false,
          "internalType": "uint256",
          "name": "amount",
          "type": "uint256"
        }
      ],
      "name": "PriceChanged",
      "type": "event"
    },
    {
      "anonymous": false,
      "inputs": [
        {
          "indexed": true,
          "internalType": "address",
          "name": "from",
          "type": "address"
        },
        {
          "indexed": true,
          "internalType": "address",
          "name": "to",
          "type": "address"
        },
        {
          "indexed": true,
          "internalType": "uint256",
          "name": "tokenId",
          "type": "uint256"
        }
      ],
      "name": "Transfer",
      "type": "event"
    },
    {
      "inputs": [
        {
          "internalType": "address",
          "name": "to",
          "type": "address"
        },
        {
          "internalType": "uint256",
          "name": "tokenId",
          "type": "uint256"
        }
      ],
      "name": "approve",
      "outputs": [],
      "stateMutability": "nonpayable",
      "type": "function"
    },
    {
      "inputs": [
        {
          "internalType": "address",
          "name": "owner",
          "type": "address"
        }
      ],
      "name": "balanceOf",
      "outputs": [
        {
          "internalType": "uint256",
          "name": "",
          "type": "uint256"
        }
      ],
      "stateMutability": "view",
      "type": "function"
    },
    {
      "inputs": [
        {
          "internalType": "uint256",
          "name": "tokenId",
          "type": "uint256"
        }
      ],
      "name": "burn",
      "outputs": [],
      "stateMutability": "nonpayable",
      "type": "function"
    },
    {
      "inputs": [],
      "name": "editionSize",
      "outputs": [
        {
          "internalType": "uint256",
          "name": "",
          "type": "uint256"
        }
      ],
      "stateMutability": "view",
      "type": "function"
    },
    {
      "inputs": [
        {
          "internalType": "uint256",
          "name": "tokenId",
          "type": "uint256"
        }
      ],
      "name": "getApproved",
      "outputs": [
        {
          "internalType": "address",
          "name": "",
          "type": "address"
        }
      ],
      "stateMutability": "view",
      "type": "function"
    },
    {
      "inputs": [],
      "name": "getURIs",
      "outputs": [
        {
          "internalType": "string",
          "name": "",
          "type": "string"
        },
        {
          "internalType": "bytes32",
          "name": "",
          "type": "bytes32"
        },
        {
          "internalType": "string",
          "name": "",
          "type": "string"
        },
        {
          "internalType": "bytes32",
          "name": "",
          "type": "bytes32"
        }
      ],
      "stateMutability": "view",
      "type": "function"
    },
    {
      "inputs": [
        {
          "internalType": "address",
          "name": "_owner",
          "type": "address"
        },
        {
          "internalType": "string",
          "name": "_name",
          "type": "string"
        },
        {
          "internalType": "string",
          "name": "_symbol",
          "type": "string"
        },
        {
          "internalType": "string",
          "name": "_description",
          "type": "string"
        },
        {
          "internalType": "string",
          "name": "_animationUrl",
          "type": "string"
        },
        {
          "internalType": "bytes32",
          "name": "_animationHash",
          "type": "bytes32"
        },
        {
          "internalType": "string",
          "name": "_imageUrl",
          "type": "string"
        },
        {
          "internalType": "bytes32",
          "name": "_imageHash",
          "type": "bytes32"
        },
        {
          "internalType": "uint256",
          "name": "_editionSize",
          "type": "uint256"
        },
        {
          "internalType": "uint256",
          "name": "_royaltyBPS",
          "type": "uint256"
        }
      ],
      "name": "initialize",
      "outputs": [],
      "stateMutability": "nonpayable",
      "type": "function"
    },
    {
      "inputs": [
        {
          "internalType": "address",
          "name": "owner",
          "type": "address"
        },
        {
          "internalType": "address",
          "name": "operator",
          "type": "address"
        }
      ],
      "name": "isApprovedForAll",
      "outputs": [
        {
          "internalType": "bool",
          "name": "",
          "type": "bool"
        }
      ],
      "stateMutability": "view",
      "type": "function"
    },
    {
      "inputs": [
        {
          "internalType": "address",
          "name": "to",
          "type": "address"
        }
      ],
      "name": "mintEdition",
      "outputs": [
        {
          "internalType": "uint256",
          "name": "",
          "type": "uint256"
        }
      ],
      "stateMutability": "nonpayable",
      "type": "function"
    },
    {
      "inputs": [
        {
          "internalType": "address[]",
          "name": "recipients",
          "type": "address[]"
        }
      ],
      "name": "mintEditions",
      "outputs": [
        {
          "internalType": "uint256",
          "name": "",
          "type": "uint256"
        }
      ],
      "stateMutability": "nonpayable",
      "type": "function"
    },
    {
      "inputs": [],
      "name": "name",
      "outputs": [
        {
          "internalType": "string",
          "name": "",
          "type": "string"
        }
      ],
      "stateMutability": "view",
      "type": "function"
    },
    {
      "inputs": [],
      "name": "owner",
      "outputs": [
        {
          "internalType": "address",
          "name": "",
          "type": "address"
        }
      ],
      "stateMutability": "view",
      "type": "function"
    },
    {
      "inputs": [
        {
          "internalType": "uint256",
          "name": "tokenId",
          "type": "uint256"
        }
      ],
      "name": "ownerOf",
      "outputs": [
        {
          "internalType": "address",
          "name": "",
          "type": "address"
        }
      ],
      "stateMutability": "view",
      "type": "function"
    },
    {
      "inputs": [],
      "name": "purchase",
      "outputs": [
        {
          "internalType": "uint256",
          "name": "",
          "type": "uint256"
        }
      ],
      "stateMutability": "payable",
      "type": "function"
    },
    {
      "inputs": [],
      "name": "renounceOwnership",
      "outputs": [],
      "stateMutability": "nonpayable",
      "type": "function"
    },
    {
      "inputs": [
        {
          "internalType": "uint256",
          "name": "",
          "type": "uint256"
        },
        {
          "internalType": "uint256",
          "name": "_salePrice",
          "type": "uint256"
        }
      ],
      "name": "royaltyInfo",
      "outputs": [
        {
          "internalType": "address",
          "name": "receiver",
          "type": "address"
        },
        {
          "internalType": "uint256",
          "name": "royaltyAmount",
          "type": "uint256"
        }
      ],
      "stateMutability": "view",
      "type": "function"
    },
    {
      "inputs": [
        {
          "internalType": "address",
          "name": "from",
          "type": "address"
        },
        {
          "internalType": "address",
          "name": "to",
          "type": "address"
        },
        {
          "internalType": "uint256",
          "name": "tokenId",
          "type": "uint256"
        }
      ],
      "name": "safeTransferFrom",
      "outputs": [],
      "stateMutability": "nonpayable",
      "type": "function"
    },
    {
      "inputs": [
        {
          "internalType": "address",
          "name": "from",
          "type": "address"
        },
        {
          "internalType": "address",
          "name": "to",
          "type": "address"
        },
        {
          "internalType": "uint256",
          "name": "tokenId",
          "type": "uint256"
        },
        {
          "internalType": "bytes",
          "name": "_data",
          "type": "bytes"
        }
      ],
      "name": "safeTransferFrom",
      "outputs": [],
      "stateMutability": "nonpayable",
      "type": "function"
    },
    {
      "inputs": [],
      "name": "salePrice",
      "outputs": [
        {
          "internalType": "uint256",
          "name": "",
          "type": "uint256"
        }
      ],
      "stateMutability": "view",
      "type": "function"
    },
    {
      "inputs": [
        {
          "internalType": "address",
          "name": "operator",
          "type": "address"
        },
        {
          "internalType": "bool",
          "name": "approved",
          "type": "bool"
        }
      ],
      "name": "setApprovalForAll",
      "outputs": [],
      "stateMutability": "nonpayable",
      "type": "function"
    },
    {
      "inputs": [
        {
          "internalType": "address",
          "name": "minter",
          "type": "address"
        },
        {
          "internalType": "bool",
          "name": "allowed",
          "type": "bool"
        }
      ],
      "name": "setApprovedMinter",
      "outputs": [],
      "stateMutability": "nonpayable",
      "type": "function"
    },
    {
      "inputs": [
        {
          "internalType": "uint256",
          "name": "_salePrice",
          "type": "uint256"
        }
      ],
      "name": "setSalePrice",
      "outputs": [],
      "stateMutability": "nonpayable",
      "type": "function"
    },
    {
      "inputs": [
        {
          "internalType": "bytes4",
          "name": "interfaceId",
          "type": "bytes4"
        }
      ],
      "name": "supportsInterface",
      "outputs": [
        {
          "internalType": "bool",
          "name": "",
          "type": "bool"
        }
      ],
      "stateMutability": "view",
      "type": "function"
    },
    {
      "inputs": [],
      "name": "symbol",
      "outputs": [
        {
          "internalType": "string",
          "name": "",
          "type": "string"
        }
      ],
      "stateMutability": "view",
      "type": "function"
    },
    {
      "inputs": [
        {
          "internalType": "uint256",
          "name": "tokenId",
          "type": "uint256"
        }
      ],
      "name": "tokenURI",
      "outputs": [
        {
          "internalType": "string",
          "name": "",
          "type": "string"
        }
      ],
      "stateMutability": "view",
      "type": "function"
    },
    {
      "inputs": [],
      "name": "totalSupply",
      "outputs": [
        {
          "internalType": "uint256",
          "name": "",
          "type": "uint256"
        }
      ],
      "stateMutability": "view",
      "type": "function"
    },
    {
      "inputs": [
        {
          "internalType": "address",
          "name": "from",
          "type": "address"
        },
        {
          "internalType": "address",
          "name": "to",
          "type": "address"
        },
        {
          "internalType": "uint256",
          "name": "tokenId",
          "type": "uint256"
        }
      ],
      "name": "transferFrom",
      "outputs": [],
      "stateMutability": "nonpayable",
      "type": "function"
    },
    {
      "inputs": [
        {
          "internalType": "address",
          "name": "newOwner",
          "type": "address"
        }
      ],
      "name": "transferOwnership",
      "outputs": [],
      "stateMutability": "nonpayable",
      "type": "function"
    },
    {
      "inputs": [
        {
          "internalType": "string",
          "name": "_imageUrl",
          "type": "string"
        },
        {
          "internalType": "string",
          "name": "_animationUrl",
          "type": "string"
        }
      ],
      "name": "updateEditionURLs",
      "outputs": [],
      "stateMutability": "nonpayable",
      "type": "function"
    },
    {
      "inputs": [],
      "name": "withdraw",
      "outputs": [],
      "stateMutability": "nonpayable",
      "type": "function"
    }
  ],
  "bytecode": "0x60a06040523480156200001157600080fd5b50604051620027f5380380620027f583398101604081905262000034916200004a565b60601b6001600160601b0319166080526200007c565b6000602082840312156200005d57600080fd5b81516001600160a01b03811681146200007557600080fd5b9392505050565b60805160601c61275a6200009b60003960006110ef015261275a6000f3fe60806040526004361061018d5760003560e01c80636352211e116100d7578063a66ff0af11610085578063a66ff0af14610466578063b88d4fde14610486578063c87b56dd146104a6578063e444bfcc146104c6578063e985e9c5146104e6578063f2fde38b14610506578063f4ed0f4614610526578063f51f96dd1461053c57600080fd5b80636352211e146103bf57806364edfbf0146103df57806370a08231146103e7578063715018a6146104075780638da5cb5b1461041c57806395d89b4114610431578063a22cb4651461044657600080fd5b806323b872dd1161013f57806323b872dd146102a657806325f0ea90146102c657806328c5440f146102e657806329ec16dd1461030b5780632a55205a1461032b5780633ccfd60b1461036a57806342842e0e1461037f57806342966c681461039f57600080fd5b806301ffc9a71461019257806306fdde03146101c7578063081812fc146101e9578063095ea7b3146102215780630f6a93491461024357806318160ddd146102715780631919fed714610286575b600080fd5b34801561019e57600080fd5b506101b26101ad366004612117565b610552565b60405190151581526020015b60405180910390f35b3480156101d357600080fd5b506101dc61057d565b6040516101be919061236e565b3480156101f557600080fd5b5061020961020436600461222a565b61060f565b6040516001600160a01b0390911681526020016101be565b34801561022d57600080fd5b5061024161023c36600461203a565b61069c565b005b34801561024f57600080fd5b5061026361025e366004612064565b6107ad565b6040519081526020016101be565b34801561027d57600080fd5b506102636107dc565b34801561029257600080fd5b506102416102a136600461222a565b6107f8565b3480156102b257600080fd5b506102416102c1366004611e3d565b610862565b3480156102d257600080fd5b506102416102e1366004611f30565b610894565b3480156102f257600080fd5b506102fb610983565b6040516101be9493929190612381565b34801561031757600080fd5b50610241610326366004611ef4565b610abb565b34801561033757600080fd5b5061034b610346366004612243565b610b15565b604080516001600160a01b0390931683526020830191909152016101be565b34801561037657600080fd5b50610241610b72565b34801561038b57600080fd5b5061024161039a366004611e3d565b610c48565b3480156103ab57600080fd5b506102416103ba36600461222a565b610c63565b3480156103cb57600080fd5b506102096103da36600461222a565b610cb0565b610263610d27565b3480156103f357600080fd5b50610263610402366004611def565b610e41565b34801561041357600080fd5b50610241610ec8565b34801561042857600080fd5b50610209610f03565b34801561043d57600080fd5b506101dc610f17565b34801561045257600080fd5b50610241610461366004611ef4565b610f26565b34801561047257600080fd5b50610263610481366004611def565b610fe7565b34801561049257600080fd5b506102416104a1366004611e79565b611073565b3480156104b257600080fd5b506101dc6104c136600461222a565b6110ab565b3480156104d257600080fd5b506102416104e13660046121c7565b6111a3565b3480156104f257600080fd5b506101b2610501366004611e0a565b6111f9565b34801561051257600080fd5b50610241610521366004611def565b611227565b34801561053257600080fd5b5061026360ce5481565b34801561054857600080fd5b5061026360d25481565b600063152a902d60e11b6001600160e01b0319831614806105775750610577826112c4565b92915050565b60606065805461058c90612671565b80601f01602080910402602001604051908101604052809291908181526020018280546105b890612671565b80156106055780601f106105da57610100808354040283529160200191610605565b820191906000526020600020905b8154815290600101906020018083116105e857829003601f168201915b5050505050905090565b600061061a82611314565b6106805760405162461bcd60e51b815260206004820152602c60248201527f4552433732313a20617070726f76656420717565727920666f72206e6f6e657860448201526b34b9ba32b73a103a37b5b2b760a11b60648201526084015b60405180910390fd5b506000908152606960205260409020546001600160a01b031690565b60006106a782610cb0565b9050806001600160a01b0316836001600160a01b031614156107155760405162461bcd60e51b815260206004820152602160248201527f4552433732313a20617070726f76616c20746f2063757272656e74206f776e656044820152603960f91b6064820152608401610677565b336001600160a01b0382161480610731575061073181336111f9565b61079e5760405162461bcd60e51b815260206004820152603860248201527f4552433732313a20617070726f76652063616c6c6572206973206e6f74206f776044820152771b995c881b9bdc88185c1c1c9bdd995908199bdc88185b1b60421b6064820152608401610677565b6107a88383611331565b505050565b60006107b761139f565b6107d35760405162461bcd60e51b8152600401610677906124f6565b6105778261140e565b600060016107e960cf5490565b6107f3919061262e565b905090565b33610801610f03565b6001600160a01b0316146108275760405162461bcd60e51b8152600401610677906124c1565b60d28190556040518181527fa6dc15bdb68da224c66db4b3838d9a2b205138e8cff6774e57d0af91e196d6229060200160405180910390a150565b61086d335b826114ef565b6108895760405162461bcd60e51b81526004016106779061252d565b6107a88383836115b1565b600054610100900460ff16806108ad575060005460ff16155b6108c95760405162461bcd60e51b815260040161067790612473565b600054610100900460ff161580156108eb576000805461ffff19166101011790555b6108f58a8a61173f565b6108fd6117c6565b6109068b611227565b87516109199060c99060208b0190611cdc565b50865161092d9060ca9060208a0190611cdc565b5060cb86905584516109469060cc906020880190611cdc565b5060cd84905560ce83905560d082905561096460cf80546001019055565b8015610976576000805461ff00191690555b5050505050505050505050565b606060006060600060cc60cd5460ca60cb548380546109a190612671565b80601f01602080910402602001604051908101604052809291908181526020018280546109cd90612671565b8015610a1a5780601f106109ef57610100808354040283529160200191610a1a565b820191906000526020600020905b8154815290600101906020018083116109fd57829003601f168201915b50505050509350818054610a2d90612671565b80601f0160208091040260200160405190810160405280929190818152602001828054610a5990612671565b8015610aa65780601f10610a7b57610100808354040283529160200191610aa6565b820191906000526020600020905b815481529060010190602001808311610a8957829003601f168201915b50505050509150935093509350935090919293565b33610ac4610f03565b6001600160a01b031614610aea5760405162461bcd60e51b8152600401610677906124c1565b6001600160a01b0391909116600090815260d160205260409020805460ff1916911515919091179055565b60008080610b21610f03565b6001600160a01b03161415610b4357610b38610f03565b600091509150610b6b565b610b4b610f03565b61271060d05485610b5c919061260f565b610b6691906125ed565b915091505b9250929050565b33610b7b610f03565b6001600160a01b031614610ba15760405162461bcd60e51b8152600401610677906124c1565b6000610bab610f03565b6001600160a01b0316476184d090604051600060405180830381858888f193505050503d8060008114610bfa576040519150601f19603f3d011682016040523d82523d6000602084013e610bff565b606091505b5050905080610c455760405162461bcd60e51b815260206004820152601260248201527108cc2d2d8cac840e8de40e6cadcc8408aa8960731b6044820152606401610677565b50565b6107a883838360405180602001604052806000815250611073565b610c6c33610867565b610ca75760405162461bcd60e51b815260206004820152600c60248201526b139bdd08185c1c1c9bdd995960a21b6044820152606401610677565b610c4581611841565b6000818152606760205260408120546001600160a01b0316806105775760405162461bcd60e51b815260206004820152602960248201527f4552433732313a206f776e657220717565727920666f72206e6f6e657869737460448201526832b73a103a37b5b2b760b91b6064820152608401610677565b60008060d25411610d695760405162461bcd60e51b815260206004820152600c60248201526b4e6f7420666f722073616c6560a01b6044820152606401610677565b60d2543414610da85760405162461bcd60e51b815260206004820152600b60248201526a57726f6e6720707269636560a81b6044820152606401610677565b604080516001808252818301909252600091602080830190803683370190505090503381600081518110610dde57610dde6126c2565b6001600160a01b0390921660209283029190910182015260d2546040805191825233928201929092527f60a6c75698fadb72223808131f9f9bb9db3afa32122db6d94fb8fc985a504baa910160405180910390a1610e3b8161140e565b91505090565b60006001600160a01b038216610eac5760405162461bcd60e51b815260206004820152602a60248201527f4552433732313a2062616c616e636520717565727920666f7220746865207a65604482015269726f206164647265737360b01b6064820152608401610677565b506001600160a01b031660009081526068602052604090205490565b33610ed1610f03565b6001600160a01b031614610ef75760405162461bcd60e51b8152600401610677906124c1565b610f0160006118ca565b565b60006107f36097546001600160a01b031690565b60606066805461058c90612671565b6001600160a01b038216331415610f7b5760405162461bcd60e51b815260206004820152601960248201527822a9219b99189d1030b8383937bb32903a379031b0b63632b960391b6044820152606401610677565b336000818152606a602090815260408083206001600160a01b03871680855290835292819020805460ff191686151590811790915590519081529192917f17307eab39ab6107e8899845ad3d59bd9653f200f220920489ca2b5937696c31910160405180910390a35050565b6000610ff161139f565b61100d5760405162461bcd60e51b8152600401610677906124f6565b604080516001808252818301909252600091602080830190803683370190505090508281600081518110611043576110436126c2565b60200260200101906001600160a01b031690816001600160a01b03168152505061106c8161140e565b9392505050565b61107d33836114ef565b6110995760405162461bcd60e51b81526004016106779061252d565b6110a58484848461191c565b50505050565b60606110b682611314565b6110ed5760405162461bcd60e51b81526020600482015260086024820152672737903a37b5b2b760c11b6044820152606401610677565b7f00000000000000000000000000000000000000000000000000000000000000006001600160a01b031663df30dba061112461057d565b60c960cc60ca8760ce546040518763ffffffff1660e01b815260040161114f969594939291906123be565b60006040518083038186803b15801561116757600080fd5b505afa15801561117b573d6000803e3d6000fd5b505050506040513d6000823e601f3d908101601f191682016040526105779190810190612151565b336111ac610f03565b6001600160a01b0316146111d25760405162461bcd60e51b8152600401610677906124c1565b81516111e59060cc906020850190611cdc565b5080516107a89060ca906020840190611cdc565b6001600160a01b039182166000908152606a6020908152604080832093909416825291909152205460ff1690565b33611230610f03565b6001600160a01b0316146112565760405162461bcd60e51b8152600401610677906124c1565b6001600160a01b0381166112bb5760405162461bcd60e51b815260206004820152602660248201527f4f776e61626c653a206e6577206f776e657220697320746865207a65726f206160448201526564647265737360d01b6064820152608401610677565b610c45816118ca565b60006001600160e01b031982166380ac58cd60e01b14806112f557506001600160e01b03198216635b5e139f60e01b145b8061057757506301ffc9a760e01b6001600160e01b0319831614610577565b6000908152606760205260409020546001600160a01b0316151590565b600081815260696020526040902080546001600160a01b0319166001600160a01b038416908117909155819061136682610cb0565b6001600160a01b03167f8c5be1e5ebec7d5bd14f71427d1e84f3dd0314c0f7b2291e5b200ac8c7c3b92560405160405180910390a45050565b6000336113aa610f03565b6001600160a01b031614156113bf5750600190565b6000805260d16020527efa5413e7b01fc543d01f0911de573ace463b956369df4472f39030e8d98b775460ff16156113f75750600190565b5033600090815260d1602052604090205460ff1690565b60008061141a60cf5490565b90506000600184518361142d91906125d5565b611437919061262e565b905060ce546000148061144c575060ce548111155b6114835760405162461bcd60e51b815260206004820152600860248201526714dbdb19081bdd5d60c21b6044820152606401610677565b8061148d60cf5490565b116114e3576114d084836114a060cf5490565b6114aa919061262e565b815181106114ba576114ba6126c2565b60200260200101516114cb60cf5490565b61194f565b6114de60cf80546001019055565b611483565b60cf545b949350505050565b60006114fa82611314565b61155b5760405162461bcd60e51b815260206004820152602c60248201527f4552433732313a206f70657261746f7220717565727920666f72206e6f6e657860448201526b34b9ba32b73a103a37b5b2b760a11b6064820152608401610677565b600061156683610cb0565b9050806001600160a01b0316846001600160a01b031614806115a15750836001600160a01b03166115968461060f565b6001600160a01b0316145b806114e757506114e781856111f9565b826001600160a01b03166115c482610cb0565b6001600160a01b03161461162c5760405162461bcd60e51b815260206004820152602960248201527f4552433732313a207472616e73666572206f6620746f6b656e2074686174206960448201526839903737ba1037bbb760b91b6064820152608401610677565b6001600160a01b03821661168e5760405162461bcd60e51b8152602060048201526024808201527f4552433732313a207472616e7366657220746f20746865207a65726f206164646044820152637265737360e01b6064820152608401610677565b611699600082611331565b6001600160a01b03831660009081526068602052604081208054600192906116c290849061262e565b90915550506001600160a01b03821660009081526068602052604081208054600192906116f09084906125d5565b909155505060008181526067602052604080822080546001600160a01b0319166001600160a01b03868116918217909255915184939187169160008051602061270583398151915291a4505050565b600054610100900460ff1680611758575060005460ff16155b6117745760405162461bcd60e51b815260040161067790612473565b600054610100900460ff16158015611796576000805461ffff19166101011790555b61179e611a70565b6117a6611a70565b6117b08383611ada565b80156107a8576000805461ff0019169055505050565b600054610100900460ff16806117df575060005460ff16155b6117fb5760405162461bcd60e51b815260040161067790612473565b600054610100900460ff1615801561181d576000805461ffff19166101011790555b611825611a70565b61182d611b6f565b8015610c45576000805461ff001916905550565b600061184c82610cb0565b9050611859600083611331565b6001600160a01b038116600090815260686020526040812080546001929061188290849061262e565b909155505060008281526067602052604080822080546001600160a01b0319169055518391906001600160a01b03841690600080516020612705833981519152908390a45050565b609780546001600160a01b038381166001600160a01b0319831681179093556040519116919082907f8be0079c531659141344cd1fd0a4f28419497f9722a3daafe3b4186f6b6457e090600090a35050565b6119278484846115b1565b61193384848484611bcf565b6110a55760405162461bcd60e51b815260040161067790612421565b6001600160a01b0382166119a55760405162461bcd60e51b815260206004820181905260248201527f4552433732313a206d696e7420746f20746865207a65726f20616464726573736044820152606401610677565b6119ae81611314565b156119fb5760405162461bcd60e51b815260206004820152601c60248201527f4552433732313a20746f6b656e20616c7265616479206d696e746564000000006044820152606401610677565b6001600160a01b0382166000908152606860205260408120805460019290611a249084906125d5565b909155505060008181526067602052604080822080546001600160a01b0319166001600160a01b0386169081179091559051839290600080516020612705833981519152908290a45050565b600054610100900460ff1680611a89575060005460ff16155b611aa55760405162461bcd60e51b815260040161067790612473565b600054610100900460ff1615801561182d576000805461ffff19166101011790558015610c45576000805461ff001916905550565b600054610100900460ff1680611af3575060005460ff16155b611b0f5760405162461bcd60e51b815260040161067790612473565b600054610100900460ff16158015611b31576000805461ffff19166101011790555b8251611b44906065906020860190611cdc565b508151611b58906066906020850190611cdc565b5080156107a8576000805461ff0019169055505050565b600054610100900460ff1680611b88575060005460ff16155b611ba45760405162461bcd60e51b815260040161067790612473565b600054610100900460ff16158015611bc6576000805461ffff19166101011790555b61182d336118ca565b60006001600160a01b0384163b15611cd157604051630a85bd0160e11b81526001600160a01b0385169063150b7a0290611c13903390899088908890600401612331565b602060405180830381600087803b158015611c2d57600080fd5b505af1925050508015611c5d575060408051601f3d908101601f19168201909252611c5a91810190612134565b60015b611cb7573d808015611c8b576040519150601f19603f3d011682016040523d82523d6000602084013e611c90565b606091505b508051611caf5760405162461bcd60e51b815260040161067790612421565b805181602001fd5b6001600160e01b031916630a85bd0160e11b1490506114e7565b506001949350505050565b828054611ce890612671565b90600052602060002090601f016020900481019282611d0a5760008555611d50565b82601f10611d2357805160ff1916838001178555611d50565b82800160010185558215611d50579182015b82811115611d50578251825591602001919060010190611d35565b50611d5c929150611d60565b5090565b5b80821115611d5c5760008155600101611d61565b6000611d88611d83846125ae565b61257e565b9050828152838383011115611d9c57600080fd5b828260208301376000602084830101529392505050565b80356001600160a01b0381168114611dca57600080fd5b919050565b600082601f830112611de057600080fd5b61106c83833560208501611d75565b600060208284031215611e0157600080fd5b61106c82611db3565b60008060408385031215611e1d57600080fd5b611e2683611db3565b9150611e3460208401611db3565b90509250929050565b600080600060608486031215611e5257600080fd5b611e5b84611db3565b9250611e6960208501611db3565b9150604084013590509250925092565b60008060008060808587031215611e8f57600080fd5b611e9885611db3565b9350611ea660208601611db3565b92506040850135915060608501356001600160401b03811115611ec857600080fd5b8501601f81018713611ed957600080fd5b611ee887823560208401611d75565b91505092959194509250565b60008060408385031215611f0757600080fd5b611f1083611db3565b915060208301358015158114611f2557600080fd5b809150509250929050565b6000806000806000806000806000806101408b8d031215611f5057600080fd5b611f598b611db3565b995060208b01356001600160401b0380821115611f7557600080fd5b611f818e838f01611dcf565b9a5060408d0135915080821115611f9757600080fd5b611fa38e838f01611dcf565b995060608d0135915080821115611fb957600080fd5b611fc58e838f01611dcf565b985060808d0135915080821115611fdb57600080fd5b611fe78e838f01611dcf565b975060a08d0135965060c08d013591508082111561200457600080fd5b506120118d828e01611dcf565b94505060e08b013592506101008b013591506101208b013590509295989b9194979a5092959850565b6000806040838503121561204d57600080fd5b61205683611db3565b946020939093013593505050565b6000602080838503121561207757600080fd5b82356001600160401b038082111561208e57600080fd5b818501915085601f8301126120a257600080fd5b8135818111156120b4576120b46126d8565b8060051b91506120c584830161257e565b8181528481019084860184860187018a10156120e057600080fd5b600095505b8386101561210a576120f681611db3565b8352600195909501949186019186016120e5565b5098975050505050505050565b60006020828403121561212957600080fd5b813561106c816126ee565b60006020828403121561214657600080fd5b815161106c816126ee565b60006020828403121561216357600080fd5b81516001600160401b0381111561217957600080fd5b8201601f8101841361218a57600080fd5b8051612198611d83826125ae565b8181528560208385010111156121ad57600080fd5b6121be826020830160208601612645565b95945050505050565b600080604083850312156121da57600080fd5b82356001600160401b03808211156121f157600080fd5b6121fd86838701611dcf565b9350602085013591508082111561221357600080fd5b5061222085828601611dcf565b9150509250929050565b60006020828403121561223c57600080fd5b5035919050565b6000806040838503121561225657600080fd5b50508035926020909101359150565b6000815180845261227d816020860160208601612645565b601f01601f19169290920160200192915050565b8054600090600181811c90808316806122ab57607f831692505b60208084108214156122cd57634e487b7160e01b600052602260045260246000fd5b838852602088018280156122e857600181146122f957612324565b60ff19871682528282019750612324565b60008981526020902060005b8781101561231e57815484820152908601908401612305565b83019850505b5050505050505092915050565b6001600160a01b038581168252841660208201526040810183905260806060820181905260009061236490830184612265565b9695505050505050565b60208152600061106c6020830184612265565b6080815260006123946080830187612265565b85602084015282810360408401526123ac8186612265565b91505082606083015295945050505050565b60c0815260006123d160c0830189612265565b82810360208401526123e38189612291565b905082810360408401526123f78188612291565b9050828103606084015261240b8187612291565b6080840195909552505060a00152949350505050565b60208082526032908201527f4552433732313a207472616e7366657220746f206e6f6e20455243373231526560408201527131b2b4bb32b91034b6b83632b6b2b73a32b960711b606082015260800190565b6020808252602e908201527f496e697469616c697a61626c653a20636f6e747261637420697320616c72656160408201526d191e481a5b9a5d1a585b1a5e995960921b606082015260800190565b6020808252818101527f4f776e61626c653a2063616c6c6572206973206e6f7420746865206f776e6572604082015260600190565b6020808252601d908201527f4e6565647320746f20626520616e20616c6c6f776564206d696e746572000000604082015260600190565b60208082526031908201527f4552433732313a207472616e736665722063616c6c6572206973206e6f74206f6040820152701ddb995c881b9bdc88185c1c1c9bdd9959607a1b606082015260800190565b604051601f8201601f191681016001600160401b03811182821017156125a6576125a66126d8565b604052919050565b60006001600160401b038211156125c7576125c76126d8565b50601f01601f191660200190565b600082198211156125e8576125e86126ac565b500190565b60008261260a57634e487b7160e01b600052601260045260246000fd5b500490565b6000816000190483118215151615612629576126296126ac565b500290565b600082821015612640576126406126ac565b500390565b60005b83811015612660578181015183820152602001612648565b838111156110a55750506000910152565b600181811c9082168061268557607f821691505b602082108114156126a657634e487b7160e01b600052602260045260246000fd5b50919050565b634e487b7160e01b600052601160045260246000fd5b634e487b7160e01b600052603260045260246000fd5b634e487b7160e01b600052604160045260246000fd5b6001600160e01b031981168114610c4557600080fdfeddf252ad1be2c89b69c2b068fc378daa952ba7f163c4a11628f55a4df523b3efa26469706673582212208fac6db30ad662d79b85bbcf269d391226a8ab2e48c32cc9202bf0f2e30f600564736f6c63430008060033",
  "linkReferences": {},
  "deployedLinkReferences": {}
}