{
  "_format": "hh-sol-artifact-1",
  "contractName": "OurFactory",
  "sourceName": "contracts/OurFactory.sol",
  "abi": [
    {
      "inputs": [
        {
          "internalType": "address",
          "name": "pylon_",
          "type": "address"
        }
      ],
      "stateMutability": "nonpayable",
      "type": "constructor"
    },
    {
      "anonymous": false,
      "inputs": [
        {
          "indexed": false,
          "internalType": "address",
          "name": "ourProxy",
          "type": "address"
        },
        {
          "indexed": false,
          "internalType": "address",
          "name": "proxyCreator",
          "type": "address"
        },
        {
          "indexed": false,
          "internalType": "string",
          "name": "splitRecipients",
          "type": "string"
        },
        {
          "indexed": false,
          "internalType": "string",
          "name": "nickname",
          "type": "string"
        }
      ],
      "name": "ProxyCreated",
      "type": "event"
    },
    {
      "inputs": [
        {
          "internalType": "bytes32",
          "name": "merkleRoot_",
          "type": "bytes32"
        },
        {
          "internalType": "bytes",
          "name": "data",
          "type": "bytes"
        },
        {
          "internalType": "string",
          "name": "splitRecipients_",
          "type": "string"
        },
        {
          "internalType": "string",
          "name": "nickname_",
          "type": "string"
        }
      ],
      "name": "createSplit",
      "outputs": [
        {
          "internalType": "address",
          "name": "ourProxy",
          "type": "address"
        }
      ],
      "stateMutability": "nonpayable",
      "type": "function"
    },
    {
      "inputs": [],
      "name": "merkleRoot",
      "outputs": [
        {
          "internalType": "bytes32",
          "name": "",
          "type": "bytes32"
        }
      ],
      "stateMutability": "view",
      "type": "function"
    },
    {
      "inputs": [],
      "name": "pylon",
      "outputs": [
        {
          "internalType": "address",
          "name": "",
          "type": "address"
        }
      ],
      "stateMutability": "view",
      "type": "function"
    }
  ],
  "bytecode": "0x60a060405234801561001057600080fd5b5060405161074b38038061074b83398101604081905261002f91610044565b60601b6001600160601b031916608052610072565b600060208284031215610055578081fd5b81516001600160a01b038116811461006b578182fd5b9392505050565b60805160601c6106bc61008f6000396000609201526106bc6000f3fe608060405234801561001057600080fd5b50600436106100415760003560e01c806320705e37146100465780632eb4a7ab14610076578063468477941461008d575b600080fd5b6100596100543660046101c8565b6100b4565b6040516001600160a01b0390911681526020015b60405180910390f35b61007f60005481565b60405190815260200161006d565b6100597f000000000000000000000000000000000000000000000000000000000000000081565b6000868155604080516020810189905201604051602081830303815290604052805190602001206040516100e790610174565b8190604051809103906000f5905080158015610107573d6000803e3d6000fd5b509050600080557feec421a8d31389bc8d249c1dcf88e2add7082dbb5bf1bff25378b6c44f415e7b813387878787604051610147969594939291906102f8565b60405180910390a16000806000885160208a016000865af1141561016a57600080fd5b9695505050505050565b61032b8061035c83390190565b60008083601f840112610192578081fd5b50813567ffffffffffffffff8111156101a9578182fd5b6020830191508360208285010111156101c157600080fd5b9250929050565b600080600080600080608087890312156101e0578182fd5b86359550602087013567ffffffffffffffff808211156101fe578384fd5b818901915089601f830112610211578384fd5b81358181111561022357610223610345565b604051601f8201601f19908116603f0116810190838211818310171561024b5761024b610345565b816040528281528c6020848701011115610263578687fd5b82602086016020830137918201602001869052509650604089013591508082111561028c578384fd5b6102988a838b01610181565b909650945060608901359150808211156102b0578384fd5b506102bd89828a01610181565b979a9699509497509295939492505050565b81835281816020850137506000828201602090810191909152601f909101601f19169091010190565b6001600160a01b0387811682528616602082015260806040820181905260009061032590830186886102cf565b82810360608401526103388185876102cf565b9998505050505050505050565b634e487b7160e01b600052604160045260246000fdfe608060405234801561001057600080fd5b50336001600160a01b031663468477946040518163ffffffff1660e01b8152600401602060405180830381600087803b15801561004c57600080fd5b505af1158015610060573d6000803e3d6000fd5b505050506040513d601f19601f820116820180604052508101906100849190610125565b600260006101000a8154816001600160a01b0302191690836001600160a01b03160217905550336001600160a01b0316632eb4a7ab6040518163ffffffff1660e01b8152600401602060405180830381600087803b1580156100e557600080fd5b505af11580156100f9573d6000803e3d6000fd5b505050506040513d601f19601f8201168201806040525081019061011d9190610153565b60005561016b565b600060208284031215610136578081fd5b81516001600160a01b038116811461014c578182fd5b9392505050565b600060208284031215610164578081fd5b5051919050565b6101b18061017a6000396000f3fe60806040526004361061004a5760003560e01c80632eb4a7ab146100855780633fc8cef3146100ae57806346847794146100ee57806381e580d31461010c578063ba0bafb41461012c575b600061005e6002546001600160a01b031690565b905060405136600082376000803683855af43d806000843e818015610081578184f35b8184fd5b34801561009157600080fd5b5061009b60005481565b6040519081526020015b60405180910390f35b3480156100ba57600080fd5b506100d673c778417e063141139fce010982780140aa0cd5ab81565b6040516001600160a01b0390911681526020016100a5565b3480156100fa57600080fd5b506002546001600160a01b03166100d6565b34801561011857600080fd5b5061009b610127366004610163565b610142565b34801561013857600080fd5b5061009b60015481565b6003818154811061015257600080fd5b600091825260209091200154905081565b600060208284031215610174578081fd5b503591905056fea2646970667358221220b8443c0107f312007b42b82a7f3f88deac687b9c63618bff26951b362df84f7264736f6c63430008040033a264697066735822122055573306072e99b4bf369824b91dec2a0ce524a8f50235559657fe8a4f02a19964736f6c63430008040033",
  "linkReferences": {},
  "deployedLinkReferences": {}
}