{
  "_format": "hh-sol-artifact-1",
  "contractName": "OurPylon",
  "sourceName": "contracts/OurPylon.sol",
  "abi": [
    {
      "inputs": [],
      "stateMutability": "nonpayable",
      "type": "constructor"
    },
    {
      "anonymous": false,
      "inputs": [
        {
          "indexed": false,
          "internalType": "address",
          "name": "owner",
          "type": "address"
        }
      ],
      "name": "AddedOwner",
      "type": "event"
    },
    {
      "anonymous": false,
      "inputs": [
        {
          "indexed": false,
          "internalType": "address",
          "name": "operator",
          "type": "address"
        },
        {
          "indexed": false,
          "internalType": "address",
          "name": "from",
          "type": "address"
        },
        {
          "indexed": false,
          "internalType": "uint256[]",
          "name": "ids",
          "type": "uint256[]"
        },
        {
          "indexed": false,
          "internalType": "uint256[]",
          "name": "values",
          "type": "uint256[]"
        }
      ],
      "name": "Batch1155Received",
      "type": "event"
    },
    {
      "anonymous": false,
      "inputs": [
        {
          "indexed": false,
          "internalType": "address",
          "name": "operator",
          "type": "address"
        },
        {
          "indexed": false,
          "internalType": "address",
          "name": "from",
          "type": "address"
        },
        {
          "indexed": false,
          "internalType": "uint256",
          "name": "id",
          "type": "uint256"
        },
        {
          "indexed": false,
          "internalType": "uint256",
          "name": "value",
          "type": "uint256"
        }
      ],
      "name": "ERC1155Received",
      "type": "event"
    },
    {
      "anonymous": false,
      "inputs": [
        {
          "indexed": false,
          "internalType": "address",
          "name": "operator",
          "type": "address"
        },
        {
          "indexed": false,
          "internalType": "address",
          "name": "from",
          "type": "address"
        },
        {
          "indexed": false,
          "internalType": "uint256",
          "name": "tokenId",
          "type": "uint256"
        }
      ],
      "name": "ERC721Received",
      "type": "event"
    },
    {
      "anonymous": false,
      "inputs": [
        {
          "indexed": false,
          "internalType": "address",
          "name": "operator",
          "type": "address"
        },
        {
          "indexed": false,
          "internalType": "address",
          "name": "from",
          "type": "address"
        },
        {
          "indexed": false,
          "internalType": "address",
          "name": "to",
          "type": "address"
        },
        {
          "indexed": false,
          "internalType": "uint256",
          "name": "amount",
          "type": "uint256"
        }
      ],
      "name": "ERC777Received",
      "type": "event"
    },
    {
      "anonymous": false,
      "inputs": [
        {
          "indexed": true,
          "internalType": "address",
          "name": "sender",
          "type": "address"
        },
        {
          "indexed": false,
          "internalType": "uint256",
          "name": "value",
          "type": "uint256"
        }
      ],
      "name": "ETHReceived",
      "type": "event"
    },
    {
      "anonymous": false,
      "inputs": [
        {
          "indexed": false,
          "internalType": "uint256",
          "name": "editionId",
          "type": "uint256"
        },
        {
          "indexed": false,
          "internalType": "uint256",
          "name": "editionSize",
          "type": "uint256"
        }
      ],
      "name": "EditionMinted",
      "type": "event"
    },
    {
      "anonymous": false,
      "inputs": [
        {
          "indexed": false,
          "internalType": "string",
          "name": "newName",
          "type": "string"
        }
      ],
      "name": "NameChanged",
      "type": "event"
    },
    {
      "anonymous": false,
      "inputs": [
        {
          "indexed": false,
          "internalType": "address[]",
          "name": "owners",
          "type": "address[]"
        }
      ],
      "name": "ProxySetup",
      "type": "event"
    },
    {
      "anonymous": false,
      "inputs": [
        {
          "indexed": false,
          "internalType": "address",
          "name": "owner",
          "type": "address"
        }
      ],
      "name": "RemovedOwner",
      "type": "event"
    },
    {
      "anonymous": false,
      "inputs": [
        {
          "indexed": false,
          "internalType": "address",
          "name": "account",
          "type": "address"
        },
        {
          "indexed": false,
          "internalType": "address",
          "name": "token",
          "type": "address"
        },
        {
          "indexed": false,
          "internalType": "uint256",
          "name": "amount",
          "type": "uint256"
        },
        {
          "indexed": false,
          "internalType": "bool",
          "name": "success",
          "type": "bool"
        }
      ],
      "name": "TransferERC20",
      "type": "event"
    },
    {
      "anonymous": false,
      "inputs": [
        {
          "indexed": false,
          "internalType": "address",
          "name": "account",
          "type": "address"
        },
        {
          "indexed": false,
          "internalType": "uint256",
          "name": "amount",
          "type": "uint256"
        },
        {
          "indexed": false,
          "internalType": "bool",
          "name": "success",
          "type": "bool"
        }
      ],
      "name": "TransferETH",
      "type": "event"
    },
    {
      "anonymous": false,
      "inputs": [
        {
          "indexed": false,
          "internalType": "uint256",
          "name": "currentWindow",
          "type": "uint256"
        },
        {
          "indexed": false,
          "internalType": "uint256",
          "name": "fundsAvailable",
          "type": "uint256"
        }
      ],
      "name": "WindowIncremented",
      "type": "event"
    },
    {
      "inputs": [],
      "name": "PERCENTAGE_SCALE",
      "outputs": [
        {
          "internalType": "uint256",
          "name": "",
          "type": "uint256"
        }
      ],
      "stateMutability": "view",
      "type": "function"
    },
    {
      "inputs": [],
      "name": "_mirrorCrowdfund",
      "outputs": [
        {
          "internalType": "address",
          "name": "",
          "type": "address"
        }
      ],
      "stateMutability": "view",
      "type": "function"
    },
    {
      "inputs": [],
      "name": "_partyBid",
      "outputs": [
        {
          "internalType": "address",
          "name": "",
          "type": "address"
        }
      ],
      "stateMutability": "view",
      "type": "function"
    },
    {
      "inputs": [],
      "name": "_zoraAH",
      "outputs": [
        {
          "internalType": "address",
          "name": "",
          "type": "address"
        }
      ],
      "stateMutability": "view",
      "type": "function"
    },
    {
      "inputs": [],
      "name": "_zoraEditions",
      "outputs": [
        {
          "internalType": "address",
          "name": "",
          "type": "address"
        }
      ],
      "stateMutability": "view",
      "type": "function"
    },
    {
      "inputs": [],
      "name": "_zoraMarket",
      "outputs": [
        {
          "internalType": "address",
          "name": "",
          "type": "address"
        }
      ],
      "stateMutability": "view",
      "type": "function"
    },
    {
      "inputs": [],
      "name": "_zoraMedia",
      "outputs": [
        {
          "internalType": "address",
          "name": "",
          "type": "address"
        }
      ],
      "stateMutability": "view",
      "type": "function"
    },
    {
      "inputs": [
        {
          "internalType": "uint256",
          "name": "tokenId",
          "type": "uint256"
        },
        {
          "components": [
            {
              "internalType": "uint256",
              "name": "amount",
              "type": "uint256"
            },
            {
              "internalType": "address",
              "name": "currency",
              "type": "address"
            },
            {
              "internalType": "address",
              "name": "bidder",
              "type": "address"
            },
            {
              "internalType": "address",
              "name": "recipient",
              "type": "address"
            },
            {
              "components": [
                {
                  "internalType": "uint256",
                  "name": "value",
                  "type": "uint256"
                }
              ],
              "internalType": "struct IZora.D256",
              "name": "sellOnShare",
              "type": "tuple"
            }
          ],
          "internalType": "struct IZora.Bid",
          "name": "expectedBid",
          "type": "tuple"
        }
      ],
      "name": "acceptZoraMarketBid",
      "outputs": [],
      "stateMutability": "nonpayable",
      "type": "function"
    },
    {
      "inputs": [
        {
          "internalType": "address",
          "name": "owner",
          "type": "address"
        }
      ],
      "name": "addOwner",
      "outputs": [],
      "stateMutability": "nonpayable",
      "type": "function"
    },
    {
      "inputs": [
        {
          "internalType": "uint256",
          "name": "",
          "type": "uint256"
        }
      ],
      "name": "balanceForWindow",
      "outputs": [
        {
          "internalType": "uint256",
          "name": "",
          "type": "uint256"
        }
      ],
      "stateMutability": "view",
      "type": "function"
    },
    {
      "inputs": [
        {
          "internalType": "uint256",
          "name": "auctionId",
          "type": "uint256"
        }
      ],
      "name": "cancelZoraAuction",
      "outputs": [],
      "stateMutability": "nonpayable",
      "type": "function"
    },
    {
      "inputs": [
        {
          "internalType": "address",
          "name": "tokenAddress",
          "type": "address"
        },
        {
          "internalType": "address[]",
          "name": "accounts",
          "type": "address[]"
        },
        {
          "internalType": "uint256[]",
          "name": "allocations",
          "type": "uint256[]"
        },
        {
          "components": [
            {
              "internalType": "bytes32[]",
              "name": "merkleProof",
              "type": "bytes32[]"
            }
          ],
          "internalType": "struct OurSplitter.Proof[]",
          "name": "merkleProofs",
          "type": "tuple[]"
        }
      ],
      "name": "claimERC20ForAll",
      "outputs": [],
      "stateMutability": "nonpayable",
      "type": "function"
    },
    {
      "inputs": [
        {
          "internalType": "uint256",
          "name": "window",
          "type": "uint256"
        },
        {
          "internalType": "address",
          "name": "account",
          "type": "address"
        },
        {
          "internalType": "uint256",
          "name": "scaledPercentageAllocation",
          "type": "uint256"
        },
        {
          "internalType": "bytes32[]",
          "name": "merkleProof",
          "type": "bytes32[]"
        }
      ],
      "name": "claimETH",
      "outputs": [],
      "stateMutability": "nonpayable",
      "type": "function"
    },
    {
      "inputs": [
        {
          "internalType": "address",
          "name": "account",
          "type": "address"
        },
        {
          "internalType": "uint256",
          "name": "percentageAllocation",
          "type": "uint256"
        },
        {
          "internalType": "bytes32[]",
          "name": "merkleProof",
          "type": "bytes32[]"
        }
      ],
      "name": "claimETHForAllWindows",
      "outputs": [],
      "stateMutability": "nonpayable",
      "type": "function"
    },
    {
      "inputs": [
        {
          "internalType": "string",
          "name": "name",
          "type": "string"
        },
        {
          "internalType": "string",
          "name": "symbol",
          "type": "string"
        },
        {
          "internalType": "address payable",
          "name": "operator",
          "type": "address"
        },
        {
          "internalType": "address payable",
          "name": "fundingRecipient",
          "type": "address"
        },
        {
          "internalType": "uint256",
          "name": "fundingCap",
          "type": "uint256"
        },
        {
          "internalType": "uint256",
          "name": "operatorPercent",
          "type": "uint256"
        }
      ],
      "name": "createMirrorCrowdfund",
      "outputs": [],
      "stateMutability": "nonpayable",
      "type": "function"
    },
    {
      "inputs": [
        {
          "internalType": "uint256",
          "name": "tokenId",
          "type": "uint256"
        },
        {
          "internalType": "address",
          "name": "tokenContract",
          "type": "address"
        },
        {
          "internalType": "uint256",
          "name": "duration",
          "type": "uint256"
        },
        {
          "internalType": "uint256",
          "name": "reservePrice",
          "type": "uint256"
        },
        {
          "internalType": "address payable",
          "name": "curator",
          "type": "address"
        },
        {
          "internalType": "uint8",
          "name": "curatorFeePercentage",
          "type": "uint8"
        },
        {
          "internalType": "address",
          "name": "auctionCurrency",
          "type": "address"
        }
      ],
      "name": "createZoraAuction",
      "outputs": [],
      "stateMutability": "nonpayable",
      "type": "function"
    },
    {
      "inputs": [
        {
          "internalType": "string",
          "name": "_name",
          "type": "string"
        },
        {
          "internalType": "string",
          "name": "_symbol",
          "type": "string"
        },
        {
          "internalType": "string",
          "name": "_description",
          "type": "string"
        },
        {
          "internalType": "string",
          "name": "_animationUrl",
          "type": "string"
        },
        {
          "internalType": "bytes32",
          "name": "_animationHash",
          "type": "bytes32"
        },
        {
          "internalType": "string",
          "name": "_imageUrl",
          "type": "string"
        },
        {
          "internalType": "bytes32",
          "name": "_imageHash",
          "type": "bytes32"
        },
        {
          "internalType": "uint256",
          "name": "_editionSize",
          "type": "uint256"
        },
        {
          "internalType": "uint256",
          "name": "_royaltyBPS",
          "type": "uint256"
        }
      ],
      "name": "createZoraEdition",
      "outputs": [],
      "stateMutability": "nonpayable",
      "type": "function"
    },
    {
      "inputs": [],
      "name": "currentWindow",
      "outputs": [
        {
          "internalType": "uint256",
          "name": "",
          "type": "uint256"
        }
      ],
      "stateMutability": "view",
      "type": "function"
    },
    {
      "inputs": [
        {
          "internalType": "string",
          "name": "newName_",
          "type": "string"
        }
      ],
      "name": "editNickname",
      "outputs": [],
      "stateMutability": "nonpayable",
      "type": "function"
    },
    {
      "inputs": [],
      "name": "getOwners",
      "outputs": [
        {
          "internalType": "address[]",
          "name": "",
          "type": "address[]"
        }
      ],
      "stateMutability": "view",
      "type": "function"
    },
    {
      "inputs": [
        {
          "internalType": "address",
          "name": "account",
          "type": "address"
        },
        {
          "internalType": "uint256",
          "name": "percentageAllocation",
          "type": "uint256"
        },
        {
          "internalType": "bytes32[]",
          "name": "merkleProof",
          "type": "bytes32[]"
        }
      ],
      "name": "incrementThenClaimAll",
      "outputs": [],
      "stateMutability": "nonpayable",
      "type": "function"
    },
    {
      "inputs": [],
      "name": "incrementWindow",
      "outputs": [],
      "stateMutability": "nonpayable",
      "type": "function"
    },
    {
      "inputs": [
        {
          "internalType": "uint256",
          "name": "window",
          "type": "uint256"
        },
        {
          "internalType": "address",
          "name": "account",
          "type": "address"
        }
      ],
      "name": "isClaimed",
      "outputs": [
        {
          "internalType": "bool",
          "name": "",
          "type": "bool"
        }
      ],
      "stateMutability": "view",
      "type": "function"
    },
    {
      "inputs": [
        {
          "internalType": "address",
          "name": "owner",
          "type": "address"
        }
      ],
      "name": "isOwner",
      "outputs": [
        {
          "internalType": "bool",
          "name": "",
          "type": "bool"
        }
      ],
      "stateMutability": "view",
      "type": "function"
    },
    {
      "inputs": [],
      "name": "merkleRoot",
      "outputs": [
        {
          "internalType": "bytes32",
          "name": "",
          "type": "bytes32"
        }
      ],
      "stateMutability": "view",
      "type": "function"
    },
    {
      "inputs": [
        {
          "components": [
            {
              "internalType": "string",
              "name": "tokenURI",
              "type": "string"
            },
            {
              "internalType": "string",
              "name": "metadataURI",
              "type": "string"
            },
            {
              "internalType": "bytes32",
              "name": "contentHash",
              "type": "bytes32"
            },
            {
              "internalType": "bytes32",
              "name": "metadataHash",
              "type": "bytes32"
            }
          ],
          "internalType": "struct IZora.MediaData",
          "name": "mediaData",
          "type": "tuple"
        },
        {
          "components": [
            {
              "components": [
                {
                  "internalType": "uint256",
                  "name": "value",
                  "type": "uint256"
                }
              ],
              "internalType": "struct IZora.D256",
              "name": "prevOwner",
              "type": "tuple"
            },
            {
              "components": [
                {
                  "internalType": "uint256",
                  "name": "value",
                  "type": "uint256"
                }
              ],
              "internalType": "struct IZora.D256",
              "name": "creator",
              "type": "tuple"
            },
            {
              "components": [
                {
                  "internalType": "uint256",
                  "name": "value",
                  "type": "uint256"
                }
              ],
              "internalType": "struct IZora.D256",
              "name": "owner",
              "type": "tuple"
            }
          ],
          "internalType": "struct IZora.BidShares",
          "name": "bidShares",
          "type": "tuple"
        },
        {
          "internalType": "uint256",
          "name": "duration",
          "type": "uint256"
        },
        {
          "internalType": "uint256",
          "name": "reservePrice",
          "type": "uint256"
        }
      ],
      "name": "mintToAuctionForETH",
      "outputs": [],
      "stateMutability": "nonpayable",
      "type": "function"
    },
    {
      "inputs": [
        {
          "components": [
            {
              "internalType": "string",
              "name": "tokenURI",
              "type": "string"
            },
            {
              "internalType": "string",
              "name": "metadataURI",
              "type": "string"
            },
            {
              "internalType": "bytes32",
              "name": "contentHash",
              "type": "bytes32"
            },
            {
              "internalType": "bytes32",
              "name": "metadataHash",
              "type": "bytes32"
            }
          ],
          "internalType": "struct IZora.MediaData",
          "name": "mediaData",
          "type": "tuple"
        },
        {
          "components": [
            {
              "components": [
                {
                  "internalType": "uint256",
                  "name": "value",
                  "type": "uint256"
                }
              ],
              "internalType": "struct IZora.D256",
              "name": "prevOwner",
              "type": "tuple"
            },
            {
              "components": [
                {
                  "internalType": "uint256",
                  "name": "value",
                  "type": "uint256"
                }
              ],
              "internalType": "struct IZora.D256",
              "name": "creator",
              "type": "tuple"
            },
            {
              "components": [
                {
                  "internalType": "uint256",
                  "name": "value",
                  "type": "uint256"
                }
              ],
              "internalType": "struct IZora.D256",
              "name": "owner",
              "type": "tuple"
            }
          ],
          "internalType": "struct IZora.BidShares",
          "name": "bidShares",
          "type": "tuple"
        }
      ],
      "name": "mintZora",
      "outputs": [],
      "stateMutability": "nonpayable",
      "type": "function"
    },
    {
      "inputs": [
        {
          "internalType": "address",
          "name": "creator",
          "type": "address"
        },
        {
          "components": [
            {
              "internalType": "string",
              "name": "tokenURI",
              "type": "string"
            },
            {
              "internalType": "string",
              "name": "metadataURI",
              "type": "string"
            },
            {
              "internalType": "bytes32",
              "name": "contentHash",
              "type": "bytes32"
            },
            {
              "internalType": "bytes32",
              "name": "metadataHash",
              "type": "bytes32"
            }
          ],
          "internalType": "struct IZora.MediaData",
          "name": "mediaData",
          "type": "tuple"
        },
        {
          "components": [
            {
              "components": [
                {
                  "internalType": "uint256",
                  "name": "value",
                  "type": "uint256"
                }
              ],
              "internalType": "struct IZora.D256",
              "name": "prevOwner",
              "type": "tuple"
            },
            {
              "components": [
                {
                  "internalType": "uint256",
                  "name": "value",
                  "type": "uint256"
                }
              ],
              "internalType": "struct IZora.D256",
              "name": "creator",
              "type": "tuple"
            },
            {
              "components": [
                {
                  "internalType": "uint256",
                  "name": "value",
                  "type": "uint256"
                }
              ],
              "internalType": "struct IZora.D256",
              "name": "owner",
              "type": "tuple"
            }
          ],
          "internalType": "struct IZora.BidShares",
          "name": "bidShares",
          "type": "tuple"
        },
        {
          "components": [
            {
              "internalType": "uint256",
              "name": "deadline",
              "type": "uint256"
            },
            {
              "internalType": "uint8",
              "name": "v",
              "type": "uint8"
            },
            {
              "internalType": "bytes32",
              "name": "r",
              "type": "bytes32"
            },
            {
              "internalType": "bytes32",
              "name": "s",
              "type": "bytes32"
            }
          ],
          "internalType": "struct IZora.EIP712Signature",
          "name": "sig",
          "type": "tuple"
        }
      ],
      "name": "mintZoraWithSig",
      "outputs": [],
      "stateMutability": "nonpayable",
      "type": "function"
    },
    {
      "inputs": [
        {
          "internalType": "address",
          "name": "operator",
          "type": "address"
        },
        {
          "internalType": "address",
          "name": "from",
          "type": "address"
        },
        {
          "internalType": "uint256[]",
          "name": "ids",
          "type": "uint256[]"
        },
        {
          "internalType": "uint256[]",
          "name": "values",
          "type": "uint256[]"
        },
        {
          "internalType": "bytes",
          "name": "",
          "type": "bytes"
        }
      ],
      "name": "onERC1155BatchReceived",
      "outputs": [
        {
          "internalType": "bytes4",
          "name": "",
          "type": "bytes4"
        }
      ],
      "stateMutability": "nonpayable",
      "type": "function"
    },
    {
      "inputs": [
        {
          "internalType": "address",
          "name": "operator",
          "type": "address"
        },
        {
          "internalType": "address",
          "name": "from",
          "type": "address"
        },
        {
          "internalType": "uint256",
          "name": "id",
          "type": "uint256"
        },
        {
          "internalType": "uint256",
          "name": "value",
          "type": "uint256"
        },
        {
          "internalType": "bytes",
          "name": "",
          "type": "bytes"
        }
      ],
      "name": "onERC1155Received",
      "outputs": [
        {
          "internalType": "bytes4",
          "name": "",
          "type": "bytes4"
        }
      ],
      "stateMutability": "nonpayable",
      "type": "function"
    },
    {
      "inputs": [
        {
          "internalType": "address",
          "name": "operator_",
          "type": "address"
        },
        {
          "internalType": "address",
          "name": "from_",
          "type": "address"
        },
        {
          "internalType": "uint256",
          "name": "tokenId_",
          "type": "uint256"
        },
        {
          "internalType": "bytes",
          "name": "",
          "type": "bytes"
        }
      ],
      "name": "onERC721Received",
      "outputs": [
        {
          "internalType": "bytes4",
          "name": "",
          "type": "bytes4"
        }
      ],
      "stateMutability": "nonpayable",
      "type": "function"
    },
    {
      "inputs": [
        {
          "internalType": "address",
          "name": "prevOwner",
          "type": "address"
        },
        {
          "internalType": "address",
          "name": "owner",
          "type": "address"
        }
      ],
      "name": "removeOwner",
      "outputs": [],
      "stateMutability": "nonpayable",
      "type": "function"
    },
    {
      "inputs": [
        {
          "internalType": "uint256",
          "name": "tokenId",
          "type": "uint256"
        }
      ],
      "name": "removeZoraMarketAsk",
      "outputs": [],
      "stateMutability": "nonpayable",
      "type": "function"
    },
    {
      "inputs": [
        {
          "internalType": "uint256",
          "name": "amount",
          "type": "uint256"
        },
        {
          "internalType": "uint256",
          "name": "scaledPercent",
          "type": "uint256"
        }
      ],
      "name": "scaleAmountByPercentage",
      "outputs": [
        {
          "internalType": "uint256",
          "name": "scaledAmount",
          "type": "uint256"
        }
      ],
      "stateMutability": "pure",
      "type": "function"
    },
    {
      "inputs": [
        {
          "internalType": "address",
          "name": "minter",
          "type": "address"
        },
        {
          "internalType": "bool",
          "name": "allowed",
          "type": "bool"
        }
      ],
      "name": "setEditionMinter",
      "outputs": [],
      "stateMutability": "nonpayable",
      "type": "function"
    },
    {
      "inputs": [
        {
          "internalType": "string",
          "name": "_imageUrl",
          "type": "string"
        },
        {
          "internalType": "string",
          "name": "_animationUrl",
          "type": "string"
        }
      ],
      "name": "setEditionURLs",
      "outputs": [],
      "stateMutability": "nonpayable",
      "type": "function"
    },
    {
      "inputs": [
        {
          "internalType": "uint256",
          "name": "auctionId",
          "type": "uint256"
        },
        {
          "internalType": "bool",
          "name": "approved",
          "type": "bool"
        }
      ],
      "name": "setZoraAuctionApproval",
      "outputs": [],
      "stateMutability": "nonpayable",
      "type": "function"
    },
    {
      "inputs": [
        {
          "internalType": "uint256",
          "name": "auctionId",
          "type": "uint256"
        },
        {
          "internalType": "uint256",
          "name": "reservePrice",
          "type": "uint256"
        }
      ],
      "name": "setZoraAuctionReservePrice",
      "outputs": [],
      "stateMutability": "nonpayable",
      "type": "function"
    },
    {
      "inputs": [
        {
          "internalType": "uint256",
          "name": "tokenId",
          "type": "uint256"
        },
        {
          "components": [
            {
              "internalType": "uint256",
              "name": "amount",
              "type": "uint256"
            },
            {
              "internalType": "address",
              "name": "currency",
              "type": "address"
            }
          ],
          "internalType": "struct IZora.Ask",
          "name": "ask",
          "type": "tuple"
        }
      ],
      "name": "setZoraMarketAsk",
      "outputs": [],
      "stateMutability": "nonpayable",
      "type": "function"
    },
    {
      "inputs": [
        {
          "internalType": "uint256",
          "name": "tokenId",
          "type": "uint256"
        },
        {
          "components": [
            {
              "components": [
                {
                  "internalType": "uint256",
                  "name": "value",
                  "type": "uint256"
                }
              ],
              "internalType": "struct IZora.D256",
              "name": "prevOwner",
              "type": "tuple"
            },
            {
              "components": [
                {
                  "internalType": "uint256",
                  "name": "value",
                  "type": "uint256"
                }
              ],
              "internalType": "struct IZora.D256",
              "name": "creator",
              "type": "tuple"
            },
            {
              "components": [
                {
                  "internalType": "uint256",
                  "name": "value",
                  "type": "uint256"
                }
              ],
              "internalType": "struct IZora.D256",
              "name": "owner",
              "type": "tuple"
            }
          ],
          "internalType": "struct IZora.BidShares",
          "name": "bidShares",
          "type": "tuple"
        }
      ],
      "name": "setZoraMarketBidShares",
      "outputs": [],
      "stateMutability": "nonpayable",
      "type": "function"
    },
    {
      "inputs": [
        {
          "internalType": "address[]",
          "name": "owners_",
          "type": "address[]"
        }
      ],
      "name": "setup",
      "outputs": [],
      "stateMutability": "nonpayable",
      "type": "function"
    },
    {
      "inputs": [
        {
          "internalType": "address",
          "name": "marketWrapper",
          "type": "address"
        },
        {
          "internalType": "address",
          "name": "nftContract",
          "type": "address"
        },
        {
          "internalType": "uint256",
          "name": "tokenId",
          "type": "uint256"
        },
        {
          "internalType": "uint256",
          "name": "auctionId",
          "type": "uint256"
        },
        {
          "internalType": "string",
          "name": "name",
          "type": "string"
        },
        {
          "internalType": "string",
          "name": "symbol",
          "type": "string"
        }
      ],
      "name": "startSplitParty",
      "outputs": [],
      "stateMutability": "nonpayable",
      "type": "function"
    },
    {
      "inputs": [
        {
          "internalType": "bytes4",
          "name": "interfaceId",
          "type": "bytes4"
        }
      ],
      "name": "supportsInterface",
      "outputs": [
        {
          "internalType": "bool",
          "name": "",
          "type": "bool"
        }
      ],
      "stateMutability": "pure",
      "type": "function"
    },
    {
      "inputs": [
        {
          "internalType": "address",
          "name": "prevOwner",
          "type": "address"
        },
        {
          "internalType": "address",
          "name": "oldOwner",
          "type": "address"
        },
        {
          "internalType": "address",
          "name": "newOwner",
          "type": "address"
        }
      ],
      "name": "swapOwner",
      "outputs": [],
      "stateMutability": "nonpayable",
      "type": "function"
    },
    {
      "inputs": [
        {
          "internalType": "address",
          "name": "operator",
          "type": "address"
        },
        {
          "internalType": "address",
          "name": "from",
          "type": "address"
        },
        {
          "internalType": "address",
          "name": "to",
          "type": "address"
        },
        {
          "internalType": "uint256",
          "name": "amount",
          "type": "uint256"
        },
        {
          "internalType": "bytes",
          "name": "",
          "type": "bytes"
        },
        {
          "internalType": "bytes",
          "name": "",
          "type": "bytes"
        }
      ],
      "name": "tokensReceived",
      "outputs": [],
      "stateMutability": "nonpayable",
      "type": "function"
    },
    {
      "inputs": [
        {
          "internalType": "address",
          "name": "tokenContract_",
          "type": "address"
        },
        {
          "internalType": "uint256",
          "name": "tokenId_",
          "type": "uint256"
        }
      ],
      "name": "untrustedBurn721",
      "outputs": [],
      "stateMutability": "nonpayable",
      "type": "function"
    },
    {
      "inputs": [
        {
          "internalType": "address",
          "name": "tokenContract_",
          "type": "address"
        },
        {
          "internalType": "address",
          "name": "newOwner_",
          "type": "address"
        },
        {
          "internalType": "uint256",
          "name": "tokenId_",
          "type": "uint256"
        }
      ],
      "name": "untrustedSafeTransfer721",
      "outputs": [],
      "stateMutability": "nonpayable",
      "type": "function"
    },
    {
      "inputs": [
        {
          "internalType": "address",
          "name": "tokenContract_",
          "type": "address"
        },
        {
          "internalType": "address",
          "name": "operator_",
          "type": "address"
        },
        {
          "internalType": "bool",
          "name": "approved_",
          "type": "bool"
        }
      ],
      "name": "untrustedSetApproval721",
      "outputs": [],
      "stateMutability": "nonpayable",
      "type": "function"
    },
    {
      "inputs": [
        {
          "internalType": "uint256",
          "name": "tokenId",
          "type": "uint256"
        },
        {
          "internalType": "string",
          "name": "metadataURI",
          "type": "string"
        }
      ],
      "name": "updateZoraMediaMetadataURI",
      "outputs": [],
      "stateMutability": "nonpayable",
      "type": "function"
    },
    {
      "inputs": [
        {
          "internalType": "uint256",
          "name": "tokenId",
          "type": "uint256"
        },
        {
          "internalType": "string",
          "name": "tokenURI",
          "type": "string"
        }
      ],
      "name": "updateZoraMediaTokenURI",
      "outputs": [],
      "stateMutability": "nonpayable",
      "type": "function"
    },
    {
      "inputs": [
        {
          "internalType": "uint256",
          "name": "tokenId",
          "type": "uint256"
        },
        {
          "internalType": "string",
          "name": "tokenURI",
          "type": "string"
        },
        {
          "internalType": "string",
          "name": "metadataURI",
          "type": "string"
        }
      ],
      "name": "updateZoraMediaURIs",
      "outputs": [],
      "stateMutability": "nonpayable",
      "type": "function"
    },
    {
      "inputs": [],
      "name": "weth",
      "outputs": [
        {
          "internalType": "address",
          "name": "",
          "type": "address"
        }
      ],
      "stateMutability": "view",
      "type": "function"
    },
    {
      "stateMutability": "payable",
      "type": "receive"
    }
  ],
  "bytecode": "0x608060405234801561001057600080fd5b506001600855613f82806100256000396000f3fe6080604052600436106103025760003560e01c8063a0e67e2b11610190578063d2ac178f116100dc578063e318b52b11610095578063f23a6e611161006f578063f23a6e61146109c2578063f77ed9f5146109e2578063f80d295d14610a02578063fbe5ce0a14610a2257600080fd5b8063e318b52b1461095a578063e9f8b9671461097a578063ea480c6c1461099a57600080fd5b8063d2ac178f14610892578063d2ef0795146108b2578063d6f0bd9e146108d2578063d9a1b96c146108f2578063debb73fe14610912578063e1860d6b1461093257600080fd5b8063bc197c8111610149578063c3a3d98411610123578063c3a3d9841461080a578063c7b0d9671461082a578063c7ba4fa01461084a578063cf892ad51461086a57600080fd5b8063bc197c81146107aa578063bd5b853b146107ca578063c12faf63146107ea57600080fd5b8063a0e67e2b146106f2578063a21a43e714610714578063a303c8a114610734578063ab91f9e314610754578063b1bc078114610774578063ba0bafb41461079457600080fd5b806341b223761161024f5780635e95b7071161020857806381e580d3116101e257806381e580d3146106725780638ffb5c97146106925780639473e6a4146106b25780639841d1ef146106d257600080fd5b80635e95b7071461060a5780636329bb681461062a5780637065cb481461065257600080fd5b806341b223761461053a57806347143c54146105625780634d7526241461058a5780634eca78e5146105aa57806352d96b62146105ca5780635777877a146105ea57600080fd5b80632f54bf6e116102bc578063338b1d3111610296578063338b1d31146104ae5780633456c895146104c35780633f26479e146104e35780633fc8cef3146104fa57600080fd5b80632f54bf6e1461044e5780632f8d7c601461046e5780633301689f1461048e57600080fd5b806223de291461035a57806301ffc9a71461037c578063047e7935146103b1578063150b7a02146103d15780631ef18af81461040a5780632eb4a7ab1461042a57600080fd5b366103555734600560008282546103199190613e5d565b909155505060405134815233907fbfe611b001dfcd411432f7bf0d79b82b4b2ee81511edac123a3403c357fb972a9060200160405180910390a2005b600080fd5b34801561036657600080fd5b5061037a610375366004612d42565b610a42565b005b34801561038857600080fd5b5061039c6103973660046132ac565b610a9e565b60405190151581526020015b60405180910390f35b3480156103bd57600080fd5b5061037a6103cc3660046133aa565b610af0565b3480156103dd57600080fd5b506103f16103ec366004612f07565b610b68565b6040516001600160e01b031990911681526020016103a8565b34801561041657600080fd5b5061037a6104253660046136e9565b610bc8565b34801561043657600080fd5b5061044060005481565b6040519081526020016103a8565b34801561045a57600080fd5b5061039c610469366004612c88565b610c43565b34801561047a57600080fd5b5061037a610489366004613307565b610c7b565b34801561049a57600080fd5b5061037a6104a936600461312f565b610d26565b3480156104ba57600080fd5b5061037a610d77565b3480156104cf57600080fd5b5061037a6104de36600461315c565b610e74565b3480156104ef57600080fd5b50610440620f424081565b34801561050657600080fd5b5061052273c778417e063141139fce010982780140aa0cd5ab81565b6040516001600160a01b0390911681526020016103a8565b34801561054657600080fd5b50610522737c2668bd0d3c050703cecc956c11bd520c26f7d481565b34801561056e57600080fd5b5061052273b725682d5adadf8dfd657f8e7728744c0835ecd981565b34801561059657600080fd5b5061037a6105a53660046135a3565b610ef2565b3480156105b657600080fd5b5061037a6105c53660046134fc565b610f64565b3480156105d657600080fd5b5061037a6105e536600461340a565b610fa6565b3480156105f657600080fd5b5061037a6106053660046131cd565b611093565b34801561061657600080fd5b5061037a610625366004612ff0565b6110c9565b34801561063657600080fd5b5061052273eac226b370d77f436b5780b4dd4a49e59e8bea3781565b34801561065e57600080fd5b5061037a61066d366004612c88565b611165565b34801561067e57600080fd5b5061044061068d3660046135a3565b61127e565b34801561069e57600080fd5b506104406106ad366004613818565b61129f565b3480156106be57600080fd5b5061037a6106cd366004613087565b6112ca565b3480156106de57600080fd5b5061037a6106ed366004612ec7565b61163b565b3480156106fe57600080fd5b5061070761167f565b6040516103a89190613aad565b34801561072057600080fd5b5061037a61072f366004612e88565b61178b565b34801561074057600080fd5b5061037a61074f3660046131f8565b6117ca565b34801561076057600080fd5b5061037a61076f366004613818565b6118ae565b34801561078057600080fd5b5061037a61078f3660046132d4565b6118f6565b3480156107a057600080fd5b5061044060015481565b3480156107b657600080fd5b506103f16107c5366004612def565b61193c565b3480156107d657600080fd5b5061037a6107e5366004613251565b611994565b3480156107f657600080fd5b5061037a6108053660046137f0565b611a01565b34801561081657600080fd5b5061037a6108253660046131f8565b611a43565b34801561083657600080fd5b5061037a6108453660046136c5565b611a5d565b34801561085657600080fd5b5061037a610865366004613797565b611aa6565b34801561087657600080fd5b50610522737e335506443252196cd5a61bd4a1906d79791fc681565b34801561089e57600080fd5b5061037a6108ad366004613548565b611ae8565b3480156108be57600080fd5b5061039c6108cd3660046135d3565b611d25565b3480156108de57600080fd5b5061037a6108ed3660046135a3565b611d50565b3480156108fe57600080fd5b5061037a61090d36600461364d565b611d91565b34801561091e57600080fd5b5061037a61092d3660046135f7565b611e2f565b34801561093e57600080fd5b506105227385e946e1bd35ec91044dc83a5ddab2b6a262ffa681565b34801561096657600080fd5b5061037a610975366004612cf8565b611f7e565b34801561098657600080fd5b5061037a6109953660046137cd565b6121a6565b3480156109a657600080fd5b5061052273e7dd1252f50b3d845590da0c5eadd985049a03ce81565b3480156109ce57600080fd5b506103f16109dd366004612f77565b6121df565b3480156109ee57600080fd5b5061037a6109fd3660046136e9565b612247565b348015610a0e57600080fd5b5061037a610a1d366004613732565b612282565b348015610a2e57600080fd5b5061037a610a3d366004612cc0565b612361565b604080516001600160a01b038a8116825289811660208301528816818301526060810187905290517f0fe6507bce457d6e175fa9bc1db1b817f39e37b1f5c91695fd1a62848bc433b79181900360800190a15050505050505050565b60006001600160e01b03198216630271189760e51b1480610acf57506001600160e01b03198216630a85bd0160e11b145b80610aea57506001600160e01b031982166301ffc9a760e01b145b92915050565b610af93361244f565b6040516339112ff360e21b8152737e335506443252196cd5a61bd4a1906d79791fc69063e444bfcc90610b329085908590600401613b6e565b600060405180830381600087803b158015610b4c57600080fd5b505af1158015610b60573d6000803e3d6000fd5b505050505050565b604080516001600160a01b038088168252861660208201529081018490526000907f941a9d9a9af7f97737c018d13918859e12f44e16c4b4c6ac922dacf021cfbf149060600160405180910390a150630a85bd0160e11b95945050505050565b610bd13361244f565b6040516318e97fd160e01b8152737c2668bd0d3c050703cecc956c11bd520c26f7d4906318e97fd190610c0c90869086908690600401613cc4565b600060405180830381600087803b158015610c2657600080fd5b505af1158015610c3a573d6000803e3d6000fd5b50505050505050565b60006001600160a01b038216600114801590610aea5750506001600160a01b0390811660009081526006602052604090205416151590565b610c843361244f565b604051631acf450d60e21b815273eac226b370d77f436b5780b4dd4a49e59e8bea3790636b3d143490610cc9908b908b908b908b908b908b908b908b90600401613b16565b602060405180830381600087803b158015610ce357600080fd5b505af1158015610cf7573d6000803e3d6000fd5b505050506040513d601f19601f82011682018060405250810190610d1b9190612ca4565b505050505050505050565b610d2f3361244f565b6040516329ec16dd60e01b81526001600160a01b03831660048201528115156024820152737e335506443252196cd5a61bd4a1906d79791fc6906329ec16dd90604401610b32565b600060015460001415610d8b575047610d90565b506005545b600060055580610de75760405162461bcd60e51b815260206004820152601e60248201527f4e6f206164646974696f6e616c2066756e647320666f722077696e646f77000060448201526064015b60405180910390fd5b600380546001818101835560009283527fc2575a0e9e593c00f959f8c92f12db2869c3395a3b0502d05e2516446f71f85b909101839055805490918291610e2f908390613e5d565b909155505060015460408051918252602082018390527ff0840b82b46c1dc7df62cae652baa1b5588ce37b6a1236ed1dcf4caf34d738ac91015b60405180910390a150565b610e7d3361244f565b604051633d3d090160e11b8152737c2668bd0d3c050703cecc956c11bd520c26f7d490637a7a120290610eba9087908790879087906004016139dd565b600060405180830381600087803b158015610ed457600080fd5b505af1158015610ee8573d6000803e3d6000fd5b5050505050505050565b610efb3361244f565b6040516396b5a75560e01b81526004810182905273e7dd1252f50b3d845590da0c5eadd985049a03ce906396b5a755906024015b600060405180830381600087803b158015610f4957600080fd5b505af1158015610f5d573d6000803e3d6000fd5b5050505050565b610f6d3361244f565b604051632cca323760e01b8152737c2668bd0d3c050703cecc956c11bd520c26f7d490632cca323790610b329085908590600401613c50565b610faf3361244f565b604051630861804f60e11b8152600090737e335506443252196cd5a61bd4a1906d79791fc6906310c3009e90610ff9908d908d908d908d908d908d908d908d908d90600401613b9c565b602060405180830381600087803b15801561101357600080fd5b505af1158015611027573d6000803e3d6000fd5b505050506040513d601f19601f8201168201806040525081019061104b91906135bb565b60408051828152602081018690529192507f0482ed7f45abb74db181ea384a057b620809671d189de9dd15779f64d9d73307910160405180910390a150505050505050505050565b61109c3361244f565b604051630852cd8d60e31b8152600481018290526001600160a01b038316906342966c6890602401610b32565b6110d23361244f565b604051636bea54e760e11b815273b725682d5adadf8dfd657f8e7728744c0835ecd99063d7d4a9ce9061111390899089908990899089908990600401613991565b602060405180830381600087803b15801561112d57600080fd5b505af1158015611141573d6000803e3d6000fd5b505050506040513d601f19601f82011682018060405250810190610c3a9190612ca4565b61116e3361244f565b6001600160a01b0381161580159061119057506001600160a01b038116600114155b80156111a557506001600160a01b0381163014155b6111ae57600080fd5b6001600160a01b0381811660009081526006602052604090205416156111d357600080fd5b60066020527f3e5fec24aa4dc4e5aee2e025e51e1392c72a2500577559fae9665c6d52bd6a3180546001600160a01b038381166000818152604081208054939094166001600160a01b03199384161790935560018352835490911617909155600780549161124083613ee2565b90915550506040516001600160a01b03821681527f9465fa0c962cc76958e6373a993326400c1c94f8be2fe3a952adfa7f60b2ea2690602001610e69565b6003818154811061128e57600080fd5b600091825260209091200154905081565b60006112af620f42406064613e95565b6112b98385613e95565b6112c39190613e75565b9392505050565b6113a7828260008181106112ee57634e487b7160e01b600052603260045260246000fd5b90506020028101906113009190613dfa565b61130a9080613db3565b808060200260200160405190810160405280939291908181526020018383602002808284376000920182905250805493506113a292508b91508a908161136057634e487b7160e01b600052603260045260246000fd5b90506020020160208101906113759190612c88565b8888600081811061139657634e487b7160e01b600052603260045260246000fd5b905060200201356124bf565b612507565b6113f35760405162461bcd60e51b815260206004820152601b60248201527f496e76616c69642070726f6f6620666f72204163636f756e74203000000000006044820152606401610dde565b6040516370a0823160e01b81523060048201526000906001600160a01b038916906370a082319060240160206040518083038186803b15801561143557600080fd5b505afa158015611449573d6000803e3d6000fd5b505050506040513d601f19601f8201168201806040525081019061146d91906135bb565b90506000805b878110156115f55761154685858381811061149e57634e487b7160e01b600052603260045260246000fd5b90506020028101906114b09190613dfa565b6114ba9080613db3565b8080602002602001604051908101604052809392919081815260200183836020028082843760009201829052505492506113a291508d90508c8681811061151157634e487b7160e01b600052603260045260246000fd5b90506020020160208101906115269190612c88565b8b8b8781811061139657634e487b7160e01b600052603260045260246000fd5b6115625760405162461bcd60e51b8152600401610dde90613c29565b60006115948489898581811061158857634e487b7160e01b600052603260045260246000fd5b9050602002013561129f565b90506115d58b8b8b858181106115ba57634e487b7160e01b600052603260045260246000fd5b90506020020160208101906115cf9190612c88565b836125c4565b6115df8184613e5d565b92505080806115ed90613ee2565b915050611473565b5060006116028284613eb4565b9050801561162f5761162f8a8a8a60008181106115ba57634e487b7160e01b600052603260045260246000fd5b50505050505050505050565b6116443361244f565b604051632142170760e11b81523360048201526001600160a01b038381166024830152604482018390528416906342842e0e90606401610c0c565b606060006007546001600160401b038111156116ab57634e487b7160e01b600052604160045260246000fd5b6040519080825280602002602001820160405280156116d4578160200160208202803683370190505b506001600090815260066020527f3e5fec24aa4dc4e5aee2e025e51e1392c72a2500577559fae9665c6d52bd6a3154919250906001600160a01b03165b6001600160a01b038116600114611783578083838151811061174357634e487b7160e01b600052603260045260246000fd5b6001600160a01b0392831660209182029290920181019190915291811660009081526006909252604090912054168161177b81613ee2565b925050611711565b509092915050565b6117943361244f565b60405163a22cb46560e01b81526001600160a01b038381166004830152821515602483015284169063a22cb46590604401610c0c565b61180d82828080602002602001604051908101604052809392919081815260200183836020028082843760009201829052505492506113a29150889050876124bf565b6118295760405162461bcd60e51b8152600401610dde90613c29565b6000805b6001548110156118a3576118418187611d25565b6118915761184f81876126aa565b6118846003828154811061187357634e487b7160e01b600052603260045260246000fd5b90600052602060002001548661129f565b61188e9083613e5d565b91505b8061189b81613ee2565b91505061182d565b50610b6085826126dd565b6118b73361244f565b604051636f8a41e160e01b8152600481018390526024810182905273e7dd1252f50b3d845590da0c5eadd985049a03ce90636f8a41e190604401610b32565b6118ff3361244f565b7f4737457377f528cc8afd815f73ecb8b05df80d047dbffc41c17750a4033592bc8282604051611930929190613afa565b60405180910390a15050565b60007f762f561e1c5dd9bc02eb3404c59dd1c32e6aa53a8097b703e4e0c14870869d7d89898989898960405161197796959493929190613944565b60405180910390a15063bc197c8160e01b98975050505050505050565b6119d082828080602002602001604051908101604052809392919081815260200183836020028082843760009201919091525061284392505050565b7f92e5baf3cc4552d78b76a780360e152809a8e6aabf13c0e507ef6ed5c0dff7518282604051611930929190613a5f565b611a0a3361244f565b60405163ba33939960e01b81527385e946e1bd35ec91044dc83a5ddab2b6a262ffa69063ba33939990610b329085908590600401613d3f565b611a4b610d77565b611a57848484846129e1565b50505050565b611a663361244f565b604051634b9eeda560e11b815260048101839052811515602482015273e7dd1252f50b3d845590da0c5eadd985049a03ce9063973ddb4a90604401610b32565b611aaf3361244f565b60405163062f24b760e41b81527385e946e1bd35ec91044dc83a5ddab2b6a262ffa6906362f24b7090610b329085908590600401613cde565b611af13361244f565b604051632cca323760e01b8152737c2668bd0d3c050703cecc956c11bd520c26f7d490632cca323790611b2a9087908790600401613c50565b600060405180830381600087803b158015611b4457600080fd5b505af1158015611b58573d6000803e3d6000fd5b5050505060006001737c2668bd0d3c050703cecc956c11bd520c26f7d46001600160a01b03166318160ddd6040518163ffffffff1660e01b815260040160206040518083038186803b158015611bad57600080fd5b505afa158015611bc1573d6000803e3d6000fd5b505050506040513d601f19601f82011682018060405250810190611be591906135bb565b611bef9190613eb4565b604051634f6ccce760e01b815260048101829052909150600090737c2668bd0d3c050703cecc956c11bd520c26f7d490634f6ccce79060240160206040518083038186803b158015611c4057600080fd5b505afa158015611c54573d6000803e3d6000fd5b505050506040513d601f19601f82011682018060405250810190611c7891906135bb565b6040516375e9249f60e01b815290915073e7dd1252f50b3d845590da0c5eadd985049a03ce906375e9249f90611cd3908490737c2668bd0d3c050703cecc956c11bd520c26f7d4908990899030906000908190600401613c86565b602060405180830381600087803b158015611ced57600080fd5b505af1158015611d01573d6000803e3d6000fd5b505050506040513d601f19601f82011682018060405250810190610c3a91906135bb565b600060046000611d358585612aa9565b815260208101919091526040016000205460ff169392505050565b611d593361244f565b6040516328220f3560e01b8152600481018290527385e946e1bd35ec91044dc83a5ddab2b6a262ffa6906328220f3590602401610f2f565b611d9a3361244f565b6040516375e9249f60e01b815273e7dd1252f50b3d845590da0c5eadd985049a03ce906375e9249f90611ddd908a908a908a908a908a908a908a90600401613c86565b602060405180830381600087803b158015611df757600080fd5b505af1158015611e0b573d6000803e3d6000fd5b505050506040513d601f19601f82011682018060405250810190610ee891906135bb565b8460015411611e805760405162461bcd60e51b815260206004820181905260248201527f63616e6e6f7420636c61696d20666f722061206675747572652077696e646f776044820152606401610dde565b611e8a8585611d25565b15611ee85760405162461bcd60e51b815260206004820152602860248201527f4163636f756e7420616c726561647920636c61696d65642074686520676976656044820152676e2077696e646f7760c01b6064820152608401610dde565b611ef285856126aa565b611f3582828080602002602001604051908101604052809392919081815260200183836020028082843760009201829052505492506113a29150889050876124bf565b611f515760405162461bcd60e51b8152600401610dde90613c29565b610b6084611f796003888154811061187357634e487b7160e01b600052603260045260246000fd5b6126dd565b611f873361244f565b6001600160a01b03811615801590611fa957506001600160a01b038116600114155b8015611fbe57506001600160a01b0381163014155b611fee5760405162461bcd60e51b81526020600482015260016024820152601960f91b6044820152606401610dde565b6001600160a01b03818116600090815260066020526040902054161561203a5760405162461bcd60e51b81526020600482015260016024820152603360f81b6044820152606401610dde565b6001600160a01b0382161580159061205c57506001600160a01b038216600114155b61208c5760405162461bcd60e51b81526020600482015260016024820152600d60fa1b6044820152606401610dde565b6001600160a01b038381166000908152600660205260409020548116908316146120dc5760405162461bcd60e51b81526020600482015260016024820152603560f81b6044820152606401610dde565b6001600160a01b038281166000818152600660209081526040808320805487871680865283862080549289166001600160a01b0319938416179055968a1685528285208054821690971790965592849052825490941690915591519081527ff8d49fc529812e9a7c5c50e69c20f0dccc0db8fa95c98bc58cc9a4f1c1299eaf910160405180910390a16040516001600160a01b03821681527f9465fa0c962cc76958e6373a993326400c1c94f8be2fe3a952adfa7f60b2ea269060200160405180910390a1505050565b6040516375aab41d60e11b81527385e946e1bd35ec91044dc83a5ddab2b6a262ffa69063eb55683a90610b329085908590600401613d17565b604080516001600160a01b03808916825287166020820152908101859052606081018490526000907ffae60880665b87af033fc873390c3749e126b4cd010b87a7f1191dbd2b32f1979060800160405180910390a15063f23a6e6160e01b9695505050505050565b6040516375682e7960e01b8152737c2668bd0d3c050703cecc956c11bd520c26f7d4906375682e7990610c0c90869086908690600401613cc4565b61228b3361244f565b6040516318e97fd160e01b8152737c2668bd0d3c050703cecc956c11bd520c26f7d4906318e97fd1906122c690889088908890600401613cc4565b600060405180830381600087803b1580156122e057600080fd5b505af11580156122f4573d6000803e3d6000fd5b50506040516375682e7960e01b8152737c2668bd0d3c050703cecc956c11bd520c26f7d492506375682e79915061233390889086908690600401613cc4565b600060405180830381600087803b15801561234d57600080fd5b505af1158015610d1b573d6000803e3d6000fd5b61236a3361244f565b6001600160a01b0381161580159061238c57506001600160a01b038116600114155b61239557600080fd5b6001600160a01b038281166000908152600660205260409020548116908216146123be57600080fd5b6001600160a01b03818116600081815260066020526040808220805487861684529183208054929095166001600160a01b0319928316179094559181528254909116909155600780549161241183613ecb565b90915550506040516001600160a01b03821681527ff8d49fc529812e9a7c5c50e69c20f0dccc0db8fa95c98bc58cc9a4f1c1299eaf90602001611930565b61245881610c43565b6124bc5760405162461bcd60e51b815260206004820152602f60248201527f43616c6c6572206973206e6f7420612077686974656c6973746564206f776e6560448201526e1c881bd9881d1a1a5cc814dc1b1a5d608a1b6064820152608401610dde565b50565b6040516bffffffffffffffffffffffff19606084901b166020820152603481018290526000906054015b60405160208183030381529060405280519060200120905092915050565b600081815b85518110156125b957600086828151811061253757634e487b7160e01b600052603260045260246000fd5b602002602001015190508083116125795760408051602081018590529081018290526060016040516020818303038152906040528051906020012092506125a6565b60408051602081018390529081018490526060016040516020818303038152906040528051906020012092505b50806125b181613ee2565b91505061250c565b509092149392505050565b60405163a9059cbb60e01b81526001600160a01b038381166004830152602482018390526000919085169063a9059cbb90604401602060405180830381600087803b15801561261257600080fd5b505af1158015612626573d6000803e3d6000fd5b505050506040513d601f19601f8201168201806040525081019061264a9190613290565b604080516001600160a01b0380871682528716602082015290810184905281151560608201529091507f6767434177e485f133787a9dcf224cdd17a2466ca339163dd095209237545da89060800160405180910390a180611a5757600080fd5b6001600460006126ba8585612aa9565b81526020810191909152604001600020805460ff19169115159190911790555050565b60006126e98383612ad9565b9050806127f35773c778417e063141139fce010982780140aa0cd5ab6001600160a01b031663d0e30db0836040518263ffffffff1660e01b81526004016000604051808303818588803b15801561273f57600080fd5b505af1158015612753573d6000803e3d6000fd5b505060405163a9059cbb60e01b81526001600160a01b03871660048201526024810186905273c778417e063141139fce010982780140aa0cd5ab935063a9059cbb92506044019050602060405180830381600087803b1580156127b557600080fd5b505af11580156127c9573d6000803e3d6000fd5b505050506040513d601f19601f820116820180604052508101906127ed9190613290565b50600190505b604080516001600160a01b0385168152602081018490528215158183015290517fdbd5389f52533f4cbd998e752125a5a4eaa0b813b399ad15f775ec0e8438620d9181900360600190a192915050565b600854156128a25760405162461bcd60e51b815260206004820152602660248201527f53657475702068617320616c7265616479206265656e20636f6d706c657465646044820152651037b731b29760d11b6064820152608401610dde565b600160005b82518110156129ab5760008382815181106128d257634e487b7160e01b600052603260045260246000fd5b6020026020010151905060006001600160a01b0316816001600160a01b03161415801561290957506001600160a01b038116600114155b801561291e57506001600160a01b0381163014155b801561293c5750806001600160a01b0316836001600160a01b031614155b61294557600080fd5b6001600160a01b03818116600090815260066020526040902054161561296a57600080fd5b6001600160a01b03928316600090815260066020526040902080546001600160a01b03191693821693909317909255806129a381613ee2565b9150506128a7565b506001600160a01b0316600090815260066020526040902080546001600160a01b03191660019081179091559051600755600855565b612a2482828080602002602001604051908101604052809392919081815260200183836020028082843760009201829052505492506113a29150889050876124bf565b612a405760405162461bcd60e51b8152600401610dde90613c29565b6000805b6001548110156118a357612a588187611d25565b612a9757612a6681876126aa565b612a8a6003828154811061187357634e487b7160e01b600052603260045260246000fd5b612a949083613e5d565b91505b80612aa181613ee2565b915050612a44565b600082826040516020016124e992919091825260601b6bffffffffffffffffffffffff1916602082015260340190565b600080836001600160a01b03168361753090604051600060405180830381858888f193505050503d8060008114612b2c576040519150601f19603f3d011682016040523d82523d6000602084013e612b31565b606091505b509095945050505050565b60008083601f840112612b4d578182fd5b5081356001600160401b03811115612b63578182fd5b6020830191508360208260051b8501011115612b7e57600080fd5b9250929050565b60008083601f840112612b96578182fd5b5081356001600160401b03811115612bac578182fd5b602083019150836020828501011115612b7e57600080fd5b600082601f830112612bd4578081fd5b81356001600160401b0380821115612bee57612bee613f13565b604051601f8301601f19908116603f01168101908282118183101715612c1657612c16613f13565b81604052838152866020858801011115612c2e578485fd5b8360208701602083013792830160200193909352509392505050565b600060608284031215612c5b578081fd5b50919050565b600060808284031215612c5b578081fd5b803560ff81168114612c8357600080fd5b919050565b600060208284031215612c99578081fd5b81356112c381613f29565b600060208284031215612cb5578081fd5b81516112c381613f29565b60008060408385031215612cd2578081fd5b8235612cdd81613f29565b91506020830135612ced81613f29565b809150509250929050565b600080600060608486031215612d0c578081fd5b8335612d1781613f29565b92506020840135612d2781613f29565b91506040840135612d3781613f29565b809150509250925092565b60008060008060008060008060c0898b031215612d5d578384fd5b8835612d6881613f29565b97506020890135612d7881613f29565b96506040890135612d8881613f29565b95506060890135945060808901356001600160401b0380821115612daa578586fd5b612db68c838d01612b85565b909650945060a08b0135915080821115612dce578384fd5b50612ddb8b828c01612b85565b999c989b5096995094979396929594505050565b60008060008060008060008060a0898b031215612e0a578182fd5b8835612e1581613f29565b97506020890135612e2581613f29565b965060408901356001600160401b0380821115612e40578384fd5b612e4c8c838d01612b3c565b909850965060608b0135915080821115612e64578384fd5b612e708c838d01612b3c565b909650945060808b0135915080821115612dce578384fd5b600080600060608486031215612e9c578081fd5b8335612ea781613f29565b92506020840135612eb781613f29565b91506040840135612d3781613f3e565b600080600060608486031215612edb578081fd5b8335612ee681613f29565b92506020840135612ef681613f29565b929592945050506040919091013590565b600080600080600060808688031215612f1e578283fd5b8535612f2981613f29565b94506020860135612f3981613f29565b93506040860135925060608601356001600160401b03811115612f5a578182fd5b612f6688828901612b85565b969995985093965092949392505050565b60008060008060008060a08789031215612f8f578384fd5b8635612f9a81613f29565b95506020870135612faa81613f29565b9450604087013593506060870135925060808701356001600160401b03811115612fd2578283fd5b612fde89828a01612b85565b979a9699509497509295939492505050565b60008060008060008060c08789031215613008578384fd5b863561301381613f29565b9550602087013561302381613f29565b9450604087013593506060870135925060808701356001600160401b038082111561304c578384fd5b6130588a838b01612bc4565b935060a089013591508082111561306d578283fd5b5061307a89828a01612bc4565b9150509295509295509295565b60008060008060008060006080888a0312156130a1578081fd5b87356130ac81613f29565b965060208801356001600160401b03808211156130c7578283fd5b6130d38b838c01612b3c565b909850965060408a01359150808211156130eb578283fd5b6130f78b838c01612b3c565b909650945060608a013591508082111561310f578283fd5b5061311c8a828b01612b3c565b989b979a50959850939692959293505050565b60008060408385031215613141578182fd5b823561314c81613f29565b91506020830135612ced81613f3e565b6000806000806101208587031215613172578182fd5b843561317d81613f29565b935060208501356001600160401b03811115613197578283fd5b6131a387828801612c61565b9350506131b38660408701612c4a565b91506131c28660a08701612c61565b905092959194509250565b600080604083850312156131df578182fd5b82356131ea81613f29565b946020939093013593505050565b6000806000806060858703121561320d578182fd5b843561321881613f29565b93506020850135925060408501356001600160401b03811115613239578283fd5b61324587828801612b3c565b95989497509550505050565b60008060208385031215613263578182fd5b82356001600160401b03811115613278578283fd5b61328485828601612b3c565b90969095509350505050565b6000602082840312156132a1578081fd5b81516112c381613f3e565b6000602082840312156132bd578081fd5b81356001600160e01b0319811681146112c3578182fd5b600080602083850312156132e6578182fd5b82356001600160401b038111156132fb578283fd5b61328485828601612b85565b60008060008060008060008060c0898b031215613322578182fd5b88356001600160401b0380821115613338578384fd5b6133448c838d01612b85565b909a50985060208b013591508082111561335c578384fd5b506133698b828c01612b85565b909750955050604089013561337d81613f29565b9350606089013561338d81613f29565b979a969950949793969295929450505060808201359160a0013590565b600080604083850312156133bc578182fd5b82356001600160401b03808211156133d2578384fd5b6133de86838701612bc4565b935060208501359150808211156133f3578283fd5b5061340085828601612bc4565b9150509250929050565b60008060008060008060008060006101208a8c031215613428578283fd5b89356001600160401b038082111561343e578485fd5b61344a8d838e01612bc4565b9a5060208c013591508082111561345f578485fd5b61346b8d838e01612bc4565b995060408c0135915080821115613480578485fd5b61348c8d838e01612bc4565b985060608c01359150808211156134a1578485fd5b6134ad8d838e01612bc4565b975060808c0135965060a08c01359150808211156134c9578485fd5b506134d68c828d01612bc4565b94505060c08a0135925060e08a013591506101008a013590509295985092959850929598565b6000806080838503121561350e578182fd5b82356001600160401b03811115613523578283fd5b61352f85828601612c61565b92505061353f8460208501612c4a565b90509250929050565b60008060008060c0858703121561355d578182fd5b84356001600160401b03811115613572578283fd5b61357e87828801612c61565b94505061358e8660208701612c4a565b939693955050505060808201359160a0013590565b6000602082840312156135b4578081fd5b5035919050565b6000602082840312156135cc578081fd5b5051919050565b600080604083850312156135e5578182fd5b823591506020830135612ced81613f29565b60008060008060006080868803121561360e578283fd5b85359450602086013561362081613f29565b93506040860135925060608601356001600160401b03811115613641578182fd5b612f6688828901612b3c565b600080600080600080600060e0888a031215613667578081fd5b87359650602088013561367981613f29565b95506040880135945060608801359350608088013561369781613f29565b92506136a560a08901612c72565b915060c08801356136b581613f29565b8091505092959891949750929550565b600080604083850312156136d7578182fd5b823591506020830135612ced81613f3e565b6000806000604084860312156136fd578081fd5b8335925060208401356001600160401b03811115613719578182fd5b61372586828701612b85565b9497909650939450505050565b600080600080600060608688031215613749578283fd5b8535945060208601356001600160401b0380821115613766578485fd5b61377289838a01612b85565b9096509450604088013591508082111561378a578283fd5b50612f6688828901612b85565b60008082840360608112156137aa578283fd5b833592506040601f19820112156137bf578182fd5b506020830190509250929050565b600080608083850312156137df578182fd5b8235915061353f8460208501612c4a565b60008082840360c0811215613803578283fd5b8335925060a0601f19820112156137bf578182fd5b6000806040838503121561382a578182fd5b50508035926020909101359150565b81835260006001600160fb1b03831115613851578081fd5b8260051b80836020870137939093016020019283525090919050565b81835281816020850137506000828201602090810191909152601f909101601f19169091010190565b60008151808452815b818110156138bb5760208185018101518683018201520161389f565b818111156138cc5782602083870101525b50601f01601f19169290920160200192915050565b60006138ed8283613e19565b608085526138ff60808601828461386d565b91505061390f6020840184613e19565b858303602087015261392283828461386d565b9250505060408301356040850152606083013560608501528091505092915050565b6001600160a01b038781168252861660208201526080604082018190526000906139719083018688613839565b8281036060840152613984818587613839565b9998505050505050505050565b6001600160a01b03878116825286166020820152604081018590526060810184905260c0608082018190526000906139cb90830185613896565b82810360a08401526139848185613896565b6001600160a01b038516815261012060208201819052600090613a02838201876138e1565b915050613a2660408301858035825260208082013590830152604090810135910152565b823560a083015260ff613a3b60208501612c72565b1660c0830152604083013560e0830152606083013561010083015295945050505050565b60208082528181018390526000908460408401835b86811015613aa2578235613a8781613f29565b6001600160a01b031682529183019190830190600101613a74565b509695505050505050565b6020808252825182820181905260009190848201906040850190845b81811015613aee5783516001600160a01b031683529284019291840191600101613ac9565b50909695505050505050565b602081526000613b0e60208301848661386d565b949350505050565b60c081526000613b2a60c083018a8c61386d565b8281036020840152613b3d81898b61386d565b6001600160a01b03978816604085015295909616606083015250608081019290925260a09091015295945050505050565b604081526000613b816040830185613896565b8281036020840152613b938185613896565b95945050505050565b6000610120808352613bb08184018d613896565b90508281036020840152613bc4818c613896565b90508281036040840152613bd8818b613896565b90508281036060840152613bec818a613896565b905087608084015282810360a0840152613c068188613896565b60c0840196909652505060e0810192909252610100909101529695505050505050565b6020808252600d908201526c24b73b30b634b210383937b7b360991b604082015260600190565b608081526000613c6360808301856138e1565b90506112c360208301848035825260208082013590830152604090810135910152565b9687526001600160a01b039586166020880152604087019490945260608601929092528316608085015260ff1660a08401521660c082015260e00190565b838152604060208201526000613b9360408301848661386d565b6000606082019050838252823560208301526020830135613cfe81613f29565b6001600160a01b03166040929092019190915292915050565b828152608081016112c360208301848035825260208082013590830152604090810135910152565b600060c082019050838252823560208301526020830135613d5f81613f29565b6001600160a01b0390811660408481019190915284013590613d8082613f29565b808216606085015260608501359150613d9882613f29565b80821660808501525050608083013560a08301529392505050565b6000808335601e19843603018112613dc9578283fd5b8301803591506001600160401b03821115613de2578283fd5b6020019150600581901b3603821315612b7e57600080fd5b60008235601e19833603018112613e0f578182fd5b9190910192915050565b6000808335601e19843603018112613e2f578283fd5b83016020810192503590506001600160401b03811115613e4e57600080fd5b803603831315612b7e57600080fd5b60008219821115613e7057613e70613efd565b500190565b600082613e9057634e487b7160e01b81526012600452602481fd5b500490565b6000816000190483118215151615613eaf57613eaf613efd565b500290565b600082821015613ec657613ec6613efd565b500390565b600081613eda57613eda613efd565b506000190190565b6000600019821415613ef657613ef6613efd565b5060010190565b634e487b7160e01b600052601160045260246000fd5b634e487b7160e01b600052604160045260246000fd5b6001600160a01b03811681146124bc57600080fd5b80151581146124bc57600080fdfea2646970667358221220689883c9e27db19883ce0cf983266448893dcf1fa9f6decdc79d3b05bafb6cb464736f6c63430008040033",
  "linkReferences": {},
  "deployedLinkReferences": {}
}