{
  "_format": "hh-sol-artifact-1",
  "contractName": "OurPylon",
  "sourceName": "contracts/OurPylon.sol",
  "abi": [
    {
      "inputs": [],
      "stateMutability": "nonpayable",
      "type": "constructor"
    },
    {
      "anonymous": false,
      "inputs": [
        {
          "indexed": false,
          "internalType": "address",
          "name": "owner",
          "type": "address"
        }
      ],
      "name": "AddedOwner",
      "type": "event"
    },
    {
      "anonymous": false,
      "inputs": [
        {
          "indexed": false,
          "internalType": "address",
          "name": "operator",
          "type": "address"
        },
        {
          "indexed": false,
          "internalType": "address",
          "name": "from",
          "type": "address"
        },
        {
          "indexed": false,
          "internalType": "address",
          "name": "to",
          "type": "address"
        },
        {
          "indexed": false,
          "internalType": "uint256",
          "name": "amount",
          "type": "uint256"
        }
      ],
      "name": "ERC777Received",
      "type": "event"
    },
    {
      "anonymous": false,
      "inputs": [
        {
          "indexed": true,
          "internalType": "address",
          "name": "sender",
          "type": "address"
        },
        {
          "indexed": false,
          "internalType": "uint256",
          "name": "value",
          "type": "uint256"
        }
      ],
      "name": "ETHReceived",
      "type": "event"
    },
    {
      "anonymous": false,
      "inputs": [
        {
          "indexed": false,
          "internalType": "address",
          "name": "editionAddress",
          "type": "address"
        },
        {
          "indexed": false,
          "internalType": "string",
          "name": "name",
          "type": "string"
        },
        {
          "indexed": false,
          "internalType": "string",
          "name": "symbol",
          "type": "string"
        },
        {
          "indexed": false,
          "internalType": "string",
          "name": "description",
          "type": "string"
        },
        {
          "indexed": false,
          "internalType": "string",
          "name": "animationUrl",
          "type": "string"
        },
        {
          "indexed": false,
          "internalType": "string",
          "name": "imageUrl",
          "type": "string"
        },
        {
          "indexed": false,
          "internalType": "uint256",
          "name": "editionSize",
          "type": "uint256"
        },
        {
          "indexed": false,
          "internalType": "uint256",
          "name": "royaltyBPS",
          "type": "uint256"
        }
      ],
      "name": "EditionCreated",
      "type": "event"
    },
    {
      "anonymous": false,
      "inputs": [
        {
          "indexed": false,
          "internalType": "string",
          "name": "newName",
          "type": "string"
        }
      ],
      "name": "NameChanged",
      "type": "event"
    },
    {
      "anonymous": false,
      "inputs": [
        {
          "indexed": false,
          "internalType": "address[]",
          "name": "owners",
          "type": "address[]"
        }
      ],
      "name": "ProxySetup",
      "type": "event"
    },
    {
      "anonymous": false,
      "inputs": [
        {
          "indexed": false,
          "internalType": "address",
          "name": "owner",
          "type": "address"
        }
      ],
      "name": "RemovedOwner",
      "type": "event"
    },
    {
      "anonymous": false,
      "inputs": [
        {
          "indexed": false,
          "internalType": "address",
          "name": "token",
          "type": "address"
        },
        {
          "indexed": false,
          "internalType": "uint256",
          "name": "amount",
          "type": "uint256"
        }
      ],
      "name": "TransferERC20",
      "type": "event"
    },
    {
      "anonymous": false,
      "inputs": [
        {
          "indexed": false,
          "internalType": "address",
          "name": "account",
          "type": "address"
        },
        {
          "indexed": false,
          "internalType": "uint256",
          "name": "amount",
          "type": "uint256"
        },
        {
          "indexed": false,
          "internalType": "bool",
          "name": "success",
          "type": "bool"
        }
      ],
      "name": "TransferETH",
      "type": "event"
    },
    {
      "anonymous": false,
      "inputs": [
        {
          "indexed": false,
          "internalType": "uint256",
          "name": "currentWindow",
          "type": "uint256"
        },
        {
          "indexed": false,
          "internalType": "uint256",
          "name": "fundsAvailable",
          "type": "uint256"
        }
      ],
      "name": "WindowIncremented",
      "type": "event"
    },
    {
      "anonymous": false,
      "inputs": [
        {
          "indexed": false,
          "internalType": "uint256",
          "name": "tokenId",
          "type": "uint256"
        }
      ],
      "name": "ZNFTMinted",
      "type": "event"
    },
    {
      "inputs": [],
      "name": "MIRROR_CROWDFUND",
      "outputs": [
        {
          "internalType": "address",
          "name": "",
          "type": "address"
        }
      ],
      "stateMutability": "view",
      "type": "function"
    },
    {
      "inputs": [],
      "name": "PERCENTAGE_SCALE",
      "outputs": [
        {
          "internalType": "uint256",
          "name": "",
          "type": "uint256"
        }
      ],
      "stateMutability": "view",
      "type": "function"
    },
    {
      "inputs": [],
      "name": "WETH",
      "outputs": [
        {
          "internalType": "address",
          "name": "",
          "type": "address"
        }
      ],
      "stateMutability": "view",
      "type": "function"
    },
    {
      "inputs": [],
      "name": "ZORA_AH",
      "outputs": [
        {
          "internalType": "address",
          "name": "",
          "type": "address"
        }
      ],
      "stateMutability": "view",
      "type": "function"
    },
    {
      "inputs": [],
      "name": "ZORA_EDITIONS",
      "outputs": [
        {
          "internalType": "address",
          "name": "",
          "type": "address"
        }
      ],
      "stateMutability": "view",
      "type": "function"
    },
    {
      "inputs": [],
      "name": "ZORA_MARKET",
      "outputs": [
        {
          "internalType": "address",
          "name": "",
          "type": "address"
        }
      ],
      "stateMutability": "view",
      "type": "function"
    },
    {
      "inputs": [],
      "name": "ZORA_MEDIA",
      "outputs": [
        {
          "internalType": "address",
          "name": "",
          "type": "address"
        }
      ],
      "stateMutability": "view",
      "type": "function"
    },
    {
      "inputs": [
        {
          "internalType": "uint256",
          "name": "tokenId",
          "type": "uint256"
        },
        {
          "components": [
            {
              "internalType": "uint256",
              "name": "amount",
              "type": "uint256"
            },
            {
              "internalType": "address",
              "name": "currency",
              "type": "address"
            },
            {
              "internalType": "address",
              "name": "bidder",
              "type": "address"
            },
            {
              "internalType": "address",
              "name": "recipient",
              "type": "address"
            },
            {
              "components": [
                {
                  "internalType": "uint256",
                  "name": "value",
                  "type": "uint256"
                }
              ],
              "internalType": "struct IZora.D256",
              "name": "sellOnShare",
              "type": "tuple"
            }
          ],
          "internalType": "struct IZora.Bid",
          "name": "expectedBid",
          "type": "tuple"
        }
      ],
      "name": "acceptZMarketBid",
      "outputs": [],
      "stateMutability": "nonpayable",
      "type": "function"
    },
    {
      "inputs": [
        {
          "internalType": "address",
          "name": "owner",
          "type": "address"
        }
      ],
      "name": "addOwner",
      "outputs": [],
      "stateMutability": "nonpayable",
      "type": "function"
    },
    {
      "inputs": [
        {
          "internalType": "uint256",
          "name": "",
          "type": "uint256"
        }
      ],
      "name": "balanceForWindow",
      "outputs": [
        {
          "internalType": "uint256",
          "name": "",
          "type": "uint256"
        }
      ],
      "stateMutability": "view",
      "type": "function"
    },
    {
      "inputs": [
        {
          "internalType": "uint256",
          "name": "auctionId",
          "type": "uint256"
        }
      ],
      "name": "cancelZAuction",
      "outputs": [],
      "stateMutability": "nonpayable",
      "type": "function"
    },
    {
      "inputs": [
        {
          "internalType": "address",
          "name": "tokenAddress",
          "type": "address"
        },
        {
          "internalType": "address[]",
          "name": "accounts",
          "type": "address[]"
        },
        {
          "internalType": "uint256[]",
          "name": "allocations",
          "type": "uint256[]"
        },
        {
          "components": [
            {
              "internalType": "bytes32[]",
              "name": "merkleProof",
              "type": "bytes32[]"
            }
          ],
          "internalType": "struct OurSplitter.Proof[]",
          "name": "merkleProofs",
          "type": "tuple[]"
        }
      ],
      "name": "claimERC20ForAll",
      "outputs": [],
      "stateMutability": "nonpayable",
      "type": "function"
    },
    {
      "inputs": [
        {
          "internalType": "uint256",
          "name": "window",
          "type": "uint256"
        },
        {
          "internalType": "address",
          "name": "account",
          "type": "address"
        },
        {
          "internalType": "uint256",
          "name": "scaledPercentageAllocation",
          "type": "uint256"
        },
        {
          "internalType": "bytes32[]",
          "name": "merkleProof",
          "type": "bytes32[]"
        }
      ],
      "name": "claimETH",
      "outputs": [],
      "stateMutability": "nonpayable",
      "type": "function"
    },
    {
      "inputs": [
        {
          "internalType": "address",
          "name": "account",
          "type": "address"
        },
        {
          "internalType": "uint256",
          "name": "percentageAllocation",
          "type": "uint256"
        },
        {
          "internalType": "bytes32[]",
          "name": "merkleProof",
          "type": "bytes32[]"
        }
      ],
      "name": "claimETHForAllWindows",
      "outputs": [],
      "stateMutability": "nonpayable",
      "type": "function"
    },
    {
      "inputs": [
        {
          "internalType": "string",
          "name": "name",
          "type": "string"
        },
        {
          "internalType": "string",
          "name": "symbol",
          "type": "string"
        },
        {
          "internalType": "address payable",
          "name": "operator",
          "type": "address"
        },
        {
          "internalType": "address payable",
          "name": "fundingRecipient",
          "type": "address"
        },
        {
          "internalType": "uint256",
          "name": "fundingCap",
          "type": "uint256"
        },
        {
          "internalType": "uint256",
          "name": "operatorPercent",
          "type": "uint256"
        }
      ],
      "name": "createMirrorCrowdfund",
      "outputs": [],
      "stateMutability": "nonpayable",
      "type": "function"
    },
    {
      "inputs": [
        {
          "internalType": "uint256",
          "name": "tokenId",
          "type": "uint256"
        },
        {
          "internalType": "address",
          "name": "tokenContract",
          "type": "address"
        },
        {
          "internalType": "uint256",
          "name": "duration",
          "type": "uint256"
        },
        {
          "internalType": "uint256",
          "name": "reservePrice",
          "type": "uint256"
        },
        {
          "internalType": "address payable",
          "name": "curator",
          "type": "address"
        },
        {
          "internalType": "uint8",
          "name": "curatorFeePercentage",
          "type": "uint8"
        },
        {
          "internalType": "address",
          "name": "auctionCurrency",
          "type": "address"
        }
      ],
      "name": "createZoraAuction",
      "outputs": [],
      "stateMutability": "nonpayable",
      "type": "function"
    },
    {
      "inputs": [
        {
          "internalType": "string",
          "name": "name",
          "type": "string"
        },
        {
          "internalType": "string",
          "name": "symbol",
          "type": "string"
        },
        {
          "internalType": "string",
          "name": "description",
          "type": "string"
        },
        {
          "internalType": "string",
          "name": "animationUrl",
          "type": "string"
        },
        {
          "internalType": "bytes32",
          "name": "animationHash",
          "type": "bytes32"
        },
        {
          "internalType": "string",
          "name": "imageUrl",
          "type": "string"
        },
        {
          "internalType": "bytes32",
          "name": "imageHash",
          "type": "bytes32"
        },
        {
          "internalType": "uint256",
          "name": "editionSize",
          "type": "uint256"
        },
        {
          "internalType": "uint256",
          "name": "royaltyBPS",
          "type": "uint256"
        },
        {
          "internalType": "uint256",
          "name": "salePrice",
          "type": "uint256"
        },
        {
          "internalType": "bool",
          "name": "publicMint",
          "type": "bool"
        }
      ],
      "name": "createZoraEdition",
      "outputs": [],
      "stateMutability": "nonpayable",
      "type": "function"
    },
    {
      "inputs": [],
      "name": "currentWindow",
      "outputs": [
        {
          "internalType": "uint256",
          "name": "",
          "type": "uint256"
        }
      ],
      "stateMutability": "view",
      "type": "function"
    },
    {
      "inputs": [
        {
          "internalType": "string",
          "name": "newName_",
          "type": "string"
        }
      ],
      "name": "editNickname",
      "outputs": [],
      "stateMutability": "nonpayable",
      "type": "function"
    },
    {
      "inputs": [],
      "name": "getOwners",
      "outputs": [
        {
          "internalType": "address[]",
          "name": "",
          "type": "address[]"
        }
      ],
      "stateMutability": "view",
      "type": "function"
    },
    {
      "inputs": [
        {
          "internalType": "address",
          "name": "account",
          "type": "address"
        },
        {
          "internalType": "uint256",
          "name": "percentageAllocation",
          "type": "uint256"
        },
        {
          "internalType": "bytes32[]",
          "name": "merkleProof",
          "type": "bytes32[]"
        }
      ],
      "name": "incrementThenClaimAll",
      "outputs": [],
      "stateMutability": "nonpayable",
      "type": "function"
    },
    {
      "inputs": [],
      "name": "incrementWindow",
      "outputs": [],
      "stateMutability": "nonpayable",
      "type": "function"
    },
    {
      "inputs": [
        {
          "internalType": "uint256",
          "name": "window",
          "type": "uint256"
        },
        {
          "internalType": "address",
          "name": "account",
          "type": "address"
        }
      ],
      "name": "isClaimed",
      "outputs": [
        {
          "internalType": "bool",
          "name": "",
          "type": "bool"
        }
      ],
      "stateMutability": "view",
      "type": "function"
    },
    {
      "inputs": [
        {
          "internalType": "address",
          "name": "owner",
          "type": "address"
        }
      ],
      "name": "isOwner",
      "outputs": [
        {
          "internalType": "bool",
          "name": "",
          "type": "bool"
        }
      ],
      "stateMutability": "view",
      "type": "function"
    },
    {
      "inputs": [],
      "name": "merkleRoot",
      "outputs": [
        {
          "internalType": "bytes32",
          "name": "",
          "type": "bytes32"
        }
      ],
      "stateMutability": "view",
      "type": "function"
    },
    {
      "inputs": [
        {
          "internalType": "address",
          "name": "editionAddress",
          "type": "address"
        },
        {
          "internalType": "address[]",
          "name": "recipients",
          "type": "address[]"
        }
      ],
      "name": "mintEditionsTo",
      "outputs": [],
      "stateMutability": "nonpayable",
      "type": "function"
    },
    {
      "inputs": [
        {
          "components": [
            {
              "internalType": "string",
              "name": "tokenURI",
              "type": "string"
            },
            {
              "internalType": "string",
              "name": "metadataURI",
              "type": "string"
            },
            {
              "internalType": "bytes32",
              "name": "contentHash",
              "type": "bytes32"
            },
            {
              "internalType": "bytes32",
              "name": "metadataHash",
              "type": "bytes32"
            }
          ],
          "internalType": "struct IZora.MediaData",
          "name": "mediaData",
          "type": "tuple"
        },
        {
          "components": [
            {
              "components": [
                {
                  "internalType": "uint256",
                  "name": "value",
                  "type": "uint256"
                }
              ],
              "internalType": "struct IZora.D256",
              "name": "prevOwner",
              "type": "tuple"
            },
            {
              "components": [
                {
                  "internalType": "uint256",
                  "name": "value",
                  "type": "uint256"
                }
              ],
              "internalType": "struct IZora.D256",
              "name": "creator",
              "type": "tuple"
            },
            {
              "components": [
                {
                  "internalType": "uint256",
                  "name": "value",
                  "type": "uint256"
                }
              ],
              "internalType": "struct IZora.D256",
              "name": "owner",
              "type": "tuple"
            }
          ],
          "internalType": "struct IZora.BidShares",
          "name": "bidShares",
          "type": "tuple"
        },
        {
          "internalType": "uint256",
          "name": "duration",
          "type": "uint256"
        },
        {
          "internalType": "uint256",
          "name": "reservePrice",
          "type": "uint256"
        }
      ],
      "name": "mintToAuctionForETH",
      "outputs": [],
      "stateMutability": "nonpayable",
      "type": "function"
    },
    {
      "inputs": [
        {
          "components": [
            {
              "internalType": "string",
              "name": "tokenURI",
              "type": "string"
            },
            {
              "internalType": "string",
              "name": "metadataURI",
              "type": "string"
            },
            {
              "internalType": "bytes32",
              "name": "contentHash",
              "type": "bytes32"
            },
            {
              "internalType": "bytes32",
              "name": "metadataHash",
              "type": "bytes32"
            }
          ],
          "internalType": "struct IZora.MediaData",
          "name": "mediaData",
          "type": "tuple"
        },
        {
          "components": [
            {
              "components": [
                {
                  "internalType": "uint256",
                  "name": "value",
                  "type": "uint256"
                }
              ],
              "internalType": "struct IZora.D256",
              "name": "prevOwner",
              "type": "tuple"
            },
            {
              "components": [
                {
                  "internalType": "uint256",
                  "name": "value",
                  "type": "uint256"
                }
              ],
              "internalType": "struct IZora.D256",
              "name": "creator",
              "type": "tuple"
            },
            {
              "components": [
                {
                  "internalType": "uint256",
                  "name": "value",
                  "type": "uint256"
                }
              ],
              "internalType": "struct IZora.D256",
              "name": "owner",
              "type": "tuple"
            }
          ],
          "internalType": "struct IZora.BidShares",
          "name": "bidShares",
          "type": "tuple"
        }
      ],
      "name": "mintZNFT",
      "outputs": [],
      "stateMutability": "nonpayable",
      "type": "function"
    },
    {
      "inputs": [
        {
          "internalType": "address",
          "name": "creator",
          "type": "address"
        },
        {
          "components": [
            {
              "internalType": "string",
              "name": "tokenURI",
              "type": "string"
            },
            {
              "internalType": "string",
              "name": "metadataURI",
              "type": "string"
            },
            {
              "internalType": "bytes32",
              "name": "contentHash",
              "type": "bytes32"
            },
            {
              "internalType": "bytes32",
              "name": "metadataHash",
              "type": "bytes32"
            }
          ],
          "internalType": "struct IZora.MediaData",
          "name": "mediaData",
          "type": "tuple"
        },
        {
          "components": [
            {
              "components": [
                {
                  "internalType": "uint256",
                  "name": "value",
                  "type": "uint256"
                }
              ],
              "internalType": "struct IZora.D256",
              "name": "prevOwner",
              "type": "tuple"
            },
            {
              "components": [
                {
                  "internalType": "uint256",
                  "name": "value",
                  "type": "uint256"
                }
              ],
              "internalType": "struct IZora.D256",
              "name": "creator",
              "type": "tuple"
            },
            {
              "components": [
                {
                  "internalType": "uint256",
                  "name": "value",
                  "type": "uint256"
                }
              ],
              "internalType": "struct IZora.D256",
              "name": "owner",
              "type": "tuple"
            }
          ],
          "internalType": "struct IZora.BidShares",
          "name": "bidShares",
          "type": "tuple"
        },
        {
          "components": [
            {
              "internalType": "uint256",
              "name": "deadline",
              "type": "uint256"
            },
            {
              "internalType": "uint8",
              "name": "v",
              "type": "uint8"
            },
            {
              "internalType": "bytes32",
              "name": "r",
              "type": "bytes32"
            },
            {
              "internalType": "bytes32",
              "name": "s",
              "type": "bytes32"
            }
          ],
          "internalType": "struct IZora.EIP712Signature",
          "name": "sig",
          "type": "tuple"
        }
      ],
      "name": "mintZNFTWithSig",
      "outputs": [],
      "stateMutability": "nonpayable",
      "type": "function"
    },
    {
      "inputs": [
        {
          "internalType": "address",
          "name": "",
          "type": "address"
        },
        {
          "internalType": "address",
          "name": "",
          "type": "address"
        },
        {
          "internalType": "uint256[]",
          "name": "",
          "type": "uint256[]"
        },
        {
          "internalType": "uint256[]",
          "name": "",
          "type": "uint256[]"
        },
        {
          "internalType": "bytes",
          "name": "",
          "type": "bytes"
        }
      ],
      "name": "onERC1155BatchReceived",
      "outputs": [
        {
          "internalType": "bytes4",
          "name": "",
          "type": "bytes4"
        }
      ],
      "stateMutability": "pure",
      "type": "function"
    },
    {
      "inputs": [
        {
          "internalType": "address",
          "name": "",
          "type": "address"
        },
        {
          "internalType": "address",
          "name": "",
          "type": "address"
        },
        {
          "internalType": "uint256",
          "name": "",
          "type": "uint256"
        },
        {
          "internalType": "uint256",
          "name": "",
          "type": "uint256"
        },
        {
          "internalType": "bytes",
          "name": "",
          "type": "bytes"
        }
      ],
      "name": "onERC1155Received",
      "outputs": [
        {
          "internalType": "bytes4",
          "name": "",
          "type": "bytes4"
        }
      ],
      "stateMutability": "pure",
      "type": "function"
    },
    {
      "inputs": [
        {
          "internalType": "address",
          "name": "",
          "type": "address"
        },
        {
          "internalType": "address",
          "name": "",
          "type": "address"
        },
        {
          "internalType": "uint256",
          "name": "",
          "type": "uint256"
        },
        {
          "internalType": "bytes",
          "name": "",
          "type": "bytes"
        }
      ],
      "name": "onERC721Received",
      "outputs": [
        {
          "internalType": "bytes4",
          "name": "",
          "type": "bytes4"
        }
      ],
      "stateMutability": "pure",
      "type": "function"
    },
    {
      "inputs": [
        {
          "internalType": "address",
          "name": "prevOwner",
          "type": "address"
        },
        {
          "internalType": "address",
          "name": "owner",
          "type": "address"
        }
      ],
      "name": "removeOwner",
      "outputs": [],
      "stateMutability": "nonpayable",
      "type": "function"
    },
    {
      "inputs": [
        {
          "internalType": "uint256",
          "name": "tokenId",
          "type": "uint256"
        }
      ],
      "name": "removeZMarketAsk",
      "outputs": [],
      "stateMutability": "nonpayable",
      "type": "function"
    },
    {
      "inputs": [
        {
          "internalType": "uint256",
          "name": "amount",
          "type": "uint256"
        },
        {
          "internalType": "uint256",
          "name": "scaledPercent",
          "type": "uint256"
        }
      ],
      "name": "scaleAmountByPercentage",
      "outputs": [
        {
          "internalType": "uint256",
          "name": "scaledAmount",
          "type": "uint256"
        }
      ],
      "stateMutability": "pure",
      "type": "function"
    },
    {
      "inputs": [
        {
          "internalType": "address",
          "name": "editionAddress",
          "type": "address"
        },
        {
          "internalType": "address",
          "name": "minter",
          "type": "address"
        },
        {
          "internalType": "bool",
          "name": "allowed",
          "type": "bool"
        }
      ],
      "name": "setEditionMinter",
      "outputs": [],
      "stateMutability": "nonpayable",
      "type": "function"
    },
    {
      "inputs": [
        {
          "internalType": "address",
          "name": "editionAddress",
          "type": "address"
        },
        {
          "internalType": "uint256",
          "name": "salePrice",
          "type": "uint256"
        }
      ],
      "name": "setEditionPrice",
      "outputs": [],
      "stateMutability": "nonpayable",
      "type": "function"
    },
    {
      "inputs": [
        {
          "internalType": "uint256",
          "name": "auctionId",
          "type": "uint256"
        },
        {
          "internalType": "bool",
          "name": "approved",
          "type": "bool"
        }
      ],
      "name": "setZAuctionApproval",
      "outputs": [],
      "stateMutability": "nonpayable",
      "type": "function"
    },
    {
      "inputs": [
        {
          "internalType": "uint256",
          "name": "auctionId",
          "type": "uint256"
        },
        {
          "internalType": "uint256",
          "name": "reservePrice",
          "type": "uint256"
        }
      ],
      "name": "setZAuctionReservePrice",
      "outputs": [],
      "stateMutability": "nonpayable",
      "type": "function"
    },
    {
      "inputs": [
        {
          "internalType": "uint256",
          "name": "tokenId",
          "type": "uint256"
        },
        {
          "components": [
            {
              "internalType": "uint256",
              "name": "amount",
              "type": "uint256"
            },
            {
              "internalType": "address",
              "name": "currency",
              "type": "address"
            }
          ],
          "internalType": "struct IZora.Ask",
          "name": "ask",
          "type": "tuple"
        }
      ],
      "name": "setZMarketAsk",
      "outputs": [],
      "stateMutability": "nonpayable",
      "type": "function"
    },
    {
      "inputs": [
        {
          "internalType": "uint256",
          "name": "tokenId",
          "type": "uint256"
        },
        {
          "components": [
            {
              "components": [
                {
                  "internalType": "uint256",
                  "name": "value",
                  "type": "uint256"
                }
              ],
              "internalType": "struct IZora.D256",
              "name": "prevOwner",
              "type": "tuple"
            },
            {
              "components": [
                {
                  "internalType": "uint256",
                  "name": "value",
                  "type": "uint256"
                }
              ],
              "internalType": "struct IZora.D256",
              "name": "creator",
              "type": "tuple"
            },
            {
              "components": [
                {
                  "internalType": "uint256",
                  "name": "value",
                  "type": "uint256"
                }
              ],
              "internalType": "struct IZora.D256",
              "name": "owner",
              "type": "tuple"
            }
          ],
          "internalType": "struct IZora.BidShares",
          "name": "bidShares",
          "type": "tuple"
        }
      ],
      "name": "setZMarketBidShares",
      "outputs": [],
      "stateMutability": "nonpayable",
      "type": "function"
    },
    {
      "inputs": [
        {
          "internalType": "address[]",
          "name": "owners_",
          "type": "address[]"
        }
      ],
      "name": "setup",
      "outputs": [],
      "stateMutability": "nonpayable",
      "type": "function"
    },
    {
      "inputs": [
        {
          "internalType": "bytes4",
          "name": "interfaceId",
          "type": "bytes4"
        }
      ],
      "name": "supportsInterface",
      "outputs": [
        {
          "internalType": "bool",
          "name": "",
          "type": "bool"
        }
      ],
      "stateMutability": "pure",
      "type": "function"
    },
    {
      "inputs": [
        {
          "internalType": "address",
          "name": "prevOwner",
          "type": "address"
        },
        {
          "internalType": "address",
          "name": "oldOwner",
          "type": "address"
        },
        {
          "internalType": "address",
          "name": "newOwner",
          "type": "address"
        }
      ],
      "name": "swapOwner",
      "outputs": [],
      "stateMutability": "nonpayable",
      "type": "function"
    },
    {
      "inputs": [
        {
          "internalType": "address",
          "name": "operator",
          "type": "address"
        },
        {
          "internalType": "address",
          "name": "from",
          "type": "address"
        },
        {
          "internalType": "address",
          "name": "to",
          "type": "address"
        },
        {
          "internalType": "uint256",
          "name": "amount",
          "type": "uint256"
        },
        {
          "internalType": "bytes",
          "name": "",
          "type": "bytes"
        },
        {
          "internalType": "bytes",
          "name": "",
          "type": "bytes"
        }
      ],
      "name": "tokensReceived",
      "outputs": [],
      "stateMutability": "nonpayable",
      "type": "function"
    },
    {
      "inputs": [
        {
          "internalType": "address",
          "name": "tokenContract_",
          "type": "address"
        },
        {
          "internalType": "uint256",
          "name": "tokenId_",
          "type": "uint256"
        }
      ],
      "name": "untrustedBurnERC721",
      "outputs": [],
      "stateMutability": "nonpayable",
      "type": "function"
    },
    {
      "inputs": [
        {
          "internalType": "address",
          "name": "to",
          "type": "address"
        },
        {
          "internalType": "bytes",
          "name": "data",
          "type": "bytes"
        }
      ],
      "name": "untrustedExecuteTransaction",
      "outputs": [
        {
          "internalType": "bool",
          "name": "success",
          "type": "bool"
        }
      ],
      "stateMutability": "nonpayable",
      "type": "function"
    },
    {
      "inputs": [
        {
          "internalType": "address",
          "name": "tokenContract_",
          "type": "address"
        },
        {
          "internalType": "address",
          "name": "newOwner_",
          "type": "address"
        },
        {
          "internalType": "uint256",
          "name": "tokenId_",
          "type": "uint256"
        }
      ],
      "name": "untrustedSafeTransferERC721",
      "outputs": [],
      "stateMutability": "nonpayable",
      "type": "function"
    },
    {
      "inputs": [
        {
          "internalType": "address",
          "name": "tokenContract_",
          "type": "address"
        },
        {
          "internalType": "address",
          "name": "operator_",
          "type": "address"
        },
        {
          "internalType": "bool",
          "name": "approved_",
          "type": "bool"
        }
      ],
      "name": "untrustedSetApprovalERC721",
      "outputs": [],
      "stateMutability": "nonpayable",
      "type": "function"
    },
    {
      "inputs": [
        {
          "internalType": "address",
          "name": "editionAddress",
          "type": "address"
        },
        {
          "internalType": "string",
          "name": "imageUrl",
          "type": "string"
        },
        {
          "internalType": "string",
          "name": "animationUrl",
          "type": "string"
        }
      ],
      "name": "updateEditionURLs",
      "outputs": [],
      "stateMutability": "nonpayable",
      "type": "function"
    },
    {
      "inputs": [
        {
          "internalType": "uint256",
          "name": "tokenId",
          "type": "uint256"
        },
        {
          "internalType": "string",
          "name": "metadataURI",
          "type": "string"
        }
      ],
      "name": "updateZNFTMetadataURI",
      "outputs": [],
      "stateMutability": "nonpayable",
      "type": "function"
    },
    {
      "inputs": [
        {
          "internalType": "uint256",
          "name": "tokenId",
          "type": "uint256"
        },
        {
          "internalType": "string",
          "name": "tokenURI",
          "type": "string"
        }
      ],
      "name": "updateZNFTTokenURI",
      "outputs": [],
      "stateMutability": "nonpayable",
      "type": "function"
    },
    {
      "inputs": [
        {
          "internalType": "uint256",
          "name": "tokenId",
          "type": "uint256"
        },
        {
          "internalType": "string",
          "name": "tokenURI",
          "type": "string"
        },
        {
          "internalType": "string",
          "name": "metadataURI",
          "type": "string"
        }
      ],
      "name": "updateZNFTURIs",
      "outputs": [],
      "stateMutability": "nonpayable",
      "type": "function"
    },
    {
      "inputs": [
        {
          "internalType": "address",
          "name": "editionAddress",
          "type": "address"
        }
      ],
      "name": "withdrawEditionFunds",
      "outputs": [],
      "stateMutability": "nonpayable",
      "type": "function"
    },
    {
      "stateMutability": "payable",
      "type": "receive"
    }
  ],
  "bytecode": "0x608060405234801561001057600080fd5b506001600855614286806100256000396000f3fe6080604052600436106103375760003560e01c80638ffb5c97116101ab578063d13450ac116100f7578063e318b52b11610095578063f989c7781161006f578063f989c77814610a57578063fbe5ce0a14610a77578063fc0af5cb14610a97578063fe8dc13a14610ab757600080fd5b8063e318b52b146109ea578063f23a6e6114610a0a578063f7075dac14610a3757600080fd5b8063d3256714116100d1578063d325671414610962578063d9a1b96c14610982578063debb73fe146109a2578063df875aeb146109c257600080fd5b8063d13450ac14610902578063d2ac178f14610922578063d2ef07951461094257600080fd5b8063ad5c464811610164578063bc197c811161013e578063bc197c8114610873578063bd5b853b146108a2578063c013bbb4146108c2578063c3a3d984146108e257600080fd5b8063ad5c464814610815578063b1bc07811461083d578063ba0bafb41461085d57600080fd5b80638ffb5c97146107535780639473e6a414610773578063a0e67e2b14610793578063a303c8a1146107b5578063a4058df3146107d5578063a7601046146107f557600080fd5b8063338b1d31116102855780637065cb48116102235780637cf69c0a116101fd5780637cf69c0a146106cb57806381e580d3146106eb57806386a77cc21461070b5780638c68aa5e1461073357600080fd5b80637065cb481461066357806379644aa314610683578063797fa967146106a357600080fd5b806341fcd3bd1161025f57806341fcd3bd146105e357806342aa1990146106035780634ca7e50414610623578063659fa47e1461064357600080fd5b8063338b1d31146105975780633f26479e146105ac5780633fded6cd146105c357600080fd5b80631cd93304116102f25780632d0b322b116102cc5780632d0b322b1461050b5780632eb4a7ab146105335780632f54bf6e146105575780632f8d7c601461057757600080fd5b80631cd933041461048b5780631fd309cc146104ab578063228cfe17146104eb57600080fd5b806223de291461038f57806245a3ee146103b157806301ffc9a7146103d1578063055ec43014610406578063150b7a0214610426578063179f227a1461046b57600080fd5b3661038a57346005600082825461034e9190614161565b909155505060405134815233907fbfe611b001dfcd411432f7bf0d79b82b4b2ee81511edac123a3403c357fb972a9060200160405180910390a2005b600080fd5b34801561039b57600080fd5b506103af6103aa366004613073565b610ad7565b005b3480156103bd57600080fd5b506103af6103cc366004613a76565b610b38565b3480156103dd57600080fd5b506103f16103ec36600461363d565b610c22565b60405190151581526020015b60405180910390f35b34801561041257600080fd5b506103f161042136600461341b565b610c74565b34801561043257600080fd5b50610452610441366004613238565b630a85bd0160e11b95945050505050565b6040516001600160e01b031990911681526020016103fd565b34801561047757600080fd5b506103af610486366004613a3a565b610c94565b34801561049757600080fd5b506103af6104a6366004613321565b610d06565b3480156104b757600080fd5b506104d37338d43bede3aac0262fca248c7fca10cec35e3bcf81565b6040516001600160a01b0390911681526020016103fd565b3480156104f757600080fd5b506103af610506366004613b34565b610d95565b34801561051757600080fd5b506104d373e7dd1252f50b3d845590da0c5eadd985049a03ce81565b34801561053f57600080fd5b5061054960005481565b6040519081526020016103fd565b34801561056357600080fd5b506103f1610572366004612fb9565b610e0d565b34801561058357600080fd5b506103af610592366004613698565b610e45565b3480156105a357600080fd5b506103af610ee5565b3480156105b857600080fd5b50610549620f424081565b3480156105cf57600080fd5b506103af6105de36600461355e565b610fe2565b3480156105ef57600080fd5b506103af6105fe366004613adb565b611018565b34801561060f57600080fd5b506103af61061e366004613a3a565b61105a565b34801561062f57600080fd5b506103af61063e3660046134ed565b61109e565b34801561064f57600080fd5b506103af61065e36600461373b565b611156565b34801561066f57600080fd5b506103af61067e366004612fb9565b6113a3565b34801561068f57600080fd5b506103af61069e3660046138f4565b6114bc565b3480156106af57600080fd5b506104d373eac226b370d77f436b5780b4dd4a49e59e8bea3781565b3480156106d757600080fd5b506103af6106e63660046131b9565b61152e565b3480156106f757600080fd5b506105496107063660046138f4565b61156d565b34801561071757600080fd5b506104d37385e946e1bd35ec91044dc83a5ddab2b6a262ffa681565b34801561073f57600080fd5b506103af61074e366004612fb9565b61158e565b34801561075f57600080fd5b5061054961076e366004613b5c565b6115c9565b34801561077f57600080fd5b506103af61078e366004613373565b6115f4565b34801561079f57600080fd5b506107a8611a07565b6040516103fd9190613db1565b3480156107c157600080fd5b506103af6107d0366004613589565b611b13565b3480156107e157600080fd5b506103af6107f0366004613b11565b611bf7565b34801561080157600080fd5b506103af6108103660046131b9565b611c30565b34801561082157600080fd5b506104d373c778417e063141139fce010982780140aa0cd5ab81565b34801561084957600080fd5b506103af610858366004613665565b611c6f565b34801561086957600080fd5b5061054960015481565b34801561087f57600080fd5b5061045261088e366004613120565b63bc197c8160e01b98975050505050505050565b3480156108ae57600080fd5b506103af6108bd3660046135e2565b611cb5565b3480156108ce57600080fd5b506103af6108dd366004613b5c565b611d36565b3480156108ee57600080fd5b506103af6108fd366004613589565b611d7e565b34801561090e57600080fd5b506103af61091d3660046131f8565b611d92565b34801561092e57600080fd5b506103af61093d366004613899565b611dd6565b34801561094e57600080fd5b506103f161095d366004613924565b611f39565b34801561096e57600080fd5b506103af61097d366004613a16565b611f64565b34801561098e57600080fd5b506103af61099d36600461399e565b611fad565b3480156109ae57600080fd5b506103af6109bd366004613948565b612055565b3480156109ce57600080fd5b506104d3737c2668bd0d3c050703cecc956c11bd520c26f7d481565b3480156109f657600080fd5b506103af610a05366004613029565b6121a4565b348015610a1657600080fd5b50610452610a253660046132a8565b63f23a6e6160e01b9695505050505050565b348015610a4357600080fd5b506103af610a5236600461355e565b6123cc565b348015610a6357600080fd5b506103af610a7236600461347b565b612402565b348015610a8357600080fd5b506103af610a92366004612ff1565b612439565b348015610aa357600080fd5b506103af610ab23660046138f4565b612527565b348015610ac357600080fd5b506103af610ad236600461384d565b612568565b604080516001600160a01b03808b168252808a166020830152881691810191909152606081018690527f0fe6507bce457d6e175fa9bc1db1b817f39e37b1f5c91695fd1a62848bc433b7906080015b60405180910390a15050505050505050565b610b4133612613565b6040516318e97fd160e01b8152737c2668bd0d3c050703cecc956c11bd520c26f7d4906318e97fd190610b7c90889088908890600401613fc8565b600060405180830381600087803b158015610b9657600080fd5b505af1158015610baa573d6000803e3d6000fd5b50506040516375682e7960e01b8152737c2668bd0d3c050703cecc956c11bd520c26f7d492506375682e799150610be990889086908690600401613fc8565b600060405180830381600087803b158015610c0357600080fd5b505af1158015610c17573d6000803e3d6000fd5b505050505050505050565b60006001600160e01b03198216630271189760e51b1480610c5357506001600160e01b03198216630a85bd0160e11b145b80610c6e57506001600160e01b031982166301ffc9a760e01b145b92915050565b6000610c7f33612613565b6000808351602085016000875af19392505050565b6040516375682e7960e01b8152737c2668bd0d3c050703cecc956c11bd520c26f7d4906375682e7990610ccf90869086908690600401613fc8565b600060405180830381600087803b158015610ce957600080fd5b505af1158015610cfd573d6000803e3d6000fd5b50505050505050565b610d0f33612613565b604051630f6a934960e01b81526001600160a01b03841690630f6a934990610d3d9085908590600401613d63565b602060405180830381600087803b158015610d5757600080fd5b505af1158015610d6b573d6000803e3d6000fd5b505050506040513d601f19601f82011682018060405250810190610d8f919061390c565b50505050565b610d9e33612613565b60405163ba33939960e01b81527385e946e1bd35ec91044dc83a5ddab2b6a262ffa69063ba33939990610dd79085908590600401614043565b600060405180830381600087803b158015610df157600080fd5b505af1158015610e05573d6000803e3d6000fd5b505050505050565b60006001600160a01b038216600114801590610c6e5750506001600160a01b0390811660009081526006602052604090205416151590565b610e4e33612613565b604051631acf450d60e21b815273eac226b370d77f436b5780b4dd4a49e59e8bea3790636b3d143490610e93908b908b908b908b908b908b908b908b90600401613e1a565b602060405180830381600087803b158015610ead57600080fd5b505af1158015610ec1573d6000803e3d6000fd5b505050506040513d601f19601f82011682018060405250810190610c179190612fd5565b600060015460001415610ef9575047610efe565b506005545b600060055580610f555760405162461bcd60e51b815260206004820152601e60248201527f4e6f206164646974696f6e616c2066756e647320666f722077696e646f77000060448201526064015b60405180910390fd5b600380546001818101835560009283527fc2575a0e9e593c00f959f8c92f12db2869c3395a3b0502d05e2516446f71f85b909101839055805490918291610f9d908390614161565b909155505060015460408051918252602082018390527ff0840b82b46c1dc7df62cae652baa1b5588ce37b6a1236ed1dcf4caf34d738ac91015b60405180910390a150565b610feb33612613565b604051631919fed760e01b8152600481018290526001600160a01b03831690631919fed790602401610dd7565b61102133612613565b60405163062f24b760e41b81527385e946e1bd35ec91044dc83a5ddab2b6a262ffa6906362f24b7090610dd79085908590600401613fe2565b61106333612613565b6040516318e97fd160e01b8152737c2668bd0d3c050703cecc956c11bd520c26f7d4906318e97fd190610ccf90869086908690600401613fc8565b6110a733612613565b604051633d3d090160e11b8152737c2668bd0d3c050703cecc956c11bd520c26f7d490637a7a1202906110e4908790879087908790600401613ce1565b600060405180830381600087803b1580156110fe57600080fd5b505af1158015611112573d6000803e3d6000fd5b505050507fcbcfc7992330c2e2b57e75fc9a0c9edb0c66341cf39d141a7c4df6e6da05651e61113f612683565b60405190815260200160405180910390a150505050565b61115f33612613565b604051630861804f60e11b81526000907338d43bede3aac0262fca248c7fca10cec35e3bcf906310c3009e906111a9908f908f908f908f908f908f908f908f908f90600401613ea0565b602060405180830381600087803b1580156111c357600080fd5b505af11580156111d7573d6000803e3d6000fd5b505050506040513d601f19601f820116820180604052508101906111fb919061390c565b60405163ac52edfd60e01b8152600481018290529091506000907338d43bede3aac0262fca248c7fca10cec35e3bcf9063ac52edfd9060240160206040518083038186803b15801561124c57600080fd5b505afa158015611260573d6000803e3d6000fd5b505050506040513d601f19601f820116820180604052508101906112849190612fd5565b905083156112e757604051631919fed760e01b8152600481018590526001600160a01b03821690631919fed790602401600060405180830381600087803b1580156112ce57600080fd5b505af11580156112e2573d6000803e3d6000fd5b505050505b821561134f576040516329ec16dd60e01b815260006004820152600160248201526001600160a01b038216906329ec16dd90604401600060405180830381600087803b15801561133657600080fd5b505af115801561134a573d6000803e3d6000fd5b505050505b7f0cd4e4e2e3c04cd0599276bba560d6bd9d53bc0f04666d59897f87465195990c818e8e8e8e8d8c8c60405161138c989796959493929190613c54565b60405180910390a150505050505050505050505050565b6113ac33612613565b6001600160a01b038116158015906113ce57506001600160a01b038116600114155b80156113e357506001600160a01b0381163014155b6113ec57600080fd5b6001600160a01b03818116600090815260066020526040902054161561141157600080fd5b60066020527f3e5fec24aa4dc4e5aee2e025e51e1392c72a2500577559fae9665c6d52bd6a3180546001600160a01b038381166000818152604081208054939094166001600160a01b03199384161790935560018352835490911617909155600780549161147e836141e6565b90915550506040516001600160a01b03821681527f9465fa0c962cc76958e6373a993326400c1c94f8be2fe3a952adfa7f60b2ea2690602001610fd7565b6114c533612613565b6040516328220f3560e01b8152600481018290527385e946e1bd35ec91044dc83a5ddab2b6a262ffa6906328220f35906024015b600060405180830381600087803b15801561151357600080fd5b505af1158015611527573d6000803e3d6000fd5b5050505050565b61153733612613565b6040516329ec16dd60e01b81526001600160a01b03838116600483015282151560248301528416906329ec16dd90604401610ccf565b6003818154811061157d57600080fd5b600091825260209091200154905081565b806001600160a01b0316633ccfd60b6040518163ffffffff1660e01b8152600401600060405180830381600087803b15801561151357600080fd5b60006115d9620f42406064614199565b6115e38385614199565b6115ed9190614179565b9392505050565b6116d18282600081811061161857634e487b7160e01b600052603260045260246000fd5b905060200281019061162a91906140fe565b61163490806140b7565b808060200260200160405190810160405280939291908181526020018383602002808284376000920182905250805493506116cc92508b91508a908161168a57634e487b7160e01b600052603260045260246000fd5b905060200201602081019061169f9190612fb9565b888860008181106116c057634e487b7160e01b600052603260045260246000fd5b905060200201356127b0565b6127f8565b61171d5760405162461bcd60e51b815260206004820152601b60248201527f496e76616c69642070726f6f6620666f72204163636f756e74203000000000006044820152606401610f4c565b6040516370a0823160e01b81523060048201526000906001600160a01b038916906370a082319060240160206040518083038186803b15801561175f57600080fd5b505afa158015611773573d6000803e3d6000fd5b505050506040513d601f19601f82011682018060405250810190611797919061390c565b905060015b868110156119115761186f8484838181106117c757634e487b7160e01b600052603260045260246000fd5b90506020028101906117d991906140fe565b6117e390806140b7565b8080602002602001604051908101604052809392919081815260200183836020028082843760009201829052505492506116cc91508c90508b8681811061183a57634e487b7160e01b600052603260045260246000fd5b905060200201602081019061184f9190612fb9565b8a8a878181106116c057634e487b7160e01b600052603260045260246000fd5b61188b5760405162461bcd60e51b8152600401610f4c90613f2d565b60006118bd838888858181106118b157634e487b7160e01b600052603260045260246000fd5b905060200201356115c9565b90506118fe8a8a8a858181106118e357634e487b7160e01b600052603260045260246000fd5b90506020020160208101906118f89190612fb9565b836128b5565b5080611909816141e6565b91505061179c565b506119c8888888600081811061193757634e487b7160e01b600052603260045260246000fd5b905060200201602081019061194c9190612fb9565b6040516370a0823160e01b81523060048201526001600160a01b038c16906370a082319060240160206040518083038186803b15801561198b57600080fd5b505afa15801561199f573d6000803e3d6000fd5b505050506040513d601f19601f820116820180604052508101906119c3919061390c565b6128b5565b604080516001600160a01b038a168152602081018390527f73001563b3c2e14efd545d6f9a0740c1937da3aa8d4320550fcef35ddc9797449101610b26565b606060006007546001600160401b03811115611a3357634e487b7160e01b600052604160045260246000fd5b604051908082528060200260200182016040528015611a5c578160200160208202803683370190505b506001600090815260066020527f3e5fec24aa4dc4e5aee2e025e51e1392c72a2500577559fae9665c6d52bd6a3154919250906001600160a01b03165b6001600160a01b038116600114611b0b5780838381518110611acb57634e487b7160e01b600052603260045260246000fd5b6001600160a01b03928316602091820292909201810191909152918116600090815260069092526040909120541681611b03816141e6565b925050611a99565b509092915050565b611b5682828080602002602001604051908101604052809392919081815260200183836020028082843760009201829052505492506116cc9150889050876127b0565b611b725760405162461bcd60e51b8152600401610f4c90613f2d565b6000805b600154811015611bec57611b8a8187611f39565b611bda57611b988187612947565b611bcd60038281548110611bbc57634e487b7160e01b600052603260045260246000fd5b9060005260206000200154866115c9565b611bd79083614161565b91505b80611be4816141e6565b915050611b76565b50610e05858261297a565b6040516375aab41d60e11b81527385e946e1bd35ec91044dc83a5ddab2b6a262ffa69063eb55683a90610dd7908590859060040161401b565b611c3933612613565b60405163a22cb46560e01b81526001600160a01b038381166004830152821515602483015284169063a22cb46590604401610ccf565b611c7833612613565b7f4737457377f528cc8afd815f73ecb8b05df80d047dbffc41c17750a4033592bc8282604051611ca9929190613dfe565b60405180910390a15050565b611cf1828280806020026020016040519081016040528093929190818152602001838360200280828437600092019190915250612ae092505050565b7f92e5baf3cc4552d78b76a780360e152809a8e6aabf13c0e507ef6ed5c0dff7518282604051611d22929190613d63565b60405180910390a1611d32612c7e565b5050565b611d3f33612613565b604051636f8a41e160e01b8152600481018390526024810182905273e7dd1252f50b3d845590da0c5eadd985049a03ce90636f8a41e190604401610dd7565b611d86610ee5565b610d8f84848484612cf9565b611d9b33612613565b604051632142170760e11b81523060048201526001600160a01b038381166024830152604482018390528416906342842e0e90606401610ccf565b611ddf33612613565b604051632cca323760e01b8152737c2668bd0d3c050703cecc956c11bd520c26f7d490632cca323790611e189087908790600401613f54565b600060405180830381600087803b158015611e3257600080fd5b505af1158015611e46573d6000803e3d6000fd5b505050506000611e54612683565b90507fcbcfc7992330c2e2b57e75fc9a0c9edb0c66341cf39d141a7c4df6e6da05651e81604051611e8791815260200190565b60405180910390a16040516375e9249f60e01b815273e7dd1252f50b3d845590da0c5eadd985049a03ce906375e9249f90611ee7908490737c2668bd0d3c050703cecc956c11bd520c26f7d4908890889030906000908190600401613f8a565b602060405180830381600087803b158015611f0157600080fd5b505af1158015611f15573d6000803e3d6000fd5b505050506040513d601f19601f82011682018060405250810190610e05919061390c565b600060046000611f498585612dc1565b815260208101919091526040016000205460ff169392505050565b611f6d33612613565b604051634b9eeda560e11b815260048101839052811515602482015273e7dd1252f50b3d845590da0c5eadd985049a03ce9063973ddb4a90604401610dd7565b611fb633612613565b6040516375e9249f60e01b815273e7dd1252f50b3d845590da0c5eadd985049a03ce906375e9249f90611ff9908a908a908a908a908a908a908a90600401613f8a565b602060405180830381600087803b15801561201357600080fd5b505af1158015612027573d6000803e3d6000fd5b505050506040513d601f19601f8201168201806040525081019061204b919061390c565b5050505050505050565b84600154116120a65760405162461bcd60e51b815260206004820181905260248201527f63616e6e6f7420636c61696d20666f722061206675747572652077696e646f776044820152606401610f4c565b6120b08585611f39565b1561210e5760405162461bcd60e51b815260206004820152602860248201527f4163636f756e7420616c726561647920636c61696d65642074686520676976656044820152676e2077696e646f7760c01b6064820152608401610f4c565b6121188585612947565b61215b82828080602002602001604051908101604052809392919081815260200183836020028082843760009201829052505492506116cc9150889050876127b0565b6121775760405162461bcd60e51b8152600401610f4c90613f2d565b610e058461219f60038881548110611bbc57634e487b7160e01b600052603260045260246000fd5b61297a565b6121ad33612613565b6001600160a01b038116158015906121cf57506001600160a01b038116600114155b80156121e457506001600160a01b0381163014155b6122145760405162461bcd60e51b81526020600482015260016024820152601960f91b6044820152606401610f4c565b6001600160a01b0381811660009081526006602052604090205416156122605760405162461bcd60e51b81526020600482015260016024820152603360f81b6044820152606401610f4c565b6001600160a01b0382161580159061228257506001600160a01b038216600114155b6122b25760405162461bcd60e51b81526020600482015260016024820152600d60fa1b6044820152606401610f4c565b6001600160a01b038381166000908152600660205260409020548116908316146123025760405162461bcd60e51b81526020600482015260016024820152603560f81b6044820152606401610f4c565b6001600160a01b038281166000818152600660209081526040808320805487871680865283862080549289166001600160a01b0319938416179055968a1685528285208054821690971790965592849052825490941690915591519081527ff8d49fc529812e9a7c5c50e69c20f0dccc0db8fa95c98bc58cc9a4f1c1299eaf910160405180910390a16040516001600160a01b03821681527f9465fa0c962cc76958e6373a993326400c1c94f8be2fe3a952adfa7f60b2ea269060200160405180910390a1505050565b6123d533612613565b604051630852cd8d60e31b8152600481018290526001600160a01b038316906342966c6890602401610dd7565b61240b33612613565b6040516339112ff360e21b81526001600160a01b0384169063e444bfcc90610ccf9085908590600401613e72565b61244233612613565b6001600160a01b0381161580159061246457506001600160a01b038116600114155b61246d57600080fd5b6001600160a01b0382811660009081526006602052604090205481169082161461249657600080fd5b6001600160a01b03818116600081815260066020526040808220805487861684529183208054929095166001600160a01b031992831617909455918152825490911690915560078054916124e9836141cf565b90915550506040516001600160a01b03821681527ff8d49fc529812e9a7c5c50e69c20f0dccc0db8fa95c98bc58cc9a4f1c1299eaf90602001611ca9565b61253033612613565b6040516396b5a75560e01b81526004810182905273e7dd1252f50b3d845590da0c5eadd985049a03ce906396b5a755906024016114f9565b61257133612613565b604051632cca323760e01b8152737c2668bd0d3c050703cecc956c11bd520c26f7d490632cca3237906125aa9085908590600401613f54565b600060405180830381600087803b1580156125c457600080fd5b505af11580156125d8573d6000803e3d6000fd5b505050507fcbcfc7992330c2e2b57e75fc9a0c9edb0c66341cf39d141a7c4df6e6da05651e612605612683565b604051908152602001611ca9565b61261c81610e0d565b6126805760405162461bcd60e51b815260206004820152602f60248201527f43616c6c6572206973206e6f7420612077686974656c6973746564206f776e6560448201526e1c881bd9881d1a1a5cc814dc1b1a5d608a1b6064820152608401610f4c565b50565b6000737c2668bd0d3c050703cecc956c11bd520c26f7d46001600160a01b0316634f6ccce76001737c2668bd0d3c050703cecc956c11bd520c26f7d46001600160a01b03166318160ddd6040518163ffffffff1660e01b8152600401602060405180830381600087803b1580156126f957600080fd5b505af115801561270d573d6000803e3d6000fd5b505050506040513d601f19601f82011682018060405250810190612731919061390c565b61273b91906141b8565b6040518263ffffffff1660e01b815260040161275991815260200190565b602060405180830381600087803b15801561277357600080fd5b505af1158015612787573d6000803e3d6000fd5b505050506040513d601f19601f820116820180604052508101906127ab919061390c565b905090565b6040516bffffffffffffffffffffffff19606084901b166020820152603481018290526000906054015b60405160208183030381529060405280519060200120905092915050565b600081815b85518110156128aa57600086828151811061282857634e487b7160e01b600052603260045260246000fd5b6020026020010151905080831161286a576040805160208101859052908101829052606001604051602081830303815290604052805190602001209250612897565b60408051602081018390529081018490526060016040516020818303038152906040528051906020012092505b50806128a2816141e6565b9150506127fd565b509092149392505050565b60405163a9059cbb60e01b81526001600160a01b038381166004830152602482018390526000919085169063a9059cbb90604401602060405180830381600087803b15801561290357600080fd5b505af1158015612917573d6000803e3d6000fd5b505050506040513d601f19601f8201168201806040525081019061293b9190613621565b905080610d8f57600080fd5b6001600460006129578585612dc1565b81526020810191909152604001600020805460ff19169115159190911790555050565b60006129868383612df1565b905080612a905773c778417e063141139fce010982780140aa0cd5ab6001600160a01b031663d0e30db0836040518263ffffffff1660e01b81526004016000604051808303818588803b1580156129dc57600080fd5b505af11580156129f0573d6000803e3d6000fd5b505060405163a9059cbb60e01b81526001600160a01b03871660048201526024810186905273c778417e063141139fce010982780140aa0cd5ab935063a9059cbb92506044019050602060405180830381600087803b158015612a5257600080fd5b505af1158015612a66573d6000803e3d6000fd5b505050506040513d601f19601f82011682018060405250810190612a8a9190613621565b50600190505b604080516001600160a01b0385168152602081018490528215158183015290517fdbd5389f52533f4cbd998e752125a5a4eaa0b813b399ad15f775ec0e8438620d9181900360600190a192915050565b60085415612b3f5760405162461bcd60e51b815260206004820152602660248201527f53657475702068617320616c7265616479206265656e20636f6d706c657465646044820152651037b731b29760d11b6064820152608401610f4c565b600160005b8251811015612c48576000838281518110612b6f57634e487b7160e01b600052603260045260246000fd5b6020026020010151905060006001600160a01b0316816001600160a01b031614158015612ba657506001600160a01b038116600114155b8015612bbb57506001600160a01b0381163014155b8015612bd95750806001600160a01b0316836001600160a01b031614155b612be257600080fd5b6001600160a01b038181166000908152600660205260409020541615612c0757600080fd5b6001600160a01b03928316600090815260066020526040902080546001600160a01b0319169382169390931790925580612c40816141e6565b915050612b44565b506001600160a01b0316600090815260066020526040902080546001600160a01b03191660019081179091559051600755600855565b60405163a22cb46560e01b815273e7dd1252f50b3d845590da0c5eadd985049a03ce600482015260016024820152737c2668bd0d3c050703cecc956c11bd520c26f7d49063a22cb46590604401600060405180830381600087803b158015612ce557600080fd5b505af1158015610d8f573d6000803e3d6000fd5b612d3c82828080602002602001604051908101604052809392919081815260200183836020028082843760009201829052505492506116cc9150889050876127b0565b612d585760405162461bcd60e51b8152600401610f4c90613f2d565b6000805b600154811015611bec57612d708187611f39565b612daf57612d7e8187612947565b612da260038281548110611bbc57634e487b7160e01b600052603260045260246000fd5b612dac9083614161565b91505b80612db9816141e6565b915050612d5c565b600082826040516020016127da92919091825260601b6bffffffffffffffffffffffff1916602082015260340190565b600080836001600160a01b03168361753090604051600060405180830381858888f193505050503d8060008114612e44576040519150601f19603f3d011682016040523d82523d6000602084013e612e49565b606091505b509095945050505050565b60006001600160401b0380841115612e6e57612e6e614217565b604051601f8501601f19908116603f01168101908282118183101715612e9657612e96614217565b81604052809350858152868686011115612eaf57600080fd5b858560208301376000602087830101525050509392505050565b60008083601f840112612eda578182fd5b5081356001600160401b03811115612ef0578182fd5b6020830191508360208260051b8501011115612f0b57600080fd5b9250929050565b8035612f1d81614242565b919050565b60008083601f840112612f33578182fd5b5081356001600160401b03811115612f49578182fd5b602083019150836020828501011115612f0b57600080fd5b600082601f830112612f71578081fd5b6115ed83833560208501612e54565b600060608284031215612f91578081fd5b50919050565b600060808284031215612f91578081fd5b803560ff81168114612f1d57600080fd5b600060208284031215612fca578081fd5b81356115ed8161422d565b600060208284031215612fe6578081fd5b81516115ed8161422d565b60008060408385031215613003578081fd5b823561300e8161422d565b9150602083013561301e8161422d565b809150509250929050565b60008060006060848603121561303d578081fd5b83356130488161422d565b925060208401356130588161422d565b915060408401356130688161422d565b809150509250925092565b60008060008060008060008060c0898b03121561308e578586fd5b88356130998161422d565b975060208901356130a98161422d565b965060408901356130b98161422d565b95506060890135945060808901356001600160401b03808211156130db578586fd5b6130e78c838d01612f22565b909650945060a08b01359150808211156130ff578384fd5b5061310c8b828c01612f22565b999c989b5096995094979396929594505050565b60008060008060008060008060a0898b03121561313b578182fd5b88356131468161422d565b975060208901356131568161422d565b965060408901356001600160401b0380821115613171578384fd5b61317d8c838d01612ec9565b909850965060608b0135915080821115613195578384fd5b6131a18c838d01612ec9565b909650945060808b01359150808211156130ff578384fd5b6000806000606084860312156131cd578081fd5b83356131d88161422d565b925060208401356131e88161422d565b9150604084013561306881614242565b60008060006060848603121561320c578081fd5b83356132178161422d565b925060208401356132278161422d565b929592945050506040919091013590565b60008060008060006080868803121561324f578283fd5b853561325a8161422d565b9450602086013561326a8161422d565b93506040860135925060608601356001600160401b0381111561328b578182fd5b61329788828901612f22565b969995985093965092949392505050565b60008060008060008060a087890312156132c0578384fd5b86356132cb8161422d565b955060208701356132db8161422d565b9450604087013593506060870135925060808701356001600160401b03811115613303578283fd5b61330f89828a01612f22565b979a9699509497509295939492505050565b600080600060408486031215613335578081fd5b83356133408161422d565b925060208401356001600160401b0381111561335a578182fd5b61336686828701612ec9565b9497909650939450505050565b60008060008060008060006080888a03121561338d578081fd5b87356133988161422d565b965060208801356001600160401b03808211156133b3578283fd5b6133bf8b838c01612ec9565b909850965060408a01359150808211156133d7578283fd5b6133e38b838c01612ec9565b909650945060608a01359150808211156133fb578283fd5b506134088a828b01612ec9565b989b979a50959850939692959293505050565b6000806040838503121561342d578182fd5b82356134388161422d565b915060208301356001600160401b03811115613452578182fd5b8301601f81018513613462578182fd5b61347185823560208401612e54565b9150509250929050565b60008060006060848603121561348f578081fd5b833561349a8161422d565b925060208401356001600160401b03808211156134b5578283fd5b6134c187838801612f61565b935060408601359150808211156134d6578283fd5b506134e386828701612f61565b9150509250925092565b6000806000806101208587031215613503578182fd5b843561350e8161422d565b935060208501356001600160401b03811115613528578283fd5b61353487828801612f97565b9350506135448660408701612f80565b91506135538660a08701612f97565b905092959194509250565b60008060408385031215613570578182fd5b823561357b8161422d565b946020939093013593505050565b6000806000806060858703121561359e578182fd5b84356135a98161422d565b93506020850135925060408501356001600160401b038111156135ca578283fd5b6135d687828801612ec9565b95989497509550505050565b600080602083850312156135f4578182fd5b82356001600160401b03811115613609578283fd5b61361585828601612ec9565b90969095509350505050565b600060208284031215613632578081fd5b81516115ed81614242565b60006020828403121561364e578081fd5b81356001600160e01b0319811681146115ed578182fd5b60008060208385031215613677578182fd5b82356001600160401b0381111561368c578283fd5b61361585828601612f22565b60008060008060008060008060c0898b0312156136b3578182fd5b88356001600160401b03808211156136c9578384fd5b6136d58c838d01612f22565b909a50985060208b01359150808211156136ed578384fd5b506136fa8b828c01612f22565b909750955050604089013561370e8161422d565b9350606089013561371e8161422d565b979a969950949793969295929450505060808201359160a0013590565b60008060008060008060008060008060006101608c8e03121561375c578485fd5b6001600160401b03808d351115613771578586fd5b61377e8e8e358f01612f61565b9b508060208e01351115613790578586fd5b6137a08e60208f01358f01612f61565b9a508060408e013511156137b2578586fd5b6137c28e60408f01358f01612f61565b99508060608e013511156137d4578586fd5b6137e48e60608f01358f01612f61565b985060808d013597508060a08e013511156137fd578586fd5b5061380e8d60a08e01358e01612f61565b955060c08c0135945060e08c013593506101008c013592506101208c0135915061383b6101408d01612f12565b90509295989b509295989b9093969950565b6000806080838503121561385f578182fd5b82356001600160401b03811115613874578283fd5b61388085828601612f97565b9250506138908460208501612f80565b90509250929050565b60008060008060c085870312156138ae578182fd5b84356001600160401b038111156138c3578283fd5b6138cf87828801612f97565b9450506138df8660208701612f80565b939693955050505060808201359160a0013590565b600060208284031215613905578081fd5b5035919050565b60006020828403121561391d578081fd5b5051919050565b60008060408385031215613936578182fd5b82359150602083013561301e8161422d565b60008060008060006080868803121561395f578283fd5b8535945060208601356139718161422d565b93506040860135925060608601356001600160401b03811115613992578182fd5b61329788828901612ec9565b600080600080600080600060e0888a0312156139b8578081fd5b8735965060208801356139ca8161422d565b9550604088013594506060880135935060808801356139e88161422d565b92506139f660a08901612fa8565b915060c0880135613a068161422d565b8091505092959891949750929550565b60008060408385031215613a28578182fd5b82359150602083013561301e81614242565b600080600060408486031215613a4e578081fd5b8335925060208401356001600160401b03811115613a6a578182fd5b61336686828701612f22565b600080600080600060608688031215613a8d578283fd5b8535945060208601356001600160401b0380821115613aaa578485fd5b613ab689838a01612f22565b90965094506040880135915080821115613ace578283fd5b5061329788828901612f22565b6000808284036060811215613aee578283fd5b833592506040601f1982011215613b03578182fd5b506020830190509250929050565b60008060808385031215613b23578182fd5b823591506138908460208501612f80565b60008082840360c0811215613b47578283fd5b8335925060a0601f1982011215613b03578182fd5b60008060408385031215613b6e578182fd5b50508035926020909101359150565b81835281816020850137506000828201602090810191909152601f909101601f19169091010190565b60008151808452815b81811015613bcb57602081850181015186830182015201613baf565b81811115613bdc5782602083870101525b50601f01601f19169290920160200192915050565b6000613bfd828361411d565b60808552613c0f608086018284613b7d565b915050613c1f602084018461411d565b8583036020870152613c32838284613b7d565b9250505060408301356040850152606083013560608501528091505092915050565b6001600160a01b038916815261010060208201819052600090613c798382018b613ba6565b90508281036040840152613c8d818a613ba6565b90508281036060840152613ca18189613ba6565b90508281036080840152613cb58188613ba6565b905082810360a0840152613cc98187613ba6565b60c0840195909552505060e001529695505050505050565b6001600160a01b038516815261012060208201819052600090613d0683820187613bf1565b915050613d2a60408301858035825260208082013590830152604090810135910152565b823560a083015260ff613d3f60208501612fa8565b1660c0830152604083013560e0830152606083013561010083015295945050505050565b60208082528181018390526000908460408401835b86811015613da6578235613d8b8161422d565b6001600160a01b031682529183019190830190600101613d78565b509695505050505050565b6020808252825182820181905260009190848201906040850190845b81811015613df25783516001600160a01b031683529284019291840191600101613dcd565b50909695505050505050565b602081526000613e12602083018486613b7d565b949350505050565b60c081526000613e2e60c083018a8c613b7d565b8281036020840152613e4181898b613b7d565b6001600160a01b03978816604085015295909616606083015250608081019290925260a09091015295945050505050565b604081526000613e856040830185613ba6565b8281036020840152613e978185613ba6565b95945050505050565b6000610120808352613eb48184018d613ba6565b90508281036020840152613ec8818c613ba6565b90508281036040840152613edc818b613ba6565b90508281036060840152613ef0818a613ba6565b905087608084015282810360a0840152613f0a8188613ba6565b60c0840196909652505060e0810192909252610100909101529695505050505050565b6020808252600d908201526c24b73b30b634b210383937b7b360991b604082015260600190565b608081526000613f676080830185613bf1565b90506115ed60208301848035825260208082013590830152604090810135910152565b9687526001600160a01b039586166020880152604087019490945260608601929092528316608085015260ff1660a08401521660c082015260e00190565b838152604060208201526000613e97604083018486613b7d565b60006060820190508382528235602083015260208301356140028161422d565b6001600160a01b03166040929092019190915292915050565b828152608081016115ed60208301848035825260208082013590830152604090810135910152565b600060c0820190508382528235602083015260208301356140638161422d565b6001600160a01b03908116604084810191909152840135906140848261422d565b80821660608501526060850135915061409c8261422d565b80821660808501525050608083013560a08301529392505050565b6000808335601e198436030181126140cd578283fd5b8301803591506001600160401b038211156140e6578283fd5b6020019150600581901b3603821315612f0b57600080fd5b60008235601e19833603018112614113578182fd5b9190910192915050565b6000808335601e19843603018112614133578283fd5b83016020810192503590506001600160401b0381111561415257600080fd5b803603831315612f0b57600080fd5b6000821982111561417457614174614201565b500190565b60008261419457634e487b7160e01b81526012600452602481fd5b500490565b60008160001904831182151516156141b3576141b3614201565b500290565b6000828210156141ca576141ca614201565b500390565b6000816141de576141de614201565b506000190190565b60006000198214156141fa576141fa614201565b5060010190565b634e487b7160e01b600052601160045260246000fd5b634e487b7160e01b600052604160045260246000fd5b6001600160a01b038116811461268057600080fd5b801515811461268057600080fdfea264697066735822122071e33516a8bcabb4561dc69be692977d163afc1e3231edcf5132962f67bfe53b64736f6c63430008040033",
  "linkReferences": {},
  "deployedLinkReferences": {}
}