{
  "_format": "hh-sol-artifact-1",
  "contractName": "OurProxy",
  "sourceName": "contracts/OurProxy.sol",
  "abi": [
    {
      "inputs": [],
      "stateMutability": "nonpayable",
      "type": "constructor"
    },
    {
      "stateMutability": "payable",
      "type": "fallback"
    },
    {
      "inputs": [
        {
          "internalType": "uint256",
          "name": "",
          "type": "uint256"
        }
      ],
      "name": "balanceForWindow",
      "outputs": [
        {
          "internalType": "uint256",
          "name": "",
          "type": "uint256"
        }
      ],
      "stateMutability": "view",
      "type": "function"
    },
    {
      "inputs": [],
      "name": "currentWindow",
      "outputs": [
        {
          "internalType": "uint256",
          "name": "",
          "type": "uint256"
        }
      ],
      "stateMutability": "view",
      "type": "function"
    },
    {
      "inputs": [],
      "name": "merkleRoot",
      "outputs": [
        {
          "internalType": "bytes32",
          "name": "",
          "type": "bytes32"
        }
      ],
      "stateMutability": "view",
      "type": "function"
    },
    {
      "inputs": [],
      "name": "pylon",
      "outputs": [
        {
          "internalType": "address",
          "name": "",
          "type": "address"
        }
      ],
      "stateMutability": "view",
      "type": "function"
    },
    {
      "inputs": [],
      "name": "weth",
      "outputs": [
        {
          "internalType": "address",
          "name": "",
          "type": "address"
        }
      ],
      "stateMutability": "view",
      "type": "function"
    }
  ],
  "bytecode": "0x608060405234801561001057600080fd5b50336001600160a01b031663468477946040518163ffffffff1660e01b8152600401602060405180830381600087803b15801561004c57600080fd5b505af1158015610060573d6000803e3d6000fd5b505050506040513d601f19601f820116820180604052508101906100849190610125565b600260006101000a8154816001600160a01b0302191690836001600160a01b03160217905550336001600160a01b0316632eb4a7ab6040518163ffffffff1660e01b8152600401602060405180830381600087803b1580156100e557600080fd5b505af11580156100f9573d6000803e3d6000fd5b505050506040513d601f19601f8201168201806040525081019061011d9190610153565b60005561016b565b600060208284031215610136578081fd5b81516001600160a01b038116811461014c578182fd5b9392505050565b600060208284031215610164578081fd5b5051919050565b6101b18061017a6000396000f3fe60806040526004361061004a5760003560e01c80632eb4a7ab146100855780633fc8cef3146100ae57806346847794146100ee57806381e580d31461010c578063ba0bafb41461012c575b600061005e6002546001600160a01b031690565b905060405136600082376000803683855af43d806000843e818015610081578184f35b8184fd5b34801561009157600080fd5b5061009b60005481565b6040519081526020015b60405180910390f35b3480156100ba57600080fd5b506100d673c778417e063141139fce010982780140aa0cd5ab81565b6040516001600160a01b0390911681526020016100a5565b3480156100fa57600080fd5b506002546001600160a01b03166100d6565b34801561011857600080fd5b5061009b610127366004610163565b610142565b34801561013857600080fd5b5061009b60015481565b6003818154811061015257600080fd5b600091825260209091200154905081565b600060208284031215610174578081fd5b503591905056fea2646970667358221220b8443c0107f312007b42b82a7f3f88deac687b9c63618bff26951b362df84f7264736f6c63430008040033",
  "linkReferences": {},
  "deployedLinkReferences": {}
}