{
  "_format": "hh-sol-artifact-1",
  "contractName": "OurPylon",
  "sourceName": "contracts/OurPylon.sol",
  "abi": [
    {
      "inputs": [],
      "stateMutability": "nonpayable",
      "type": "constructor"
    },
    {
      "anonymous": false,
      "inputs": [
        {
          "indexed": false,
          "internalType": "address",
          "name": "owner",
          "type": "address"
        }
      ],
      "name": "AddedOwner",
      "type": "event"
    },
    {
      "anonymous": false,
      "inputs": [
        {
          "indexed": false,
          "internalType": "address",
          "name": "operator",
          "type": "address"
        },
        {
          "indexed": false,
          "internalType": "address",
          "name": "from",
          "type": "address"
        },
        {
          "indexed": false,
          "internalType": "uint256[]",
          "name": "ids",
          "type": "uint256[]"
        },
        {
          "indexed": false,
          "internalType": "uint256[]",
          "name": "values",
          "type": "uint256[]"
        }
      ],
      "name": "Batch1155Received",
      "type": "event"
    },
    {
      "anonymous": false,
      "inputs": [
        {
          "indexed": false,
          "internalType": "string",
          "name": "newNickname",
          "type": "string"
        }
      ],
      "name": "ChangeNickname",
      "type": "event"
    },
    {
      "anonymous": false,
      "inputs": [
        {
          "indexed": false,
          "internalType": "address",
          "name": "operator",
          "type": "address"
        },
        {
          "indexed": false,
          "internalType": "address",
          "name": "from",
          "type": "address"
        },
        {
          "indexed": false,
          "internalType": "uint256",
          "name": "id",
          "type": "uint256"
        },
        {
          "indexed": false,
          "internalType": "uint256",
          "name": "value",
          "type": "uint256"
        }
      ],
      "name": "ERC1155Received",
      "type": "event"
    },
    {
      "anonymous": false,
      "inputs": [
        {
          "indexed": false,
          "internalType": "address",
          "name": "operator",
          "type": "address"
        },
        {
          "indexed": false,
          "internalType": "address",
          "name": "from",
          "type": "address"
        },
        {
          "indexed": false,
          "internalType": "uint256",
          "name": "tokenId",
          "type": "uint256"
        }
      ],
      "name": "ERC721Received",
      "type": "event"
    },
    {
      "anonymous": false,
      "inputs": [
        {
          "indexed": false,
          "internalType": "address",
          "name": "operator",
          "type": "address"
        },
        {
          "indexed": false,
          "internalType": "address",
          "name": "from",
          "type": "address"
        },
        {
          "indexed": false,
          "internalType": "address",
          "name": "to",
          "type": "address"
        },
        {
          "indexed": false,
          "internalType": "uint256",
          "name": "amount",
          "type": "uint256"
        }
      ],
      "name": "ERC777Received",
      "type": "event"
    },
    {
      "anonymous": false,
      "inputs": [
        {
          "indexed": true,
          "internalType": "address",
          "name": "sender",
          "type": "address"
        },
        {
          "indexed": false,
          "internalType": "uint256",
          "name": "value",
          "type": "uint256"
        }
      ],
      "name": "ETHReceived",
      "type": "event"
    },
    {
      "anonymous": false,
      "inputs": [
        {
          "indexed": false,
          "internalType": "address",
          "name": "token",
          "type": "address"
        },
        {
          "indexed": false,
          "internalType": "uint256",
          "name": "amount",
          "type": "uint256"
        },
        {
          "indexed": false,
          "internalType": "bool",
          "name": "success",
          "type": "bool"
        }
      ],
      "name": "MassTransferERC20",
      "type": "event"
    },
    {
      "anonymous": false,
      "inputs": [
        {
          "indexed": false,
          "internalType": "address[]",
          "name": "owners",
          "type": "address[]"
        }
      ],
      "name": "ProxySetup",
      "type": "event"
    },
    {
      "anonymous": false,
      "inputs": [
        {
          "indexed": false,
          "internalType": "address",
          "name": "owner",
          "type": "address"
        }
      ],
      "name": "RemovedOwner",
      "type": "event"
    },
    {
      "anonymous": false,
      "inputs": [
        {
          "indexed": false,
          "internalType": "address",
          "name": "account",
          "type": "address"
        },
        {
          "indexed": false,
          "internalType": "uint256",
          "name": "amount",
          "type": "uint256"
        },
        {
          "indexed": false,
          "internalType": "bool",
          "name": "success",
          "type": "bool"
        }
      ],
      "name": "TransferETH",
      "type": "event"
    },
    {
      "anonymous": false,
      "inputs": [
        {
          "indexed": false,
          "internalType": "uint256",
          "name": "currentWindow",
          "type": "uint256"
        },
        {
          "indexed": false,
          "internalType": "uint256",
          "name": "fundsAvailable",
          "type": "uint256"
        }
      ],
      "name": "WindowIncremented",
      "type": "event"
    },
    {
      "inputs": [],
      "name": "PERCENTAGE_SCALE",
      "outputs": [
        {
          "internalType": "uint256",
          "name": "",
          "type": "uint256"
        }
      ],
      "stateMutability": "view",
      "type": "function"
    },
    {
      "inputs": [],
      "name": "_mirrorAH",
      "outputs": [
        {
          "internalType": "address",
          "name": "",
          "type": "address"
        }
      ],
      "stateMutability": "view",
      "type": "function"
    },
    {
      "inputs": [],
      "name": "_mirrorCrowdfund",
      "outputs": [
        {
          "internalType": "address",
          "name": "",
          "type": "address"
        }
      ],
      "stateMutability": "view",
      "type": "function"
    },
    {
      "inputs": [],
      "name": "_mirrorEditions",
      "outputs": [
        {
          "internalType": "address",
          "name": "",
          "type": "address"
        }
      ],
      "stateMutability": "view",
      "type": "function"
    },
    {
      "inputs": [],
      "name": "_partyBid",
      "outputs": [
        {
          "internalType": "address",
          "name": "",
          "type": "address"
        }
      ],
      "stateMutability": "view",
      "type": "function"
    },
    {
      "inputs": [],
      "name": "_weth",
      "outputs": [
        {
          "internalType": "address",
          "name": "",
          "type": "address"
        }
      ],
      "stateMutability": "view",
      "type": "function"
    },
    {
      "inputs": [],
      "name": "_zoraAH",
      "outputs": [
        {
          "internalType": "address",
          "name": "",
          "type": "address"
        }
      ],
      "stateMutability": "view",
      "type": "function"
    },
    {
      "inputs": [],
      "name": "_zoraMarket",
      "outputs": [
        {
          "internalType": "address",
          "name": "",
          "type": "address"
        }
      ],
      "stateMutability": "view",
      "type": "function"
    },
    {
      "inputs": [],
      "name": "_zoraMedia",
      "outputs": [
        {
          "internalType": "address",
          "name": "",
          "type": "address"
        }
      ],
      "stateMutability": "view",
      "type": "function"
    },
    {
      "inputs": [
        {
          "internalType": "uint256",
          "name": "tokenId",
          "type": "uint256"
        },
        {
          "components": [
            {
              "internalType": "uint256",
              "name": "amount",
              "type": "uint256"
            },
            {
              "internalType": "address",
              "name": "currency",
              "type": "address"
            },
            {
              "internalType": "address",
              "name": "bidder",
              "type": "address"
            },
            {
              "internalType": "address",
              "name": "recipient",
              "type": "address"
            },
            {
              "components": [
                {
                  "internalType": "uint256",
                  "name": "value",
                  "type": "uint256"
                }
              ],
              "internalType": "struct IZora.D256",
              "name": "sellOnShare",
              "type": "tuple"
            }
          ],
          "internalType": "struct IZora.Bid",
          "name": "expectedBid",
          "type": "tuple"
        }
      ],
      "name": "acceptZoraMarketBid",
      "outputs": [],
      "stateMutability": "nonpayable",
      "type": "function"
    },
    {
      "inputs": [
        {
          "internalType": "address",
          "name": "owner",
          "type": "address"
        }
      ],
      "name": "addOwner",
      "outputs": [],
      "stateMutability": "nonpayable",
      "type": "function"
    },
    {
      "inputs": [
        {
          "internalType": "uint256",
          "name": "",
          "type": "uint256"
        }
      ],
      "name": "balanceForWindow",
      "outputs": [
        {
          "internalType": "uint256",
          "name": "",
          "type": "uint256"
        }
      ],
      "stateMutability": "view",
      "type": "function"
    },
    {
      "inputs": [
        {
          "internalType": "uint256",
          "name": "editionId",
          "type": "uint256"
        }
      ],
      "name": "buyMirrorEdition",
      "outputs": [],
      "stateMutability": "payable",
      "type": "function"
    },
    {
      "inputs": [
        {
          "internalType": "uint256",
          "name": "auctionId",
          "type": "uint256"
        }
      ],
      "name": "cancelZoraAuction",
      "outputs": [],
      "stateMutability": "nonpayable",
      "type": "function"
    },
    {
      "inputs": [
        {
          "internalType": "address",
          "name": "tokenAddress",
          "type": "address"
        },
        {
          "internalType": "address[]",
          "name": "accounts",
          "type": "address[]"
        },
        {
          "internalType": "uint256[]",
          "name": "allocations",
          "type": "uint256[]"
        },
        {
          "internalType": "bytes32[]",
          "name": "merkleProofZero",
          "type": "bytes32[]"
        }
      ],
      "name": "claimERC20ForAllSplits",
      "outputs": [],
      "stateMutability": "nonpayable",
      "type": "function"
    },
    {
      "inputs": [
        {
          "internalType": "uint256",
          "name": "window",
          "type": "uint256"
        },
        {
          "internalType": "address",
          "name": "account",
          "type": "address"
        },
        {
          "internalType": "uint256",
          "name": "scaledPercentageAllocation",
          "type": "uint256"
        },
        {
          "internalType": "bytes32[]",
          "name": "merkleProof",
          "type": "bytes32[]"
        }
      ],
      "name": "claimETH",
      "outputs": [],
      "stateMutability": "nonpayable",
      "type": "function"
    },
    {
      "inputs": [
        {
          "internalType": "address",
          "name": "account",
          "type": "address"
        },
        {
          "internalType": "uint256",
          "name": "percentageAllocation",
          "type": "uint256"
        },
        {
          "internalType": "bytes32[]",
          "name": "merkleProof",
          "type": "bytes32[]"
        }
      ],
      "name": "claimETHForAllWindows",
      "outputs": [],
      "stateMutability": "nonpayable",
      "type": "function"
    },
    {
      "inputs": [
        {
          "internalType": "uint256",
          "name": "tokenId",
          "type": "uint256"
        },
        {
          "internalType": "uint256",
          "name": "duration",
          "type": "uint256"
        },
        {
          "internalType": "uint256",
          "name": "reservePrice",
          "type": "uint256"
        },
        {
          "internalType": "address",
          "name": "creator",
          "type": "address"
        },
        {
          "internalType": "address payable",
          "name": "creatorShareRecipient",
          "type": "address"
        }
      ],
      "name": "createMirrorAuction",
      "outputs": [],
      "stateMutability": "nonpayable",
      "type": "function"
    },
    {
      "inputs": [
        {
          "internalType": "uint256",
          "name": "tokenId",
          "type": "uint256"
        }
      ],
      "name": "createMirrorBid",
      "outputs": [],
      "stateMutability": "payable",
      "type": "function"
    },
    {
      "inputs": [
        {
          "internalType": "string",
          "name": "name",
          "type": "string"
        },
        {
          "internalType": "string",
          "name": "symbol",
          "type": "string"
        },
        {
          "internalType": "address payable",
          "name": "operator",
          "type": "address"
        },
        {
          "internalType": "address payable",
          "name": "fundingRecipient",
          "type": "address"
        },
        {
          "internalType": "uint256",
          "name": "fundingCap",
          "type": "uint256"
        },
        {
          "internalType": "uint256",
          "name": "operatorPercent",
          "type": "uint256"
        }
      ],
      "name": "createMirrorCrowdfund",
      "outputs": [],
      "stateMutability": "nonpayable",
      "type": "function"
    },
    {
      "inputs": [
        {
          "internalType": "uint256",
          "name": "quantity",
          "type": "uint256"
        },
        {
          "internalType": "uint256",
          "name": "price",
          "type": "uint256"
        },
        {
          "internalType": "address payable",
          "name": "fundingRecipient",
          "type": "address"
        }
      ],
      "name": "createMirrorEdition",
      "outputs": [],
      "stateMutability": "nonpayable",
      "type": "function"
    },
    {
      "inputs": [
        {
          "internalType": "uint256",
          "name": "tokenId",
          "type": "uint256"
        },
        {
          "internalType": "address",
          "name": "tokenContract",
          "type": "address"
        },
        {
          "internalType": "uint256",
          "name": "duration",
          "type": "uint256"
        },
        {
          "internalType": "uint256",
          "name": "reservePrice",
          "type": "uint256"
        },
        {
          "internalType": "address payable",
          "name": "curator",
          "type": "address"
        },
        {
          "internalType": "uint8",
          "name": "curatorFeePercentages",
          "type": "uint8"
        },
        {
          "internalType": "address",
          "name": "auctionCurrency",
          "type": "address"
        }
      ],
      "name": "createZoraAuction",
      "outputs": [],
      "stateMutability": "nonpayable",
      "type": "function"
    },
    {
      "inputs": [
        {
          "internalType": "uint256",
          "name": "auctionId",
          "type": "uint256"
        },
        {
          "internalType": "uint256",
          "name": "amount",
          "type": "uint256"
        }
      ],
      "name": "createZoraAuctionBid",
      "outputs": [],
      "stateMutability": "payable",
      "type": "function"
    },
    {
      "inputs": [],
      "name": "currentWindow",
      "outputs": [
        {
          "internalType": "uint256",
          "name": "",
          "type": "uint256"
        }
      ],
      "stateMutability": "view",
      "type": "function"
    },
    {
      "inputs": [
        {
          "internalType": "string",
          "name": "newNickname_",
          "type": "string"
        }
      ],
      "name": "editNickname",
      "outputs": [],
      "stateMutability": "nonpayable",
      "type": "function"
    },
    {
      "inputs": [
        {
          "internalType": "uint256",
          "name": "tokenId",
          "type": "uint256"
        }
      ],
      "name": "endMirrorAuction",
      "outputs": [],
      "stateMutability": "nonpayable",
      "type": "function"
    },
    {
      "inputs": [
        {
          "internalType": "uint256",
          "name": "auctionId",
          "type": "uint256"
        }
      ],
      "name": "endZoraAuction",
      "outputs": [],
      "stateMutability": "nonpayable",
      "type": "function"
    },
    {
      "inputs": [],
      "name": "getOwners",
      "outputs": [
        {
          "internalType": "address[]",
          "name": "",
          "type": "address[]"
        }
      ],
      "stateMutability": "view",
      "type": "function"
    },
    {
      "inputs": [],
      "name": "incrementWindow",
      "outputs": [],
      "stateMutability": "nonpayable",
      "type": "function"
    },
    {
      "inputs": [
        {
          "internalType": "uint256",
          "name": "window",
          "type": "uint256"
        },
        {
          "internalType": "address",
          "name": "account",
          "type": "address"
        }
      ],
      "name": "isClaimed",
      "outputs": [
        {
          "internalType": "bool",
          "name": "",
          "type": "bool"
        }
      ],
      "stateMutability": "view",
      "type": "function"
    },
    {
      "inputs": [
        {
          "internalType": "address",
          "name": "owner",
          "type": "address"
        }
      ],
      "name": "isOwner",
      "outputs": [
        {
          "internalType": "bool",
          "name": "",
          "type": "bool"
        }
      ],
      "stateMutability": "view",
      "type": "function"
    },
    {
      "inputs": [],
      "name": "merkleRoot",
      "outputs": [
        {
          "internalType": "bytes32",
          "name": "",
          "type": "bytes32"
        }
      ],
      "stateMutability": "view",
      "type": "function"
    },
    {
      "inputs": [
        {
          "components": [
            {
              "internalType": "string",
              "name": "tokenURI",
              "type": "string"
            },
            {
              "internalType": "string",
              "name": "metadataURI",
              "type": "string"
            },
            {
              "internalType": "bytes32",
              "name": "contentHash",
              "type": "bytes32"
            },
            {
              "internalType": "bytes32",
              "name": "metadataHash",
              "type": "bytes32"
            }
          ],
          "internalType": "struct IZora.MediaData",
          "name": "mediaData",
          "type": "tuple"
        },
        {
          "components": [
            {
              "components": [
                {
                  "internalType": "uint256",
                  "name": "value",
                  "type": "uint256"
                }
              ],
              "internalType": "struct IZora.D256",
              "name": "prevOwner",
              "type": "tuple"
            },
            {
              "components": [
                {
                  "internalType": "uint256",
                  "name": "value",
                  "type": "uint256"
                }
              ],
              "internalType": "struct IZora.D256",
              "name": "creator",
              "type": "tuple"
            },
            {
              "components": [
                {
                  "internalType": "uint256",
                  "name": "value",
                  "type": "uint256"
                }
              ],
              "internalType": "struct IZora.D256",
              "name": "owner",
              "type": "tuple"
            }
          ],
          "internalType": "struct IZora.BidShares",
          "name": "bidShares",
          "type": "tuple"
        },
        {
          "internalType": "uint256",
          "name": "duration",
          "type": "uint256"
        },
        {
          "internalType": "uint256",
          "name": "reservePrice",
          "type": "uint256"
        }
      ],
      "name": "mintToAuctionForETH",
      "outputs": [],
      "stateMutability": "nonpayable",
      "type": "function"
    },
    {
      "inputs": [
        {
          "components": [
            {
              "internalType": "string",
              "name": "tokenURI",
              "type": "string"
            },
            {
              "internalType": "string",
              "name": "metadataURI",
              "type": "string"
            },
            {
              "internalType": "bytes32",
              "name": "contentHash",
              "type": "bytes32"
            },
            {
              "internalType": "bytes32",
              "name": "metadataHash",
              "type": "bytes32"
            }
          ],
          "internalType": "struct IZora.MediaData",
          "name": "mediaData",
          "type": "tuple"
        },
        {
          "components": [
            {
              "components": [
                {
                  "internalType": "uint256",
                  "name": "value",
                  "type": "uint256"
                }
              ],
              "internalType": "struct IZora.D256",
              "name": "prevOwner",
              "type": "tuple"
            },
            {
              "components": [
                {
                  "internalType": "uint256",
                  "name": "value",
                  "type": "uint256"
                }
              ],
              "internalType": "struct IZora.D256",
              "name": "creator",
              "type": "tuple"
            },
            {
              "components": [
                {
                  "internalType": "uint256",
                  "name": "value",
                  "type": "uint256"
                }
              ],
              "internalType": "struct IZora.D256",
              "name": "owner",
              "type": "tuple"
            }
          ],
          "internalType": "struct IZora.BidShares",
          "name": "bidShares",
          "type": "tuple"
        }
      ],
      "name": "mintZora",
      "outputs": [],
      "stateMutability": "nonpayable",
      "type": "function"
    },
    {
      "inputs": [
        {
          "internalType": "address",
          "name": "creator",
          "type": "address"
        },
        {
          "components": [
            {
              "internalType": "string",
              "name": "tokenURI",
              "type": "string"
            },
            {
              "internalType": "string",
              "name": "metadataURI",
              "type": "string"
            },
            {
              "internalType": "bytes32",
              "name": "contentHash",
              "type": "bytes32"
            },
            {
              "internalType": "bytes32",
              "name": "metadataHash",
              "type": "bytes32"
            }
          ],
          "internalType": "struct IZora.MediaData",
          "name": "mediaData",
          "type": "tuple"
        },
        {
          "components": [
            {
              "components": [
                {
                  "internalType": "uint256",
                  "name": "value",
                  "type": "uint256"
                }
              ],
              "internalType": "struct IZora.D256",
              "name": "prevOwner",
              "type": "tuple"
            },
            {
              "components": [
                {
                  "internalType": "uint256",
                  "name": "value",
                  "type": "uint256"
                }
              ],
              "internalType": "struct IZora.D256",
              "name": "creator",
              "type": "tuple"
            },
            {
              "components": [
                {
                  "internalType": "uint256",
                  "name": "value",
                  "type": "uint256"
                }
              ],
              "internalType": "struct IZora.D256",
              "name": "owner",
              "type": "tuple"
            }
          ],
          "internalType": "struct IZora.BidShares",
          "name": "bidShares",
          "type": "tuple"
        },
        {
          "components": [
            {
              "internalType": "uint256",
              "name": "deadline",
              "type": "uint256"
            },
            {
              "internalType": "uint8",
              "name": "v",
              "type": "uint8"
            },
            {
              "internalType": "bytes32",
              "name": "r",
              "type": "bytes32"
            },
            {
              "internalType": "bytes32",
              "name": "s",
              "type": "bytes32"
            }
          ],
          "internalType": "struct IZora.EIP712Signature",
          "name": "sig",
          "type": "tuple"
        }
      ],
      "name": "mintZoraWithSig",
      "outputs": [],
      "stateMutability": "nonpayable",
      "type": "function"
    },
    {
      "inputs": [
        {
          "internalType": "address",
          "name": "operator",
          "type": "address"
        },
        {
          "internalType": "address",
          "name": "from",
          "type": "address"
        },
        {
          "internalType": "uint256[]",
          "name": "ids",
          "type": "uint256[]"
        },
        {
          "internalType": "uint256[]",
          "name": "values",
          "type": "uint256[]"
        },
        {
          "internalType": "bytes",
          "name": "",
          "type": "bytes"
        }
      ],
      "name": "onERC1155BatchReceived",
      "outputs": [
        {
          "internalType": "bytes4",
          "name": "",
          "type": "bytes4"
        }
      ],
      "stateMutability": "nonpayable",
      "type": "function"
    },
    {
      "inputs": [
        {
          "internalType": "address",
          "name": "operator",
          "type": "address"
        },
        {
          "internalType": "address",
          "name": "from",
          "type": "address"
        },
        {
          "internalType": "uint256",
          "name": "id",
          "type": "uint256"
        },
        {
          "internalType": "uint256",
          "name": "value",
          "type": "uint256"
        },
        {
          "internalType": "bytes",
          "name": "",
          "type": "bytes"
        }
      ],
      "name": "onERC1155Received",
      "outputs": [
        {
          "internalType": "bytes4",
          "name": "",
          "type": "bytes4"
        }
      ],
      "stateMutability": "nonpayable",
      "type": "function"
    },
    {
      "inputs": [
        {
          "internalType": "address",
          "name": "operator_",
          "type": "address"
        },
        {
          "internalType": "address",
          "name": "from_",
          "type": "address"
        },
        {
          "internalType": "uint256",
          "name": "tokenId_",
          "type": "uint256"
        },
        {
          "internalType": "bytes",
          "name": "",
          "type": "bytes"
        }
      ],
      "name": "onERC721Received",
      "outputs": [
        {
          "internalType": "bytes4",
          "name": "",
          "type": "bytes4"
        }
      ],
      "stateMutability": "nonpayable",
      "type": "function"
    },
    {
      "inputs": [
        {
          "internalType": "address",
          "name": "prevOwner",
          "type": "address"
        },
        {
          "internalType": "address",
          "name": "owner",
          "type": "address"
        }
      ],
      "name": "removeOwner",
      "outputs": [],
      "stateMutability": "nonpayable",
      "type": "function"
    },
    {
      "inputs": [
        {
          "internalType": "uint256",
          "name": "tokenId",
          "type": "uint256"
        }
      ],
      "name": "removeZoraMarketAsk",
      "outputs": [],
      "stateMutability": "nonpayable",
      "type": "function"
    },
    {
      "inputs": [
        {
          "internalType": "uint256",
          "name": "tokenId",
          "type": "uint256"
        },
        {
          "internalType": "address",
          "name": "bidder",
          "type": "address"
        }
      ],
      "name": "removeZoraMarketBid",
      "outputs": [],
      "stateMutability": "nonpayable",
      "type": "function"
    },
    {
      "inputs": [
        {
          "internalType": "uint256",
          "name": "amount",
          "type": "uint256"
        },
        {
          "internalType": "uint256",
          "name": "scaledPercent",
          "type": "uint256"
        }
      ],
      "name": "scaleAmountByPercentage",
      "outputs": [
        {
          "internalType": "uint256",
          "name": "scaledAmount",
          "type": "uint256"
        }
      ],
      "stateMutability": "pure",
      "type": "function"
    },
    {
      "inputs": [
        {
          "internalType": "uint256",
          "name": "auctionId",
          "type": "uint256"
        },
        {
          "internalType": "bool",
          "name": "approved",
          "type": "bool"
        }
      ],
      "name": "setZoraAuctionApproval",
      "outputs": [],
      "stateMutability": "nonpayable",
      "type": "function"
    },
    {
      "inputs": [
        {
          "internalType": "uint256",
          "name": "auctionId",
          "type": "uint256"
        },
        {
          "internalType": "uint256",
          "name": "reservePrice",
          "type": "uint256"
        }
      ],
      "name": "setZoraAuctionReservePrice",
      "outputs": [],
      "stateMutability": "nonpayable",
      "type": "function"
    },
    {
      "inputs": [
        {
          "internalType": "uint256",
          "name": "tokenId",
          "type": "uint256"
        },
        {
          "components": [
            {
              "internalType": "uint256",
              "name": "amount",
              "type": "uint256"
            },
            {
              "internalType": "address",
              "name": "currency",
              "type": "address"
            }
          ],
          "internalType": "struct IZora.Ask",
          "name": "ask",
          "type": "tuple"
        }
      ],
      "name": "setZoraMarketAsk",
      "outputs": [],
      "stateMutability": "nonpayable",
      "type": "function"
    },
    {
      "inputs": [
        {
          "internalType": "uint256",
          "name": "tokenId",
          "type": "uint256"
        },
        {
          "components": [
            {
              "internalType": "uint256",
              "name": "amount",
              "type": "uint256"
            },
            {
              "internalType": "address",
              "name": "currency",
              "type": "address"
            },
            {
              "internalType": "address",
              "name": "bidder",
              "type": "address"
            },
            {
              "internalType": "address",
              "name": "recipient",
              "type": "address"
            },
            {
              "components": [
                {
                  "internalType": "uint256",
                  "name": "value",
                  "type": "uint256"
                }
              ],
              "internalType": "struct IZora.D256",
              "name": "sellOnShare",
              "type": "tuple"
            }
          ],
          "internalType": "struct IZora.Bid",
          "name": "bid",
          "type": "tuple"
        },
        {
          "internalType": "address",
          "name": "spender",
          "type": "address"
        }
      ],
      "name": "setZoraMarketBid",
      "outputs": [],
      "stateMutability": "nonpayable",
      "type": "function"
    },
    {
      "inputs": [
        {
          "internalType": "uint256",
          "name": "tokenId",
          "type": "uint256"
        },
        {
          "components": [
            {
              "components": [
                {
                  "internalType": "uint256",
                  "name": "value",
                  "type": "uint256"
                }
              ],
              "internalType": "struct IZora.D256",
              "name": "prevOwner",
              "type": "tuple"
            },
            {
              "components": [
                {
                  "internalType": "uint256",
                  "name": "value",
                  "type": "uint256"
                }
              ],
              "internalType": "struct IZora.D256",
              "name": "creator",
              "type": "tuple"
            },
            {
              "components": [
                {
                  "internalType": "uint256",
                  "name": "value",
                  "type": "uint256"
                }
              ],
              "internalType": "struct IZora.D256",
              "name": "owner",
              "type": "tuple"
            }
          ],
          "internalType": "struct IZora.BidShares",
          "name": "bidShares",
          "type": "tuple"
        }
      ],
      "name": "setZoraMarketBidShares",
      "outputs": [],
      "stateMutability": "nonpayable",
      "type": "function"
    },
    {
      "inputs": [
        {
          "internalType": "address[]",
          "name": "owners_",
          "type": "address[]"
        }
      ],
      "name": "setup",
      "outputs": [],
      "stateMutability": "nonpayable",
      "type": "function"
    },
    {
      "inputs": [
        {
          "internalType": "address",
          "name": "marketWrapper",
          "type": "address"
        },
        {
          "internalType": "address",
          "name": "nftContract",
          "type": "address"
        },
        {
          "internalType": "uint256",
          "name": "tokenId",
          "type": "uint256"
        },
        {
          "internalType": "uint256",
          "name": "auctionId",
          "type": "uint256"
        },
        {
          "internalType": "string",
          "name": "name",
          "type": "string"
        },
        {
          "internalType": "string",
          "name": "symbol",
          "type": "string"
        }
      ],
      "name": "startSplitParty",
      "outputs": [],
      "stateMutability": "nonpayable",
      "type": "function"
    },
    {
      "inputs": [
        {
          "internalType": "bytes4",
          "name": "interfaceId",
          "type": "bytes4"
        }
      ],
      "name": "supportsInterface",
      "outputs": [
        {
          "internalType": "bool",
          "name": "",
          "type": "bool"
        }
      ],
      "stateMutability": "pure",
      "type": "function"
    },
    {
      "inputs": [
        {
          "internalType": "address",
          "name": "prevOwner",
          "type": "address"
        },
        {
          "internalType": "address",
          "name": "oldOwner",
          "type": "address"
        },
        {
          "internalType": "address",
          "name": "newOwner",
          "type": "address"
        }
      ],
      "name": "swapOwner",
      "outputs": [],
      "stateMutability": "nonpayable",
      "type": "function"
    },
    {
      "inputs": [
        {
          "internalType": "address",
          "name": "operator",
          "type": "address"
        },
        {
          "internalType": "address",
          "name": "from",
          "type": "address"
        },
        {
          "internalType": "address",
          "name": "to",
          "type": "address"
        },
        {
          "internalType": "uint256",
          "name": "amount",
          "type": "uint256"
        },
        {
          "internalType": "bytes",
          "name": "",
          "type": "bytes"
        },
        {
          "internalType": "bytes",
          "name": "",
          "type": "bytes"
        }
      ],
      "name": "tokensReceived",
      "outputs": [],
      "stateMutability": "nonpayable",
      "type": "function"
    },
    {
      "inputs": [
        {
          "internalType": "uint256",
          "name": "tokenId",
          "type": "uint256"
        },
        {
          "internalType": "address",
          "name": "tokenContract",
          "type": "address"
        },
        {
          "internalType": "uint256",
          "name": "duration",
          "type": "uint256"
        },
        {
          "internalType": "uint256",
          "name": "reservePrice",
          "type": "uint256"
        },
        {
          "internalType": "address payable",
          "name": "curator",
          "type": "address"
        },
        {
          "internalType": "uint8",
          "name": "curatorFeePercentages",
          "type": "uint8"
        },
        {
          "internalType": "address",
          "name": "auctionCurrency",
          "type": "address"
        }
      ],
      "name": "unsafeCreateZoraAuction",
      "outputs": [],
      "stateMutability": "nonpayable",
      "type": "function"
    },
    {
      "inputs": [
        {
          "internalType": "address",
          "name": "tokenContract_",
          "type": "address"
        },
        {
          "internalType": "uint256",
          "name": "tokenId_",
          "type": "uint256"
        }
      ],
      "name": "untrustedBurn721",
      "outputs": [],
      "stateMutability": "nonpayable",
      "type": "function"
    },
    {
      "inputs": [
        {
          "internalType": "address",
          "name": "crowdfundProxy_",
          "type": "address"
        }
      ],
      "name": "untrustedCloseCrowdFunding",
      "outputs": [],
      "stateMutability": "nonpayable",
      "type": "function"
    },
    {
      "inputs": [
        {
          "internalType": "address",
          "name": "tokenContract_",
          "type": "address"
        },
        {
          "internalType": "address",
          "name": "newOwner_",
          "type": "address"
        },
        {
          "internalType": "uint256",
          "name": "tokenId_",
          "type": "uint256"
        }
      ],
      "name": "untrustedSafeTransfer721",
      "outputs": [],
      "stateMutability": "nonpayable",
      "type": "function"
    },
    {
      "inputs": [
        {
          "internalType": "address",
          "name": "tokenContract_",
          "type": "address"
        },
        {
          "internalType": "address",
          "name": "operator_",
          "type": "address"
        },
        {
          "internalType": "bool",
          "name": "approved_",
          "type": "bool"
        }
      ],
      "name": "untrustedSetApproval721",
      "outputs": [],
      "stateMutability": "nonpayable",
      "type": "function"
    },
    {
      "inputs": [
        {
          "internalType": "uint256",
          "name": "minBid",
          "type": "uint256"
        }
      ],
      "name": "updateMirrorMinBid",
      "outputs": [],
      "stateMutability": "nonpayable",
      "type": "function"
    },
    {
      "inputs": [
        {
          "internalType": "uint256",
          "name": "tokenId",
          "type": "uint256"
        },
        {
          "internalType": "string",
          "name": "metadataURI",
          "type": "string"
        }
      ],
      "name": "updateZoraMediaMetadataURI",
      "outputs": [],
      "stateMutability": "nonpayable",
      "type": "function"
    },
    {
      "inputs": [
        {
          "internalType": "uint256",
          "name": "tokenId",
          "type": "uint256"
        },
        {
          "internalType": "string",
          "name": "tokenURI",
          "type": "string"
        }
      ],
      "name": "updateZoraMediaTokenURI",
      "outputs": [],
      "stateMutability": "nonpayable",
      "type": "function"
    },
    {
      "inputs": [
        {
          "internalType": "uint256",
          "name": "tokenId",
          "type": "uint256"
        },
        {
          "internalType": "string",
          "name": "tokenURI",
          "type": "string"
        },
        {
          "internalType": "string",
          "name": "metadataURI",
          "type": "string"
        }
      ],
      "name": "updateZoraMediaURIs",
      "outputs": [],
      "stateMutability": "nonpayable",
      "type": "function"
    },
    {
      "inputs": [],
      "name": "weth",
      "outputs": [
        {
          "internalType": "address",
          "name": "",
          "type": "address"
        }
      ],
      "stateMutability": "view",
      "type": "function"
    },
    {
      "inputs": [
        {
          "internalType": "uint256",
          "name": "editionId",
          "type": "uint256"
        }
      ],
      "name": "withdrawEditionFunds",
      "outputs": [],
      "stateMutability": "nonpayable",
      "type": "function"
    },
    {
      "stateMutability": "payable",
      "type": "receive"
    }
  ],
  "bytecode": "0x608060405234801561001057600080fd5b50600160085561400f806100256000396000f3fe6080604052600436106103bb5760003560e01c8063a303c8a1116101f2578063d5d7d0191161010d578063e9f8b967116100a0578063f77ed9f51161006f578063f77ed9f514610ba9578063f80d295d14610bc9578063fada204214610be9578063fbe5ce0a14610bfc57600080fd5b8063e9f8b96714610b2e578063ea480c6c14610b4e578063ef41baa714610b76578063f23a6e6114610b8957600080fd5b8063d9a1b96c116100dc578063d9a1b96c14610aa6578063debb73fe14610ac6578063e1860d6b14610ae6578063e318b52b14610b0e57600080fd5b8063d5d7d01914610a2b578063d6d4010914610a3e578063d6f0bd9e14610a66578063d84330ce14610a8657600080fd5b8063bd5b853b11610185578063c7ba4fa011610154578063c7ba4fa0146109ab578063d2ac178f146109cb578063d2ef0795146109eb578063d3efd19114610a0b57600080fd5b8063bd5b853b1461092b578063c12faf631461094b578063c1faa66a1461096b578063c7b0d9671461098b57600080fd5b8063b1bc0781116101c1578063b1bc0781146108b5578063ba0bafb4146108d5578063bc197c81146108eb578063bd1bb49b1461090b57600080fd5b8063a303c8a114610835578063ab91f9e314610855578063b0f5ce5b14610875578063b18030261461089557600080fd5b806347143c54116102e2578063653a60c9116102755780639841d1ef116102445780639841d1ef146107d3578063a0e67e2b146107f3578063a1764595146105d3578063a21a43e71461081557600080fd5b8063653a60c9146107535780637065cb481461077357806381e580d3146107935780638ffb5c97146107b357600080fd5b80635777877a116102b15780635777877a146106c35780635e95b707146106e35780635fe2b6da146107035780636329bb681461072b57600080fd5b806347143c541461063b5780634d752624146106635780634eca78e51461068357806351a92dc6146106a357600080fd5b80632eb4a7ab1161035a5780633456c895116103295780633456c8951461059c5780633f26479e146105bc5780633fc8cef3146105d357806341b223761461061357600080fd5b80632eb4a7ab146105235780632f54bf6e146105475780632f8d7c6014610567578063338b1d311461058757600080fd5b8063150b7a0211610396578063150b7a021461048a57806316c78567146104c35780631ef18af8146104e35780632130f76f1461050357600080fd5b806223de291461041357806301ffc9a71461043557806309be32e81461046a57600080fd5b3661040e5760405134815233907fbfe611b001dfcd411432f7bf0d79b82b4b2ee81511edac123a3403c357fb972a9060200160405180910390a234600560008282546104079190613ee7565b9091555050005b600080fd5b34801561041f57600080fd5b5061043361042e366004612f8b565b610c1c565b005b34801561044157600080fd5b506104556104503660046134c8565b610c7d565b60405190151581526020015b60405180910390f35b34801561047657600080fd5b5061043361048536600461369d565b610ccf565b34801561049657600080fd5b506104aa6104a5366004613150565b610d52565b6040516001600160e01b03199091168152602001610461565b3480156104cf57600080fd5b506104336104de36600461366d565b610db2565b3480156104ef57600080fd5b506104336104fe3660046137b3565b610e25565b34801561050f57600080fd5b5061043361051e366004613960565b610ea1565b34801561052f57600080fd5b5061053960005481565b604051908152602001610461565b34801561055357600080fd5b50610455610562366004612ed1565b610f3d565b34801561057357600080fd5b50610433610582366004613523565b610f75565b34801561059357600080fd5b50610433611016565b3480156105a857600080fd5b506104336105b7366004613378565b611113565b3480156105c857600080fd5b50610539620f424081565b3480156105df57600080fd5b506105fb73c778417e063141139fce010982780140aa0cd5ab81565b6040516001600160a01b039091168152602001610461565b34801561061f57600080fd5b506105fb737c2668bd0d3c050703cecc956c11bd520c26f7d481565b34801561064757600080fd5b506105fb73b725682d5adadf8dfd657f8e7728744c0835ecd981565b34801561066f57600080fd5b5061043361067e36600461366d565b611192565b34801561068f57600080fd5b5061043361069e3660046135c6565b6111d4565b3480156106af57600080fd5b506104336106be3660046132d0565b611217565b3480156106cf57600080fd5b506104336106de3660046133e9565b611275565b3480156106ef57600080fd5b506104336106fe366004613239565b6112ac565b34801561070f57600080fd5b506105fb732d5c022fd4f81323bbd1cc0ec6959ec8cc1c5a1181565b34801561073757600080fd5b506105fb73eac226b370d77f436b5780b4dd4a49e59e8bea3781565b34801561075f57600080fd5b5061043361076e36600461366d565b611349565b34801561077f57600080fd5b5061043361078e366004612ed1565b61138b565b34801561079f57600080fd5b506105396107ae36600461366d565b6114a5565b3480156107bf57600080fd5b506105396107ce366004613912565b6114c6565b3480156107df57600080fd5b506104336107ee366004613110565b6114f1565b3480156107ff57600080fd5b50610808611536565b6040516104619190613c82565b34801561082157600080fd5b506104336108303660046130d1565b611642565b34801561084157600080fd5b50610433610850366004613414565b611682565b34801561086157600080fd5b50610433610870366004613912565b61176b565b34801561088157600080fd5b50610433610890366004613933565b6117b4565b3480156108a157600080fd5b506104336108b036600461366d565b61180c565b3480156108c157600080fd5b506104336108d03660046134f0565b61184e565b3480156108e157600080fd5b5061053960015481565b3480156108f757600080fd5b506104aa610906366004613038565b611895565b34801561091757600080fd5b50610433610926366004613717565b6118ed565b34801561093757600080fd5b5061043361094636600461346d565b61198c565b34801561095757600080fd5b506104336109663660046138ba565b611a0d565b34801561097757600080fd5b5061043361098636600461366d565b611a50565b34801561099757600080fd5b506104336109a636600461378f565b611a92565b3480156109b757600080fd5b506104336109c6366004613861565b611adc565b3480156109d757600080fd5b506104336109e6366004613612565b611b1f565b3480156109f757600080fd5b50610455610a0636600461369d565b611d5d565b348015610a1757600080fd5b50610433610a263660046138dd565b611d88565b610433610a3936600461366d565b611dcd565b348015610a4a57600080fd5b506105fb73a8b8f7cc0c64c178ddcd904122844cbad002164781565b348015610a7257600080fd5b50610433610a8136600461366d565b611e05565b348015610a9257600080fd5b50610433610aa1366004612ed1565b611e47565b348015610ab257600080fd5b50610433610ac1366004613717565b611e8c565b348015610ad257600080fd5b50610433610ae13660046136c1565b611f14565b348015610af257600080fd5b506105fb7385e946e1bd35ec91044dc83a5ddab2b6a262ffa681565b348015610b1a57600080fd5b50610433610b29366004612f41565b612063565b348015610b3a57600080fd5b50610433610b49366004613897565b61228c565b348015610b5a57600080fd5b506105fb73e7dd1252f50b3d845590da0c5eadd985049a03ce81565b610433610b84366004613912565b6122c5565b348015610b9557600080fd5b506104aa610ba43660046131c0565b612304565b348015610bb557600080fd5b50610433610bc43660046137b3565b61236c565b348015610bd557600080fd5b50610433610be43660046137fc565b6123a7565b610433610bf736600461366d565b612459565b348015610c0857600080fd5b50610433610c17366004612f09565b612491565b604080516001600160a01b03808b168252808a166020830152881691810191909152606081018690527f0fe6507bce457d6e175fa9bc1db1b817f39e37b1f5c91695fd1a62848bc433b7906080015b60405180910390a15050505050505050565b60006001600160e01b03198216630271189760e51b1480610cae57506001600160e01b03198216630a85bd0160e11b145b80610cc957506001600160e01b031982166301ffc9a760e01b145b92915050565b610cd833612580565b5060405163776a083560e01b8152600481018390526001600160a01b03821660248201527385e946e1bd35ec91044dc83a5ddab2b6a262ffa69063776a0835906044015b600060405180830381600087803b158015610d3657600080fd5b505af1158015610d4a573d6000803e3d6000fd5b505050505050565b604080516001600160a01b038088168252861660208201529081018490526000907f941a9d9a9af7f97737c018d13918859e12f44e16c4b4c6ac922dacf021cfbf149060600160405180910390a150630a85bd0160e11b95945050505050565b610dbb33612580565b50604051635cd16f1d60e11b815260048101829052732d5c022fd4f81323bbd1cc0ec6959ec8cc1c5a119063b9a2de3a906024015b600060405180830381600087803b158015610e0a57600080fd5b505af1158015610e1e573d6000803e3d6000fd5b5050505050565b610e2e33612580565b506040516318e97fd160e01b8152737c2668bd0d3c050703cecc956c11bd520c26f7d4906318e97fd190610e6a90869086908690600401613dde565b600060405180830381600087803b158015610e8457600080fd5b505af1158015610e98573d6000803e3d6000fd5b50505050505050565b610eaa33612580565b5060405163419efb6360e01b81526004810186905260248101859052604481018490526001600160a01b03808416606483015282166084820152732d5c022fd4f81323bbd1cc0ec6959ec8cc1c5a119063419efb639060a4015b600060405180830381600087803b158015610f1e57600080fd5b505af1158015610f32573d6000803e3d6000fd5b505050505050505050565b60006001600160a01b038216600114801590610cc95750506001600160a01b0390811660009081526006602052604090205416151590565b610f7e33612580565b50604051631acf450d60e21b815273eac226b370d77f436b5780b4dd4a49e59e8bea3790636b3d143490610fc4908b908b908b908b908b908b908b908b90600401613ceb565b602060405180830381600087803b158015610fde57600080fd5b505af1158015610ff2573d6000803e3d6000fd5b505050506040513d601f19601f82011682018060405250810190610f329190612eed565b60006001546000141561102a57504761102f565b506005545b6000600555806110865760405162461bcd60e51b815260206004820152601e60248201527f4e6f206164646974696f6e616c2066756e647320666f722077696e646f77000060448201526064015b60405180910390fd5b600380546001818101835560009283527fc2575a0e9e593c00f959f8c92f12db2869c3395a3b0502d05e2516446f71f85b9091018390558054909182916110ce908390613ee7565b909155505060015460408051918252602082018390527ff0840b82b46c1dc7df62cae652baa1b5588ce37b6a1236ed1dcf4caf34d738ac91015b60405180910390a150565b61111c33612580565b50604051633d3d090160e11b8152737c2668bd0d3c050703cecc956c11bd520c26f7d490637a7a12029061115a908790879087908790600401613bb2565b600060405180830381600087803b15801561117457600080fd5b505af1158015611188573d6000803e3d6000fd5b5050505050505050565b61119b33612580565b506040516396b5a75560e01b81526004810182905273e7dd1252f50b3d845590da0c5eadd985049a03ce906396b5a75590602401610df0565b6111dd33612580565b50604051632cca323760e01b8152737c2668bd0d3c050703cecc956c11bd520c26f7d490632cca323790610d1c9085908590600401613d6a565b61122033612580565b506001600160a01b0387166112665760405162461bcd60e51b815260206004820152600c60248201526b0aae6ca40c6d8c2d2da8aa8960a31b604482015260640161107d565b610e988787878787878761258c565b61127e33612580565b50604051630852cd8d60e31b8152600481018290526001600160a01b038316906342966c6890602401610d1c565b6112b533612580565b50604051636bea54e760e11b815273b725682d5adadf8dfd657f8e7728744c0835ecd99063d7d4a9ce906112f790899089908990899089908990600401613b66565b602060405180830381600087803b15801561131157600080fd5b505af1158015611325573d6000803e3d6000fd5b505050506040513d601f19601f82011682018060405250810190610e989190612eed565b61135233612580565b50604051630aaeeaf760e11b81526004810182905273a8b8f7cc0c64c178ddcd904122844cbad00216479063155dd5ee90602401610df0565b61139433612580565b506001600160a01b038116158015906113b757506001600160a01b038116600114155b80156113cc57506001600160a01b0381163014155b6113d557600080fd5b6001600160a01b0381811660009081526006602052604090205416156113fa57600080fd5b60066020527f3e5fec24aa4dc4e5aee2e025e51e1392c72a2500577559fae9665c6d52bd6a3180546001600160a01b038381166000818152604081208054939094166001600160a01b03199384161790935560018352835490911617909155600780549161146783613f6c565b90915550506040516001600160a01b03821681527f9465fa0c962cc76958e6373a993326400c1c94f8be2fe3a952adfa7f60b2ea2690602001611108565b600381815481106114b557600080fd5b600091825260209091200154905081565b60006114d6620f42406064613f1f565b6114e08385613f1f565b6114ea9190613eff565b9392505050565b6114fa33612580565b50604051632142170760e11b81523360048201526001600160a01b038381166024830152604482018390528416906342842e0e90606401610e6a565b606060006007546001600160401b0381111561156257634e487b7160e01b600052604160045260246000fd5b60405190808252806020026020018201604052801561158b578160200160208202803683370190505b506001600090815260066020527f3e5fec24aa4dc4e5aee2e025e51e1392c72a2500577559fae9665c6d52bd6a3154919250906001600160a01b03165b6001600160a01b03811660011461163a57808383815181106115fa57634e487b7160e01b600052603260045260246000fd5b6001600160a01b0392831660209182029290920181019190915291811660009081526006909252604090912054168161163281613f6c565b9250506115c8565b509092915050565b61164b33612580565b5060405163a22cb46560e01b81526001600160a01b038381166004830152821515602483015284169063a22cb46590604401610e6a565b6116ca82828080602002602001604051908101604052809392919081815260200183836020028082843760009201829052505492506116c5915088905087612796565b6127de565b6116e65760405162461bcd60e51b815260040161107d90613d43565b6000805b600154811015611760576116fe8187611d5d565b61174e5761170c818761289b565b6117416003828154811061173057634e487b7160e01b600052603260045260246000fd5b9060005260206000200154866114c6565b61174b9083613ee7565b91505b8061175881613f6c565b9150506116ea565b50610d4a85826128ce565b61177433612580565b50604051636f8a41e160e01b8152600481018390526024810182905273e7dd1252f50b3d845590da0c5eadd985049a03ce90636f8a41e190604401610d1c565b6117bd33612580565b506040516341f6ec0760e11b815260048101849052602481018390526001600160a01b038216604482015273a8b8f7cc0c64c178ddcd904122844cbad0021647906383edd80e90606401610e6a565b61181533612580565b50604051633166fd1d60e01b815260048101829052732d5c022fd4f81323bbd1cc0ec6959ec8cc1c5a1190633166fd1d90602401610df0565b61185733612580565b507f640d43a292e1045452b5787d4bfc220d14947f5e314da25b7f888a1f3b4947df8282604051611889929190613ccf565b60405180910390a15050565b60007f762f561e1c5dd9bc02eb3404c59dd1c32e6aa53a8097b703e4e0c14870869d7d8989898989896040516118d096959493929190613b19565b60405180910390a15063bc197c8160e01b98975050505050505050565b6118f633612580565b506040516375e9249f60e01b815273e7dd1252f50b3d845590da0c5eadd985049a03ce906375e9249f9061193a908a908a908a908a908a908a908a90600401613da0565b602060405180830381600087803b15801561195457600080fd5b505af1158015611968573d6000803e3d6000fd5b505050506040513d601f19601f820116820180604052508101906111889190613685565b6119c8828280806020026020016040519081016040528093929190818152602001838360200280828437600092019190915250612a3092505050565b7f92e5baf3cc4552d78b76a780360e152809a8e6aabf13c0e507ef6ed5c0dff75182826040516119f9929190613c34565b60405180910390a1611a09612bce565b5050565b611a1633612580565b5060405163ba33939960e01b81527385e946e1bd35ec91044dc83a5ddab2b6a262ffa69063ba33939990610d1c9085908590600401613e62565b611a5933612580565b50604051635cd16f1d60e11b81526004810182905273e7dd1252f50b3d845590da0c5eadd985049a03ce9063b9a2de3a90602401610df0565b611a9b33612580565b50604051634b9eeda560e11b815260048101839052811515602482015273e7dd1252f50b3d845590da0c5eadd985049a03ce9063973ddb4a90604401610d1c565b611ae533612580565b5060405163062f24b760e41b81527385e946e1bd35ec91044dc83a5ddab2b6a262ffa6906362f24b7090610d1c9085908590600401613e01565b611b2833612580565b50604051632cca323760e01b8152737c2668bd0d3c050703cecc956c11bd520c26f7d490632cca323790611b629087908790600401613d6a565b600060405180830381600087803b158015611b7c57600080fd5b505af1158015611b90573d6000803e3d6000fd5b5050505060006001737c2668bd0d3c050703cecc956c11bd520c26f7d46001600160a01b03166318160ddd6040518163ffffffff1660e01b815260040160206040518083038186803b158015611be557600080fd5b505afa158015611bf9573d6000803e3d6000fd5b505050506040513d601f19601f82011682018060405250810190611c1d9190613685565b611c279190613f3e565b604051634f6ccce760e01b815260048101829052909150600090737c2668bd0d3c050703cecc956c11bd520c26f7d490634f6ccce79060240160206040518083038186803b158015611c7857600080fd5b505afa158015611c8c573d6000803e3d6000fd5b505050506040513d601f19601f82011682018060405250810190611cb09190613685565b6040516375e9249f60e01b815290915073e7dd1252f50b3d845590da0c5eadd985049a03ce906375e9249f90611d0b908490737c2668bd0d3c050703cecc956c11bd520c26f7d4908990899030906000908190600401613da0565b602060405180830381600087803b158015611d2557600080fd5b505af1158015611d39573d6000803e3d6000fd5b505050506040513d601f19601f82011682018060405250810190610e989190613685565b600060046000611d6d8585612c4f565b815260208101919091526040016000205460ff169392505050565b611d9133612580565b506040516317b6b0d360e31b81527385e946e1bd35ec91044dc83a5ddab2b6a262ffa69063bdb5869890610e6a90869086908690600401613e76565b60405163196774ad60e21b815260048101829052732d5c022fd4f81323bbd1cc0ec6959ec8cc1c5a119063659dd2b490602401610df0565b611e0e33612580565b506040516328220f3560e01b8152600481018290527385e946e1bd35ec91044dc83a5ddab2b6a262ffa6906328220f3590602401610df0565b611e5033612580565b50806001600160a01b03166331a3a5066040518163ffffffff1660e01b8152600401600060405180830381600087803b158015610e0a57600080fd5b611e9533612580565b506001600160a01b0381161580611ec857506001600160a01b03811673c778417e063141139fce010982780140aa0cd5ab145b611ed157600080fd5b6040516375e9249f60e01b815273e7dd1252f50b3d845590da0c5eadd985049a03ce906375e9249f9061193a908a908a908a908a908a908a908a90600401613da0565b8460015411611f655760405162461bcd60e51b815260206004820181905260248201527f63616e6e6f7420636c61696d20666f722061206675747572652077696e646f77604482015260640161107d565b611f6f8585611d5d565b15611fcd5760405162461bcd60e51b815260206004820152602860248201527f4163636f756e7420616c726561647920636c61696d65642074686520676976656044820152676e2077696e646f7760c01b606482015260840161107d565b611fd7858561289b565b61201a82828080602002602001604051908101604052809392919081815260200183836020028082843760009201829052505492506116c5915088905087612796565b6120365760405162461bcd60e51b815260040161107d90613d43565b610d4a8461205e6003888154811061173057634e487b7160e01b600052603260045260246000fd5b6128ce565b61206c33612580565b506001600160a01b0381161580159061208f57506001600160a01b038116600114155b80156120a457506001600160a01b0381163014155b6120d45760405162461bcd60e51b81526020600482015260016024820152601960f91b604482015260640161107d565b6001600160a01b0381811660009081526006602052604090205416156121205760405162461bcd60e51b81526020600482015260016024820152603360f81b604482015260640161107d565b6001600160a01b0382161580159061214257506001600160a01b038216600114155b6121725760405162461bcd60e51b81526020600482015260016024820152600d60fa1b604482015260640161107d565b6001600160a01b038381166000908152600660205260409020548116908316146121c25760405162461bcd60e51b81526020600482015260016024820152603560f81b604482015260640161107d565b6001600160a01b038281166000818152600660209081526040808320805487871680865283862080549289166001600160a01b0319938416179055968a1685528285208054821690971790965592849052825490941690915591519081527ff8d49fc529812e9a7c5c50e69c20f0dccc0db8fa95c98bc58cc9a4f1c1299eaf910160405180910390a16040516001600160a01b03821681527f9465fa0c962cc76958e6373a993326400c1c94f8be2fe3a952adfa7f60b2ea269060200160405180910390a1505050565b6040516375aab41d60e11b81527385e946e1bd35ec91044dc83a5ddab2b6a262ffa69063eb55683a90610d1c9085908590600401613e3a565b60405163b7751c7160e01b8152600481018390526024810182905273e7dd1252f50b3d845590da0c5eadd985049a03ce9063b7751c7190604401610d1c565b604080516001600160a01b03808916825287166020820152908101859052606081018490526000907ffae60880665b87af033fc873390c3749e126b4cd010b87a7f1191dbd2b32f1979060800160405180910390a15063f23a6e6160e01b9695505050505050565b6040516375682e7960e01b8152737c2668bd0d3c050703cecc956c11bd520c26f7d4906375682e7990610e6a90869086908690600401613dde565b6123b033612580565b506040516318e97fd160e01b8152737c2668bd0d3c050703cecc956c11bd520c26f7d4906318e97fd1906123ec90889088908890600401613dde565b600060405180830381600087803b15801561240657600080fd5b505af115801561241a573d6000803e3d6000fd5b50506040516375682e7960e01b8152737c2668bd0d3c050703cecc956c11bd520c26f7d492506375682e799150610f0490889086908690600401613dde565b604051632f6185bb60e21b81526004810182905273a8b8f7cc0c64c178ddcd904122844cbad00216479063bd8616ec90602401610df0565b61249a33612580565b506001600160a01b038116158015906124bd57506001600160a01b038116600114155b6124c657600080fd5b6001600160a01b038281166000908152600660205260409020548116908216146124ef57600080fd5b6001600160a01b03818116600081815260066020526040808220805487861684529183208054929095166001600160a01b0319928316179094559181528254909116909155600780549161254283613f55565b90915550506040516001600160a01b03821681527ff8d49fc529812e9a7c5c50e69c20f0dccc0db8fa95c98bc58cc9a4f1c1299eaf90602001611889565b6000806114ea83610f3d565b6126298282808060200260200160405190810160405280939291908181526020018383602002808284376000920182905250805493506116c592508b91508a90816125e757634e487b7160e01b600052603260045260246000fd5b90506020020160208101906125fc9190612ed1565b8888600081811061261d57634e487b7160e01b600052603260045260246000fd5b90506020020135612796565b6126455760405162461bcd60e51b815260040161107d90613d43565b6040516370a0823160e01b81523060048201526000906001600160a01b038916906370a082319060240160206040518083038186803b15801561268757600080fd5b505afa15801561269b573d6000803e3d6000fd5b505050506040513d601f19601f820116820180604052508101906126bf9190613685565b905060005b86811161274b57612739898989848181106126ef57634e487b7160e01b600052603260045260246000fd5b90506020020160208101906127049190612ed1565b612734858a8a8781811061272857634e487b7160e01b600052603260045260246000fd5b905060200201356114c6565b612c7f565b8061274381613f6c565b9150506126c4565b50604080516001600160a01b038a168152602081018390526001918101919091527fed3e6c654d1b9b9c77e18504f95ae511cf7118ebbd2fbf8c65ed3637497d251a90606001610c6b565b6040516bffffffffffffffffffffffff19606084901b166020820152603481018290526000906054015b60405160208183030381529060405280519060200120905092915050565b600081815b855181101561289057600086828151811061280e57634e487b7160e01b600052603260045260246000fd5b6020026020010151905080831161285057604080516020810185905290810182905260600160405160208183030381529060405280519060200120925061287d565b60408051602081018390529081018490526060016040516020818303038152906040528051906020012092505b508061288881613f6c565b9150506127e3565b509092149392505050565b6001600460006128ab8585612c4f565b81526020810191909152604001600020805460ff19169115159190911790555050565b60006128da8383612d11565b9050806129e05773c778417e063141139fce010982780140aa0cd5ab6001600160a01b031663d0e30db0836040518263ffffffff1660e01b81526004016000604051808303818588803b15801561293057600080fd5b505af1158015612944573d6000803e3d6000fd5b505060405163a9059cbb60e01b81526001600160a01b03871660048201526024810186905273c778417e063141139fce010982780140aa0cd5ab935063a9059cbb92506044019050602060405180830381600087803b1580156129a657600080fd5b505af11580156129ba573d6000803e3d6000fd5b505050506040513d601f19601f820116820180604052508101906129de91906134ac565b505b604080516001600160a01b0385168152602081018490528215158183015290517fdbd5389f52533f4cbd998e752125a5a4eaa0b813b399ad15f775ec0e8438620d9181900360600190a192915050565b60085415612a8f5760405162461bcd60e51b815260206004820152602660248201527f53657475702068617320616c7265616479206265656e20636f6d706c657465646044820152651037b731b29760d11b606482015260840161107d565b600160005b8251811015612b98576000838281518110612abf57634e487b7160e01b600052603260045260246000fd5b6020026020010151905060006001600160a01b0316816001600160a01b031614158015612af657506001600160a01b038116600114155b8015612b0b57506001600160a01b0381163014155b8015612b295750806001600160a01b0316836001600160a01b031614155b612b3257600080fd5b6001600160a01b038181166000908152600660205260409020541615612b5757600080fd5b6001600160a01b03928316600090815260066020526040902080546001600160a01b0319169382169390931790925580612b9081613f6c565b915050612a94565b506001600160a01b0316600090815260066020526040902080546001600160a01b03191660019081179091559051600755600855565b60405163a22cb46560e01b815273e7dd1252f50b3d845590da0c5eadd985049a03ce600482015260016024820152737c2668bd0d3c050703cecc956c11bd520c26f7d49063a22cb46590604401600060405180830381600087803b158015612c3557600080fd5b505af1158015612c49573d6000803e3d6000fd5b50505050565b600082826040516020016127c092919091825260601b6bffffffffffffffffffffffff1916602082015260340190565b60405163a9059cbb60e01b81526001600160a01b038381166004830152602482018390526000919085169063a9059cbb90604401602060405180830381600087803b158015612ccd57600080fd5b505af1158015612ce1573d6000803e3d6000fd5b505050506040513d601f19601f82011682018060405250810190612d0591906134ac565b905080612c4957600080fd5b600080836001600160a01b03168361753090604051600060405180830381858888f193505050503d8060008114612d64576040519150601f19603f3d011682016040523d82523d6000602084013e612d69565b606091505b509095945050505050565b60008083601f840112612d85578182fd5b5081356001600160401b03811115612d9b578182fd5b6020830191508360208260051b8501011115612db657600080fd5b9250929050565b60008083601f840112612dce578182fd5b5081356001600160401b03811115612de4578182fd5b602083019150836020828501011115612db657600080fd5b600082601f830112612e0c578081fd5b81356001600160401b0380821115612e2657612e26613f9d565b604051601f8301601f19908116603f01168101908282118183101715612e4e57612e4e613f9d565b81604052838152866020858801011115612e66578485fd5b8360208701602083013792830160200193909352509392505050565b600060608284031215612e93578081fd5b50919050565b600060a08284031215612e93578081fd5b600060808284031215612e93578081fd5b803560ff81168114612ecc57600080fd5b919050565b600060208284031215612ee2578081fd5b81356114ea81613fb3565b600060208284031215612efe578081fd5b81516114ea81613fb3565b60008060408385031215612f1b578081fd5b8235612f2681613fb3565b91506020830135612f3681613fb3565b809150509250929050565b600080600060608486031215612f55578081fd5b8335612f6081613fb3565b92506020840135612f7081613fb3565b91506040840135612f8081613fb3565b809150509250925092565b60008060008060008060008060c0898b031215612fa6578384fd5b8835612fb181613fb3565b97506020890135612fc181613fb3565b96506040890135612fd181613fb3565b95506060890135945060808901356001600160401b0380821115612ff3578586fd5b612fff8c838d01612dbd565b909650945060a08b0135915080821115613017578384fd5b506130248b828c01612dbd565b999c989b5096995094979396929594505050565b60008060008060008060008060a0898b031215613053578182fd5b883561305e81613fb3565b9750602089013561306e81613fb3565b965060408901356001600160401b0380821115613089578384fd5b6130958c838d01612d74565b909850965060608b01359150808211156130ad578384fd5b6130b98c838d01612d74565b909650945060808b0135915080821115613017578384fd5b6000806000606084860312156130e5578081fd5b83356130f081613fb3565b9250602084013561310081613fb3565b91506040840135612f8081613fcb565b600080600060608486031215613124578081fd5b833561312f81613fb3565b9250602084013561313f81613fb3565b929592945050506040919091013590565b600080600080600060808688031215613167578283fd5b853561317281613fb3565b9450602086013561318281613fb3565b93506040860135925060608601356001600160401b038111156131a3578182fd5b6131af88828901612dbd565b969995985093965092949392505050565b60008060008060008060a087890312156131d8578384fd5b86356131e381613fb3565b955060208701356131f381613fb3565b9450604087013593506060870135925060808701356001600160401b0381111561321b578283fd5b61322789828a01612dbd565b979a9699509497509295939492505050565b60008060008060008060c08789031215613251578384fd5b863561325c81613fb3565b9550602087013561326c81613fb3565b9450604087013593506060870135925060808701356001600160401b0380821115613295578384fd5b6132a18a838b01612dfc565b935060a08901359150808211156132b6578283fd5b506132c389828a01612dfc565b9150509295509295509295565b60008060008060008060006080888a0312156132ea578081fd5b87356132f581613fb3565b965060208801356001600160401b0380821115613310578283fd5b61331c8b838c01612d74565b909850965060408a0135915080821115613334578283fd5b6133408b838c01612d74565b909650945060608a0135915080821115613358578283fd5b506133658a828b01612d74565b989b979a50959850939692959293505050565b600080600080610120858703121561338e578182fd5b843561339981613fb3565b935060208501356001600160401b038111156133b3578283fd5b6133bf87828801612eaa565b9350506133cf8660408701612e82565b91506133de8660a08701612eaa565b905092959194509250565b600080604083850312156133fb578182fd5b823561340681613fb3565b946020939093013593505050565b60008060008060608587031215613429578182fd5b843561343481613fb3565b93506020850135925060408501356001600160401b03811115613455578283fd5b61346187828801612d74565b95989497509550505050565b6000806020838503121561347f578182fd5b82356001600160401b03811115613494578283fd5b6134a085828601612d74565b90969095509350505050565b6000602082840312156134bd578081fd5b81516114ea81613fcb565b6000602082840312156134d9578081fd5b81356001600160e01b0319811681146114ea578182fd5b60008060208385031215613502578182fd5b82356001600160401b03811115613517578283fd5b6134a085828601612dbd565b60008060008060008060008060c0898b03121561353e578182fd5b88356001600160401b0380821115613554578384fd5b6135608c838d01612dbd565b909a50985060208b0135915080821115613578578384fd5b506135858b828c01612dbd565b909750955050604089013561359981613fb3565b935060608901356135a981613fb3565b979a969950949793969295929450505060808201359160a0013590565b600080608083850312156135d8578182fd5b82356001600160401b038111156135ed578283fd5b6135f985828601612eaa565b9250506136098460208501612e82565b90509250929050565b60008060008060c08587031215613627578182fd5b84356001600160401b0381111561363c578283fd5b61364887828801612eaa565b9450506136588660208701612e82565b939693955050505060808201359160a0013590565b60006020828403121561367e578081fd5b5035919050565b600060208284031215613696578081fd5b5051919050565b600080604083850312156136af578182fd5b823591506020830135612f3681613fb3565b6000806000806000608086880312156136d8578283fd5b8535945060208601356136ea81613fb3565b93506040860135925060608601356001600160401b0381111561370b578182fd5b6131af88828901612d74565b600080600080600080600060e0888a031215613731578081fd5b87359650602088013561374381613fb3565b95506040880135945060608801359350608088013561376181613fb3565b925061376f60a08901612ebb565b915060c088013561377f81613fb3565b8091505092959891949750929550565b600080604083850312156137a1578182fd5b823591506020830135612f3681613fcb565b6000806000604084860312156137c7578081fd5b8335925060208401356001600160401b038111156137e3578182fd5b6137ef86828701612dbd565b9497909650939450505050565b600080600080600060608688031215613813578283fd5b8535945060208601356001600160401b0380821115613830578485fd5b61383c89838a01612dbd565b90965094506040880135915080821115613854578283fd5b506131af88828901612dbd565b6000808284036060811215613874578283fd5b833592506040601f1982011215613889578182fd5b506020830190509250929050565b600080608083850312156138a9578182fd5b823591506136098460208501612e82565b60008060c083850312156138cc578182fd5b823591506136098460208501612e99565b600080600060e084860312156138f1578081fd5b833592506139028560208601612e99565b915060c0840135612f8081613fb3565b60008060408385031215613924578182fd5b50508035926020909101359150565b600080600060608486031215613947578081fd5b83359250602084013591506040840135612f8081613fb3565b600080600080600060a08688031215613977578283fd5b853594506020860135935060408601359250606086013561399781613fb3565b915060808601356139a781613fb3565b809150509295509295909350565b81835260006001600160fb1b038311156139cd578081fd5b8260051b80836020870137939093016020019283525090919050565b81835281816020850137506000828201602090810191909152601f909101601f19169091010190565b60008151808452815b81811015613a3757602081850181015186830182015201613a1b565b81811115613a485782602083870101525b50601f01601f19169290920160200192915050565b803582526020810135613a6f81613fb3565b6001600160a01b039081166020840152604082013590613a8e82613fb3565b9081166040840152606082013590613aa582613fb3565b166060830152608090810135910152565b6000613ac28283613ea3565b60808552613ad46080860182846139e9565b915050613ae46020840184613ea3565b8583036020870152613af78382846139e9565b9250505060408301356040850152606083013560608501528091505092915050565b6001600160a01b03878116825286166020820152608060408201819052600090613b4690830186886139b5565b8281036060840152613b598185876139b5565b9998505050505050505050565b6001600160a01b03878116825286166020820152604081018590526060810184905260c060808201819052600090613ba090830185613a12565b82810360a0840152613b598185613a12565b6001600160a01b038516815261012060208201819052600090613bd783820187613ab6565b915050613bfb60408301858035825260208082013590830152604090810135910152565b823560a083015260ff613c1060208501612ebb565b1660c0830152604083013560e0830152606083013561010083015295945050505050565b60208082528181018390526000908460408401835b86811015613c77578235613c5c81613fb3565b6001600160a01b031682529183019190830190600101613c49565b509695505050505050565b6020808252825182820181905260009190848201906040850190845b81811015613cc35783516001600160a01b031683529284019291840191600101613c9e565b50909695505050505050565b602081526000613ce36020830184866139e9565b949350505050565b60c081526000613cff60c083018a8c6139e9565b8281036020840152613d1281898b6139e9565b6001600160a01b03978816604085015295909616606083015250608081019290925260a09091015295945050505050565b6020808252600d908201526c24b73b30b634b210383937b7b360991b604082015260600190565b608081526000613d7d6080830185613ab6565b90506114ea60208301848035825260208082013590830152604090810135910152565b9687526001600160a01b039586166020880152604087019490945260608601929092528316608085015260ff1660a08401521660c082015260e00190565b838152604060208201526000613df86040830184866139e9565b95945050505050565b6000606082019050838252823560208301526020830135613e2181613fb3565b6001600160a01b03166040929092019190915292915050565b828152608081016114ea60208301848035825260208082013590830152604090810135910152565b82815260c081016114ea6020830184613a5d565b83815260e08101613e8a6020830185613a5d565b6001600160a01b039290921660c0919091015292915050565b6000808335601e19843603018112613eb9578283fd5b83016020810192503590506001600160401b03811115613ed857600080fd5b803603831315612db657600080fd5b60008219821115613efa57613efa613f87565b500190565b600082613f1a57634e487b7160e01b81526012600452602481fd5b500490565b6000816000190483118215151615613f3957613f39613f87565b500290565b600082821015613f5057613f50613f87565b500390565b600081613f6457613f64613f87565b506000190190565b6000600019821415613f8057613f80613f87565b5060010190565b634e487b7160e01b600052601160045260246000fd5b634e487b7160e01b600052604160045260246000fd5b6001600160a01b0381168114613fc857600080fd5b50565b8015158114613fc857600080fdfea2646970667358221220f2fe7b3b62b40aea8ae100a441029f6515f41a2e33eb36fd6e1f15186c51a5db64736f6c63430008040033",
  "linkReferences": {},
  "deployedLinkReferences": {}
}