{
  "_format": "hh-sol-artifact-1",
  "contractName": "OurPylon",
  "sourceName": "contracts/OurPylon.sol",
  "abi": [
    {
      "inputs": [],
      "stateMutability": "nonpayable",
      "type": "constructor"
    },
    {
      "anonymous": false,
      "inputs": [
        {
          "indexed": false,
          "internalType": "address",
          "name": "owner",
          "type": "address"
        }
      ],
      "name": "AddedOwner",
      "type": "event"
    },
    {
      "anonymous": false,
      "inputs": [
        {
          "indexed": false,
          "internalType": "address",
          "name": "operator",
          "type": "address"
        },
        {
          "indexed": false,
          "internalType": "address",
          "name": "from",
          "type": "address"
        },
        {
          "indexed": false,
          "internalType": "uint256[]",
          "name": "ids",
          "type": "uint256[]"
        },
        {
          "indexed": false,
          "internalType": "uint256[]",
          "name": "values",
          "type": "uint256[]"
        }
      ],
      "name": "Batch1155Received",
      "type": "event"
    },
    {
      "anonymous": false,
      "inputs": [
        {
          "indexed": false,
          "internalType": "address",
          "name": "operator",
          "type": "address"
        },
        {
          "indexed": false,
          "internalType": "address",
          "name": "from",
          "type": "address"
        },
        {
          "indexed": false,
          "internalType": "uint256",
          "name": "id",
          "type": "uint256"
        },
        {
          "indexed": false,
          "internalType": "uint256",
          "name": "value",
          "type": "uint256"
        }
      ],
      "name": "ERC1155Received",
      "type": "event"
    },
    {
      "anonymous": false,
      "inputs": [
        {
          "indexed": false,
          "internalType": "address",
          "name": "operator",
          "type": "address"
        },
        {
          "indexed": false,
          "internalType": "address",
          "name": "from",
          "type": "address"
        },
        {
          "indexed": false,
          "internalType": "uint256",
          "name": "tokenId",
          "type": "uint256"
        }
      ],
      "name": "ERC721Received",
      "type": "event"
    },
    {
      "anonymous": false,
      "inputs": [
        {
          "indexed": false,
          "internalType": "address",
          "name": "operator",
          "type": "address"
        },
        {
          "indexed": false,
          "internalType": "address",
          "name": "from",
          "type": "address"
        },
        {
          "indexed": false,
          "internalType": "address",
          "name": "to",
          "type": "address"
        },
        {
          "indexed": false,
          "internalType": "uint256",
          "name": "amount",
          "type": "uint256"
        }
      ],
      "name": "ERC777Received",
      "type": "event"
    },
    {
      "anonymous": false,
      "inputs": [
        {
          "indexed": true,
          "internalType": "address",
          "name": "sender",
          "type": "address"
        },
        {
          "indexed": false,
          "internalType": "uint256",
          "name": "value",
          "type": "uint256"
        }
      ],
      "name": "ETHReceived",
      "type": "event"
    },
    {
      "anonymous": false,
      "inputs": [
        {
          "indexed": false,
          "internalType": "uint256",
          "name": "editionId",
          "type": "uint256"
        },
        {
          "indexed": false,
          "internalType": "uint256",
          "name": "editionSize",
          "type": "uint256"
        }
      ],
      "name": "EditionMinted",
      "type": "event"
    },
    {
      "anonymous": false,
      "inputs": [
        {
          "indexed": false,
          "internalType": "string",
          "name": "newName",
          "type": "string"
        }
      ],
      "name": "NameChanged",
      "type": "event"
    },
    {
      "anonymous": false,
      "inputs": [
        {
          "indexed": false,
          "internalType": "address[]",
          "name": "owners",
          "type": "address[]"
        }
      ],
      "name": "ProxySetup",
      "type": "event"
    },
    {
      "anonymous": false,
      "inputs": [
        {
          "indexed": false,
          "internalType": "address",
          "name": "owner",
          "type": "address"
        }
      ],
      "name": "RemovedOwner",
      "type": "event"
    },
    {
      "anonymous": false,
      "inputs": [
        {
          "indexed": false,
          "internalType": "address",
          "name": "token",
          "type": "address"
        },
        {
          "indexed": false,
          "internalType": "uint256",
          "name": "amount",
          "type": "uint256"
        }
      ],
      "name": "TransferERC20",
      "type": "event"
    },
    {
      "anonymous": false,
      "inputs": [
        {
          "indexed": false,
          "internalType": "address",
          "name": "account",
          "type": "address"
        },
        {
          "indexed": false,
          "internalType": "uint256",
          "name": "amount",
          "type": "uint256"
        },
        {
          "indexed": false,
          "internalType": "bool",
          "name": "success",
          "type": "bool"
        }
      ],
      "name": "TransferETH",
      "type": "event"
    },
    {
      "anonymous": false,
      "inputs": [
        {
          "indexed": false,
          "internalType": "uint256",
          "name": "currentWindow",
          "type": "uint256"
        },
        {
          "indexed": false,
          "internalType": "uint256",
          "name": "fundsAvailable",
          "type": "uint256"
        }
      ],
      "name": "WindowIncremented",
      "type": "event"
    },
    {
      "inputs": [],
      "name": "PERCENTAGE_SCALE",
      "outputs": [
        {
          "internalType": "uint256",
          "name": "",
          "type": "uint256"
        }
      ],
      "stateMutability": "view",
      "type": "function"
    },
    {
      "inputs": [],
      "name": "_mirrorCrowdfund",
      "outputs": [
        {
          "internalType": "address",
          "name": "",
          "type": "address"
        }
      ],
      "stateMutability": "view",
      "type": "function"
    },
    {
      "inputs": [],
      "name": "_partyBid",
      "outputs": [
        {
          "internalType": "address",
          "name": "",
          "type": "address"
        }
      ],
      "stateMutability": "view",
      "type": "function"
    },
    {
      "inputs": [],
      "name": "_zoraAH",
      "outputs": [
        {
          "internalType": "address",
          "name": "",
          "type": "address"
        }
      ],
      "stateMutability": "view",
      "type": "function"
    },
    {
      "inputs": [],
      "name": "_zoraEditions",
      "outputs": [
        {
          "internalType": "address",
          "name": "",
          "type": "address"
        }
      ],
      "stateMutability": "view",
      "type": "function"
    },
    {
      "inputs": [],
      "name": "_zoraMarket",
      "outputs": [
        {
          "internalType": "address",
          "name": "",
          "type": "address"
        }
      ],
      "stateMutability": "view",
      "type": "function"
    },
    {
      "inputs": [],
      "name": "_zoraMedia",
      "outputs": [
        {
          "internalType": "address",
          "name": "",
          "type": "address"
        }
      ],
      "stateMutability": "view",
      "type": "function"
    },
    {
      "inputs": [
        {
          "internalType": "uint256",
          "name": "tokenId",
          "type": "uint256"
        },
        {
          "components": [
            {
              "internalType": "uint256",
              "name": "amount",
              "type": "uint256"
            },
            {
              "internalType": "address",
              "name": "currency",
              "type": "address"
            },
            {
              "internalType": "address",
              "name": "bidder",
              "type": "address"
            },
            {
              "internalType": "address",
              "name": "recipient",
              "type": "address"
            },
            {
              "components": [
                {
                  "internalType": "uint256",
                  "name": "value",
                  "type": "uint256"
                }
              ],
              "internalType": "struct IZora.D256",
              "name": "sellOnShare",
              "type": "tuple"
            }
          ],
          "internalType": "struct IZora.Bid",
          "name": "expectedBid",
          "type": "tuple"
        }
      ],
      "name": "acceptZoraMarketBid",
      "outputs": [],
      "stateMutability": "nonpayable",
      "type": "function"
    },
    {
      "inputs": [
        {
          "internalType": "address",
          "name": "owner",
          "type": "address"
        }
      ],
      "name": "addOwner",
      "outputs": [],
      "stateMutability": "nonpayable",
      "type": "function"
    },
    {
      "inputs": [
        {
          "internalType": "uint256",
          "name": "",
          "type": "uint256"
        }
      ],
      "name": "balanceForWindow",
      "outputs": [
        {
          "internalType": "uint256",
          "name": "",
          "type": "uint256"
        }
      ],
      "stateMutability": "view",
      "type": "function"
    },
    {
      "inputs": [
        {
          "internalType": "uint256",
          "name": "auctionId",
          "type": "uint256"
        }
      ],
      "name": "cancelZoraAuction",
      "outputs": [],
      "stateMutability": "nonpayable",
      "type": "function"
    },
    {
      "inputs": [
        {
          "internalType": "address",
          "name": "tokenAddress",
          "type": "address"
        },
        {
          "internalType": "address[]",
          "name": "accounts",
          "type": "address[]"
        },
        {
          "internalType": "uint256[]",
          "name": "allocations",
          "type": "uint256[]"
        },
        {
          "components": [
            {
              "internalType": "bytes32[]",
              "name": "merkleProof",
              "type": "bytes32[]"
            }
          ],
          "internalType": "struct OurSplitter.Proof[]",
          "name": "merkleProofs",
          "type": "tuple[]"
        }
      ],
      "name": "claimERC20ForAll",
      "outputs": [],
      "stateMutability": "nonpayable",
      "type": "function"
    },
    {
      "inputs": [
        {
          "internalType": "uint256",
          "name": "window",
          "type": "uint256"
        },
        {
          "internalType": "address",
          "name": "account",
          "type": "address"
        },
        {
          "internalType": "uint256",
          "name": "scaledPercentageAllocation",
          "type": "uint256"
        },
        {
          "internalType": "bytes32[]",
          "name": "merkleProof",
          "type": "bytes32[]"
        }
      ],
      "name": "claimETH",
      "outputs": [],
      "stateMutability": "nonpayable",
      "type": "function"
    },
    {
      "inputs": [
        {
          "internalType": "address",
          "name": "account",
          "type": "address"
        },
        {
          "internalType": "uint256",
          "name": "percentageAllocation",
          "type": "uint256"
        },
        {
          "internalType": "bytes32[]",
          "name": "merkleProof",
          "type": "bytes32[]"
        }
      ],
      "name": "claimETHForAllWindows",
      "outputs": [],
      "stateMutability": "nonpayable",
      "type": "function"
    },
    {
      "inputs": [
        {
          "internalType": "string",
          "name": "name",
          "type": "string"
        },
        {
          "internalType": "string",
          "name": "symbol",
          "type": "string"
        },
        {
          "internalType": "address payable",
          "name": "operator",
          "type": "address"
        },
        {
          "internalType": "address payable",
          "name": "fundingRecipient",
          "type": "address"
        },
        {
          "internalType": "uint256",
          "name": "fundingCap",
          "type": "uint256"
        },
        {
          "internalType": "uint256",
          "name": "operatorPercent",
          "type": "uint256"
        }
      ],
      "name": "createMirrorCrowdfund",
      "outputs": [],
      "stateMutability": "nonpayable",
      "type": "function"
    },
    {
      "inputs": [
        {
          "internalType": "uint256",
          "name": "tokenId",
          "type": "uint256"
        },
        {
          "internalType": "address",
          "name": "tokenContract",
          "type": "address"
        },
        {
          "internalType": "uint256",
          "name": "duration",
          "type": "uint256"
        },
        {
          "internalType": "uint256",
          "name": "reservePrice",
          "type": "uint256"
        },
        {
          "internalType": "address payable",
          "name": "curator",
          "type": "address"
        },
        {
          "internalType": "uint8",
          "name": "curatorFeePercentage",
          "type": "uint8"
        },
        {
          "internalType": "address",
          "name": "auctionCurrency",
          "type": "address"
        }
      ],
      "name": "createZoraAuction",
      "outputs": [],
      "stateMutability": "nonpayable",
      "type": "function"
    },
    {
      "inputs": [
        {
          "internalType": "string",
          "name": "_name",
          "type": "string"
        },
        {
          "internalType": "string",
          "name": "_symbol",
          "type": "string"
        },
        {
          "internalType": "string",
          "name": "_description",
          "type": "string"
        },
        {
          "internalType": "string",
          "name": "_animationUrl",
          "type": "string"
        },
        {
          "internalType": "bytes32",
          "name": "_animationHash",
          "type": "bytes32"
        },
        {
          "internalType": "string",
          "name": "_imageUrl",
          "type": "string"
        },
        {
          "internalType": "bytes32",
          "name": "_imageHash",
          "type": "bytes32"
        },
        {
          "internalType": "uint256",
          "name": "_editionSize",
          "type": "uint256"
        },
        {
          "internalType": "uint256",
          "name": "_royaltyBPS",
          "type": "uint256"
        }
      ],
      "name": "createZoraEdition",
      "outputs": [],
      "stateMutability": "nonpayable",
      "type": "function"
    },
    {
      "inputs": [],
      "name": "currentWindow",
      "outputs": [
        {
          "internalType": "uint256",
          "name": "",
          "type": "uint256"
        }
      ],
      "stateMutability": "view",
      "type": "function"
    },
    {
      "inputs": [
        {
          "internalType": "string",
          "name": "newName_",
          "type": "string"
        }
      ],
      "name": "editNickname",
      "outputs": [],
      "stateMutability": "nonpayable",
      "type": "function"
    },
    {
      "inputs": [],
      "name": "getOwners",
      "outputs": [
        {
          "internalType": "address[]",
          "name": "",
          "type": "address[]"
        }
      ],
      "stateMutability": "view",
      "type": "function"
    },
    {
      "inputs": [
        {
          "internalType": "address",
          "name": "account",
          "type": "address"
        },
        {
          "internalType": "uint256",
          "name": "percentageAllocation",
          "type": "uint256"
        },
        {
          "internalType": "bytes32[]",
          "name": "merkleProof",
          "type": "bytes32[]"
        }
      ],
      "name": "incrementThenClaimAll",
      "outputs": [],
      "stateMutability": "nonpayable",
      "type": "function"
    },
    {
      "inputs": [],
      "name": "incrementWindow",
      "outputs": [],
      "stateMutability": "nonpayable",
      "type": "function"
    },
    {
      "inputs": [
        {
          "internalType": "uint256",
          "name": "window",
          "type": "uint256"
        },
        {
          "internalType": "address",
          "name": "account",
          "type": "address"
        }
      ],
      "name": "isClaimed",
      "outputs": [
        {
          "internalType": "bool",
          "name": "",
          "type": "bool"
        }
      ],
      "stateMutability": "view",
      "type": "function"
    },
    {
      "inputs": [
        {
          "internalType": "address",
          "name": "owner",
          "type": "address"
        }
      ],
      "name": "isOwner",
      "outputs": [
        {
          "internalType": "bool",
          "name": "",
          "type": "bool"
        }
      ],
      "stateMutability": "view",
      "type": "function"
    },
    {
      "inputs": [],
      "name": "merkleRoot",
      "outputs": [
        {
          "internalType": "bytes32",
          "name": "",
          "type": "bytes32"
        }
      ],
      "stateMutability": "view",
      "type": "function"
    },
    {
      "inputs": [
        {
          "components": [
            {
              "internalType": "string",
              "name": "tokenURI",
              "type": "string"
            },
            {
              "internalType": "string",
              "name": "metadataURI",
              "type": "string"
            },
            {
              "internalType": "bytes32",
              "name": "contentHash",
              "type": "bytes32"
            },
            {
              "internalType": "bytes32",
              "name": "metadataHash",
              "type": "bytes32"
            }
          ],
          "internalType": "struct IZora.MediaData",
          "name": "mediaData",
          "type": "tuple"
        },
        {
          "components": [
            {
              "components": [
                {
                  "internalType": "uint256",
                  "name": "value",
                  "type": "uint256"
                }
              ],
              "internalType": "struct IZora.D256",
              "name": "prevOwner",
              "type": "tuple"
            },
            {
              "components": [
                {
                  "internalType": "uint256",
                  "name": "value",
                  "type": "uint256"
                }
              ],
              "internalType": "struct IZora.D256",
              "name": "creator",
              "type": "tuple"
            },
            {
              "components": [
                {
                  "internalType": "uint256",
                  "name": "value",
                  "type": "uint256"
                }
              ],
              "internalType": "struct IZora.D256",
              "name": "owner",
              "type": "tuple"
            }
          ],
          "internalType": "struct IZora.BidShares",
          "name": "bidShares",
          "type": "tuple"
        },
        {
          "internalType": "uint256",
          "name": "duration",
          "type": "uint256"
        },
        {
          "internalType": "uint256",
          "name": "reservePrice",
          "type": "uint256"
        }
      ],
      "name": "mintToAuctionForETH",
      "outputs": [],
      "stateMutability": "nonpayable",
      "type": "function"
    },
    {
      "inputs": [
        {
          "components": [
            {
              "internalType": "string",
              "name": "tokenURI",
              "type": "string"
            },
            {
              "internalType": "string",
              "name": "metadataURI",
              "type": "string"
            },
            {
              "internalType": "bytes32",
              "name": "contentHash",
              "type": "bytes32"
            },
            {
              "internalType": "bytes32",
              "name": "metadataHash",
              "type": "bytes32"
            }
          ],
          "internalType": "struct IZora.MediaData",
          "name": "mediaData",
          "type": "tuple"
        },
        {
          "components": [
            {
              "components": [
                {
                  "internalType": "uint256",
                  "name": "value",
                  "type": "uint256"
                }
              ],
              "internalType": "struct IZora.D256",
              "name": "prevOwner",
              "type": "tuple"
            },
            {
              "components": [
                {
                  "internalType": "uint256",
                  "name": "value",
                  "type": "uint256"
                }
              ],
              "internalType": "struct IZora.D256",
              "name": "creator",
              "type": "tuple"
            },
            {
              "components": [
                {
                  "internalType": "uint256",
                  "name": "value",
                  "type": "uint256"
                }
              ],
              "internalType": "struct IZora.D256",
              "name": "owner",
              "type": "tuple"
            }
          ],
          "internalType": "struct IZora.BidShares",
          "name": "bidShares",
          "type": "tuple"
        }
      ],
      "name": "mintZora",
      "outputs": [],
      "stateMutability": "nonpayable",
      "type": "function"
    },
    {
      "inputs": [
        {
          "internalType": "address",
          "name": "creator",
          "type": "address"
        },
        {
          "components": [
            {
              "internalType": "string",
              "name": "tokenURI",
              "type": "string"
            },
            {
              "internalType": "string",
              "name": "metadataURI",
              "type": "string"
            },
            {
              "internalType": "bytes32",
              "name": "contentHash",
              "type": "bytes32"
            },
            {
              "internalType": "bytes32",
              "name": "metadataHash",
              "type": "bytes32"
            }
          ],
          "internalType": "struct IZora.MediaData",
          "name": "mediaData",
          "type": "tuple"
        },
        {
          "components": [
            {
              "components": [
                {
                  "internalType": "uint256",
                  "name": "value",
                  "type": "uint256"
                }
              ],
              "internalType": "struct IZora.D256",
              "name": "prevOwner",
              "type": "tuple"
            },
            {
              "components": [
                {
                  "internalType": "uint256",
                  "name": "value",
                  "type": "uint256"
                }
              ],
              "internalType": "struct IZora.D256",
              "name": "creator",
              "type": "tuple"
            },
            {
              "components": [
                {
                  "internalType": "uint256",
                  "name": "value",
                  "type": "uint256"
                }
              ],
              "internalType": "struct IZora.D256",
              "name": "owner",
              "type": "tuple"
            }
          ],
          "internalType": "struct IZora.BidShares",
          "name": "bidShares",
          "type": "tuple"
        },
        {
          "components": [
            {
              "internalType": "uint256",
              "name": "deadline",
              "type": "uint256"
            },
            {
              "internalType": "uint8",
              "name": "v",
              "type": "uint8"
            },
            {
              "internalType": "bytes32",
              "name": "r",
              "type": "bytes32"
            },
            {
              "internalType": "bytes32",
              "name": "s",
              "type": "bytes32"
            }
          ],
          "internalType": "struct IZora.EIP712Signature",
          "name": "sig",
          "type": "tuple"
        }
      ],
      "name": "mintZoraWithSig",
      "outputs": [],
      "stateMutability": "nonpayable",
      "type": "function"
    },
    {
      "inputs": [
        {
          "internalType": "address",
          "name": "operator",
          "type": "address"
        },
        {
          "internalType": "address",
          "name": "from",
          "type": "address"
        },
        {
          "internalType": "uint256[]",
          "name": "ids",
          "type": "uint256[]"
        },
        {
          "internalType": "uint256[]",
          "name": "values",
          "type": "uint256[]"
        },
        {
          "internalType": "bytes",
          "name": "",
          "type": "bytes"
        }
      ],
      "name": "onERC1155BatchReceived",
      "outputs": [
        {
          "internalType": "bytes4",
          "name": "",
          "type": "bytes4"
        }
      ],
      "stateMutability": "nonpayable",
      "type": "function"
    },
    {
      "inputs": [
        {
          "internalType": "address",
          "name": "operator",
          "type": "address"
        },
        {
          "internalType": "address",
          "name": "from",
          "type": "address"
        },
        {
          "internalType": "uint256",
          "name": "id",
          "type": "uint256"
        },
        {
          "internalType": "uint256",
          "name": "value",
          "type": "uint256"
        },
        {
          "internalType": "bytes",
          "name": "",
          "type": "bytes"
        }
      ],
      "name": "onERC1155Received",
      "outputs": [
        {
          "internalType": "bytes4",
          "name": "",
          "type": "bytes4"
        }
      ],
      "stateMutability": "nonpayable",
      "type": "function"
    },
    {
      "inputs": [
        {
          "internalType": "address",
          "name": "operator_",
          "type": "address"
        },
        {
          "internalType": "address",
          "name": "from_",
          "type": "address"
        },
        {
          "internalType": "uint256",
          "name": "tokenId_",
          "type": "uint256"
        },
        {
          "internalType": "bytes",
          "name": "",
          "type": "bytes"
        }
      ],
      "name": "onERC721Received",
      "outputs": [
        {
          "internalType": "bytes4",
          "name": "",
          "type": "bytes4"
        }
      ],
      "stateMutability": "nonpayable",
      "type": "function"
    },
    {
      "inputs": [
        {
          "internalType": "address",
          "name": "prevOwner",
          "type": "address"
        },
        {
          "internalType": "address",
          "name": "owner",
          "type": "address"
        }
      ],
      "name": "removeOwner",
      "outputs": [],
      "stateMutability": "nonpayable",
      "type": "function"
    },
    {
      "inputs": [
        {
          "internalType": "uint256",
          "name": "tokenId",
          "type": "uint256"
        }
      ],
      "name": "removeZoraMarketAsk",
      "outputs": [],
      "stateMutability": "nonpayable",
      "type": "function"
    },
    {
      "inputs": [
        {
          "internalType": "uint256",
          "name": "amount",
          "type": "uint256"
        },
        {
          "internalType": "uint256",
          "name": "scaledPercent",
          "type": "uint256"
        }
      ],
      "name": "scaleAmountByPercentage",
      "outputs": [
        {
          "internalType": "uint256",
          "name": "scaledAmount",
          "type": "uint256"
        }
      ],
      "stateMutability": "pure",
      "type": "function"
    },
    {
      "inputs": [
        {
          "internalType": "address",
          "name": "minter",
          "type": "address"
        },
        {
          "internalType": "bool",
          "name": "allowed",
          "type": "bool"
        }
      ],
      "name": "setEditionMinter",
      "outputs": [],
      "stateMutability": "nonpayable",
      "type": "function"
    },
    {
      "inputs": [
        {
          "internalType": "string",
          "name": "_imageUrl",
          "type": "string"
        },
        {
          "internalType": "string",
          "name": "_animationUrl",
          "type": "string"
        }
      ],
      "name": "setEditionURLs",
      "outputs": [],
      "stateMutability": "nonpayable",
      "type": "function"
    },
    {
      "inputs": [
        {
          "internalType": "uint256",
          "name": "auctionId",
          "type": "uint256"
        },
        {
          "internalType": "bool",
          "name": "approved",
          "type": "bool"
        }
      ],
      "name": "setZoraAuctionApproval",
      "outputs": [],
      "stateMutability": "nonpayable",
      "type": "function"
    },
    {
      "inputs": [
        {
          "internalType": "uint256",
          "name": "auctionId",
          "type": "uint256"
        },
        {
          "internalType": "uint256",
          "name": "reservePrice",
          "type": "uint256"
        }
      ],
      "name": "setZoraAuctionReservePrice",
      "outputs": [],
      "stateMutability": "nonpayable",
      "type": "function"
    },
    {
      "inputs": [
        {
          "internalType": "uint256",
          "name": "tokenId",
          "type": "uint256"
        },
        {
          "components": [
            {
              "internalType": "uint256",
              "name": "amount",
              "type": "uint256"
            },
            {
              "internalType": "address",
              "name": "currency",
              "type": "address"
            }
          ],
          "internalType": "struct IZora.Ask",
          "name": "ask",
          "type": "tuple"
        }
      ],
      "name": "setZoraMarketAsk",
      "outputs": [],
      "stateMutability": "nonpayable",
      "type": "function"
    },
    {
      "inputs": [
        {
          "internalType": "uint256",
          "name": "tokenId",
          "type": "uint256"
        },
        {
          "components": [
            {
              "components": [
                {
                  "internalType": "uint256",
                  "name": "value",
                  "type": "uint256"
                }
              ],
              "internalType": "struct IZora.D256",
              "name": "prevOwner",
              "type": "tuple"
            },
            {
              "components": [
                {
                  "internalType": "uint256",
                  "name": "value",
                  "type": "uint256"
                }
              ],
              "internalType": "struct IZora.D256",
              "name": "creator",
              "type": "tuple"
            },
            {
              "components": [
                {
                  "internalType": "uint256",
                  "name": "value",
                  "type": "uint256"
                }
              ],
              "internalType": "struct IZora.D256",
              "name": "owner",
              "type": "tuple"
            }
          ],
          "internalType": "struct IZora.BidShares",
          "name": "bidShares",
          "type": "tuple"
        }
      ],
      "name": "setZoraMarketBidShares",
      "outputs": [],
      "stateMutability": "nonpayable",
      "type": "function"
    },
    {
      "inputs": [
        {
          "internalType": "address[]",
          "name": "owners_",
          "type": "address[]"
        }
      ],
      "name": "setup",
      "outputs": [],
      "stateMutability": "nonpayable",
      "type": "function"
    },
    {
      "inputs": [
        {
          "internalType": "address",
          "name": "marketWrapper",
          "type": "address"
        },
        {
          "internalType": "address",
          "name": "nftContract",
          "type": "address"
        },
        {
          "internalType": "uint256",
          "name": "tokenId",
          "type": "uint256"
        },
        {
          "internalType": "uint256",
          "name": "auctionId",
          "type": "uint256"
        },
        {
          "internalType": "string",
          "name": "name",
          "type": "string"
        },
        {
          "internalType": "string",
          "name": "symbol",
          "type": "string"
        }
      ],
      "name": "startSplitParty",
      "outputs": [],
      "stateMutability": "nonpayable",
      "type": "function"
    },
    {
      "inputs": [
        {
          "internalType": "bytes4",
          "name": "interfaceId",
          "type": "bytes4"
        }
      ],
      "name": "supportsInterface",
      "outputs": [
        {
          "internalType": "bool",
          "name": "",
          "type": "bool"
        }
      ],
      "stateMutability": "pure",
      "type": "function"
    },
    {
      "inputs": [
        {
          "internalType": "address",
          "name": "prevOwner",
          "type": "address"
        },
        {
          "internalType": "address",
          "name": "oldOwner",
          "type": "address"
        },
        {
          "internalType": "address",
          "name": "newOwner",
          "type": "address"
        }
      ],
      "name": "swapOwner",
      "outputs": [],
      "stateMutability": "nonpayable",
      "type": "function"
    },
    {
      "inputs": [
        {
          "internalType": "address",
          "name": "operator",
          "type": "address"
        },
        {
          "internalType": "address",
          "name": "from",
          "type": "address"
        },
        {
          "internalType": "address",
          "name": "to",
          "type": "address"
        },
        {
          "internalType": "uint256",
          "name": "amount",
          "type": "uint256"
        },
        {
          "internalType": "bytes",
          "name": "",
          "type": "bytes"
        },
        {
          "internalType": "bytes",
          "name": "",
          "type": "bytes"
        }
      ],
      "name": "tokensReceived",
      "outputs": [],
      "stateMutability": "nonpayable",
      "type": "function"
    },
    {
      "inputs": [
        {
          "internalType": "address",
          "name": "tokenContract_",
          "type": "address"
        },
        {
          "internalType": "uint256",
          "name": "tokenId_",
          "type": "uint256"
        }
      ],
      "name": "untrustedBurn721",
      "outputs": [],
      "stateMutability": "nonpayable",
      "type": "function"
    },
    {
      "inputs": [
        {
          "internalType": "address",
          "name": "tokenContract_",
          "type": "address"
        },
        {
          "internalType": "address",
          "name": "newOwner_",
          "type": "address"
        },
        {
          "internalType": "uint256",
          "name": "tokenId_",
          "type": "uint256"
        }
      ],
      "name": "untrustedSafeTransfer721",
      "outputs": [],
      "stateMutability": "nonpayable",
      "type": "function"
    },
    {
      "inputs": [
        {
          "internalType": "address",
          "name": "tokenContract_",
          "type": "address"
        },
        {
          "internalType": "address",
          "name": "operator_",
          "type": "address"
        },
        {
          "internalType": "bool",
          "name": "approved_",
          "type": "bool"
        }
      ],
      "name": "untrustedSetApproval721",
      "outputs": [],
      "stateMutability": "nonpayable",
      "type": "function"
    },
    {
      "inputs": [
        {
          "internalType": "uint256",
          "name": "tokenId",
          "type": "uint256"
        },
        {
          "internalType": "string",
          "name": "metadataURI",
          "type": "string"
        }
      ],
      "name": "updateZoraMediaMetadataURI",
      "outputs": [],
      "stateMutability": "nonpayable",
      "type": "function"
    },
    {
      "inputs": [
        {
          "internalType": "uint256",
          "name": "tokenId",
          "type": "uint256"
        },
        {
          "internalType": "string",
          "name": "tokenURI",
          "type": "string"
        }
      ],
      "name": "updateZoraMediaTokenURI",
      "outputs": [],
      "stateMutability": "nonpayable",
      "type": "function"
    },
    {
      "inputs": [
        {
          "internalType": "uint256",
          "name": "tokenId",
          "type": "uint256"
        },
        {
          "internalType": "string",
          "name": "tokenURI",
          "type": "string"
        },
        {
          "internalType": "string",
          "name": "metadataURI",
          "type": "string"
        }
      ],
      "name": "updateZoraMediaURIs",
      "outputs": [],
      "stateMutability": "nonpayable",
      "type": "function"
    },
    {
      "inputs": [],
      "name": "weth",
      "outputs": [
        {
          "internalType": "address",
          "name": "",
          "type": "address"
        }
      ],
      "stateMutability": "view",
      "type": "function"
    },
    {
      "stateMutability": "payable",
      "type": "receive"
    }
  ],
  "bytecode": "0x608060405234801561001057600080fd5b506001600855613ff1806100256000396000f3fe6080604052600436106103025760003560e01c8063a0e67e2b11610190578063d2ac178f116100dc578063e318b52b11610095578063f23a6e611161006f578063f23a6e61146109c2578063f77ed9f5146109e2578063f80d295d14610a02578063fbe5ce0a14610a2257600080fd5b8063e318b52b1461095a578063e9f8b9671461097a578063ea480c6c1461099a57600080fd5b8063d2ac178f14610892578063d2ef0795146108b2578063d6f0bd9e146108d2578063d9a1b96c146108f2578063debb73fe14610912578063e1860d6b1461093257600080fd5b8063bc197c8111610149578063c3a3d98411610123578063c3a3d9841461080a578063c7b0d9671461082a578063c7ba4fa01461084a578063cf892ad51461086a57600080fd5b8063bc197c81146107aa578063bd5b853b146107ca578063c12faf63146107ea57600080fd5b8063a0e67e2b146106f2578063a21a43e714610714578063a303c8a114610734578063ab91f9e314610754578063b1bc078114610774578063ba0bafb41461079457600080fd5b806341b223761161024f5780635e95b7071161020857806381e580d3116101e257806381e580d3146106725780638ffb5c97146106925780639473e6a4146106b25780639841d1ef146106d257600080fd5b80635e95b7071461060a5780636329bb681461062a5780637065cb481461065257600080fd5b806341b223761461053a57806347143c54146105625780634d7526241461058a5780634eca78e5146105aa57806352d96b62146105ca5780635777877a146105ea57600080fd5b80632f54bf6e116102bc578063338b1d3111610296578063338b1d31146104ae5780633456c895146104c35780633f26479e146104e35780633fc8cef3146104fa57600080fd5b80632f54bf6e1461044e5780632f8d7c601461046e5780633301689f1461048e57600080fd5b806223de291461035a57806301ffc9a71461037c578063047e7935146103b1578063150b7a02146103d15780631ef18af81461040a5780632eb4a7ab1461042a57600080fd5b366103555734600560008282546103199190613ecc565b909155505060405134815233907fbfe611b001dfcd411432f7bf0d79b82b4b2ee81511edac123a3403c357fb972a9060200160405180910390a2005b600080fd5b34801561036657600080fd5b5061037a610375366004612db1565b610a42565b005b34801561038857600080fd5b5061039c61039736600461331b565b610a9e565b60405190151581526020015b60405180910390f35b3480156103bd57600080fd5b5061037a6103cc366004613419565b610af0565b3480156103dd57600080fd5b506103f16103ec366004612f76565b610b68565b6040516001600160e01b031990911681526020016103a8565b34801561041657600080fd5b5061037a610425366004613758565b610bc8565b34801561043657600080fd5b5061044060005481565b6040519081526020016103a8565b34801561045a57600080fd5b5061039c610469366004612cf7565b610c43565b34801561047a57600080fd5b5061037a610489366004613376565b610c7b565b34801561049a57600080fd5b5061037a6104a936600461319e565b610d26565b3480156104ba57600080fd5b5061037a610d77565b3480156104cf57600080fd5b5061037a6104de3660046131cb565b610e74565b3480156104ef57600080fd5b50610440620f424081565b34801561050657600080fd5b5061052273c778417e063141139fce010982780140aa0cd5ab81565b6040516001600160a01b0390911681526020016103a8565b34801561054657600080fd5b50610522737c2668bd0d3c050703cecc956c11bd520c26f7d481565b34801561056e57600080fd5b5061052273b725682d5adadf8dfd657f8e7728744c0835ecd981565b34801561059657600080fd5b5061037a6105a5366004613612565b610ef2565b3480156105b657600080fd5b5061037a6105c536600461356b565b610f64565b3480156105d657600080fd5b5061037a6105e5366004613479565b610fa6565b3480156105f657600080fd5b5061037a61060536600461323c565b611094565b34801561061657600080fd5b5061037a61062536600461305f565b6110ca565b34801561063657600080fd5b5061052273eac226b370d77f436b5780b4dd4a49e59e8bea3781565b34801561065e57600080fd5b5061037a61066d366004612cf7565b611166565b34801561067e57600080fd5b5061044061068d366004613612565b61127f565b34801561069e57600080fd5b506104406106ad366004613887565b6112a0565b3480156106be57600080fd5b5061037a6106cd3660046130f6565b6112cb565b3480156106de57600080fd5b5061037a6106ed366004612f36565b61166f565b3480156106fe57600080fd5b506107076116b3565b6040516103a89190613b1c565b34801561072057600080fd5b5061037a61072f366004612ef7565b6117bf565b34801561074057600080fd5b5061037a61074f366004613267565b6117fe565b34801561076057600080fd5b5061037a61076f366004613887565b6118e2565b34801561078057600080fd5b5061037a61078f366004613343565b61192a565b3480156107a057600080fd5b5061044060015481565b3480156107b657600080fd5b506103f16107c5366004612e5e565b611970565b3480156107d657600080fd5b5061037a6107e53660046132c0565b6119c8565b3480156107f657600080fd5b5061037a61080536600461385f565b611a49565b34801561081657600080fd5b5061037a610825366004613267565b611a8b565b34801561083657600080fd5b5061037a610845366004613734565b611aa5565b34801561085657600080fd5b5061037a610865366004613806565b611aee565b34801561087657600080fd5b50610522737e335506443252196cd5a61bd4a1906d79791fc681565b34801561089e57600080fd5b5061037a6108ad3660046135b7565b611b30565b3480156108be57600080fd5b5061039c6108cd366004613642565b611d6d565b3480156108de57600080fd5b5061037a6108ed366004613612565b611d98565b3480156108fe57600080fd5b5061037a61090d3660046136bc565b611dd9565b34801561091e57600080fd5b5061037a61092d366004613666565b611e77565b34801561093e57600080fd5b506105227385e946e1bd35ec91044dc83a5ddab2b6a262ffa681565b34801561096657600080fd5b5061037a610975366004612d67565b611fc6565b34801561098657600080fd5b5061037a61099536600461383c565b6121ee565b3480156109a657600080fd5b5061052273e7dd1252f50b3d845590da0c5eadd985049a03ce81565b3480156109ce57600080fd5b506103f16109dd366004612fe6565b612227565b3480156109ee57600080fd5b5061037a6109fd366004613758565b61228f565b348015610a0e57600080fd5b5061037a610a1d3660046137a1565b6122ca565b348015610a2e57600080fd5b5061037a610a3d366004612d2f565b6123a9565b604080516001600160a01b038a8116825289811660208301528816818301526060810187905290517f0fe6507bce457d6e175fa9bc1db1b817f39e37b1f5c91695fd1a62848bc433b79181900360800190a15050505050505050565b60006001600160e01b03198216630271189760e51b1480610acf57506001600160e01b03198216630a85bd0160e11b145b80610aea57506001600160e01b031982166301ffc9a760e01b145b92915050565b610af933612497565b6040516339112ff360e21b8152737e335506443252196cd5a61bd4a1906d79791fc69063e444bfcc90610b329085908590600401613bdd565b600060405180830381600087803b158015610b4c57600080fd5b505af1158015610b60573d6000803e3d6000fd5b505050505050565b604080516001600160a01b038088168252861660208201529081018490526000907f941a9d9a9af7f97737c018d13918859e12f44e16c4b4c6ac922dacf021cfbf149060600160405180910390a150630a85bd0160e11b95945050505050565b610bd133612497565b6040516318e97fd160e01b8152737c2668bd0d3c050703cecc956c11bd520c26f7d4906318e97fd190610c0c90869086908690600401613d33565b600060405180830381600087803b158015610c2657600080fd5b505af1158015610c3a573d6000803e3d6000fd5b50505050505050565b60006001600160a01b038216600114801590610aea5750506001600160a01b0390811660009081526006602052604090205416151590565b610c8433612497565b604051631acf450d60e21b815273eac226b370d77f436b5780b4dd4a49e59e8bea3790636b3d143490610cc9908b908b908b908b908b908b908b908b90600401613b85565b602060405180830381600087803b158015610ce357600080fd5b505af1158015610cf7573d6000803e3d6000fd5b505050506040513d601f19601f82011682018060405250810190610d1b9190612d13565b505050505050505050565b610d2f33612497565b6040516329ec16dd60e01b81526001600160a01b03831660048201528115156024820152737e335506443252196cd5a61bd4a1906d79791fc6906329ec16dd90604401610b32565b600060015460001415610d8b575047610d90565b506005545b600060055580610de75760405162461bcd60e51b815260206004820152601e60248201527f4e6f206164646974696f6e616c2066756e647320666f722077696e646f77000060448201526064015b60405180910390fd5b600380546001818101835560009283527fc2575a0e9e593c00f959f8c92f12db2869c3395a3b0502d05e2516446f71f85b909101839055805490918291610e2f908390613ecc565b909155505060015460408051918252602082018390527ff0840b82b46c1dc7df62cae652baa1b5588ce37b6a1236ed1dcf4caf34d738ac91015b60405180910390a150565b610e7d33612497565b604051633d3d090160e11b8152737c2668bd0d3c050703cecc956c11bd520c26f7d490637a7a120290610eba908790879087908790600401613a4c565b600060405180830381600087803b158015610ed457600080fd5b505af1158015610ee8573d6000803e3d6000fd5b5050505050505050565b610efb33612497565b6040516396b5a75560e01b81526004810182905273e7dd1252f50b3d845590da0c5eadd985049a03ce906396b5a755906024015b600060405180830381600087803b158015610f4957600080fd5b505af1158015610f5d573d6000803e3d6000fd5b5050505050565b610f6d33612497565b604051632cca323760e01b8152737c2668bd0d3c050703cecc956c11bd520c26f7d490632cca323790610b329085908590600401613cbf565b610faf33612497565b604051630861804f60e11b8152600090737e335506443252196cd5a61bd4a1906d79791fc6906310c3009e90610ff9908d908d908d908d908d908d908d908d908d90600401613c0b565b602060405180830381600087803b15801561101357600080fd5b505af1158015611027573d6000803e3d6000fd5b505050506040513d601f19601f8201168201806040525081019061104b919061362a565b60408051828152602081018690529192507f0482ed7f45abb74db181ea384a057b620809671d189de9dd15779f64d9d7330791015b60405180910390a150505050505050505050565b61109d33612497565b604051630852cd8d60e31b8152600481018290526001600160a01b038316906342966c6890602401610b32565b6110d333612497565b604051636bea54e760e11b815273b725682d5adadf8dfd657f8e7728744c0835ecd99063d7d4a9ce9061111490899089908990899089908990600401613a00565b602060405180830381600087803b15801561112e57600080fd5b505af1158015611142573d6000803e3d6000fd5b505050506040513d601f19601f82011682018060405250810190610c3a9190612d13565b61116f33612497565b6001600160a01b0381161580159061119157506001600160a01b038116600114155b80156111a657506001600160a01b0381163014155b6111af57600080fd5b6001600160a01b0381811660009081526006602052604090205416156111d457600080fd5b60066020527f3e5fec24aa4dc4e5aee2e025e51e1392c72a2500577559fae9665c6d52bd6a3180546001600160a01b038381166000818152604081208054939094166001600160a01b03199384161790935560018352835490911617909155600780549161124183613f51565b90915550506040516001600160a01b03821681527f9465fa0c962cc76958e6373a993326400c1c94f8be2fe3a952adfa7f60b2ea2690602001610e69565b6003818154811061128f57600080fd5b600091825260209091200154905081565b60006112b0620f42406064613f04565b6112ba8385613f04565b6112c49190613ee4565b9392505050565b6113a8828260008181106112ef57634e487b7160e01b600052603260045260246000fd5b90506020028101906113019190613e69565b61130b9080613e22565b808060200260200160405190810160405280939291908181526020018383602002808284376000920182905250805493506113a392508b91508a908161136157634e487b7160e01b600052603260045260246000fd5b90506020020160208101906113769190612cf7565b8888600081811061139757634e487b7160e01b600052603260045260246000fd5b90506020020135612507565b61254f565b6113f45760405162461bcd60e51b815260206004820152601b60248201527f496e76616c69642070726f6f6620666f72204163636f756e74203000000000006044820152606401610dde565b6040516370a0823160e01b81523060048201526000906001600160a01b038916906370a082319060240160206040518083038186803b15801561143657600080fd5b505afa15801561144a573d6000803e3d6000fd5b505050506040513d601f19601f8201168201806040525081019061146e919061362a565b90506000805b878110156115f65761154785858381811061149f57634e487b7160e01b600052603260045260246000fd5b90506020028101906114b19190613e69565b6114bb9080613e22565b8080602002602001604051908101604052809392919081815260200183836020028082843760009201829052505492506113a391508d90508c8681811061151257634e487b7160e01b600052603260045260246000fd5b90506020020160208101906115279190612cf7565b8b8b8781811061139757634e487b7160e01b600052603260045260246000fd5b6115635760405162461bcd60e51b8152600401610dde90613c98565b60006115958489898581811061158957634e487b7160e01b600052603260045260246000fd5b905060200201356112a0565b90506115d68b8b8b858181106115bb57634e487b7160e01b600052603260045260246000fd5b90506020020160208101906115d09190612cf7565b8361260c565b6115e08184613ecc565b92505080806115ee90613f51565b915050611474565b5060006116038284613f23565b90508015611630576116308a8a8a60008181106115bb57634e487b7160e01b600052603260045260246000fd5b604080516001600160a01b038c168152602081018590527f73001563b3c2e14efd545d6f9a0740c1937da3aa8d4320550fcef35ddc9797449101611080565b61167833612497565b604051632142170760e11b81523360048201526001600160a01b038381166024830152604482018390528416906342842e0e90606401610c0c565b606060006007546001600160401b038111156116df57634e487b7160e01b600052604160045260246000fd5b604051908082528060200260200182016040528015611708578160200160208202803683370190505b506001600090815260066020527f3e5fec24aa4dc4e5aee2e025e51e1392c72a2500577559fae9665c6d52bd6a3154919250906001600160a01b03165b6001600160a01b0381166001146117b7578083838151811061177757634e487b7160e01b600052603260045260246000fd5b6001600160a01b039283166020918202929092018101919091529181166000908152600690925260409091205416816117af81613f51565b925050611745565b509092915050565b6117c833612497565b60405163a22cb46560e01b81526001600160a01b038381166004830152821515602483015284169063a22cb46590604401610c0c565b61184182828080602002602001604051908101604052809392919081815260200183836020028082843760009201829052505492506113a3915088905087612507565b61185d5760405162461bcd60e51b8152600401610dde90613c98565b6000805b6001548110156118d7576118758187611d6d565b6118c557611883818761269e565b6118b8600382815481106118a757634e487b7160e01b600052603260045260246000fd5b9060005260206000200154866112a0565b6118c29083613ecc565b91505b806118cf81613f51565b915050611861565b50610b6085826126d1565b6118eb33612497565b604051636f8a41e160e01b8152600481018390526024810182905273e7dd1252f50b3d845590da0c5eadd985049a03ce90636f8a41e190604401610b32565b61193333612497565b7f4737457377f528cc8afd815f73ecb8b05df80d047dbffc41c17750a4033592bc8282604051611964929190613b69565b60405180910390a15050565b60007f762f561e1c5dd9bc02eb3404c59dd1c32e6aa53a8097b703e4e0c14870869d7d8989898989896040516119ab969594939291906139b3565b60405180910390a15063bc197c8160e01b98975050505050505050565b611a0482828080602002602001604051908101604052809392919081815260200183836020028082843760009201919091525061283792505050565b7f92e5baf3cc4552d78b76a780360e152809a8e6aabf13c0e507ef6ed5c0dff7518282604051611a35929190613ace565b60405180910390a1611a456129d5565b5050565b611a5233612497565b60405163ba33939960e01b81527385e946e1bd35ec91044dc83a5ddab2b6a262ffa69063ba33939990610b329085908590600401613dae565b611a93610d77565b611a9f84848484612a50565b50505050565b611aae33612497565b604051634b9eeda560e11b815260048101839052811515602482015273e7dd1252f50b3d845590da0c5eadd985049a03ce9063973ddb4a90604401610b32565b611af733612497565b60405163062f24b760e41b81527385e946e1bd35ec91044dc83a5ddab2b6a262ffa6906362f24b7090610b329085908590600401613d4d565b611b3933612497565b604051632cca323760e01b8152737c2668bd0d3c050703cecc956c11bd520c26f7d490632cca323790611b729087908790600401613cbf565b600060405180830381600087803b158015611b8c57600080fd5b505af1158015611ba0573d6000803e3d6000fd5b5050505060006001737c2668bd0d3c050703cecc956c11bd520c26f7d46001600160a01b03166318160ddd6040518163ffffffff1660e01b815260040160206040518083038186803b158015611bf557600080fd5b505afa158015611c09573d6000803e3d6000fd5b505050506040513d601f19601f82011682018060405250810190611c2d919061362a565b611c379190613f23565b604051634f6ccce760e01b815260048101829052909150600090737c2668bd0d3c050703cecc956c11bd520c26f7d490634f6ccce79060240160206040518083038186803b158015611c8857600080fd5b505afa158015611c9c573d6000803e3d6000fd5b505050506040513d601f19601f82011682018060405250810190611cc0919061362a565b6040516375e9249f60e01b815290915073e7dd1252f50b3d845590da0c5eadd985049a03ce906375e9249f90611d1b908490737c2668bd0d3c050703cecc956c11bd520c26f7d4908990899030906000908190600401613cf5565b602060405180830381600087803b158015611d3557600080fd5b505af1158015611d49573d6000803e3d6000fd5b505050506040513d601f19601f82011682018060405250810190610c3a919061362a565b600060046000611d7d8585612b18565b815260208101919091526040016000205460ff169392505050565b611da133612497565b6040516328220f3560e01b8152600481018290527385e946e1bd35ec91044dc83a5ddab2b6a262ffa6906328220f3590602401610f2f565b611de233612497565b6040516375e9249f60e01b815273e7dd1252f50b3d845590da0c5eadd985049a03ce906375e9249f90611e25908a908a908a908a908a908a908a90600401613cf5565b602060405180830381600087803b158015611e3f57600080fd5b505af1158015611e53573d6000803e3d6000fd5b505050506040513d601f19601f82011682018060405250810190610ee8919061362a565b8460015411611ec85760405162461bcd60e51b815260206004820181905260248201527f63616e6e6f7420636c61696d20666f722061206675747572652077696e646f776044820152606401610dde565b611ed28585611d6d565b15611f305760405162461bcd60e51b815260206004820152602860248201527f4163636f756e7420616c726561647920636c61696d65642074686520676976656044820152676e2077696e646f7760c01b6064820152608401610dde565b611f3a858561269e565b611f7d82828080602002602001604051908101604052809392919081815260200183836020028082843760009201829052505492506113a3915088905087612507565b611f995760405162461bcd60e51b8152600401610dde90613c98565b610b6084611fc1600388815481106118a757634e487b7160e01b600052603260045260246000fd5b6126d1565b611fcf33612497565b6001600160a01b03811615801590611ff157506001600160a01b038116600114155b801561200657506001600160a01b0381163014155b6120365760405162461bcd60e51b81526020600482015260016024820152601960f91b6044820152606401610dde565b6001600160a01b0381811660009081526006602052604090205416156120825760405162461bcd60e51b81526020600482015260016024820152603360f81b6044820152606401610dde565b6001600160a01b038216158015906120a457506001600160a01b038216600114155b6120d45760405162461bcd60e51b81526020600482015260016024820152600d60fa1b6044820152606401610dde565b6001600160a01b038381166000908152600660205260409020548116908316146121245760405162461bcd60e51b81526020600482015260016024820152603560f81b6044820152606401610dde565b6001600160a01b038281166000818152600660209081526040808320805487871680865283862080549289166001600160a01b0319938416179055968a1685528285208054821690971790965592849052825490941690915591519081527ff8d49fc529812e9a7c5c50e69c20f0dccc0db8fa95c98bc58cc9a4f1c1299eaf910160405180910390a16040516001600160a01b03821681527f9465fa0c962cc76958e6373a993326400c1c94f8be2fe3a952adfa7f60b2ea269060200160405180910390a1505050565b6040516375aab41d60e11b81527385e946e1bd35ec91044dc83a5ddab2b6a262ffa69063eb55683a90610b329085908590600401613d86565b604080516001600160a01b03808916825287166020820152908101859052606081018490526000907ffae60880665b87af033fc873390c3749e126b4cd010b87a7f1191dbd2b32f1979060800160405180910390a15063f23a6e6160e01b9695505050505050565b6040516375682e7960e01b8152737c2668bd0d3c050703cecc956c11bd520c26f7d4906375682e7990610c0c90869086908690600401613d33565b6122d333612497565b6040516318e97fd160e01b8152737c2668bd0d3c050703cecc956c11bd520c26f7d4906318e97fd19061230e90889088908890600401613d33565b600060405180830381600087803b15801561232857600080fd5b505af115801561233c573d6000803e3d6000fd5b50506040516375682e7960e01b8152737c2668bd0d3c050703cecc956c11bd520c26f7d492506375682e79915061237b90889086908690600401613d33565b600060405180830381600087803b15801561239557600080fd5b505af1158015610d1b573d6000803e3d6000fd5b6123b233612497565b6001600160a01b038116158015906123d457506001600160a01b038116600114155b6123dd57600080fd5b6001600160a01b0382811660009081526006602052604090205481169082161461240657600080fd5b6001600160a01b03818116600081815260066020526040808220805487861684529183208054929095166001600160a01b0319928316179094559181528254909116909155600780549161245983613f3a565b90915550506040516001600160a01b03821681527ff8d49fc529812e9a7c5c50e69c20f0dccc0db8fa95c98bc58cc9a4f1c1299eaf90602001611964565b6124a081610c43565b6125045760405162461bcd60e51b815260206004820152602f60248201527f43616c6c6572206973206e6f7420612077686974656c6973746564206f776e6560448201526e1c881bd9881d1a1a5cc814dc1b1a5d608a1b6064820152608401610dde565b50565b6040516bffffffffffffffffffffffff19606084901b166020820152603481018290526000906054015b60405160208183030381529060405280519060200120905092915050565b600081815b855181101561260157600086828151811061257f57634e487b7160e01b600052603260045260246000fd5b602002602001015190508083116125c15760408051602081018590529081018290526060016040516020818303038152906040528051906020012092506125ee565b60408051602081018390529081018490526060016040516020818303038152906040528051906020012092505b50806125f981613f51565b915050612554565b509092149392505050565b60405163a9059cbb60e01b81526001600160a01b038381166004830152602482018390526000919085169063a9059cbb90604401602060405180830381600087803b15801561265a57600080fd5b505af115801561266e573d6000803e3d6000fd5b505050506040513d601f19601f8201168201806040525081019061269291906132ff565b905080611a9f57600080fd5b6001600460006126ae8585612b18565b81526020810191909152604001600020805460ff19169115159190911790555050565b60006126dd8383612b48565b9050806127e75773c778417e063141139fce010982780140aa0cd5ab6001600160a01b031663d0e30db0836040518263ffffffff1660e01b81526004016000604051808303818588803b15801561273357600080fd5b505af1158015612747573d6000803e3d6000fd5b505060405163a9059cbb60e01b81526001600160a01b03871660048201526024810186905273c778417e063141139fce010982780140aa0cd5ab935063a9059cbb92506044019050602060405180830381600087803b1580156127a957600080fd5b505af11580156127bd573d6000803e3d6000fd5b505050506040513d601f19601f820116820180604052508101906127e191906132ff565b50600190505b604080516001600160a01b0385168152602081018490528215158183015290517fdbd5389f52533f4cbd998e752125a5a4eaa0b813b399ad15f775ec0e8438620d9181900360600190a192915050565b600854156128965760405162461bcd60e51b815260206004820152602660248201527f53657475702068617320616c7265616479206265656e20636f6d706c657465646044820152651037b731b29760d11b6064820152608401610dde565b600160005b825181101561299f5760008382815181106128c657634e487b7160e01b600052603260045260246000fd5b6020026020010151905060006001600160a01b0316816001600160a01b0316141580156128fd57506001600160a01b038116600114155b801561291257506001600160a01b0381163014155b80156129305750806001600160a01b0316836001600160a01b031614155b61293957600080fd5b6001600160a01b03818116600090815260066020526040902054161561295e57600080fd5b6001600160a01b03928316600090815260066020526040902080546001600160a01b031916938216939093179092558061299781613f51565b91505061289b565b506001600160a01b0316600090815260066020526040902080546001600160a01b03191660019081179091559051600755600855565b60405163a22cb46560e01b815273e7dd1252f50b3d845590da0c5eadd985049a03ce600482015260016024820152737c2668bd0d3c050703cecc956c11bd520c26f7d49063a22cb46590604401600060405180830381600087803b158015612a3c57600080fd5b505af1158015611a9f573d6000803e3d6000fd5b612a9382828080602002602001604051908101604052809392919081815260200183836020028082843760009201829052505492506113a3915088905087612507565b612aaf5760405162461bcd60e51b8152600401610dde90613c98565b6000805b6001548110156118d757612ac78187611d6d565b612b0657612ad5818761269e565b612af9600382815481106118a757634e487b7160e01b600052603260045260246000fd5b612b039083613ecc565b91505b80612b1081613f51565b915050612ab3565b6000828260405160200161253192919091825260601b6bffffffffffffffffffffffff1916602082015260340190565b600080836001600160a01b03168361753090604051600060405180830381858888f193505050503d8060008114612b9b576040519150601f19603f3d011682016040523d82523d6000602084013e612ba0565b606091505b509095945050505050565b60008083601f840112612bbc578182fd5b5081356001600160401b03811115612bd2578182fd5b6020830191508360208260051b8501011115612bed57600080fd5b9250929050565b60008083601f840112612c05578182fd5b5081356001600160401b03811115612c1b578182fd5b602083019150836020828501011115612bed57600080fd5b600082601f830112612c43578081fd5b81356001600160401b0380821115612c5d57612c5d613f82565b604051601f8301601f19908116603f01168101908282118183101715612c8557612c85613f82565b81604052838152866020858801011115612c9d578485fd5b8360208701602083013792830160200193909352509392505050565b600060608284031215612cca578081fd5b50919050565b600060808284031215612cca578081fd5b803560ff81168114612cf257600080fd5b919050565b600060208284031215612d08578081fd5b81356112c481613f98565b600060208284031215612d24578081fd5b81516112c481613f98565b60008060408385031215612d41578081fd5b8235612d4c81613f98565b91506020830135612d5c81613f98565b809150509250929050565b600080600060608486031215612d7b578081fd5b8335612d8681613f98565b92506020840135612d9681613f98565b91506040840135612da681613f98565b809150509250925092565b60008060008060008060008060c0898b031215612dcc578384fd5b8835612dd781613f98565b97506020890135612de781613f98565b96506040890135612df781613f98565b95506060890135945060808901356001600160401b0380821115612e19578586fd5b612e258c838d01612bf4565b909650945060a08b0135915080821115612e3d578384fd5b50612e4a8b828c01612bf4565b999c989b5096995094979396929594505050565b60008060008060008060008060a0898b031215612e79578182fd5b8835612e8481613f98565b97506020890135612e9481613f98565b965060408901356001600160401b0380821115612eaf578384fd5b612ebb8c838d01612bab565b909850965060608b0135915080821115612ed3578384fd5b612edf8c838d01612bab565b909650945060808b0135915080821115612e3d578384fd5b600080600060608486031215612f0b578081fd5b8335612f1681613f98565b92506020840135612f2681613f98565b91506040840135612da681613fad565b600080600060608486031215612f4a578081fd5b8335612f5581613f98565b92506020840135612f6581613f98565b929592945050506040919091013590565b600080600080600060808688031215612f8d578283fd5b8535612f9881613f98565b94506020860135612fa881613f98565b93506040860135925060608601356001600160401b03811115612fc9578182fd5b612fd588828901612bf4565b969995985093965092949392505050565b60008060008060008060a08789031215612ffe578384fd5b863561300981613f98565b9550602087013561301981613f98565b9450604087013593506060870135925060808701356001600160401b03811115613041578283fd5b61304d89828a01612bf4565b979a9699509497509295939492505050565b60008060008060008060c08789031215613077578384fd5b863561308281613f98565b9550602087013561309281613f98565b9450604087013593506060870135925060808701356001600160401b03808211156130bb578384fd5b6130c78a838b01612c33565b935060a08901359150808211156130dc578283fd5b506130e989828a01612c33565b9150509295509295509295565b60008060008060008060006080888a031215613110578081fd5b873561311b81613f98565b965060208801356001600160401b0380821115613136578283fd5b6131428b838c01612bab565b909850965060408a013591508082111561315a578283fd5b6131668b838c01612bab565b909650945060608a013591508082111561317e578283fd5b5061318b8a828b01612bab565b989b979a50959850939692959293505050565b600080604083850312156131b0578182fd5b82356131bb81613f98565b91506020830135612d5c81613fad565b60008060008061012085870312156131e1578182fd5b84356131ec81613f98565b935060208501356001600160401b03811115613206578283fd5b61321287828801612cd0565b9350506132228660408701612cb9565b91506132318660a08701612cd0565b905092959194509250565b6000806040838503121561324e578182fd5b823561325981613f98565b946020939093013593505050565b6000806000806060858703121561327c578182fd5b843561328781613f98565b93506020850135925060408501356001600160401b038111156132a8578283fd5b6132b487828801612bab565b95989497509550505050565b600080602083850312156132d2578182fd5b82356001600160401b038111156132e7578283fd5b6132f385828601612bab565b90969095509350505050565b600060208284031215613310578081fd5b81516112c481613fad565b60006020828403121561332c578081fd5b81356001600160e01b0319811681146112c4578182fd5b60008060208385031215613355578182fd5b82356001600160401b0381111561336a578283fd5b6132f385828601612bf4565b60008060008060008060008060c0898b031215613391578182fd5b88356001600160401b03808211156133a7578384fd5b6133b38c838d01612bf4565b909a50985060208b01359150808211156133cb578384fd5b506133d88b828c01612bf4565b90975095505060408901356133ec81613f98565b935060608901356133fc81613f98565b979a969950949793969295929450505060808201359160a0013590565b6000806040838503121561342b578182fd5b82356001600160401b0380821115613441578384fd5b61344d86838701612c33565b93506020850135915080821115613462578283fd5b5061346f85828601612c33565b9150509250929050565b60008060008060008060008060006101208a8c031215613497578283fd5b89356001600160401b03808211156134ad578485fd5b6134b98d838e01612c33565b9a5060208c01359150808211156134ce578485fd5b6134da8d838e01612c33565b995060408c01359150808211156134ef578485fd5b6134fb8d838e01612c33565b985060608c0135915080821115613510578485fd5b61351c8d838e01612c33565b975060808c0135965060a08c0135915080821115613538578485fd5b506135458c828d01612c33565b94505060c08a0135925060e08a013591506101008a013590509295985092959850929598565b6000806080838503121561357d578182fd5b82356001600160401b03811115613592578283fd5b61359e85828601612cd0565b9250506135ae8460208501612cb9565b90509250929050565b60008060008060c085870312156135cc578182fd5b84356001600160401b038111156135e1578283fd5b6135ed87828801612cd0565b9450506135fd8660208701612cb9565b939693955050505060808201359160a0013590565b600060208284031215613623578081fd5b5035919050565b60006020828403121561363b578081fd5b5051919050565b60008060408385031215613654578182fd5b823591506020830135612d5c81613f98565b60008060008060006080868803121561367d578283fd5b85359450602086013561368f81613f98565b93506040860135925060608601356001600160401b038111156136b0578182fd5b612fd588828901612bab565b600080600080600080600060e0888a0312156136d6578081fd5b8735965060208801356136e881613f98565b95506040880135945060608801359350608088013561370681613f98565b925061371460a08901612ce1565b915060c088013561372481613f98565b8091505092959891949750929550565b60008060408385031215613746578182fd5b823591506020830135612d5c81613fad565b60008060006040848603121561376c578081fd5b8335925060208401356001600160401b03811115613788578182fd5b61379486828701612bf4565b9497909650939450505050565b6000806000806000606086880312156137b8578283fd5b8535945060208601356001600160401b03808211156137d5578485fd5b6137e189838a01612bf4565b909650945060408801359150808211156137f9578283fd5b50612fd588828901612bf4565b6000808284036060811215613819578283fd5b833592506040601f198201121561382e578182fd5b506020830190509250929050565b6000806080838503121561384e578182fd5b823591506135ae8460208501612cb9565b60008082840360c0811215613872578283fd5b8335925060a0601f198201121561382e578182fd5b60008060408385031215613899578182fd5b50508035926020909101359150565b81835260006001600160fb1b038311156138c0578081fd5b8260051b80836020870137939093016020019283525090919050565b81835281816020850137506000828201602090810191909152601f909101601f19169091010190565b60008151808452815b8181101561392a5760208185018101518683018201520161390e565b8181111561393b5782602083870101525b50601f01601f19169290920160200192915050565b600061395c8283613e88565b6080855261396e6080860182846138dc565b91505061397e6020840184613e88565b85830360208701526139918382846138dc565b9250505060408301356040850152606083013560608501528091505092915050565b6001600160a01b038781168252861660208201526080604082018190526000906139e090830186886138a8565b82810360608401526139f38185876138a8565b9998505050505050505050565b6001600160a01b03878116825286166020820152604081018590526060810184905260c060808201819052600090613a3a90830185613905565b82810360a08401526139f38185613905565b6001600160a01b038516815261012060208201819052600090613a7183820187613950565b915050613a9560408301858035825260208082013590830152604090810135910152565b823560a083015260ff613aaa60208501612ce1565b1660c0830152604083013560e0830152606083013561010083015295945050505050565b60208082528181018390526000908460408401835b86811015613b11578235613af681613f98565b6001600160a01b031682529183019190830190600101613ae3565b509695505050505050565b6020808252825182820181905260009190848201906040850190845b81811015613b5d5783516001600160a01b031683529284019291840191600101613b38565b50909695505050505050565b602081526000613b7d6020830184866138dc565b949350505050565b60c081526000613b9960c083018a8c6138dc565b8281036020840152613bac81898b6138dc565b6001600160a01b03978816604085015295909616606083015250608081019290925260a09091015295945050505050565b604081526000613bf06040830185613905565b8281036020840152613c028185613905565b95945050505050565b6000610120808352613c1f8184018d613905565b90508281036020840152613c33818c613905565b90508281036040840152613c47818b613905565b90508281036060840152613c5b818a613905565b905087608084015282810360a0840152613c758188613905565b60c0840196909652505060e0810192909252610100909101529695505050505050565b6020808252600d908201526c24b73b30b634b210383937b7b360991b604082015260600190565b608081526000613cd26080830185613950565b90506112c460208301848035825260208082013590830152604090810135910152565b9687526001600160a01b039586166020880152604087019490945260608601929092528316608085015260ff1660a08401521660c082015260e00190565b838152604060208201526000613c026040830184866138dc565b6000606082019050838252823560208301526020830135613d6d81613f98565b6001600160a01b03166040929092019190915292915050565b828152608081016112c460208301848035825260208082013590830152604090810135910152565b600060c082019050838252823560208301526020830135613dce81613f98565b6001600160a01b0390811660408481019190915284013590613def82613f98565b808216606085015260608501359150613e0782613f98565b80821660808501525050608083013560a08301529392505050565b6000808335601e19843603018112613e38578283fd5b8301803591506001600160401b03821115613e51578283fd5b6020019150600581901b3603821315612bed57600080fd5b60008235601e19833603018112613e7e578182fd5b9190910192915050565b6000808335601e19843603018112613e9e578283fd5b83016020810192503590506001600160401b03811115613ebd57600080fd5b803603831315612bed57600080fd5b60008219821115613edf57613edf613f6c565b500190565b600082613eff57634e487b7160e01b81526012600452602481fd5b500490565b6000816000190483118215151615613f1e57613f1e613f6c565b500290565b600082821015613f3557613f35613f6c565b500390565b600081613f4957613f49613f6c565b506000190190565b6000600019821415613f6557613f65613f6c565b5060010190565b634e487b7160e01b600052601160045260246000fd5b634e487b7160e01b600052604160045260246000fd5b6001600160a01b038116811461250457600080fd5b801515811461250457600080fdfea2646970667358221220eae195016f594729bd03b05a7d8757c9b8378accb2d815069bac93ed0f2983cf64736f6c63430008040033",
  "linkReferences": {},
  "deployedLinkReferences": {}
}